:020000040800F2
:10000000B025002029010008A55D0008394000083E
:1000100000000000000000000000000000000000E0
:100020000000000000000000000000004967000818
:100030000000000000000000D15E0008616C0008B4
:100040003B0100083B0100083B0100083B010008A0
:100050003B0100083B0100083B0100083B01000890
:100060003B0100083B010008192F00083B01000874
:100070003B0100083B0100083B0100083B01000870
:10008000316D00083B0100083B0100083B010008FE
:100090003B0100083B0100083B0100083B01000850
:1000A0003B0100083B0100083B010008F9890008FA
:1000B0003B0100083B0100083B0100088198000853
:1000C0004B1C70B4111C5B084A880E88024406441D
:1000D00015683468356014605568746875605460DC
:1000E000091D5B1EF0D170BC70474B1C70B4111C15
:1000F0005B084A880E885208760802440644156850
:10010000346835601460091D5B1EF2D170BC704705
:100110000448854601F08EFE004800476DAF000898
:10012000C046C046B0250020044880470448004728
:10013000FEE7FEE7FEE7FEE7FEE7FEE7B56C000838
:1001400011010008002A1FD0F8B516460D460446D6
:10015000606827680146083401F04EFA394600907D
:10016000084601F049FA009901F0EDF92F46012106
:100170002D1DC905884202DB0BF034F800E0002099
:100180003860761EE4D1F8BD7047F3B59BB01B987C
:100190000C46008881000D191B99400849680C9095
:1001A0008000061947190C98089180080A950B944D
:1001B0000D907ED02068049062681792A268189211
:1001C000E26819922A68069269680591A9681091F7
:1001D000E96811913368169373680393B1681491B9
:1001E000F16815913968129179681391BB680E9383
:1001F000FB6811460F9301F0A6F901C40599179801
:1002000001F0A1F901C41099189801F09CF901C4FA
:100210001199199801F097F901C40699049801F011
:10022000E3F906900599179801F0DEF90590109909
:10023000189801F0D9F910901199199801F0D4F992
:1002400011901299169801F07EF901C6139903983E
:1002500001F079F901C60E99149801F074F901C6FC
:100260000F99159801F06FF901C61699129801F0CF
:10027000BBF912900399139801F0B6F913901499F1
:100280000E9801F0B1F90E9015990F9801F0ACF9A4
:100290000F90089800680190089841680830009114
:1002A00008900199069801F0A7F904900099059823
:1002B00000E07EE001F0A0F903900199059801F0BB
:1002C0009BF905900099069801F096F9069003991C
:1002D000049801F038F901C50699059801F084F9F0
:1002E00001C50099129801F087F9049001991398BB
:1002F00001F082F903900099139801F07DF90590BF
:100300000199129801F078F906900399049801F088
:100310006BF901C70699059801F015F901C708980E
:100320000068019008984168083000910890019990
:10033000109801F061F904900099119801F05CF9AE
:1003400003900199119801F057F9059000991098C0
:1003500001F052F906900399049801F0F4F801C5F0
:100360000699059801F040F901C500990E9801F031
:1003700043F9049001990F9801F03EF90390009918
:100380000F9801F039F9059001990E9801F034F9B0
:1003900006900399049801F027F901C7069905987A
:1003A00001F0D1F801C70D98401E0D90002800D033
:1003B00000E71B98022342680C990B9800F02EFC72
:1003C0001B98022342680C990A9800F027FC1DB084
:1003D000F0BDF3B5A9B029982A9A00882292410865
:1003E0008800841805192394221F199246192A1F80
:1003F0001892321F219680182495179029980E92F2
:1004000040680B900A900D904808159004201690B3
:1004100006200C9028682A9F01903F6801463846C4
:1004200001F091F802903846019901F0DDF803904F
:10043000686807902A9F01467F68384601F083F874
:1004400000903846079901F0CFF8019060680F904E
:100450000146039801F077F87168099101F0C4F83A
:100460001490206807900146019801F0BDF83768A4
:10047000394601F068F813900799029801F0B4F832
:10048000394601F0B1F812900F99009801F0ACF8DC
:10049000099901F0A9F811900F99039801F0A4F8B7
:1004A000099901F050F810900799019801F04BF864
:1004B000394601F099F80F900799029801F043F836
:1004C000394601F040F82A9F38602A9F61683F1D35
:1004D000009801F038F8716801F035F801C72A97E3
:1004E00014982060139860601298286011986860D2
:1004F000109830600F9870600D98083408300D9097
:100500000A98083510300A900B98083618300B906E
:100510001598801E40081A9000287ED016988000FA
:1005200020900C9880001F90286801902A980199CB
:100530000768384601F007F802903846019901F043
:1005400053F80390686807902A98079947683846D7
:1005500000F0F9FF00903846079901F045F8019046
:10056000606807900146039800F0EDFF71680C91F8
:1005700001F03AF81490206808900146019801F0C3
:1005800033F83768394600F0DEFF13900899029877
:1005900001F02AF8394601F027F8129007990098DF
:1005A00001F022F80C9901F01FF8119007990398B7
:1005B00001F01AF80C9900F0C6FF10900899019804
:1005C00000F0C1FF394601F00FF80F90089902982A
:1005D00000F0B9FF394600F0B6FF2A9908602A9F5B
:1005E00061683F1D009800F0AEFF716800F0ABFF3E
:1005F00001C70E982A978038C06F02901998029907
:100600008038C76F384600F09EFF00903846029948
:1006100000F0EAFF01900E9800E050E100680790BA
:10062000199807990768384600F08DFF0290384600
:10063000079900F0D9FF07460390179800680990C2
:100640001898099900680C9000F0CEFF2590019948
:1006500000F079FF18991E9080392691C96F3846AD
:10066000089100F0C1FF0246179880382790C76FA5
:100670001046394600F067FF1D900899009800F079
:10068000B3FF394600F0B0FF1C900C99029800F0BF
:10069000ABFF099900F0A8FF1B900199259800F085
:1006A000A3FF16903846089900F09EFF039900F0CA
:1006B0009BFF01900C99029800F045FF099900F00A
:1006C00042FF19990860199F391F199126990098BE
:1006D000C96F00F038FF02462798C16F104600F03E
:1006E00032FF1999083F08600D9819970068029029
:1006F0000D980299476808300D90149800F07CFF1F
:1007000007903946139800F077FF039002991398E9
:1007100000F072FF08903946149800F06DFF0990C0
:100720000399079800F00FFF01C40999089800F099
:100730005BFF01C439461D9800F05EFF07900299E7
:100740001E9800F059FF039039461E9800F054FFA0
:10075000089002991D9800F04FFF0990039907989F
:1007600000F042FF18990860189F0898391F1891E7
:10077000099900F0E8FE1899083F08600A98189750
:10078000006802900A98406800900A9920984018E2
:100790000A900299129800F02FFF07900099119883
:1007A00000F02AFF03900299119800F025FF0890AD
:1007B0000099129800F020FF07460399079800F06F
:1007C000C2FE01C53946089800F00EFF01C501219F
:1007D0001B98C9074840029900F00EFF0746009990
:1007E0001C9800F009FF039002991C9800F004FF88
:1007F000089000991B9800F0FFFE09903846039975
:1008000000F0F2FE0E9908600E9F391F0E910899B4
:10081000099800F0E9FE0E99083F08600B980E97C2
:10082000006802900B981F99476808180B9002996E
:10083000109800F0E1FE079039460F9800F0DCFEBA
:10084000039002990F9800F0D7FE0890394610984F
:1008500000F0D2FE09900399079800F074FE01C6DB
:100860000999089800F0C0FE01C63946019800F0C9
:10087000C3FE07900299169800F0BEFE0390394619
:10088000169800F0B9FE08900299019800F0B4FEA5
:1008900009900399079800F0A7FE17990860179F21
:1008A000391F17910999089800F04DFE1799083FD4
:1008B00008601A981797401E1A9000D034E62868EE
:1008C00001902A9801990768384600F03CFE029092
:1008D0003846019900F088FE0390686801902A98D4
:1008E00001994768384600F02EFE0090384601997D
:1008F00000F07AFE019060680C900146039800F0C9
:1009000022FE7768394600F06FFE14902068099047
:100910000146019800F068FE3168079100F013FE6F
:1009200013900999029800F05FFE079900F05CFEB1
:1009300012900C99009800F057FE394600F054FED2
:1009400011900C99039800F04FFE394600F0FBFD22
:1009500010900999019800F0F6FD079900F044FE07
:100960000F900999029800F0EEFD079900F0EBFD59
:100970002A9908602A9F6168009800F0E4FD716878
:1009800000F0E1FD78600D980768406800903946F6
:10099000149800F031FE07900099139800F02CFE97
:1009A00003903946139800F027FE08900099149898
:1009B00000F022FE07460399079800F0C4FD20606E
:1009C0003946089800F010FE60600A98046847688D
:1009D0002146129800F010FE07903946119800F059
:1009E0000BFE03902146119800F006FE0890394650
:1009F000129800F001FE04460399079800F0A3FD49
:100A000028602146089800F0EFFD68600B980468A4
:100A100045682146109800F0EFFD079029460F9891
:100A200000F0EAFD074621460F9800F0E5FD08902A
:100A30002946109800F0E0FD04463946079800F07A
:100A400082FD30602146089800F0CEFD7060299844
:100A5000042342681599229800F0E0F829980423AD
:100A600042681599239800F0D9F829980423426820
:100A70001599249800F0D2F8299804234268159912
:100A8000219800F0CBF82BB0F0BDFFB5012605880A
:100A9000F60781B017460446012A15D10298001DB9
:100AA000002D11D00838E90703D0816871408160BA
:100AB0000830690808D0826872408260026972401A
:100AC00002611030491EF6D1FF210131681A8D42B2
:100AD00064D008DC102D5CD0202D5FD0402D10D0CC
:100AE000802D14D155E0FF38401E0AD0FF38FF3862
:100AF000801E4ED001218902401A4FD04900884201
:100B000005D1294601236268029800F087F804980D
:100B1000002804D0A189A2680298FFF7D1FA012F1A
:100B200035D1284600F083FF01467F20C00500F044
:100B3000A0FD029C0746002D29D0083CE8070BD0F9
:100B40003946A06800F058FDA060E0683946704062
:100B500000F052FDE06008346D0818D03946A068F6
:100B600000F04AFDA060E0683946704000F044FDA6
:100B7000E0603946206900F03FFD20616069394638
:100B8000704000F039FD606110346D1EE6D105B093
:100B9000F0BD20460299FFF7F8FAB8E7204602991F
:100BA000FFF717FCB3E70000FFB583B00021019108
:100BB00002C8049C06460091641E17D016492046C0
:100BC0008C421BD8002C11DD0027054631680098A7
:100BD00000F0DCFF05D2306800900498C019001BBB
:100BE00001906D1E361D7F1C002DEFD105990098D8
:100BF000086006990198086007B0F0BD20CE009803
:100C0000294600F0C3FF03D204980095001B019011
:100C1000641EF3D1EAE70000FFFFFF7FFFB5B3B02A
:100C2000349D04462395ED0800267019059040195F
:100C30000490401941194F190290781907904019F2
:100C40000690C8000C9020580990F0000B90205896
:100C50000390099900F077FC01900999039800F03E
:100C6000C3FC0990F800129020580390059803994E
:100C7000C0000A902758384600F065FC05903846B9
:100C8000039900F0B1FC08900798C0001390205819
:100C9000039004980399C700E059049000F053FCB6
:100CA00010900399049800F09FFC0F900698C000E4
:100CB00015902058039002980399C0001690205870
:100CC000049000F040FC02900399049800F08CFC22
:100CD0000E901099019800F087FC049010990198EB
:100CE00000F031FC01900299059800F07DFC109015
:100CF0000299059800F027FC01460590019800F044
:100D000022FC01460B9821500599019800F06CFCDB
:100D100001460C9821500C9800191D9040680390D2
:100D20000B9800191C9040680290039900F00BFC8E
:100D300001900399029800F057FC06901298001950
:100D40001E90406803900A98039900191B90406810
:100D5000029000F0F8FB05900399029800F044FC23
:100D60000790139800191A90406803903819199049
:100D700040680290039900F0E6FB0B9003990298FB
:100D800000F032FC0D9015980019189040680C90F6
:100D900016980C99001917904068039000F0D3FB47
:100DA00002900C99039800F01FFC0C900B9901988D
:100DB00000F01AFC03900B99019800F0C4FB01901D
:100DC0000299059800F010FC0B900299059800F02C
:100DD000BAFB01460590019800F0B5FB01461C984E
:100DE00041600599019800F0FFFB01461D984160A4
:100DF0000B99049800F0A7FBE0510B99049800F0C0
:100E0000F3FB0146139821501099039800F0ECFB76
:100E10000146199841601099039800F094FB01462F
:100E20001A9841600E99089800F0DEFBFE4F394693
:100E300000F0E2FB01900E99089800F084FB39461F
:100E400000F0DAFB08900C99079800F0CDFB3946CA
:100E500000F0D2FB05900C99079800F074FB39461E
:100E600000F0CAFB07900199099800F0BDFB0490BF
:100E70000199099800F067FB099008990F9800F014
:100E8000B3FB0E9008990F9800F05DFB0F90059949
:100E9000069800F0A9FB03900599069800F053FB13
:100EA000069007990D9800F09FFB0C9007990D98FC
:100EB00000F049FB01460D90099800F044FB014603
:100EC0000A9821500D99099800F08EFB014615985B
:100ED00021500C99049800F036FB014612982150DD
:100EE0000C99049800F080FB0146169821500F9948
:100EF000069800F079FB01461B9841600F9906980F
:100F000000F021FB0146189841600E99039800F00B
:100F10006BFB01461E9841600E99039800F013FB8D
:100F2000014617984160239836183498864200D2BB
:100F30007BE6082D7ED300201E9001201D9036995F
:100F40001E984018820017184600331839181E9052
:100F5000081801901E98BC46C000359F079038586D
:100F60002190F000069038583E46DF002090F0595E
:100F7000BE46D2001F90B0586746FB001C90F05848
:100F80001B903598CE0080591A900198359FC1006A
:100F90003598405819900798C019406818900698DD
:100FA000C019406817903846704440681690D019B0
:100FB00040681590D81940681490359830184068EA
:100FC000139035981D9E081840681290701905906E
:100FD0004019049040190290401941194F19089185
:100FE0007919C0000691289020580A90F0000390CB
:100FF000205809900A9900F0A6FA01900A990998D8
:1010000000F0F2FA08990990C8002A9020580A9036
:1010100005980A99C00029902058089000F093FA8A
:1010200005900A99089800F0DFFA0890F8002790D8
:10103000205800E032E2079004980799C0002690FB
:101040002758384600F07FFA10903846079900F08C
:10105000CBFA06990F90C800259020580690029868
:101060000699C700E059049000F06DFA02900699C5
:10107000049800F0B9FA0E901099019800F0B4FAB3
:1010800004901099019800F05EFA01900299059879
:1010900000F0AAFA10900299059800F054FA01465F
:1010A0000590019800F04FFA0146039821500599E8
:1010B000019800F099FA059028980019309040683E
:1010C00001900398019900192D904068039000F059
:1010D0003AFA02900199039800F086FA06902A984D
:1010E00000193290406803902998039900193190B3
:1010F0004068019000F027FA0A900399019800F0E7
:1011000073FA0790279800192C904068039026984E
:1011100000192B9040680190039900F014FA0B908D
:101120000399019800F060FA0D90259800192F900E
:101130004068039038192E9040680190039900F0A0
:1011400002FA22900399019800F04EFA0C900B9944
:10115000029800F049FA03900B99029800F0F3F915
:10116000029022990A9800F03FFA0B9022990A986F
:1011700000F0E9F90A900B99049800F0E4F9019065
:101180000B99049800F030FA04900A99029800F044
:10119000DAF901462D9841600A99029800F024FA84
:1011A0000A901099039800F01FFA02901099039882
:1011B00000F0C9F9039005991C9800F01DFA1090F1
:1011C0000A99159800F018FA0B900A991C9800F0EB
:1011D00013FA0A900599159800F00EFA05900B99EC
:1011E000109800F0B0F901462898215005990A9806
:1011F00000F0FAF90146309841600199209800F01A
:10120000FBF910900299179800F0F6F90B900299EB
:10121000209800F0F1F90A900199179800F0ECF984
:1012200005900B99109801E0F304353F00F08BF91D
:1012300001462698215005990A9800F0D5F90146F3
:101240002B98416004991A9800F0D6F910900399F0
:10125000139800F0D1F90B9003991A9800F0CCF98B
:101260000A900499139800F0C7F905900B9910980B
:1012700000F069F901462798215005990A9800F075
:10128000B3F901462C9841600E99089800F0ACF92A
:10129000834900F0B1F901900E99089800F053F9D4
:1012A0007F4900F0A9F908900C99079800F09CF983
:1012B0007B4900F0A1F902900C99079800F043F9DE
:1012C000774900F099F907900199099800F08CF995
:1012D00004900199099800F036F9099008990F983F
:1012E00000F082F90E9008990F9800F02CF90F90F9
:1012F0000299069800F078F903900299069800F098
:1013000022F9069007990D9800F06EF90C90079954
:101310000D9800F018F901460D90099800F013F9A6
:1013200001900D99099800F05FF909900C990498C3
:1013300000F009F908900C99049800F055F9049010
:101340000F99069800F050F902900F99069800F056
:10135000FAF806900E99039800F046F907900E9956
:10136000039800F0F0F803900199219800F044F9F7
:1013700010900299189800F03FF90B90029921986B
:1013800000F03AF90A900199189800F035F90590A3
:101390000B99109800F0D7F801462998215005992B
:1013A0000A9800F021F9014631984160099919988D
:1013B00000F022F910900699129800F01DF90B9098
:1013C0000699199800F018F90A900999129800F0F6
:1013D00013F905900B99109800F0B5F8014625987F
:1013E000215005990A9800F0FFF801462F984160B6
:1013F00008991B9800F000F910900799149800F0D4
:10140000FBF80B9007991B9800F0F6F80A900899E2
:10141000149800F0F1F805900B99109800F093F8EB
:1014200001462A98215005990A9800F0DDF80146F6
:101430003298416004991F9800F0DEF810900399EB
:10144000169800F0D9F80B9003991F9800F0D4F883
:101450000A900499169800F0CFF805900B9910980F
:1014600000F071F8E05105990A9800F0BDF80146C6
:101470002E984160239836183498864200D2A5E50C
:101480001D98401C1D90A84200D258E53698C00413
:10149000000C3690072D01D9FFF7C4FB37B0F0BD23
:1014A000F304353F30B50B460146002020220124CD
:1014B00009E00D46D5409D4205D31D469540491B88
:1014C0002546954040191546521E002DF1DC30BDD1
:1014D00070B500242546002801DA01244042002985
:1014E00001DA01254942FFF7DDFFAC4200D040425E
:1014F000002C00D0494270BDD2B201E00270401C05
:10150000491EFBD270470022F6E710B513460A4683
:1015100004461946FFF7F0FF204610BD421E5378DF
:10152000521C002BFBD10B781370491C521C002B52
:10153000F9D1704703460A780270401C491C002A02
:10154000F9D118467047F8B502464A40D40F420018
:101550004B0052085B089A4202D2024608461146E6
:101560004A0023D0C30D4A00DDB2120EAD1A202D61
:1015700035DA49020126490AF6058A19002C00D0FD
:10158000524220214F1B1146B9402A411018C20D6A
:101590009A4221D0002C17D0012D08DCDA05801AE0
:1015A000D20F8019D207DBB200F05FFBF8BDDA057D
:1015B000801A012340001B06C01880185A42801868
:1015C000CA0F1043490007E04908C2071143DA0572
:1015D000801A80194008801800F03FFBF8BD6100B8
:1015E0000122511A001BF7E70122D2075140AAE756
:1015F0000122D2075040A6E7024670B54A40D30FF9
:10160000DB0740002DD04A002AD0010E140E000244
:1016100012020919400A520A8418E501044654438B
:10162000000A120A2E045043A4194219200CC54383
:10163000AA18120C0125AD03521C521912047F394D
:10164000240400D0521C104301D44000491EC2B2F1
:101650000C06C0092018401C4008802A02D003E074
:10166000002070BD40084000002900DA0020184327
:1016700070BD70B502464A40D50F40004A00ED07E4
:1016800040085208002814D0002A12D0C40DD30DEF
:1016900041020120C0055202490A520AE41A0918FF
:1016A00012187D34914201D3641C00E04900002CE3
:1016B00001DA002070BD0023914201D3891A03434F
:1016C000400849000028F7D100290AD0914202D1F0
:1016D0000121C90705E0914201D2012101E0012168
:1016E000C943E005C018401900F0B7FA70BD00000A
:1016F000F0B507460846584087B0C00F0490480030
:101700000E46590040084908BC1A884105D238469F
:1017100031461E4617460B46024658004008104305
:101720004DD0300D039040055900400D490D0590F6
:10173000401A0290402873DA18030121000B0905B2
:101740000843019004980092002806D01146019A9F
:1017500049420020904100910190029840210A1ACC
:101760000199009800F056FA05460C466B4607CBE7
:1017700000F060FAC0197141039A0E0D0023D717CB
:1017800056401A467A40164344D0049A002A2DD077
:10179000029A012A039A15DC1205C01A914101260A
:1017A0003605001C7141D20F059ED20700930192AD
:1017B00002962A46234600F0CAFA07B0F0BD384622
:1017C0003146FAE71605234A0F46B218C01AB74148
:1017D00001210905001C4F4100187F4111461818CE
:1017E0007941E20F10436D19644113E0E2076D087F
:1017F00015436408C2071443039A01261205C01A50
:1018000091413605001C7141CE074008304349081C
:10181000C01851412A46234600F08CFACDE7FFE775
:10182000049801224000C117121A00238B4104982A
:101830003146C417381AA141EEE730B40124E40759
:10184000634030BC54E730B40124E407614030BC4D
:101850004EE700000000E0FFF0B51FB488B00B9920
:101860000998002448400999C00F49004908099186
:10187000C0070B990090490049080B9109990898F5
:10188000A64608431CD00B990A98084318D009981B
:1018900001244000420D4800410D09982405000331
:1018A000000B204309900B980003000B20430B9082
:1018B00050181C494018002201901446104605E0BB
:1018C000002001460DB0F0BD032801DA034600E018
:1018D00003239C46C11A0AAE0AE05F0008ADED5B27
:1018E0004F00F75B7D430027AA187C41491C5B1E13
:1018F0006145F2DD410004AB5A522104120C0A4347
:10190000240C401C0828DFDB0198029000997046E7
:1019100001910090059B049A0799069800F017FA28
:10192000D0E700000DFCFFFFF0B50C465C4085B031
:10193000E40FE40703944C00002664085900944621
:10194000490802460296224321D062460A431ED02D
:101950006200570D4A000E032303550D0124024671
:101960002C492405781B1B0B360B401823432643B8
:10197000614600901C46501AB44103D30098401CA5
:10198000009002E0921800985B41002803DA0020E2
:10199000014605B0F0BD0020012109050746864635
:1019A00011E064461D46141BB54106D36546521B23
:1019B000B341744607430C43A646CD074008490887
:1019C000284392185B4105460D43EAD1104618435F
:1019D00013D06046194650407140084306D0604617
:1019E000101AB34106D20122002306E0002201238F
:1019F000DB0702E00122D243531000987446010530
:101A0000381C6141029C039D0019694100F092F964
:101A1000BFE70000FD030000C217C10F504010B522
:101A20004018CA079623002100F01FF910BD10B519
:101A300000229623114600F018F910BD0EB5C2170A
:101A4000C10F5040CA0740180021054B0293019274
:101A500000910A460B4600F07AF903B000BD000081
:101A6000330400000EB505490291002100910A4699
:101A70000B46019100F06BF903B000BD3304000088
:101A8000C20F410040020123400ADB05D207090EC4
:101A9000C0187F2901DA00207047962903DC9623BD
:101AA000591AC84001E096398840002AF4D04042D3
:101AB0007047410040020122400AD205090E8018F9
:101AC0007F2901DA00207047962903DC9622511AFB
:101AD000C8407047963988407047C20FD20740000F
:101AE00040080BD0C10D0723DB01C91840020905CE
:101AF000400A1143C20840071143704700200146C5
:101B00007047000010B5002904DB0124E4074042BF
:101B10008C412146002B04DB1C460123DB0752428B
:101B2000A3418B4200D1824210BD000010B50029B4
:101B300004DB0124E40740428C412146002B04DBF6
:101B40001C460123DB075242A341994200D1904237
:101B500010BD0000CB0FDB07490010B54908024655
:101B60000A4307D00A0D07240903E401090B121BDD
:101B7000002A01DC002010BDC900440F0C43C10045
:101B8000E018D205801800F068F810BD0122D207D5
:101B9000002800DB101A002900DB511A814270472F
:101BA0000122D207002800DB101A002900DB511A9D
:101BB00088427047F0B51FB40646002082B0054643
:101BC0004024019100901BE0019922460F463046C7
:101BD00000F042F9049A059B801A994110D31046EF
:101BE0001946224600F016F8361A8F410197224610
:101BF00001200021009F00F00DF838184D410090A1
:101C00002046641E0028DFDC019B009829463246EE
:101C100007B0F0BD10B5202A04DB0146203A914000
:101C2000002010BD914020239C1A0346E340194335
:101C3000904010BD10B5202A06DBCB170846203A8D
:101C40001041C1170B4306E00B461341D04020243E
:101C5000A21A91400843194610BD002904DA401C1D
:101C6000490001D140084000704770B40024050CC1
:101C700005D11024000402D1002921D01124050E21
:101C800001D100020834050F01D10001241D850F88
:101C900001D18000A41C002801DB4000641C002945
:101CA00008D020252E1B0D46F540A14000D0012173
:101CB0002943084301061B1B000ADB1D02D5002037
:101CC00070BC7047DB05181880180029F8DA401C32
:101CD0004900F5D170BC40084000704770B500283D
:101CE00001DC002070BD410040020126400AF605DB
:101CF000090E8019CA0701D14000491E4D1000226B
:101D000011463F353346CB409B18D418844201D846
:101D1000001B1A464000491C1729F3DD510081427F
:101D200002D20021C94300E00021E8058018FFF736
:101D300094FF70BD10B5002B08DA0024401C6141EF
:101D400092185B411A4301D14008400010BDF0B524
:101D50001FB482B005460C0003D0084607F01EFFF2
:101D600002E007F01BFF2030024600902146284683
:101D7000FFF750FF049B059A04460F461843114392
:101D8000084314D0184610431BD0009840210A1A6B
:101D90001846059900F060F805460E46009A059928
:101DA0000498FFF737FF084305D0012004E02046E0
:101DB000394607B0F0BD0020C11705430E432C4340
:101DC000374300990E986305401A7905E40A00220A
:101DD0000C43FD0A0A3002D500200146E9E701055F
:101DE000101969410C9C0D9D00196941FFF7A2FF74
:101DF000DFE700004A0009030123090B1B05194313
:101E00000A4B10B5520D9A4202DA0020014610BD6D
:101E1000064B34339A4203DC9A1A00F01DF810BDC9
:101E2000034BD218FFF7F6FE10BD0000FF030000C1
:101E3000CDFBFFFF064C0125064E05E0E36807CC0D
:101E40002B430C3C98471034B442F7D3FEF764F9A7
:101E5000184501083845010810B5202A04DB08465A
:101E6000203AD040002110BD0B46D340D040202462
:101E7000A21A91400843194610BD420005D0420005
:101E8000120E52428A4201DB00207047C905081831
:101E9000704770B54B005B0803430BD04B005C0DE3
:101EA000002633466542B341D417AD1AA34102DB85
:101EB0000020014670BD12053018514170BD000070
:101EC00070B5CD0F4A0009030123090B1B05194307
:101ED0000B4BED070024520D9A4201DA002070BD31
:101EE000074B34339A4203DC9A1AFFF7B5FF02E03E
:101EF0000449511888402C43F1D0404270BD000085
:101F0000FF030000CDFBFFFF70B58C180578401C67
:101F10006B075B0F01D10378401C2A1106D10278B0
:101F2000401C03E006780E70401C491C5B1EF9D172
:101F30002B0705D40023521E0DD40B70491CFAE761
:101F40000378401CCB1A921C03E01D780D70491CCD
:101F50005B1C521EF9D5A142D8D3002070BD10B52C
:101F60000B460021846A1C43846200BF0C46144364
:101F70002146416110BD01617047002904D082688B
:101F800001231A43826003E0826802231A438260BD
:101F90007047000010B504460548844207D101216E
:101FA000401504F077F90021601504F073F910BDB5
:101FB0000024014030B501460020002200238C6837
:101FC0000125ED072C438C6000BF8C68E30FDB0715
:101FD000521C0F242403A24201D0002BF5D18C689F
:101FE000E40FE407002C01D1086C00E0002030BDB4
:101FF00030B5024600200023012424060C40002CAA
:1020000005D0946801252D06AC43234600E01368F3
:102010001C460C40002C01D0012000E0002030BD07
:1020200010B50022C268084B1A400C7964030B6893
:1020300023438C682343CC6823430C6923434C69B6
:1020400023431A43C26010BD03D2FFFF0021016089
:1020500001718160C160016141617047002807D052
:1020600007498968012292051143054A916006E0FB
:1020700003498968012292059143014A91607047A2
:102080000027014010B51B48007B012816D11948D4
:10209000C07A00282CD000211648C172012000F01F
:1020A0003BF9044604F03EF8002803D00221114811
:1020B00001731DE001210F48817219E00D48007B7A
:1020C000032815D10B48C07A002811D000210948F7
:1020D000C172002000F020F9044603F009FF002837
:1020E00003D004210348017302E0012101488172F9
:1020F00010BD000024040020FEB501204004484922
:1021000088620520486108468068042108434449E4
:10211000886000BF04214248FFF76AFF0028F9D019
:102120003F4940310868FFF782FC02903C488068D4
:10213000042108433A49886000BF04213848FFF76A
:1021400057FF0028F9D0364940310868FFF76FFC87
:1021500002903449488BFFF76AFC33490090FFF73F
:102160004BFA01900299FFF784FA0746FFF788FCC3
:10217000054608202A4988620846806804210843E9
:102180002749886000BF04212548FFF731FF002858
:10219000F9D0234940310868FFF749FC02902048F4
:1021A0008068042108431E49886000BF04211C4840
:1021B000FFF71EFF0028F9D0194940310868FFF7E2
:1021C00036FC029019480068401C1849086008460F
:1021D0000068632801DD002008600298FFF769FCB1
:1021E000124909684900124A50520026002409E0A9
:1021F00061000F4A515A694308460E49FFF768F9D2
:102200008619641C642CF3DB64213046FFF74AF91D
:102210000949488740200249886200204861FEBD84
:1022200000240140A0F7FF1F00404E450800002099
:10223000C8130020980A00000404002000B587B0ED
:102240000121480204F016F81B48FFF7A3FE002105
:102250001948FFF790FE0120FFF700FF01A8FFF7E4
:10226000F5FE0020019069460872039005900690E3
:1022700001A91148FFF7D4FE002240210E48FFF7C4
:102280006EFE0D48FFF796FE01210B48FFF775FE25
:1022900000BF01210848FFF7ABFE0028F9D006482F
:1022A000806804210843044988600449C86B00F031
:1022B00007F807B000BD000000240140040500201D
:1022C0001FB504460121022003F0B4FF684604F064
:1022D000C1FE21460E48FFF7FBF801900021684639
:1022E00001800181418069460A4804F075FE01229F
:1022F0001146084804F0FFFD1021684601730021D3
:1023000041730121817303A803F04EFD1FBD00003E
:10231000006CDC020004004070B504460022114B42
:10232000002111E04D001048405B904202DD4D005D
:102330000D48425B4D000C48405B984202DA4D006C
:102340000948435B481C81B28029EBDB002C03D099
:1023500005483C3842868386D51AE80F4019C003E9
:10236000000C70BDFFFF00004004002010B50446C3
:1023700001F05CFA204601F0C7F901F009FA10BD3E
:1023800001460868704770B504460D4601F04EFAE4
:102390002946204601F006FA01F0FAF970BD02461E
:1023A000138A0B40002B01D0012000E00020704771
:1023B000002A01D0816100E00185704700B585B039
:1023C0000120400200900221684601710321417101
:1023D000002181710121C17169460920C00601F007
:1023E00077FC02220921C80601F0BAFC0121C802CB
:1023F00003F040FF00216846018141810A480390B3
:1024000068460182817402A9084804F0E5FD0020B5
:1024100000F00EF80121054804F0BCFC012103483E
:1024200004F0D2FC05B000BD71450000002C014055
:1024300010B586B004467021684681800121C180B4
:1024400004210181002C06D00C48007C6F21C900BA
:102450004843039001E00020039002216846018276
:1024600000214182FF21013181820021C18201A925
:10247000034804F04BFD06B010BD0000B803002077
:10248000002C0140002806D006490968402211436B
:10249000044A116005E00349096840229143014A5A
:1024A00011607047006C004010B50121C80603F0B0
:1024B000C1FE0120400700F019F80120FFF7E2FFFC
:1024C000012000F001F810BD002806D00649096877
:1024D00020221143044A116005E0034909682022C3
:1024E0009143014A11607047006C004005494968FA
:1024F000032212079143034A516011464968014380
:1025000051607047006C00407CB5002600200090B0
:102510007EE16846808805072D0F002D7ED1684634
:10252000808810210840002816D1BF480068BF49A4
:102530000840BD490860BE4C207801F07DFCA061D8
:10254000A169206940182061BA48006800214268EA
:102550002046183890475BE1B54CA034B24800687B
:1025600081B20091684600880121C9020840002814
:102570001AD0207801F04EFCA061208B82B2A18895
:102580002046A83803F092FCA74800684004400C9D
:10259000A64980310840A4490860A64800688168BF
:1025A0002046B838884733E1684600880121C903CE
:1025B00008400028ACD09C4800684004400C9B496F
:1025C0008031084098490860207801F023FCA06120
:1025D000A069002809D0238B9AB2A188206903F052
:1025E00065FCA169206940182061924800680021BB
:1025F00002688F48183890478B484030006980B295
:10260000801D8D4A8118E2683E2A11D9E268D20203
:10261000100C227BD206D20E002A00E026E001D167
:10262000421E90B282020123DB031A430A800CE0AF
:10263000E268D203100C227BD207D20F002A01D00D
:10264000421C90B28206120C0A80774909687B4AC4
:1026500011400846012109034840490048408900CB
:10266000014380221143704A1160D1E0A8006E49F5
:102670004018006881B20091684600880121C903B2
:10268000084000285FD0A80067494018006840044F
:10269000400C664980310840A900634A89180860E7
:1026A000282068436249A0314418A07A00280BD141
:1026B000207801F0AFFB0646002E28D0A1883246D4
:1026C000206903F0F3FB22E0207801F075FB012183
:1026D0008903084000280BD0207801F077FB0646DC
:1026E000002E10D0E1883246206903F0DFFB0AE0BB
:1026F000207801F07DFB0646002E04D02189324669
:10270000206903F0D3FB2078002101F0B9FAA06919
:102710008019A0612069801920616069002802D0B9
:10272000E068B04207D92178424800680268404812
:102730001838904707E0A08A83B221783C481838BF
:10274000226900F0A3FA684600888021084000282A
:102750005ED02820684336494418A8003249401802
:10276000006832490840A9002F4A89180860A07AF9
:1027700000280DD1207801F05FFBA061A06900283E
:102780002CD0238B9AB2A188206907F015F925E097
:10279000207801F011FB4021084000280DD020785E
:1027A00001F014FBA061A069002813D0238B9AB21A
:1027B000E188206907F000F90CE0207801F018FBAF
:1027C000A061A069002805D0238B9AB221892069D5
:1027D00007F0F2F82078012101F052FA207801F098
:1027E0002BFBA061A1692069401820616069002865
:1027F00007D121780F48006842680D481838904783
:1028000006E021780A4818386369226900F0E6FA80
:1028100005484030406880B201900121C90308405A
:10282000002800D075E67CBD005C00400F8F0000E2
:1028300078120020D0000020006000408FBF000010
:1028400008B500201249487008F060FB02201149C9
:102850000871002001F0B0FF0FA0124B202233219D
:102860000090372002F06EFA7D20C00007F048FD8E
:102870000121FF20F53008F017FB0BA007F052F9FB
:102880000022012189020920C006FFF791FD08BD41
:10289000C4110020F8030020D0A3D7BCBDE1CAF8C2
:1028A00000000000FFFF0000506F776572204F6648
:1028B000660A000081000A4A89180968121411404A
:1028C00000290BD08100064A89180968054A114081
:1028D000054A11438200024BD21811607047000074
:1028E000005C00408F8F000080C0000081000A4A19
:1028F000891809684022114000290BD08100064A3E
:1029000089180968054A1140054A11438200024BA3
:10291000D218116070470000005C00408F8F0000EB
:10292000C080000010B5012000F072FF0521C9042D
:10293000002003F023FE012003F00CFE00BF19204D
:1029400003F0DCFD0028FAD0022003F029FE00BFCE
:1029500003F0F8FD0828FBD10121800303F05AFCA5
:102960000121880403F056FC0121C80403F052FC45
:102970000121080503F04EFC0121880503F04AFC03
:1029800010BD0000002907D0074A126801238340C8
:102990001A43054B1A6006E0034A1268012383407C
:1029A0009A43014B1A60704700740040002908D018
:1029B000084A126801231B0383401A43054B1A601F
:1029C00007E0044A126801231B0383409A43014B2A
:1029D0001A6070470074004010B50121480703F0E9
:1029E00039FC00210120400703F034FC10BD000039
:1029F00030B5002200230A4C22680A4C8440154658
:102A0000A5432A464D680C682C438D682C43CD683D
:102A10002C4323461C4684402243014C226030BD97
:102A200000740040FE0F0000044989690122D203AE
:102A30001143024A9161012181707047405C00405E
:102A400070B506460D4680202840802807D16806CC
:102A5000400E2821484331461831441806E06806E4
:102A6000400E282148433146B8314418A07A002846
:102A700012D16078002807D02078FFF737FF207840
:102A8000002103F089FF2DE02078FFF713FF207865
:102A9000002103F03DFF25E06078002811D1207867
:102AA000FFF708FF2078FFF721FF207804F0F0FA05
:102AB0002078002103F02CFF2078002103F06CFF28
:102AC00010E02078FFF7F6FE2078FFF70FFF207860
:102AD00004F0CAFA2078002103F05EFF207800217C
:102AE00003F016FF002070BD70B506460D4680202D
:102AF0002840802807D16806400E282148433146E7
:102B00001831441804E0282068433146B83144188D
:102B10006078002809D02078FFF7E8FE207830217F
:102B200003F03AFF0020A07009E02078FFF7C2FE12
:102B300020780321090303F0EBFE0020A0700020A1
:102B400070BDFFB581B006460D461746802028406F
:102B5000802809D16806400E2821484331461831A3
:102B600044180120607008E06806400E28214843A0
:102B70003146B831441800206070E7600498E07076
:102B80006806400E20702078002802D16062E06163
:102B90002062002020616061A061A070E0780028C0
:102BA00006D0012815D0022808D0032817D10AE042
:102BB00020780121490203F011FF10E02078002164
:102BC00003F00CFF0BE020780321490203F006FF1D
:102BD00005E020780121890203F000FF00BF00BF5B
:102BE000A07A002820D1607800280BD0A188207816
:102BF00003F0B4FE2078FFF779FE2078202103F05F
:102C0000CBFE40E0A188207803F048FEA28991B273
:102C1000207803F055FE2078FFF74CFE2078032142
:102C2000090303F075FE2EE0207803F021FE2289CF
:102C3000E188207803F09AFD6078002812D120788E
:102C4000FFF738FE2078FFF751FE207804F020FAD5
:102C500020780321090303F05BFE2078002103F0B4
:102C60009BFE10E02078FFF725FE2078FFF73EFE60
:102C7000207804F0F9F92078002103F08DFE207807
:102C8000002103F045FE002005B0F0BDFFB581B086
:102C900005460E461746002000907006400E28217B
:102CA00048432946B83144182761049860610020E0
:102CB000A061E1686069884206D9E06800906069B7
:102CC0000099401A606103E0606900900020606133
:102CD000A07A002805D1009A91B2207803F0F0FD87
:102CE00005E0009B9AB26178207803F05BFD2078C4
:102CF0000321090303F00CFE002005B0F0BD000025
:102D000030B502460020117100BF10E003069B0D94
:102D10000B4C1B191B680B4C23400B4C2343C4B2B8
:102D200023430406A40D064D64192360401C0428A7
:102D3000ECD380230B43024C4034E36030BD0000F1
:102D4000005C00408F8F00008080000070B5064658
:102D50000D4680202840802807D16806400E282193
:102D6000484331461831441804E02820684331466E
:102D7000B83144182078002819D121788900154AE3
:102D800089180968144A114008460121090348407E
:102D900010214840C9020143802211432278920049
:102DA0000C4BD21811600120A070002070BD60781B
:102DB000002806D00120A0702078102103F0ECFD3F
:102DC00006E00120A07020780121090303F0A0FD96
:102DD0000020EBE7005C0040BFBF0000FFB583B000
:102DE00006460D461746002002906806400E282130
:102DF00048433146183144186806400E2070276158
:102E0000069860610020A061E1686069884206D987
:102E1000E068029060690299401A606103E06069AD
:102E2000029000206061A07A00280BD1029B9AB228
:102E3000A188206906F0C0FD029A91B2207803F0C3
:102E40009DFD1EE000200190029B9AB261782078DF
:102E500003F0A8FC207800F0AFFF402108400028D4
:102E600002D02089019001E0E088019002998AB2A5
:102E70002069019906F0A0FD6178207800F000FF3C
:102E800000BF2078302103F087FD002007B0F0BD9F
:102E900010B504460120A07000202071A060012020
:102EA000E06003F05DFC002003F05AFC002003F01A
:102EB000A7FD002003F04AFCBF2000020349086080
:102EC000098888B203F04CFC10BD00002C010020E2
:102ED00070B505460C4680202040802807D160064A
:102EE000400E282670432E461836811906E06006EB
:102EF000400E282670432E46B8368119002A03D189
:102F0000002088728B8004E001208872CB80180C2E
:102F10000881002070BD0000FF2001300D4948608D
:102F20000D48807A002814D00C488068042108439A
:102F30000A49886000200849203908870849486202
:102F400008460088012108430549088000210248FD
:102F500081727047000002402404002000240140D8
:102F600000040040002904D0026801231A430260D3
:102F700003E00268014B1A4002607047FEFF000048
:102F80000168554A11400160002101604160816083
:102F9000C1605249884208D15049083949680F2216
:102FA00011434E4A083A516094E04C49143188422A
:102FB00008D14A4908394968F0221143474A083A7A
:102FC000516087E045492831884209D14349083991
:102FD00049680F2212021143404A083A516079E0D1
:102FE0003E493C31884209D13C49083949680F22A1
:102FF00012031143394A083A51606BE037495031A6
:10300000884209D13549083949680F221204114311
:10301000324A083A51605DE030496431884209D152
:103020002E49083949680F22120511432B4A083AE4
:1030300051604FE029497831884209D12749083940
:1030400049680F2212061143244A083A516041E0B0
:103050002349884208D12249083949680F2211437F
:103060001F4A083A516035E01D491431884208D1A1
:103070001B4908394968F0221143194A083A51603E
:1030800028E017492831884209D11549083949688B
:103090000F2212021143124A083A51601AE01049F5
:1030A0003C31884209D10E49083949680F22120380
:1030B00011430B4A083A51600CE0094950318842EB
:1030C00008D10749083949680F2212041143044AFC
:1030D000083A516070470000FEFF000008000240FF
:1030E00008040240002A03D003680B43036002E097
:1030F00003688B430360704710B5002202680D4BD4
:103100001A400C6A8B6823430C6923434C692343A0
:103110008C692343CC6923434C6A23438C6A234341
:103120001A430260CB6843600B6883604B68C360DE
:1031300010BD00000F80FFFF10B594B001214807BB
:1031400003F078F80121084603F064F801210846ED
:1031500003F070F8FFF740FC3C48FFF711FF012037
:10316000800703F043FE00210846FFF70BFC002117
:103170000846FFF71BFC00213448FFF7F3FE00214F
:103180000120800703F006FE242002900B2000029D
:10319000049000200590039002A9FFF729FC01216B
:1031A0000020FFF7EFFB01210020FFF7FFFB28487D
:1031B000099028480A9010200B90C8200C900020FD
:1031C0000D9080200E9040000F90800010902020E5
:1031D0001190000212900020139009A91B48FFF7DC
:1031E0008BFF01211948FFF7BDFE0122022117487C
:1031F000FFF778FF0A216846017101214171817151
:1032000001A802F0D1FD06A803F024FF1248016CCA
:103210001248FEF747F90446C821FEF743F9401E5D
:1032200007900021684601830184418306A901209B
:10323000800703F0D1FE2021480603F0C1FE0121E2
:10324000880703F0A7FD14B010BD00003000024055
:10325000087400409014002004050020006CDC027B
:1032600000B589B00121480402F0E4FF01220221E7
:103270000920C00600F074FD022168460172032196
:103280004172002181720121C1720420019001A9C3
:103290000920C00600F01CFDE12040020390002040
:1032A00004900590069008900820079003A9044810
:1032B00005F046FC0121024805F005FC09B000BDFF
:1032C0000044004010B50121480402F0D3FF012260
:1032D0002F21064803F070FE0021044803F068FD2A
:1032E0000121024803F056FD10BD000000440140DA
:1032F0003EB50C49087C0A21FEF7EAF80C4609495C
:10330000087C0A21FEF7E4F8054607A0019502941F
:10331000009004486C38C38B18220021482001F02B
:1033200011FD3EBD2404002025642E256476000096
:1033300008B53948408F7D214901884203DD0720C7
:1033400000F084F866E03448408F3449884203DD59
:10335000062000F07BF85DE02F48408F2F4964394C
:10336000884203DD052000F071F853E02A48408FC1
:103370002A49C839884203DD042000F067F849E093
:103380002548408F2649884203DD032000F05EF87F
:1033900040E02148408F2249C839884203DD02209D
:1033A00000F054F836E01C48408F1E49884203DD87
:1033B000012000F04BF82DE01748408F194964397F
:1033C000884203DD002000F041F823E016A006F05B
:1033D000A9FB022010490C390871002001F0ECF91A
:1033E00017A0194B202233210090572001F0AAFC8E
:1033F0007D20C00006F084FF0121FF20F53007F09A
:1034000053FD0022012189020920C006FEF7D0FFEA
:1034100000BFFEE708BD0000040400203C0F0000D0
:10342000AC0D00001C0C00004C6F7720566F6C74C4
:1034300061676520506F776572204F66660A0000ED
:10344000B9D8BBFA00000000FFFF0000F0B585B05E
:1034500004464F273648007AA04204D034482C381E
:103460000079002801D005B0F0BDB81CC1B2684693
:1034700001722F480472781CC1B268464172002064
:103480001123E62206210090C42001F09FF9F81EC6
:10349000C1B26846817238460C38C1B26846C17202
:1034A000052C03DD3F20400101900CE0032C02DDE0
:1034B0002048019007E0012C02DD1F48019002E046
:1034C0001F20C0020190F81CC1B2684601730021A0
:1034D0004173002525E0002620E0B11DAA00AA18AE
:1034E0001046C430019A01F01FFCB11DAA00AA18B1
:1034F0001046C530019A01F017FCB11DAA00AA18A8
:103500001046C630019A01F00FFCB11DAA00AA189E
:103510001046C730019A01F007FC761C0C2EDCDB4C
:103520006D1CA542D7DB02A800F0CAF800BF9AE7DD
:1035300024040020AEBE00004DEF000010B50024B2
:1035400018E02046C130254A032101F0EDFB20465A
:10355000C130224A042101F0E7FB2046C1301F4A56
:10356000132101F0E1FB2046C1301C4A142101F077
:10357000DBFB641C282CE4DB002414E0611D174AEB
:10358000C12001F0D1FB611D144AC22001F0CCFB27
:10359000611D124AE72001F0C7FB611D0F4AE820B8
:1035A00001F0C2FB641C0E2CE8DB002412E0214673
:1035B00008310A4AEA2001F0B7FB21460831074AE0
:1035C000EB2001F0B1FB21460831044AEC2001F068
:1035D000ABFB641C082CEADB10BD0000FFFF000001
:1035E0001CB52D48006C642803D02B48006C78284B
:1035F0000CD12948006C29A1009101902848038C26
:1036000018220021842001F09DFB44E02248006C38
:103610007D21C900884211D11F49086C7D21C90054
:10362000FDF740FF04461FA0019400901C48038C46
:1036300018220021842001F085FB2CE01648006C44
:103640001A49884211D11449086C7D21C900FDF73F
:1036500029FF044616A0019400901148038C1822FB
:103660000021842001F06EFB15E00B48006C12492C
:10367000884210D10849086C7D21C900FDF712FF6E
:1036800004460EA0019400900548038C18220021E6
:10369000842001F057FB1CBD040500202564200098
:1036A000B803002025646B202000000010270000D4
:1036B00025646B2000000000A086010025646B00DB
:1036C0007CB504460DA0019400900D48438C18224F
:1036D0000021084601F036FB09486C30407C05218A
:1036E0000D1A052D09DA07480090635D0C21694326
:1036F00008461822002101F099F97CBD25730000CD
:10370000B8030020FFFF000030B5044604250B205D
:10371000000400F09DF80546042D17D10C480069FF
:10372000022108430A4908610846446100694021B2
:103730000843074908610B20000400F089F805469A
:10374000034800690221884301490861284630BDC9
:103750000020024004200D49C968C907C90F00298B
:1037600001D0012010E00949C96810221140002948
:1037700001D0022008E00549C9680422114000294F
:1037800001D0032000E00420704700000020024028
:10379000034800698021084301490861704700001F
:1037A0000020024078B506460C4604250020009013
:1037B0000B20000400F04CF80546042D24D11348DA
:1037C0000069012108431149086134800B2000047D
:1037D00000F03EF80546042D10D1B01C0090200CDE
:1037E000009908800B20000400F032F805460748D5
:1037F0000069400840000549086105E00348006988
:103800004008400001490861284678BD0020024078
:1038100001460020044A10684008400002460A435E
:103820001046014A106070470020024005480069B8
:1038300080210840002804D003480249486003481A
:10384000486070470020024023016745AB89EFCDF7
:1038500010B503460424FFF77DFF044603E0FFF79D
:1038600079FF04465B1E012C01D1002BF7D1002B00
:1038700000D10524204610BD10B545A006F052F930
:10388000B12189004748FDF73EFE47484549086099
:103890004648474908644749454881820020C0435B
:1038A0004349C88208834448488388830020C04332
:1038B000C883088448840A2008744048394948600D
:1038C00001463848C16484300161843881620167EF
:1038D000943041623A49943881603A4901653A49E5
:1038E0009430416039499438C16236490A39416798
:1038F00037499430816237499438C160364941650F
:10390000364994308160364994380163354981677E
:1039100035499430C1623549943801613449816533
:1039200034499430C1603449943841633349C167A4
:103930003349943001633349943841613249C16558
:103940003249943001613249943881633149001D14
:10395000C1673149903041633049943881610166D3
:10396000943041619438C1634C3081634830816345
:103970002B499438C1614166943081619438016467
:103980004C30C1634830C16307F0C0FA10BD00007D
:10399000466163746F72795F526573746F72650A02
:1039A000000000003801002079563416785639128C
:1039B000B803002018C600005A7E00000AD7A33BB7
:1039C0001219C9428EC5C74234A9C842D5F1C842AE
:1039D00055FCC742288C794479C2784412E7784470
:1039E0001B647944E66879442E78794401B91C4611
:1039F000C4D01B46C9621C4628BC1C4628B61B46C0
:103A0000C7BF1B46FB06C44734ABC2471666C34755
:103A100041D9C347EEF1C24736D2C24700247449A8
:103A20008096184BF3B587B00798002803D1384D1E
:103A3000384C394E16E00798012804D1374D354CE3
:103A4000241D374E0EE00798022804D1354D314C25
:103A50000834354E06E00798032803D1334D2D4C2A
:103A60000C34334E00200690002706E0B800295899
:103A70000698FDF768FD06907F1C642FF6DB28464C
:103A800001F0B8FA04900699FDF7B2FD29490590B6
:103A9000FDF7EFFD0690012189070698FDF7E9FD86
:103AA0000190FEF71AF8490049080591049006991B
:103AB0000898FDF799FD0190FEF70FF849004908B5
:103AC00003910290059B049AFEF730F80ED23078ED
:103AD000401C307030780A2816DD002703E0B9005A
:103AE000089868507F1C642FF9DB0DE000203070CF
:103AF00008982168890068502068401C2060206870
:103B0000642801D300202060069809B0F0BD0000B1
:103B1000580B0020480500200C000020E80C002075
:103B20000D000020780E00200E000020081000205C
:103B30000F0000200000C44270B50546114800681F
:103B4000800011490D500F480068401C0D49086065
:103B500008460068642801D300200860002600247D
:103B600007E0A000084A11583046FDF7ECFC064675
:103B7000641C642CF5DB05493046FDF77AFD0646EA
:103B8000304670BD180000209C1600200000C8427E
:103B900030B503460C46002117E088000D4D28582B
:103BA000984211D100220DE090000B4D2858A04200
:103BB00007D148204843094D45192420504328186F
:103BC00030BD521C022AEFDB491C0329E5D3034810
:103BD000F6E7000008B5000814B50008140200203C
:103BE00030B503460C46002117E088000D4D2858DB
:103BF000984211D100220DE090000B4D2858A042B0
:103C000007D148204843094D45192420504328181E
:103C100030BD521C022AEFDB491C0329E5D30348BF
:103C2000F6E7000008B5000814B50008EC02002013
:103C300030B503460C46002117E088000D4D28588A
:103C4000984211D100220DE090000B4D2858A0425F
:103C500007D148204843094D4519242050432818CE
:103C600030BD521C022AEFDB491C0329E5D303486F
:103C7000F6E7000008B5000814B500083C01002074
:103C800010B500290CD182000D4BD21812680D4BD3
:103C90001A400D4B1A438300094C1B191A600DE0A2
:103CA00001290BD18200064BD2181268054B1A402D
:103CB000064B1A438300024C1B191A6010BD00000A
:103CC000005C00408F8F0000C080000080C00000BA
:103CD000F0B50A4600210023002400BF3DE0012585
:103CE0008D402B4615681D402C469C4234D11579D9
:103CF000012D02D01579022D16D185684F000326BB
:103D0000BE40B543856055794E00B5408668354361
:103D10008560858801268E40B543858085889679A3
:103D20008E40B6B23543858005684F000326BE40FD
:103D3000B543056015794E00B5400668354305600A
:103D4000C5684F000326BE40B543C560D5794E0017
:103D5000B540C6683543C560491C1029BFD3F0BDC6
:103D6000F0B5002300244D07EE0E1546B5402B4656
:103D7000CD10AE0005462035AD594E07F70E0F2683
:103D8000BE40B543CE10B60007462037BD51CD101A
:103D9000AE003D46AD591D432C46CD10AD003E460C
:103DA0007451F0BD0185704781617047002A01D0D0
:103DB000816100E00185704701468800024A801851
:103DC000006880B270470000005C00400146064871
:103DD000006980B2CA008018801C044A80180088DC
:103DE0008005800D70470000405C0040006000408E
:103DF00001460648006980B2CA008018801D044A46
:103E0000801800888005800D70470000405C0040ED
:103E10000060004001460648006980B2CA00801870
:103E2000801D044A801800888005800D70470000BE
:103E3000405C00400060004001460648006980B2D6
:103E4000CA008018801C044A801800888005800DF4
:103E500070470000405C00400060004070B50948B9
:103E6000C46A056B466BA419002C0AD008220649C7
:103E7000204600F009F9042203491031284600F0D9
:103E800003F970BD80F7FF1F6E0000201CB50321F1
:103E9000684601710021C1714020009069460920E7
:103EA000C006FFF715FF1020009069460920C006E4
:103EB000FFF70EFF0820009069460920C006FFF7B3
:103EC00007FF0021684601710121C171C8030090FC
:103ED00069461D48FFF7FCFE01204002009069463C
:103EE0001948FFF7F5FE02216846C171C80100902C
:103EF00069460920C006FFF7EBFE01216846017103
:103F00000021C1718020009069460F48FFF7E0FE54
:103F100001204002009069460920C006FFF7D8FE44
:103F200001208002009069460920C006FFF7D0FEFC
:103F3000012291020920C006FFF738FF01228021EB
:103F40000148FFF733FF1CBD0004004870B506466A
:103F500033480078012860D0324800680121C90246
:103F6000884202D100202F4908602E4800682E495F
:103F70000968884203D100202949087070BD29488A
:103F8000006829490968884207D926480068012144
:103F9000C902081A2549086006E02348006821493B
:103FA0000968401A214908602048006840280ED955
:103FB0001C48008885B240241A48006840301949DE
:103FC00008601A4800684038184908601BE0154826
:103FD000008885B21548008884B2124800681349E9
:103FE000096840180F490860002010490860402CFB
:103FF00002D101200E4908600B480068402802D118
:104000000020094908600120054908700948421943
:10401000234681213046FEF7E1FE00BFAEE70000F7
:10402000F8000020F0000020EC000020F400002048
:10403000E8000020AE19002002A005F073FD00BFCB
:10404000FEE70000486172644661756C745F486108
:104050006E646C65720A000001480249086070478E
:10406000AAAA00000030004010B50446002C05D17B
:1040700020210920C006FFF795FE04E02021092039
:10408000C006FFF791FE10BD30B50B46002100BF02
:1040900012E0040F0A2C04D2040F30344D005C559A
:1040A00003E0040F37344D005C55000100254C003F
:1040B000641C1D554C1CE1B29142EADB30BD00008E
:1040C00008B5F848407A002871D00020F649886089
:1040D000F44809304178F5A005F024FDF148407A14
:1040E000012872D1EF480930407801286ED10121B2
:1040F0000A2006F0D9FEEB480079002812D1E948E1
:104100002C30407C401CC1B2E6482C304174407CCD
:10411000052803DD0021E3482C304174E8A0FFF7B7
:10412000CFFA0DE2DF4800790128FAD1DD48001D01
:10413000807800283CD11F20C00203F02FFAD94814
:10414000001D4078012805D10020D649087104F0EF
:104150000DFCF5E1D348001D4078022803D1002072
:1041600003F0B8F8ECE1CF48001D4078052803D1F2
:10417000002003F021F8E3E1CA48001D4078072839
:1041800008D1D1A0D34B102260210090082000F06C
:10419000D9FDD5E1C348001D40780828C1D106F0FB
:1041A000B5FE0020BF49087104F0E0FBC8E1CAE198
:1041B000BC48001D807802281CD1BA48001DC07878
:1041C000002804D102F0C8FFBAE10AE12FE0B548A7
:1041D000001DC078072805DAB249091DC87802F029
:1041E00093FFADE1AF48001DC078072899D102F0D8
:1041F00063FFA5E1AB48001D8078072809D1FFF7D0
:104200003BFB00F043FD0020A649087104F0AEFB23
:1042100096E1A448001D407814289AD0A148001DBA
:104220004078322895D0AB4803F0B8F988E19D4832
:104230000930407802286BD101210A2006F034FEB3
:1042400098480079002826D1A348006C642804D13E
:104250007D21C900A04801640CE09F48006C7D21CD
:10426000C900884203D19D499B48016402E0642152
:1042700099480164FFF7B4F98A482C30027CE03099
:10428000016C97A005F04EFC934A116CE03A107C4B
:1042900002F000FC54E183480079012886D181486E
:1042A000001D007900288FD17E48001D80780028ED
:1042B00003D1401E04F00EFB42E17A48001D8078D5
:1042C000022803D1C01E03F005F839E17548001D2E
:1042D0008078032802D104F07BF931E17148001D98
:1042E0008078042803D1401F03F0B4FE28E16D4814
:1042F000001D8078052803D1801F02F05DFF1FE1BB
:104300006848001D8078072890D104F031F917E142
:10431000644809304078042888D101210A2006F039
:10432000C3FD6048007900281ED15E482C30007C17
:104330000A2804D103215B482C30017403E00A21D0
:1043400058482C30017457482C30027CE030016C06
:1043500063A005F0E7FBFEF7CBFF5F4A116CE03A84
:10436000107C02F097FBEBE04E480079012891D1D8
:104370004C48001D007900288CD14A48001D8078E7
:10438000002803D1012004F0A5FAD9E04548001D1A
:104390008078022803D1012002F09CFFD0E0414840
:1043A000001D8078032802D104F012F9C8E03D48CE
:1043B000001D8078042803D1012003F04BFEBFE0EC
:1043C0003848001D8078052803D1012002F0F4FE52
:1043D000B6E03448001D8078072801D104F0C8F801
:1043E000AEE03048407AFE285AD101210A2006F07A
:1043F0005BFD2C480930407801280ED10220294964
:104400000871002000F0D8F939A0324B2022332166
:104410000090572000F096FC92E022480930407846
:1044200002281DD11F480079012818D01D48001D01
:104430000079002813D11B484038007B002801D1A7
:10444000012000E0002017494039087306F05EFDA6
:1044500014494039087B00F0A0F904F087FA6FE0B6
:1044600010480930407804280ED10E480079012800
:1044700066D00C48001D0079002861D1012009494F
:10448000087102F0EDFF5BE006480930407806282D
:1044900056D1194B194A1A491A4804F01EFE4FE02A
:1044A00032E00000F8030020541200205379732EEC
:1044B0004B65792E56616C75653A25640A000000DB
:1044C00051504C4352000000BBD6B8B4B3F6B3A76A
:1044D00020B7F100FFFF00000405002010270000B6
:1044E000467265713A256420416D703A25640A0070
:1044F000B9D8BBFA000000009000002004010020A1
:1045000050000020601200200F48407AFF2817D189
:104510000D4809304078012812D17D20C00005F0F7
:10452000EFFE0121FF20F53006F0BEFC07A005F0EC
:10453000F9FA0022012189020920C006FDF738FF9F
:1045400000200149487208BDF8030020506F7765CC
:1045500072204F66660A000070B500240121C9036D
:104560003048FDF71CFF002801D101200443FF2142
:1045700001310920C006FDF712FF002801D00220FA
:104580000443012149022748FDF709FF002801D112
:104590000420044320462449097848400646264022
:1045A0002046704020490978484005461E4804705E
:1045B000002E04D000201D4908801D4908701A48AB
:1045C0000078002815D0194801880088401C174A37
:1045D00010805A290DDD16480078002809D10120E5
:1045E00013490870FE20134948720F4800780931BA
:1045F0004870002D15D00F48093045700B480088D1
:10460000022807DD094800885A2803DA01200949F1
:10461000487206E0054800885A2802DDFF20054957
:10462000487270BD000400483200002030000020B5
:104630002E000020F8030020FFB583B014461D466D
:10464000002629786D1C0802009028786D1C0099BE
:104650000843009055E0B0002D4909580098814268
:104660004ED1102C04D170012A494018019003E06A
:10467000F00129494018019004980019431E03983D
:104680000019421E0499039800F084F90F210902D1
:10469000224802F0A1FA0020029022E000271BE04D
:1046A00002990198405C802139410840002809D0D6
:1046B0001A490C98888100BF184806F0A9FD002807
:1046C000FAD008E000201549888100BF134806F0A1
:1046D0009FFD0028FAD07F1C082FE1DB0298401CC8
:1046E0000290214661430846C917490F0918CA10AC
:1046F00002998A42D2DC07210902084802F06CFACA
:10470000761CB000024908580028A4D107B0F0BDBB
:104710001CB5000800E3000880B600080030014026
:10472000FFB582B0064615461C460B9F002001903F
:104730002EE00198002820D12078802802DD012079
:10474000019025E0502D0AD120782E2801D1361F66
:1047500005E020462038C07F2E2800D11A3E009761
:1047600023782A463046039900F060F92846E90F7D
:10477000091849108E19641C0AE000200190234694
:104780002A46009730460399FFF756FF7619A41C76
:1047900020780028CDD106B0F0BD10B504463620F3
:1047A00000F034FA002C03D1702000F04BFA02E044
:1047B000A02000F047FA10BD18B504468623EF226A
:1047C00000210846009400F001F818BDF8B5044631
:1047D0000D4616461F463B4632462946204600F007
:1047E000D9F80F210902104802F0F6F900200090D4
:1047F0000BE00D490698888100BF0B4806F008FDC4
:104800000028FAD00098401C0090301B401C791BF7
:10481000491C484300998842EBDC07210902024801
:1048200002F0DAF9F8BD0000003001401CB580202C
:10483000009001216846017100218171C17103213D
:10484000417169465148FFF743FA102000906946CC
:104850004E48FFF73DFA0120C00300906946092049
:10486000C006FFF735FA4020009069464748FFF739
:104870002FFA0120C0030921C90688610221684678
:1048800001710820009069464048FFF721FA202076
:10489000009069463D48FFF71BFA02F0A9F9402055
:1048A0003A498861012005F02BFD4020374920312D
:1048B00008810A2005F024FD4020344988617820D1
:1048C00005F01EFD112000F0A1F9782005F018FD7B
:1048D0002F49087BFFF761FF3A2000F097F9052088
:1048E00000F0B0F9B22000F091F90C2000F0AAF924
:1048F0000C2000F0A7F9002000F0A4F9332000F00C
:10490000A1F9332000F09EF9C02000F07FF92C209F
:1049100000F098F9C22000F079F9012000F092F936
:10492000B72000F073F9352000F08CF9BB2000F0BF
:104930006DF9192000F086F9C32000F067F9122004
:1049400000F080F9C42000F061F9202000F07AF92D
:10495000C62000F05BF90F2000F074F9D02000F0C1
:1049600055F9A42000F06EF9A12000F06BF9084879
:10497000807B002803D0202000F048F902E02120AD
:1049800000F044F9292000F041F91CBD0004004862
:10499000B8030020F0B504460D4616461F462248CF
:1049A000007B00281DD12A2000F030F92146283153
:1049B00088B200F055F93146283188B200F050F93C
:1049C0002B2000F023F92946353188B200F048F950
:1049D0003946353188B200F043F92C2000F016F941
:1049E00020E01148007B01281CD12A2000F00EF99C
:1049F0002146283188B200F033F93146283188B297
:104A000000F02EF92B2000F001F92946343188B24C
:104A100000F026F93946343188B200F021F92C2013
:104A200000F0F4F8F0BD0000B8030020FFB5174611
:104A30001E46102F01D0182F03D130462038C6B2A1
:104A40000BE0202F02D1F01BC6B206E0202E01D1D0
:104A5000002602E030462C38C6B2102F23D1019B2D
:104A60000F33009AD21D01990098FFF793FF00249D
:104A700016E0002511E030015F494018005D8021FB
:104A800029410840002804D0099988B200F0E8F8CC
:104A900002E0002000F0E4F86D1C082DEBD3641C4C
:104AA000102CE6D3A7E0182F2CD1019B1733009AC6
:104AB0000B3201990098FFF76DFF00241FE00025DD
:104AC00019E0E007C00F002802D0032D00D914E040
:104AD0003020704349494018005D80212941084039
:104AE000002804D0099988B200F0BAF802E000204A
:104AF00000F0B6F86D1C082DE3D300BF641C302C09
:104B0000DDD378E0202F38D1019B1F33009A0F327C
:104B100001990098FFF73EFF0F210902384802F083
:104B20005BF8002421E000251CE0B0013549401865
:104B3000005D802129410840002809D030490998AA
:104B4000888100BF2E4806F063FB0028FAD008E0F9
:104B500000202B49888100BF294806F059FB002816
:104B6000FAD06D1C082DE0D3641C402CDBD3072148
:104B70000902234802F030F83DE0502F3BD1019B61
:104B80004F33009A273201990098FFF703FF0F2156
:104B900009021B4802F020F8002423E000251EE053
:104BA000FF209130704318494018005D8021294151
:104BB0000840002809D012490998888100BF104890
:104BC00006F026FB0028FAD008E000200C49888176
:104BD00000BF0B4806F01CFB0028FAD06D1C082D06
:104BE000DED3641CFF2091308442D7D30721090211
:104BF000034801F0F1FFFFBD20EE000810F40008AB
:104C000000300140E00501088025010800B5034699
:104C10000120C0030849088110200849088108487C
:104C2000037300BF064806F0F3FA0028FAD01020FC
:104C300002492039886100BD200000482004004856
:104C40000030014000B503460448037300BF034829
:104C500006F0DEFA0028FAD000BD00000030014066
:104C600000B5034618120849087300BF064806F04D
:104C7000CFFA0028FAD004490B7300BF024806F0AF
:104C8000C7FA0028FAD000BD0030014000B5064840
:104C9000807B002803D02020FFF7B8FF02E021200E
:104CA000FFF7B4FF00BD0000B8030020FFB50646C3
:104CB0000F463B464F3332461F3239463046FFF7E8
:104CC00069FE0F210902174801F086FF00241FE04A
:104CD00000251AE00398005D802129410840002842
:104CE00009D010490298888100BF0E4806F090FA5A
:104CF0000028FAD008E000200A49888100BF09484E
:104D000006F086FA0028FAD06D1C082DE2DB641C40
:104D1000FF2041308442DBDB07210902014801F01A
:104D20005BFFFFBD0030014070B504460D461646DE
:104D30002B46224629462046FFF72CFEB0B2FFF74D
:104D40008FFF70BDF0B5A3B005460E4617461C4652
:104D500029A80290802103A8029B289A04F006FF4C
:104D60000020029003AB3A46314628460094FFF7F4
:104D7000D7FC23B0F0BD000008B51F480068401CF8
:104D80001D49086008460068312805DD00200860DC
:104D900000F046F8FEF7CCFA02F054FC17488168A0
:104DA0001748C07B3C225043814223D915A004F010
:104DB000B9FE02201249403108710020FFF7FCFCC7
:104DC00014A0164B2022332100905720FFF7BAFF82
:104DD0007D20C00005F094FA0121FF20F53006F097
:104DE00063F80022012189020920C006FDF7E0FADC
:104DF00000BFFEE708BD00000400002054120020A0
:104E0000B80300204175746F20506F776572204F92
:104E100066660A00B9D8BBFA00000000FFFF000078
:104E200070B56F48407800282DD06D484068401C10
:104E30006B49486008464068072824D808464068FF
:104E4000062821D90846403841690020FEF7EAFDCE
:104E5000014663484078401E8200624881506049A4
:104E60004978491E8A0001468858FCF736FE0446F8
:104E700022460B465CA004F055FE012058490C392F
:104E80000873FDF7DDFCAAE055484068052820D9E5
:104E90005348403841690020FEF7C4FD01465048A0
:104EA0004078401E82004F48483881504C4949782C
:104EB000491E8A0001468858FCF70FFE0446224628
:104EC0000B4649A004F02EFE49490A2001F0E2FDFC
:104ED00085E043484068042821D941484038416969
:104EE0000020FEF79FFD01463D484078401E8200AD
:104EF0003C48903881503A494978491E8A00014619
:104F00008858FCF7EAFD044622460B4636A004F01A
:104F100009FE7D21C9000A2001F0BCFD5FE0304898
:104F2000406803281BD92E48403841690020FEF70D
:104F300079FD06463046FCF7D0FD044622460B4676
:104F400029A004F0EFFD26484078401E8100254846
:104F5000243846506421032001F09CFD3FE02048A6
:104F6000406802281BD91E48403841690020FEF7DE
:104F700059FD06463046FCF7B0FD044622460B4676
:104F800019A004F0CFFD16484078401E8100154856
:104F90006C3846501649032001F07CFD1FE0104894
:104FA000406801281BD90E48403841690020FEF7AF
:104FB00039FD06463046FCF790FD044622460B4676
:104FC00009A004F0AFFD06484078401E8100054866
:104FD000B43846507D21C900032001F05BFD70BD4F
:104FE000C4110020F0010020523A25660A0000009A
:104FF00010270000F8B5044627682668002510E051
:10500000A80021583846FCF7C1FD01D2A800275856
:10501000A80021583046FCF7C3FD01D2A80026584D
:105020006D1C642DECDB31463846FCF78CFAF8BD7C
:1050300010B598B0FB48007B002806D101F064F859
:105040000121F84801738172FDE3F648007B0128D5
:1050500002D1FDF717F8F7E7F248007B022848D1A4
:105060000020169017E016984100EE481C30415A77
:1050700008460D91FCF7DBFC01461698C200EA4891
:105080008150002116984000401C8200E648815063
:105090001698401C169016988028E4D3012300220D
:1050A000E149E248FBF7F1FC8022E149DE48FBF7E9
:1050B00049F80020DE495439486516AB14AA40214E
:1050C000DB48FBF771FD1698C100D7484158D94815
:1050D000016016984000401C8100D3484058D649D2
:1050E000086000F0F7FE0321CE48017301218172B0
:1050F000AAE7CC48007B032802D1FCF7C3FFA3E753
:10510000C848007B04289FD10020169017E016980D
:105110004100C4481C30415A08460D91FCF787FCF9
:1051200001461698C200C0488150002116984000E0
:10513000401C8200BC4881501698401C169016985E
:105140008028E4D301230022B749B848FBF79DFC2F
:105150008022B749B448FAF7F5FF0020B449543922
:10516000486516AB13AA4021B148FBF71DFD169800
:10517000C100AD484058B149086016984000401C35
:105180008100A9484058AE490860AA480168AA4869
:10519000006805F03BFDAB490C90FCF72DFAAA49DD
:1051A0000D90FCF766FA1290A4480168A4480068C4
:1051B00005F02CFDA3490C90FCF71EFAA2490D90B6
:1051C000FCF757FA119011991298FCF70DFA9F49C4
:1051D00048620846416A0D919A490D98FCF7E0FC37
:1051E00008D29A48406A9A490D90FCF7FDF9974910
:1051F00048620EE09548406A96490D90FCF7C6FC5F
:1052000007D29248406A92490D90FCF79CF98F4969
:1052100048628448407B9049085C0B90FCF707FC8F
:105220000D908048807B8C49085C0990FCF7FFFB5F
:105230000B907C48C07B41008848405A0990FCF79D
:10524000F6FB0A900B99FCF7D7F90C900D99FCF737
:1052500010FA15907A4801680068FCF7CDF90B90B8
:10526000764801680068FCF7C7F90A900B99FCF7CB
:105270006AF90D90724801686E480068FCF7BCF945
:105280000A906E4801686C480068FCF7B5F909900F
:105290000A99FCF7A9F90B901599FCF7ADF90C9058
:1052A0000D99FCF7E6F969490862654801680068EC
:1052B000FCF7A2F90B90614801680068FCF79CF9C3
:1052C0000A900B99FCF73FF90D905D4801685A4828
:1052D0000068FCF791F90A90584801685548006841
:1052E000FCF78AF909900A99FCF72DF90B901599AA
:1052F000FCF782F90C900D99FCF7BBF95349486112
:1053000049485438016C08460A91FCF790FB54490F
:105310000B90FCF771F90C904C48806A01460B9099
:105320000C98FCF769F901460D904E48FCF7A1F97D
:10533000464988613C485438016C08460A91FCF79C
:1053400076FB47490B90FCF757F90D903F48806A70
:1053500001460B904448FCF74FF90C900D99FCF76F
:1053600088F93A49C8612F48407C042803D108468F
:105370004069C86222E03548406901460D9000202E
:10538000FEF750FB3149C8620846816901200D9142
:10539000FEF748FB2D4908630846C16902200D91BC
:1053A000FEF740FB294948630846016A8162416A69
:1053B00003200D91FEF736FB244988631948007CD1
:1053C0000D9019485438016C0C910D990C98FEF70A
:1053D0002FFC1090109801681C480D91C16A0C9127
:1053E0000D990C98FCF700F91849C86210984168AB
:1053F00016480D91C16A0C910D990C98FCF7C6FBEB
:1054000036D21098416811480C91C16A0B910C99E1
:105410000B98FCF72EF915490D90FCF7EDF80B49A8
:10542000C862FCE02404002058050020443E010826
:10543000580900201C00002020000020240000202B
:105440002800002000003443DB0F49408411002075
:105450000000B443000034C3FCB4000804B50008E5
:10546000DB0FC940286B6ECE002474490000C8428F
:1054700010988168FC480D91C16A0C910D990C98A7
:10548000FCF784FB21D2109841680A918168099148
:105490000A990998FCF7A8F80C90109840680990B0
:1054A000F148C06A08900999FCF79EF8EF490A9004
:1054B000FCF7A2F80B900C99FCF7DBF8EC490D9087
:1054C000FCF741F8E849C862A9E01098C168E648CD
:1054D0000D91C16A0C910D990C98FCF757FB21D2E4
:1054E000109881680A91C16809910A990998FCF796
:1054F0007BF80C90109880680990DB48C06A08908F
:105500000999FCF771F8DB490A90FCF775F80B90E4
:105510000C99FCF7AEF8D8490D90FCF714F8D24975
:10552000C8627CE010980169CF480D91C16A0C9166
:105530000D990C98FCF72AFB21D21098C1680A91AA
:10554000016909910A990998FCF74EF80C90109896
:10555000C0680990C448C06A08900999FCF744F8EB
:10556000C6490A90FCF748F80B900C99FCF781F8B3
:10557000C3490D90FBF7E7FFBB49C8624FE01098A5
:105580004169B9480D91C16A0C910D990C98FCF7CD
:10559000FDFA22D2109801690A91416909910A998C
:1055A0000998FCF721F80C9010980169AE48099110
:1055B000C16A089109990898FCF716F8B1490A9050
:1055C000FCF71AF80B900C99FCF753F8AE490D90C4
:1055D000FBF7B9FFA449C86221E0109841690A911C
:1055E000816909910A990998FBF7FEFF0C901098C0
:1055F00041699D480991C16A089109990898FBF78A
:10560000F3FFA2490A90FBF7F7FF0B900C99FCF708
:1056100030F89F490D90FBF796FF9349C8629D496A
:105620009D4841629D4981629D49C1629D490163D6
:105630008F494163904981639149C16392490164F3
:10564000994941649349C166944901679449416706
:10565000944981678649C167874948308163884991
:10566000C163894901648A4941648A494830416279
:105670008A4981628A49C1628A4901637C494163DE
:105680007D4981637E49C1637F49016480494164EA
:105690008049EC38C16581495C3041608049816056
:1056A0008049C160724901617349416174498161F6
:1056B0007549C16176490162764981647749C1645F
:1056C0007749016577494165694981656A49C165DD
:1056D0006B4901666C4941666D4981666D49803050
:1056E00001616E49103041606D4981606D49C16052
:1056F0005F49016160494161614981616249C161FC
:1057000063490162FF308130007C0D906748016C75
:105710000C910D990C98FEF73BFA0F900F980168C9
:1057200051480D91016B0C910D990C98FCF72EFAD4
:1057300019D20F9801684C480891016B079108999C
:105740000798FBF796FF0990FCF7C7F9584A594BA1
:105750000B910A90FCF780F80D910C90FCF7FAF988
:1057600041490863EAE10F9841683F480D91016B98
:105770000C910D990C98FCF709FA33D20F98016837
:1057800004914168039104990398FBF72DFF05905C
:10579000FCF7A3F9099108900F980168324802912B
:1057A000016B019102990198FBF71EFF0390FCF732
:1057B00094F9414A414B05910490FCF74DF807914B
:1057C0000690099B089AFCF7AFF8394A394B0B91C0
:1057D0000A90FBF78DFF0D910C90FCF7BBF9224965
:1057E0000863ABE10F9881681F480D91016B0C9124
:1057F0000D990C98FCF7CAF96AD20F984168049188
:105800008168039104990398FBF7EEFE0590FCF77D
:1058100064F9099108900F98416813480291016B4F
:10582000019102990198FBF7DFFE0390FCF755F90F
:10583000234A244B05910490FCF70EF8079106903B
:10584000099B089A00E0A0E2FCF76EF81E4A1F4B85
:105850000B910A90FBF74CFF0D910C90FCF77AF935
:10586000014908636AE133E08411002000006144CB
:105870000000C84200A00C4600007A4400C8AF47B0
:1058800000401C4600BA5B490050C3474054094BD6
:1058900000247449D0613E3C1402002058CBDD3D09
:1058A000342B8D3F00002041000C78490405002076
:1058B0007B14AE47E17A843F0AD7A3703D0AB73F15
:1058C000CDCCCCCCCCCCEC3F9A9999999999B93F55
:1058D0000F98C168FE480D91016B0C910D990C98C1
:1058E000FCF754F923D20F9881680A91C168099195
:1058F0000A990998FBF778FE0C900F988168F44894
:105900000991016B089109990898FBF76DFEF1491F
:105910000A90FBF771FE0B900C99FBF7AAFE7F2112
:10592000C9050D90FBF70FFEE949086306E10F98E2
:105930000169E7480D91016B0C910D990C98FCF7EA
:1059400025F922D20F98C1680A91016909910A9933
:105950000998FBF749FE0C900F98C168DC48099143
:10596000016B089109990898FBF73EFEDA490A9005
:10597000FBF742FE0B900C99FBF77BFED7490D908D
:10598000FBF7E1FDD2490863D8E00F984169D048A0
:105990000D91016B0C910D990C98FCF7F7F822D240
:1059A0000F9801690A91416909910A990998FBF7D1
:1059B0001BFE0C900F980169C5480991016B089175
:1059C00009990898FBF710FEC5490A90FBF714FEE9
:1059D0000B900C99FBF74DFEC2490D90FBF7B3FD00
:1059E000BB490863AAE00F988169B9480D91016B22
:1059F0000C910D990C98FCF7C9F822D20F984169C7
:105A00000A91816909910A990998FBF7EDFD0C90BB
:105A10000F984169AE480991016B0891099908985E
:105A2000FBF7E2FDB0490A90FBF7E6FD0B900C99FD
:105A3000FBF71FFEAD490D90FBF785FDA4490863F8
:105A40007CE00F98C169A2480D91016B0C910D99F2
:105A50000C98FCF79BF822D20F9881690A91C169D2
:105A600009910A990998FBF7BFFD0C900F9881697D
:105A700097480991016B089109990898FBF7B4FDC3
:105A80009B490A90FBF7B8FD0B900C99FBF7F1FDD1
:105A900098490D90FBF757FD8D4908634EE00F982C
:105AA000016A8B480D91016B0C910D990C98FCF7D4
:105AB0006DF822D20F98C1690A91016A09910A9979
:105AC0000998FBF791FD0C900F98C16980480991E6
:105AD000016B089109990898FBF786FD86490A90A1
