:020000040000FA
:10000000E8AFFF1F99020000612800003B040000D8
:10001000592800002B040000A1350000000000005A
:100020000000000000000000000000008933000014
:100030003304000000000000B12D00002134000056
:100040007D1700008D1700009D170000AD17000000
:10005000BD170000CD170000DD170000ED170000F0
:10006000FD1700000D1800001D1800002D180000DD
:100070003D1800004D1800005D1800006D180000CC
:100080007D1800008D1800009D180000AD180000BC
:10009000BD180000CD180000DD180000ED180000AC
:1000A000FD1800000D1900001D1900002D19000099
:1000B0003D1900004D1900005D1900006D19000088
:1000C0007D19000091190000A5190000B919000060
:1000D000CD190000E1190000F5190000091A00000F
:1000E0001D1A0000311A0000451A0000591A0000BC
:1000F0006D1A0000811A0000951A0000A91A00006C
:10010000BD1A0000D11A0000E51A0000F91A00001B
:100110000D1B0000211B0000351B0000491B0000C7
:100120005D1B0000711B0000851B0000991B000077
:10013000AD1B0000C11B0000D51B0000E91B000027
:10014000FD1B0000111C0000251C0000391C0000D4
:100150004D1C0000611C0000751C0000891C000083
:100160009D1C0000B11C0000C51C0000D91C000033
:10017000ED1C0000011D0000151D0000291D0000E0
:100180003D1D0000511D0000651D0000791D00008F
:100190008D1D0000A11D0000B51D0000C91D00003F
:1001A000DD1D0000F11D0000051E0000191E0000ED
:1001B0002D1E0000411E0000551E0000691E00009B
:1001C0007D1E0000911E0000A51E0000B91E00004B
:1001D000CD1E0000E11E0000F51E0000091F0000FA
:1001E0001D1F0000311F0000451F0000591F0000A7
:1001F0006D1F0000811F0000951F0000A91F000057
:10020000BD1F0000D11F0000E51F0000F91F000006
:100210000D200000212000003520000049200000B2
:100220005D20000071200000852000009920000062
:10023000AD200000C1200000D5200000E920000012
:10024000DB020000DB020000DB020000DB0200003A
:10025000DB020000DB020000DB020000DB0200002A
:10026000DB020000DB020000DB020000DB0200001A
:10027000DB020000DB020000DB020000DB0200000A
:10028000DFF810D000F06EF8004800475958000021
:10029000AFF30080E8AFFF1F10484FF07701016017
:1002A0000F484FF0770101600E484FF4885101600C
:1002B0000A484FF07601016009484FF0760101606D
:1002C0000948804709480047FEE7FEE7FEE7FEE7EA
:1002D000FEE7FEE7FEE7FEE7FEE7FEE7040805406F
:1002E0000C080540000805404D3500008102000063
:1002F00040EA01039B0703D009E008C9121F08C0A8
:10030000042AFAD203E011F8013B00F8013B521E27
:10031000F9D27047D2B201E000F8012B491EFBD29E
:1003200070470022F6E710B513460A460446194600
:10033000FFF7F0FF204610BD30B50B460146002008
:100340002022012409E021FA02F59D4205D303FA97
:1003500002F5491B04FA02F52844151EA2F1010218
:10036000F1DC30BD064C074D06E0E06840F00103CB
:1003700094E8070098471034AC42F6D3FFF784FFA7
:10038000C06D0000F06D000070B58C1810F8015BB6
:1003900015F0070301D110F8013B2A1106D110F81E
:1003A000012B03E010F8016B01F8016B5B1EF9D122
:1003B0002B0705D40023521E0DD401F8013BFAE7A8
:1003C00010F8013BCB1A921C03E013F8015B01F813
:1003D000015B521EF9D5A142D8D3002070BD48F26E
:1003E0005B0CC1F6FF7C604748F2390CC1F6FF7C1C
:1003F000604748F2010CC1F6FF7C604700F06DBE1B
:10040000FFFFFFFFFFFEFFFFFFFFFFFFFFFFFFFFFD
:10041000FFFFFFFFFFFFFFFFFFFFFFFFFFFFFFFFEC
:1004200048F2A51CC1F6FF7C604710B5AFF3008011
:1004300010BD10B5AFF3008010BD10B5AFF3008054
:1004400010BD704703F02ABF10B50446002C0CD035
:10045000012C0AD0022C08D0032C06D0042C04D086
:100460004FF4C86111A000F02DFC1B4854B1012CC1
:100470000DD0022C10D0032C13D090F84100C0F303
:10048000000010BD90F83C00C0F3000010BD90F8D3
:100490003C00C0F3C00010BD90F83C00C0F3401019
:1004A00010BD90F83C00C0F3801010BD2E2E5C2EC5
:1004B0002E5C2E2E5C2E2E5C2E2E5C647269766570
:1004C000725C7372635C68633332663436305F63C8
:1004D0006C6B2E630000000000400540F8B5054637
:1004E000002000900024284EB6F8FE034AF2015185
:1004F0000843A6F8FE03002D06D0012D04D040F2DB
:10050000252122A000F0DEFB4DB196F8360020F048
:10051000010086F8360009244FF4805525E096F84E
:10052000260040070ED0D6F8000100060ED596F83A
:100530002A00C00708D096F8360040F0010086F87F
:10054000360015E0012413E0012411E096F836008E
:1005500040F0010086F836000AE00020FFF774FF43
:1005600001280FD00098401C00900098A842F4D3B6
:10057000B6F8FE0320F0010040F42540A6F8FE0383
:100580002046F8BD0024F3E7004005402E2E5C2EE7
:100590002E5C2E2E5C2E2E5C2E2E5C64726976658F
:1005A000725C7372635C68633332663436305F63E7
:1005B0006C6B2E6300000000F8B50546002000902B
:1005C0000024002D06D0012D04D040F236311EA0AB
:1005D00000F078FB274EB6F8FE034AF201510843BB
:1005E000A6F8FE034DB196F82A0020F0010086F827
:1005F0002A0009244FF4805516E096F8260000F0F2
:100600000700052806D096F82A0040F0010086F879
:100610002A000CE001240AE00220FFF715FF012860
:100620000FD00098401C00900098A842F4D3B6F870
:10063000FE0320F0010040F42540A6F8FE0320460A
:10064000F8BD0024F3E700002E2E5C2E2E5C2E2E2B
:100650005C2E2E5C2E2E5C6472697665725C737201
:10066000635C68633332663436305F636C6B2E6371
:10067000000000000040054010B50446002C5BD08F
:100680002068801E0E2804D940F205312BA000F00E
:1006900019FB6068401E0F2804D940F2063127A0DC
:1006A00000F010FBA068801E0E2804D940F207312C
:1006B00022A000F007FBE0681438B0F5E67F04D90B
:1006C0004FF442711DA000F0FDFA2069401E17286A
:1006D00004D940F2093119A000F0F4FA2248B0F828
:1006E000FE124AF201521143A0F8FE12217802686C
:1006F000491E61F31F72026021790268491E61F38D
:100700001B620260217A0268491E61F3175202607F
:10071000A1890268491E61F310220260217C0268EF
:10072000491E61F304020260B0F8FE1221F00101DB
:1007300041F42541A0F8FE1210BD00002E2E5C2EC3
:100740002E5C2E2E5C2E2E5C2E2E5C6472697665DD
:10075000725C7372635C68633332663436305F6335
:100760006C6B2E63000000000041054010B504468C
:10077000002C06D0012C04D040F2E5210BA000F0A3
:10078000A1FA1549B1F8FE024AF201521043A1F84C
:10079000FE02086864F3C7100860B1F8FE0220F09A
:1007A000010040F42540A1F8FE0210BD2E2E5C2E63
:1007B0002E5C2E2E5C2E2E5C2E2E5C64726976656D
:1007C000725C7372635C68633332663436305F63C5
:1007D0006C6B2E63000000000041054070B586B0D0
:1007E0000446002605962E4D2868049068680390FC
:1007F000A8680290E8680190002C07D0601E0428C9
:1008000004D940F2DD3127A000F05CFA30482861BD
:10081000304991F826004A1500F00700052801D05C
:10082000052C0BD12C482860C0126860A860E860D5
:100830000598401C059005989042F9D32631B1F8EF
:10084000D8034AF201531843A1F8D803087864F397
:1008500002000870B1F8D80320F0010040F42540F0
:10086000A1F8D80305960598401C0590059890427C
:10087000F9D304982860039868600298A8600198EA
:10088000E8601348401E286105960598401C0590B5
:1008900005989042F9D306B0BDE8704002F000BE62
:1008A000008004402E2E5C2E2E5C2E2E5C2E2E5CA4
:1008B0002E2E5C6472697665725C7372635C686329
:1008C0003332663436305F636C6B2E630000000099
:1008D0000100A5A500400540EEFAFFFF10B5044653
:1008E000A01E022807D9801F052804D940F22751ED
:1008F0000BA000F0E7F91549B1F8DA034AF201520A
:100900001043A1F8DA03087864F307100870B1F80F
:10091000DA0320F0010040F42540A1F8DA0310BD0D
:100920002E2E5C2E2E5C2E2E5C2E2E5C2E2E5C64CB
:1009300072697665725C7372635C686333326634C5
:1009400036305F636C6B2E6300000000244005406E
:10095000F0B585B0044600260496434D2868039000
:1009600068680290A8680190E86800903F48286194
:10097000002C76D02178E27891421BD86379994295
:1009800018D8A079814215D8A178914212D89942FD
:1009900010D821790A1A032A11D0022A0FD0012A6D
:1009A0000DD081420BD0401A012808D0022806D071
:1009B000032804D040F23C412DA000F083F93749D0
:1009C00091F826004A1500F0070005280BD134489D
:1009D0002860C0126860A860E8600498401C049019
:1009E00004989042F9D3B1F8FE034AF20153184338
:1009F000A1F8FE03A078E378677940EA0310237931
:100A00001B0243EA07331843A37940EA03406378A3
:100A100040EA0353207843EA006343EA0070086227
:100A2000B1F8FE0320F0010040F42540A1F8FE03D8
:100A300004960498401C049004989042F9D30398BB
:100A40002860029868600198A8600098E8600748EC
:100A5000401E286104960498401C0490049890421B
:100A6000F9D305B0F0BD0000008004400100A5A549
:100A70002E2E5C2E2E5C2E2E5C2E2E5C2E2E5C647A
:100A800072697665725C7372635C68633332663474
:100A900036305F636C6B2E63000000000040054041
:100AA000EEFAFFFF38B50446002C06D0012C04D026
:100AB00040F29F3122A000F005F92C49B1F8FE0365
:100AC0004AF201521043A1F8FE03012C04D091F820
:100AD0002E0040F0010003E091F82E0020F001000C
:100AE00081F82E00B1F8FE0320F0010040F425400B
:100AF000A1F8FE0300204FF480550CB1009017E0E0
:100B0000009007E00098401C00900098A84201D98E
:100B1000092038BD0320FFF797FC0028F2D10CE034
:100B20000098401C00900098A84201D9092038BDC7
:100B30000320FFF789FC0128F2D1002038BD000016
:100B40002E2E5C2E2E5C2E2E5C2E2E5C2E2E5C64A9
:100B500072697665725C7372635C686333326634A3
:100B600036305F636C6B2E63000000000040054070
:100B700070B50446002C7CD02068801E0E2804D955
:100B800040F26F313EA000F09DF86068801E0E2894
:100B900004D94FF45C713AA000F094F8A068801E6C
:100BA0000E2804D940F2713135A000F08BF8E068CE
:100BB0001438B0F5E67F04D940F2723130A000F06D
:100BC00081F82069801E162804D940F273312CA0C8
:100BD00000F078F8354DD5F80001000601D434480E
:100BE00001E0344800682169B0FBF1F0E668464353
:100BF000314908443149884204D940F27A3120A071
:100C000000F060F82E482E4930444942884204D909
:100C100040F27B311AA000F055F805F58275B5F861
:100C2000FA024AF201510843A5F8FA02207829682D
:100C3000401E60F31F71296020792968401E60F30F
:100C40001B612960207A2968401E60F317512960D2
:100C5000A0892968401E60F310212960207C296842
:100C6000401E60F304012960B5F8FA0220F001008B
:100C700000E003E040F42540A5F8FA0270BD000052
:100C80002E2E5C2E2E5C2E2E5C2E2E5C2E2E5C6468
:100C900072697665725C7372635C68633332663462
:100CA00036305F636C6B2E6300000000004005402F
:100CB00000127A00B082FF1FC0BDF0FFC0F35E01DA
:100CC00000E4B1F110B50A46014602A002F086FC2C
:100CD000FEE7000057726F6E6720706172616D658C
:100CE000746572732076616C75653A2066696C650F
:100CF000202573206F6E206C696E652025640D0AB7
:100D00000000000008B50A490A4A096891420BD957
:100D1000B1FBF2F304E0009300994A1E0092FBD26B
:100D2000401E411CF7D108BD401E411CFCD108BD2E
:100D3000B482FF1F8096980010B50446002C05D0A1
:100D4000012C03D0BB2107A0FFF7BCFF1049012CE9
:100D500003D0086840F0010002E0086820F00100BC
:100D6000086010BD2E2E5C2E2E5C2E2E5C2E2E5C6E
:100D70002E2E5C6472697665725C7372635C686364
:100D80003332663436305F65666D2E6300000000D6
:100D90000404014010B50446012C11D0022C0FD0E0
:100DA000042C0DD0082C0BD0102C09D0202C07D0EF
:100DB000B4F5807F04D040F2951105A0FFF782FFC3
:100DC0000E480068204201D0012010BD002010BD57
:100DD0002E2E5C2E2E5C2E2E5C2E2E5C2E2E5C6417
:100DE00072697665725C7372635C68633332663411
:100DF00036305F65666D2E63000000001004014010
:100E000004480168012903D143F210210160016007
:100E100070470000000401400FB5064900910649E3
:100E20000A6801924A6802928968039101A90EC971
:100E30000EC00FBD3FCA02405004014010B5044629
:100E4000002C21D0012C1FD0022C1DD0032C1BD034
:100E5000042C19D0052C17D0062C15D0072C13D034
:100E6000082C11D0092C0FD00A2C0DD00B2C0BD034
:100E70000C2C09D00D2C07D00E2C05D00F2C03D034
:100E8000DC2104A0FFF71EFF0D48016864F3071181
:100E9000016010BD2E2E5C2E2E5C2E2E5C2E2E5C44
:100EA0002E2E5C6472697665725C7372635C686333
:100EB0003332663436305F65666D2E6300000000A5
:100EC000080401402DE9F04705460F46002600249E
:100ED000244885420BD223483830854207D922481E
:100EE000854204D940F21B2120A0FFF7EBFE3F20F2
:100EF000FFF775FADFF8A090D9F80000C0F30048BA
:100F0000D9F8000020F48030C9F800000120FFF774
:100F10006BFA09F10402106820F0700010301060C4
:100F20002F609114101D04E0641CA4B28C4200D9FF
:100F300009260368DB05F7D5BF4200D00126102043
:100F4000FFF74DFA106820F0700010600020FFF7E6
:100F50004BFAD9F8000068F31040C9F80000304699
:100F6000BDE8F087C00F0003DFFF07002E2E5C2EC8
:100F70002E5C2E2E5C2E2E5C2E2E5C6472697665A5
:100F8000725C7372635C68633332663436305F65FB
:100F9000666D2E630000000008040140034840F223
:100FA0002311016043F210210160704700040140E9
:100FB00010B50020810101F5FC210978A02904D099
:100FC000401CC0B27F28F5D310BD4FF4FC2101EBCB
:100FD000801140220B48FFF78BF9282000F01AF807
:100FE0000028F1D0282000F015F8074908802A20B1
:100FF00000F010F8054908802C2000F00BF8044997
:10100000088010BD24A9FF1F3C83FF1F3E83FF1FE4
:101010004083FF1F08B50021009103490844008860
:101020000090BDF8000008BD24A9FF1F2DE9F04184
:1010300000241D4FA0264FF4FC25A10101F5FC2141
:101040000878FF280ED0641CE4B27F2CF5D3284624
:1010500000F02CF83E702846BDE8F04140221249CD
:10106000FFF7C7B93E7005EB841040220E49FFF729
:10107000C0F9002C15D0601E810101F5FC21097812
:10108000A02907D0A41E05EB8410BDE8F041002183
:1010900000F023B805EB8010BDE8F041002100F01E
:1010A0001CB8BDE8F081000024A9FF1F70B50546FB
:1010B000FFF774FF0120FFF73FFE4FF480742046D6
:1010C000FFF768FE0128FAD172B62846FFF7A8F9A3
:1010D00062B6BDE87040FFF793BE70B505460E4698
:1010E000FFF75CFF0120FFF727FE4FF480742046D6
:1010F000FFF750FE0128FAD172B631462846FFF7B5
:10110000E1FE62B6BDE87040FFF77ABE1CB5002074
:10111000009001908DF800006A464FF48071012024
:1011200001F058FC6A460821012001F053FC4FF4FD
:1011300000746A462146012001F04CFC6A461021E9
:10114000012001F047FC6A462146002001F042FCE4
:1011500001208DF804006A460121052001F03AFCC7
:101160006A466101022001F035FC1CBD10B586B055
:1011700004466846FFF750FE9DE8070003AB07C32F
:10118000012C0DD0022C0DD0032C0DD00398049906
:1011900080B289B20844059900EB014006B010BD49
:1011A0000398FBE70498F9E70598F7E72DE9F8437A
:1011B00068480090684C69480099694E084482E08C
:1011C000217800297ED022781346082502E05B08AA
:1011D0006D1EEDB2DF07FAD0F82A22D008DC802A93
:1011E00027D0C02A23D0E02A1FD0F02A06D11AE047
:1011F000FC2A14D0FE2A10D0FF2A0CD00022574B14
:10120000009F08333B449C421DD31846231A12D03A
:10121000012B4ED112E0FE22F1E7FC22EFE7F8228B
:10122000EDE7F022EBE7E022E9E7C022E7E78022E2
:10123000E5E70022E3E74B4911433AE06FF47F41D1
:1012400041EA022135E0454B009F1B1D3B44FF272F
:101250004FF6FF7C6FF07F489C4214D31846231A48
:1012600006D0012B06D0022B07D0032B21D107E09B
:1012700011461EE047EA02211BE00CEB024118E098
:1012800048EA026115E0844213D3231A06D0012BE9
:1012900006D0022B08D0032B0BD108E0114608E042
:1012A00047EA022105E00DE00CEB024101E048EACB
:1012B0000261FFF7A3F80098201A133005EBC00075
:1012C000707003E0641E8442BFF47AAF7078032428
:1012D00098B325480179427901EB02218279C079DE
:1012E000120402EB0060084430610020FFF73EFF6B
:1012F00000F0070120FA01F2884010441B4988429F
:1013000003D91B490844400803E0194949420844ED
:10131000400031690125814212D1104A0098383AC3
:101320001044FFF76BF81349009808443169D0F86E
:10133000B50D884202D1F57006E003E0B47003E019
:10134000B57001E00220B0702046B471BDE8F843EA
:1013500000F00EB953AE0043490C0003ED5DFFBF32
:10136000C882FF1F0000FFFF64ABFF1F33DDD353B4
:1013700034DDD3D30050FFBF044905220A70112287
:101380004A7009228A70C87070470000A4ABFF1F22
:1013900010B5094C207A032809D8A07900F0E8F8A4
:1013A000207A401C207202F035F8E06110BD002068
:1013B000E071207210BD0000C882FF1F00200321D1
:1013C000044A535C1844C0B2491CC9B23F29F8D33F
:1013D0007047000064ABFF1F06480178052905D15E
:1013E0004178112902D18178092901D00020704764
:1013F000C078704764ABFF1F2DE9F041594C0026BF
:10140000E671E07A584D002802D0FFF7E5FFB0B151
:10141000FFF7D4FF95F83F1088427CD1FFF7DCFF3F
:101420000127692878D029DC4FF48031652843D022
:101430001FDCA8B301281AD064282BD136E0E0893C
:10144000617A884203D9F420A07100F091F800205D
:10145000464BE289295CA6890E44A68100EB8216E0
:101460009955401CC0B24028F4D3521CE281BDE81B
:10147000F081672842D068280CD12EE0F128F6D000
:1014800004DC6A285FD0F02804D1F0E7F2285ED0AF
:10149000FF28ECD0F120A071BDE8F04100F068B861
:1014A000F020A071BDE8F04100F062B83046A671AE
:1014B000BDE8F04100F05CB8A681E6812879607251
:1014C0006879A072401E01EB4030A0613846E77297
:1014D000A071BDE8F04100F04BB8A681E681287903
:1014E00060726879A072401E01EB4030A0613846FE
:1014F000E772A071BDE8F04100F03AB8E672A08949
:101500002979C2B291420FD16979B1EB102F0BD179
:10151000A771384601E01EE00CE000F029F801F068
:1015200079FF60612771A2E7F320A071BDE8F04167
:1015300000F01EB8A771384600F01AF801F06AFFF3
:101540006061677193E7BDE8F041FFF72FBEBDE82A
:10155000F041FFF71DBFF220A071BDE8F04100F09F
:1015600007B80000C882FF1F64ABFF1FE488FF1F9D
:1015700010B5044640212748FEF7D3FEF12C34D0A5
:101580000BDC022C29D003DCECB1012C0DD11DE0C9
:10159000032C1FD0F02C08D123E0F22C29D0F32CFF
:1015A0002BD0F42C2DD0FF2C2FD0502000F08AF817
:1015B000012C07D0FF2C05D001F02CFF1649C86183
:1015C0000120C87110BD00F029F8F1E7012000F0FA
:1015D00079F8EDE700F098F8EAE7022000F072F8F9
:1015E000E6E7F02000F06EF8E2E7F12000F06AF89C
:1015F000DEE7F22000F066F8DAE7F32000F062F8A8
:10160000D6E7F42000F05EF8D2E7FF2000F05AF8A9
:10161000CEE70000A4ABFF1FC882FF1FF8B5224829
:101620000090224D287800283DD0214890F8DC0019
:10163000032838D10020FFF799FD03460020FFF76B
:101640009BFE1C4C002626716371180AA071180CB1
:10165000E071180E207203F0070123FA01F08B40AD
:1016600018441549884203D914490844400803E046
:101670001249494208444000114A00991144D1F8E6
:10168000B51D814201D10120E870E87860720C201C
:10169000A07200F065F884F83F0040220549044834
:1016A00004F04CFA2E70F8BD53AE0043C882FF1F01
:1016B0002084FF1FA4ABFF1F33DDD35334DDD3D30E
:1016C0000050FFBF70B504460C4D2978002914D096
:1016D0000B4991F8DC1003290FD10020FFF746FDDC
:1016E0002046FFF749FE074880F83F400146402268
:1016F000034804F023FA0020287070BDC882FF1F41
:101700002084FF1FA4ABFF1F70B5124C2078002867
:101710001ED0114890F8DC00032819D10020FFF7F3
:1017200025FD0320FFF728FE0C48E178017162785F
:101730004271A3788371C5781A442944114480F812
:101740003F1001464022044804F0F8F900202070C0
:1017500070BD0000C882FF1F2084FF1FA4ABFF1FC5
:1017600000200321044A535C1844C0B2491CC9B28A
:101770003F29F8D370470000A4ABFF1F0248006860
:10178000002800D00047704764A9FF1F0248406846
:10179000002800D00047704764A9FF1F02488068F6
:1017A000002800D00047704764A9FF1F0248C068A6
:1017B000002800D00047704764A9FF1F0248006955
:1017C000002800D00047704764A9FF1F0248406905
:1017D000002800D00047704764A9FF1F02488069B5
:1017E000002800D00047704764A9FF1F0248C06965
:1017F000002800D00047704764A9FF1F0248006A14
:10180000002800D00047704764A9FF1F0248406AC3
:10181000002800D00047704764A9FF1F0248806A73
:10182000002800D00047704764A9FF1F0248C06A23
:10183000002800D00047704764A9FF1F0248006BD2
:10184000002800D00047704764A9FF1F0248406B82
:10185000002800D00047704764A9FF1F0248806B32
:10186000002800D00047704764A9FF1F0248C06BE2
:10187000002800D00047704764A9FF1F0248006C91
:10188000002800D00047704764A9FF1F0248406C41
:10189000002800D00047704764A9FF1F0248806CF1
:1018A000002800D00047704764A9FF1F0248C06CA1
:1018B000002800D00047704764A9FF1F0248006D50
:1018C000002800D00047704764A9FF1F0248406D00
:1018D000002800D00047704764A9FF1F0248806DB0
:1018E000002800D00047704764A9FF1F0248C06D60
:1018F000002800D00047704764A9FF1F0248006E0F
:10190000002800D00047704764A9FF1F0248406EBE
:10191000002800D00047704764A9FF1F0248806E6E
:10192000002800D00047704764A9FF1F0248C06E1E
:10193000002800D00047704764A9FF1F0248006FCD
:10194000002800D00047704764A9FF1F0248406F7D
:10195000002800D00047704764A9FF1F0248806F2D
:10196000002800D00047704764A9FF1F0248C06FDD
:10197000002800D00047704764A9FF1F0348D0F833
:101980008000002800D000477047000064A9FF1FB6
:101990000348D0F88400002800D0004770470000BA
:1019A00064A9FF1F0348D0F88800002800D0004732
:1019B0007047000064A9FF1F0348D0F88C0000287E
:1019C00000D000477047000064A9FF1F0348D0F80B
:1019D0009000002800D000477047000064A9FF1F56
:1019E0000348D0F89400002800D00047704700005A
:1019F00064A9FF1F0348D0F89800002800D00047D2
:101A00007047000064A9FF1F0348D0F89C0000281D
:101A100000D000477047000064A9FF1F0348D0F8BA
:101A2000A000002800D000477047000064A9FF1FF5
:101A30000348D0F8A400002800D0004770470000F9
:101A400064A9FF1F0348D0F8A800002800D0004771
:101A50007047000064A9FF1F0348D0F8AC000028BD
:101A600000D000477047000064A9FF1F0348D0F86A
:101A7000B000002800D000477047000064A9FF1F95
:101A80000348D0F8B400002800D000477047000099
:101A900064A9FF1F0348D0F8B800002800D0004711
:101AA0007047000064A9FF1F0348D0F8BC0000285D
:101AB00000D000477047000064A9FF1F0348D0F81A
:101AC000C000002800D000477047000064A9FF1F35
:101AD0000348D0F8C400002800D000477047000039
:101AE00064A9FF1F0348D0F8C800002800D00047B1
:101AF0007047000064A9FF1F0348D0F8CC000028FD
:101B000000D000477047000064A9FF1F0348D0F8C9
:101B1000D000002800D000477047000064A9FF1FD4
:101B20000348D0F8D400002800D0004770470000D8
:101B300064A9FF1F0348D0F8D800002800D0004750
:101B40007047000064A9FF1F0348D0F8DC0000289C
:101B500000D000477047000064A9FF1F0348D0F879
:101B6000E000002800D000477047000064A9FF1F74
:101B70000348D0F8E400002800D000477047000078
:101B800064A9FF1F0348D0F8E800002800D00047F0
:101B90007047000064A9FF1F0348D0F8EC0000283C
:101BA00000D000477047000064A9FF1F0348D0F829
:101BB000F000002800D000477047000064A9FF1F14
:101BC0000348D0F8F400002800D000477047000018
:101BD00064A9FF1F0348D0F8F800002800D0004790
:101BE0007047000064A9FF1F0348D0F8FC000028DC
:101BF00000D000477047000064A9FF1F0348D0F8D9
:101C00000001002800D000477047000064A9FF1FB2
:101C10000348D0F80401002800D0004770470000B6
:101C200064A9FF1F0348D0F80801002800D000472E
:101C30007047000064A9FF1F0348D0F80C0100287A
:101C400000D000477047000064A9FF1F0348D0F888
:101C50001001002800D000477047000064A9FF1F52
:101C60000348D0F81401002800D000477047000056
:101C700064A9FF1F0348D0F81801002800D00047CE
:101C80007047000064A9FF1F0348D0F81C0100281A
:101C900000D000477047000064A9FF1F0348D0F838
:101CA0002001002800D000477047000064A9FF1FF2
:101CB0000348D0F82401002800D0004770470000F6
:101CC00064A9FF1F0348D0F82801002800D000476E
:101CD0007047000064A9FF1F0348D0F82C010028BA
:101CE00000D000477047000064A9FF1F0348D0F8E8
:101CF0003001002800D000477047000064A9FF1F92
:101D00000348D0F83401002800D000477047000095
:101D100064A9FF1F0348D0F83801002800D000470D
:101D20007047000064A9FF1F0348D0F83C01002859
:101D300000D000477047000064A9FF1F0348D0F897
:101D40004001002800D000477047000064A9FF1F31
:101D50000348D0F84401002800D000477047000035
:101D600064A9FF1F0348D0F84801002800D00047AD
:101D70007047000064A9FF1F0348D0F84C010028F9
:101D800000D000477047000064A9FF1F0348D0F847
:101D90005001002800D000477047000064A9FF1FD1
:101DA0000348D0F85401002800D0004770470000D5
:101DB00064A9FF1F0348D0F85801002800D000474D
:101DC0007047000064A9FF1F0348D0F85C01002899
:101DD00000D000477047000064A9FF1F0348D0F8F7
:101DE0006001002800D000477047000064A9FF1F71
:101DF0000348D0F86401002800D000477047000075
:101E000064A9FF1F0348D0F86801002800D00047EC
:101E10007047000064A9FF1F0348D0F86C01002838
:101E200000D000477047000064A9FF1F0348D0F8A6
:101E30007001002800D000477047000064A9FF1F10
:101E40000348D0F87401002800D000477047000014
:101E500064A9FF1F0348D0F87801002800D000478C
:101E60007047000064A9FF1F0348D0F87C010028D8
:101E700000D000477047000064A9FF1F0348D0F856
:101E80008001002800D000477047000064A9FF1FB0
:101E90000348D0F88401002800D0004770470000B4
:101EA00064A9FF1F0348D0F88801002800D000472C
:101EB0007047000064A9FF1F0348D0F88C01002878
:101EC00000D000477047000064A9FF1F0348D0F806
:101ED0009001002800D000477047000064A9FF1F50
:101EE0000348D0F89401002800D000477047000054
:101EF00064A9FF1F0348D0F89801002800D00047CC
:101F00007047000064A9FF1F0348D0F89C01002817
:101F100000D000477047000064A9FF1F0348D0F8B5
:101F2000A001002800D000477047000064A9FF1FEF
:101F30000348D0F8A401002800D0004770470000F3
:101F400064A9FF1F0348D0F8A801002800D000476B
:101F50007047000064A9FF1F0348D0F8AC010028B7
:101F600000D000477047000064A9FF1F0348D0F865
:101F7000B001002800D000477047000064A9FF1F8F
:101F80000348D0F8B401002800D000477047000093
:101F900064A9FF1F0348D0F8B801002800D000470B
:101FA0007047000064A9FF1F0348D0F8BC01002857
:101FB00000D000477047000064A9FF1F0348D0F815
:101FC000C001002800D000477047000064A9FF1F2F
:101FD0000348D0F8C401002800D000477047000033
:101FE00064A9FF1F0348D0F8C801002800D00047AB
:101FF0007047000064A9FF1F0348D0F8CC010028F7
:1020000000D000477047000064A9FF1F0348D0F8C4
:10201000D001002800D000477047000064A9FF1FCE
:102020000348D0F8D401002800D0004770470000D2
:1020300064A9FF1F0348D0F8D801002800D000474A
:102040007047000064A9FF1F0348D0F8DC01002896
:1020500000D000477047000064A9FF1F0348D0F874
:10206000E001002800D000477047000064A9FF1F6E
:102070000348D0F8E401002800D000477047000072
:1020800064A9FF1F0348D0F8E801002800D00047EA
:102090007047000064A9FF1F0348D0F8EC01002836
:1020A00000D000477047000064A9FF1F0348D0F824
:1020B000F001002800D000477047000064A9FF1F0E
:1020C0000348D0F8F401002800D000477047000012
:1020D00064A9FF1F0348D0F8F801002800D000478A
:1020E0007047000064A9FF1F0348D0F8FC010028D6
:1020F00000D000477047000064A9FF1F38B54FF4B7
:1021000080310868401C0AD04868194AD060906045
:10211000096881F3088801B0BDE8304000474FF4FA
:102120007A7001F089F900F0E9F9124C002312A24B
:10213000208800901946184600F0CAFA208800232B
:10214000009010A21946462000F0C2FA20880090A4
:1021500000230EA22221262000F0BAFA01B0104B73
:10216000BDE830400F4A1049104801F011BE000090
:10217000B882FF1F3E83FF1F426F6F746C6F6164F4
:102180006572000056312E3200000000CEDEB9CC60
:10219000BCFEBBF2B9CCBCFECBF0BBB5000000006E
:1021A0001C83FF1FF083FF1FE882FF1F2084FF1F97
:1021B00010B500F081F94FF400442146002000F0F2
:1021C000E1FC0A20FEF79EFD2146002000F00EFDF6
:1021D00000F0AEF90A20FEF795FD112000F0FAF9A3
:1021E000AC48807901287CD0B12000F0F3F90120BF
:1021F00000F006FA2C2000F003FA2D2000F000FA7F
:10220000B22000F0E7F9012000F0FAF92C2000F0EC
:10221000F7F92D2000F0F4F9B32000F0DBF90120EC
:1022200000F0EEF92C2000F0EBF92D2000F0E8F999
:10223000012000F0E5F92C2000F0E2F92D2000F05B
:10224000DFF9B42000F0C6F9072000F0D9F9C0206A
:1022500000F0C0F9A22000F0D3F9022000F0D0F97C
:10226000842000F0CDF9C12000F0B4F9C52000F0C1
:10227000C7F9C22000F0AEF90A2000F0C1F9002031
:1022800000F0BEF9C32000F0A5F98A2000F0B8F9EB
:102290002A2000F0B5F9C42000F09CF98A2000F053
:1022A000AFF9EE2000F0ACF9C52000F093F90E2054
:1022B00000F0A6F9212000F08DF93A2000F08AF90B
:1022C000052000F09DF9E02000F084F9022000F0E4
:1022D00097F91C2000F094F9072000F091F91220E2
:1022E00000E066E000F08CF9372000F089F9322038
:1022F00000F086F9292000F083F92D2000F080F904
:10230000292000F07DF9252000F07AF92B2000F03B
:1023100077F9392000F074F9002000F071F90120FC
:1023200000F06EF9032000F06BF9102000F068F95E
:10233000E12000F04FF9032000F062F91D2000F0C9
:102340005FF9072000F05CF9062000F059F92E2013
:1023500000F056F92C2000F053F9292000F050F934
:102360002D2000F04DF92E2000F04AF92E2000F02B
:1023700047F9372000F044F93F2000F041F90020F0
:1023800000F03EF9002000F03BF9022000F038F99F
:10239000102000F035F9F02000F01CF9012000F0C9
:1023A0002FF9132000F016F9BDE81040292000F0A5
:1023B00011B9B12000F00EF9052000F021F93C2000
:1023C00000F01EF93C2000F01BF9B22000F002F9E9
:1023D000052000F015F93C2000F012F93C2000F037
:1023E0000FF9B32000F0F6F8052000F009F93C20C1
:1023F00000F006F93C2000F003F9052000F000F998
:102400003C2000F0FDF83C2000F0FAF8B42000F089
:10241000E1F8032000F0F4F8C02000F0DBF80E2013
:1024200000F0EEF80E2000F0EBF8042000F0E8F8E1
:10243000C12000F0CFF8C52000F0E2F8C22000F083
:10244000C9F80D2000F0DCF8002000F0D9F8C32016
:1024500000F0C0F88D2000F0D3F82A2000F0D0F86A
:10246000C42000F0B7F88D2000F0CAF8EE2000F08C
:10247000C7F8C52000F0AEF8062000F0C1F8202013
:1024800000F0A8F83A2000F0A5F8552000F0B8F8C0
:1024900019E7000024A9FF1F10B500214F239F2238
:1024A000084600F0D3F8BDE810404FF4C841014899
:1024B00000F0B0B93883FF1F1CB5002400940194CC
:1024C00001208DF8000002208DF805006A46802169
:1024D000012000F07FFA6A464FF40041002000F02E
:1024E00079FA8DF802406A460421052000F072FA5C
:1024F0000421052000F07AFB1CBD000010B50A4C39
:10250000A079012804D10948002141701821817067
:10251000FFF74EFE607800B1012000F087F8BDE8BB
:102520001040FFF7B9BF000024A9FF1F3883FF1F29
:1025300010B588B01C2101A8FDF7F3FE0121880425
:1025400000F0FCFB00232B224021012000F082FB45
:10255000002328222021012000F07CFB00208DF8A0
:1025600012008DF8150004218DF813108DF8140059
:102570008DF810008DF811008DF80F0001218DF8F5
:1025800016108DF817108DF819008DF81A008DF8B7
:102590001B008DF81C008DF81D008DF818108DF8AB
:1025A00004108DF805008DF806108DF807008DF8E1
:1025B000081005208DF80900054C01A9204600F0FF
:1025C0009DFC0121204600F0F7FB08B010BD000083
:1025D0000000024070B50546084C0521204600F079
:1025E00027FC0028F9D08021012000F0CBFA2946F1
:1025F0002046BDE8704000F0ADBE00000000024083
:1026000070B50546084C0521204600F011FC002855
:10261000F9D08021012000F0E9FA29462046BDE8E2
:10262000704000F097BE00000000024010B5044664
:102630003620FFF7CFFF24B1BDE81040A820FFF7F8
:10264000DFBFBDE810406820FFF7DABF2DE9F04199
:102650000646884615461F462A20FFF7BBFF002086
:10266000FFF7CEFF184C60783044C0B2FFF7C8FFC8
:102670000020FFF7C5FF60782844C0B2FFF7C0FF15
:102680002B20FFF7A7FF0020FFF7BAFFA0784044F8
:10269000C0B2FFF7B5FF0020FFF7B2FFA0783844C3
:1026A000C0B2FFF7ADFF2C20FFF794FF074C0521C8
:1026B000204600F0BDFB0028F9D02046BDE8F041DF
:1026C000002100F079BB00003883FF1F00000240AA
:1026D0002DE9FF4FE5B007461546DFF8F0806EE0C4
:1026E00014227E2B1FD9687800EB032080B20021D2
:1026F000364BA03B13E033F8314084420DD803EB56
:10270000C1046488844208D333F8312003EBC1014B
:10271000801A8988084486B203E0491C89B2914234
:10272000E9D3AD1C1AE000212848A03813E030F8A6
:102730003140A3420DD300EBC1046488A34208D802
:1027400030F8312000EBC1009A1A8088104486B21C
:1027500003E0491C89B29142E9D36D1C08EBC60A1B
:10276000BAF8029038F83610781E0844669B82B298
:102770000F3338466699FFF769FF00240DF1040B0B
:1027800010E01248DAF80410F8302044689A085C27
:10279000729901F02FF8010201EB10202BF81400C0
:1027A000641CA4B24C45ECD34FF6FF7000EA49011B
:1027B00001A800F00DF818F836003844C7B22B789D
:1027C000002B8DD169B0BDE8F08F0000185D0000CE
:1027D0002DE9F04105460E468021012000F006FA61
:1027E0000B4F0121384600F0E7FA00240CE00521E8
:1027F000384600F01DFB0028F9D02978384600F053
:10280000A9FD6D1C641CA4B2B442F0D3BDE8F081F4
:10281000000002402DE9F04105460E4680210120CE
:1028200000F0E4F90B4F0121384600F0C5FA00240E
:102830000BE00521384600F0FBFA0028F9D0297892
:10284000384600F087FD641CA4B2B442F1D3BDE861
:10285000F08100000000024010B5AFF3008010BD11
:1028600010B5AFF3008010BD10B5094CA069016828
:10287000491C01D0FEF71AFC4FF400520549A0692B
:10288000FDF7B7FD0220A071BDE81040FEF770BE55
:10289000C882FF1FE488FF1F70B505460C461F2D38
:1028A00004D940F223110EA0FEF70CFA34B1012C2A
:1028B00004D04FF492710AA0FEF704FA00F036FA41
:1028C000124905F01F00012C06D00A8882430A80B5
:1028D00000F050F9002070BD0A8802430A80F7E733
:1028E0002E2E5C2E2E5C2E2E5C2E2E5C2E2E5C64EC
:1028F00072697665725C7372635C686333326634E6
:1029000036305F6770696F2E63000000F43B05404E
:1029100070B505460C46002D0ED0012D0CD0022DB1
:102920000AD0032D08D0042D06D0052D04D04FF475
:10293000C8711CA0FEF7C6F9012C2AD0022C28D0A1
:10294000042C26D0082C24D0102C22D0202C20D0CF
:10295000402C1ED0802C1CD0B4F5807F19D0B4F54B
:10296000007F16D0B4F5806F13D0B4F5006F10D08F
:10297000B4F5805F0DD0B4F5005F0AD0B4F5804F98
:1029800007D0B4F5004F04D040F2911105A0FEF736
:1029900099F90F4800EB05100068204000D0012095
:1029A00070BD00002E2E5C2E2E5C2E2E5C2E2E5C1A
:1029B0002E2E5C6472697665725C7372635C686308
:1029C0003332663436305F6770696F2E6300000003
:1029D000003805402DE9F04106460F461446002513
:1029E000002E0DD0012E0BD0022E09D0032E07D0C1
:1029F000042E05D0052E03D0AC2152A0FEF762F9BB
:102A0000207838B1012805D0022803D0AE214DA08E
:102A1000FEF758F9607938B1012805D0022803D0B3
:102A2000AF2148A0FEF74EF9A07928B1012803D0C4
:102A3000B02144A0FEF746F9607828B1012803D000
:102A4000B12140A0FEF73EF9A07828B1012803D0BB
:102A5000B2213CA0FEF736F9E07828B1012803D076
:102A6000B32138A0FEF72EF9207928B1012803D030
:102A7000B42134A0FEF726F9E07928B1012803D06B
:102A8000B52130A0FEF71EF900F050F9012101FA3E
:102A900005F038424CD0B001354A00EB8500831870
:102AA000921C024494F801C018886CF38E30188090
:102AB00094F802C018886CF30C30188094F803C0A6
:102AC00018886CF34920188094F804C018886CF3B7
:102AD0008610188094F806C018886CF3820018805D
:102AE00094F805C018886CF305101880207820B180
:102AF00001280BD0022816D111E0188820F40040DC
:102B00001880188820F0020018800CE0188820F443
:102B100000401880188840F00200188003E01888F0
:102B200040F400401880E379108863F30820108097
:102B30006D1CEDB2102DAAD300F01CF80020BDE8EA
:102B4000F08100002E2E5C2E2E5C2E2E5C2E2E5C34
:102B50002E2E5C6472697665725C7372635C686366
:102B60003332663436305F6770696F2E6300000061
:102B7000003C054002494FF42540088070470000A2
:102B8000FC3B054070B504460D46002C0ED0012CD0
:102B90000CD0022C0AD0032C08D0042C06D0052C13
:102BA00004D040F20F2105A0FEF78CF80E4800EB90
:102BB000041002882A430280002070BD2E2E5C2E55
:102BC0002E5C2E2E5C2E2E5C2E2E5C647269766539
:102BD000725C7372635C68633332663436305F678D
:102BE00070696F2E630000000A38054070B5044616
:102BF0000D46002C0ED0012C0CD0022C0AD0032C38
:102C000008D0042C06D0052C04D040F2F71105A002
:102C1000FEF758F80E4800EB041002882A430280A1
:102C2000002070BD2E2E5C2E2E5C2E2E5C2E2E5C77
:102C30002E2E5C6472697665725C7372635C686385
:102C40003332663436305F6770696F2E6300000080
:102C5000083805402DE9F0410646884615461F46CE
:102C60000024002E0ED0012E0CD0022E0AD0032EEE
:102C700008D0042E06D0052E04D04FF41A711FA0E0
:102C8000FEF720F875B1681E09280BD90E2D09D062
:102C90000F2D07D01F381B2804D940F2692117A037
:102CA000FEF710F837B1012F04D040F26A2113A0CB
:102CB000FEF708F800F03AF80123B1011A4E03FAC2
:102CC00004F010EA080F0CD001EB840030440288B5
:102CD00065F305020280012F0CD0028822F4807275
:102CE0000280641CE4B2102CE9D3FFF743FF0020FC
:102CF000BDE8F081028842F48072F1E72E2E5C2E4E
:102D00002E5C2E2E5C2E2E5C2E2E5C6472697665F7
:102D1000725C7372635C68633332663436305F674B
:102D200070696F2E63000000023C054002494AF2C0
:102D30000150088070470000FC3B054070B5044618
:102D40000D460E48044200D124B940F2BF210CA028
:102D5000FDF7B8FF35B1012D04D04FF4307108A054
:102D6000FDF7B0FF1148012D03D0416821434160B8
:102D700070BD4168A143416070BD00008602F0F063
:102D80002E2E5C2E2E5C2E2E5C2E2E5C2E2E5C6447
:102D900072697665725C7372635C68633332663441
:102DA00036305F7077632E630000000000800440BF
:102DB00010B5AFF3008010BD70B504460D46042079
:102DC0000C498C4208D00C498C4205D00B498C42EE
:102DD00002D00B498C420CD135B1012D04D04FF4F7
:102DE000F57108A0FDF76EFF606865F386106060FE
:102DF000002070BD00C0014000C40140000002403E
:102E0000000402402E2E5C2E2E5C2E2E5C2E2E5C9C
:102E10002E2E5C6472697665725C7372635C6863A3
:102E20003332663436305F7370692E630000000001
:102E300070B504460D4600262148844208D021483A
:102E4000844205D02048844202D02048844235D1B3
:102E500085B1012D0ED0022D0CD0032D0AD0042DEA
:102E600008D0052D06D0062D04D040F20D4118A043
:102E7000FDF728FF072D21D2DFE805F004080C102C
:102E800014181D006069C0F3C01617E06069C0F334
:102E9000401613E06069C0F300160FE06069C0F3EC
:102EA000C0060BE06069C0F3800607E0606901219D
:102EB00021EA500602E0606900F00106304670BD6C
:102EC00000C0014000C40140000002400004024074
:102ED0002E2E5C2E2E5C2E2E5C2E2E5C2E2E5C64F6
:102EE00072697665725C7372635C686333326634F0
:102EF00036305F7370692E630000000070B50446C1
:102F00000D460420FE498C4208D0FE498C4205D073
:102F1000FD498C4202D0FD498C427DD1002D7BD0F1
:102F2000287830B1012804D040F22F11F8A0FDF725
:102F3000C9FE687890B1012810D002280ED003286D
:102F40000CD004280AD0052808D0062806D0072867
:102F500004D04FF49871EEA0FDF7B4FEA87830B11C
:102F6000012804D040F23111E9A0FDF7ABFEE8786A
:102F700090B1012810D002280ED003280CD00428CC
:102F80000AD0052808D0062806D0072804D04FF418
:102F90009971DFA0FDF796FE287930B1012804D0A1
:102FA00040F23311DAA0FDF78DFE687990B1012867
:102FB00010D002280ED003280CD004280AD00528EF
:102FC00008D0062806D0072804D04FF49A71D0A064
:102FD000FDF778FEA87950B1012808D0022806D064
:102FE000032804D040F23511C9A0FDF76BFEE87943
:102FF00030B1012804D04FF49B71C5A0FDF762FEEB
:10300000287A30B1012804D040F23711C0A0FDF772
:1030100059FE687A40B100E041E1012804D04FF444
:103020009C71BBA0FDF74EFEA87A30B1012804D0F8
:1030300040F23911B6A0FDF745FEE87A30B101281B
:1030400004D04FF49D71B2A0FDF73CFE287B30B157
:10305000012804D040F23B11ADA0FDF733FE687BA0
:1030600030B1012804D04FF49E71A9A0FDF72AFECB
:10307000A87B90B1012810D002280ED003280CD0D4
:1030800004280AD0052808D0062806D0072804D02E
:1030900040F23D119EA0FDF715FEE87B10B301281C
:1030A00020D002281ED003281CD004281AD00528BE
:1030B00018D0062816D0072814D0082812D00928BE
:1030C00010D00A280ED00B280CD00C280AD00D28BE
:1030D00008D00E2806D00F2804D04FF49F718CA082
:1030E000FDF7F0FD287C30B1012804D040F23F11FB
:1030F00087A0FDF7E7FD687C50B1012808D00228C1
:1031000006D0032804D04FF4A07181A0FDF7DAFDAA
:10311000A87C30B1012804D040F241117CA0FDF719
:10312000D1FDE87C30B1012804D04FF4A17178A022
:10313000FDF7C8FD287D30B1012804D040F24311CD
:1031400073A0FDF7BFFD687D30B1012804D04FF4B6
:10315000A2716FA0FDF7B6FDA87D30B1012804D0A3
:1031600040F245116AA0FDF7ADFDE87D30B10128C0
:1031700004D04FF4A37166A0FDF7A4FD287E30B102
:10318000012804D040F2471161A0FDF79BFD687E45
:1031900030B1012804D04FF4A4715DA0FDF792FD79
:1031A000287D01287DD0A06920F40040A061A0699D
:1031B00020F48040A061A06920F40050A061E06884
:1031C00020F4E000E060E06820F0E060E060E068AB
:1031D00020F0E040E060A87CF0B3A06920F0E000BF
:1031E000A061E06820F48070E060E06820F4007086
:1031F000E060E06820F48060E060E06820F4006057
:10320000E060E97AE06861F38610E060697CE0687C
:1032100061F30100E060297CA06961F30C30A061DA
:10322000E97BA06961F30B20A061A97BA06961F330
:103230008400A061297BA06961F34100A061697BE2
:10324000A06961F30000A061A97C606861F30000DF
:103250006060E97C606800E042E061F3410060602A
:10326000297D606861F3C3006060697D606861F317
:10327000C7106060A97D606861F30C306060E97D13
:10328000606861F34D306060297E606861F3CF3023
:103290006060697E606861F38E306060002070BDA0
:1032A000FFE72978A06961F3CF30A061A978A06910
:1032B00061F38E30A0612979A06961F34D30A0617E
:1032C0006978E06861F31650E060E978E06861F3DE
:1032D0001A60E0606979E06861F31E70E0607AE787
:1032E000A979A06961F34710A061E979E06861F309
:1032F0000820E060297AE06861F34920E0601DE081
:1033000000C0014000C4014000000240000402402F
:103310002E2E5C2E2E5C2E2E5C2E2E5C2E2E5C64B1
:1033200072697665725C7372635C686333326634AB
:1033300036305F7370692E6300000000697AE068C0
:1033400061F38A20E060A97AE06861F3CB20E06055
:1033500057E700000422084B984208D0074B9842D8
:1033600005D0074B984202D0064B984201D101602C
:10337000002210467047000000C0014000C4014018
:10338000000002400004024010B5AFF3008010BD01
:1033900010B588B0002007900024059406941421ED
:1033A0006846FCF7BEFF8DF8144001208DF815002B
:1033B0008DF816408DF817008DF8180002248DF84E
:1033C00019408DF81A0005A8FDF7C2FA0120FDF793
:1033D00085F804941E200390009401940294012027
:1033E000FDF7C4F96846FDF747F9FDF7D7FD03205F
:1033F000FDF724FDFDF704FD0120FDF7DDF80220B7
:10340000FDF722F80128FAD10520FDF7E7F908B009
:1034100010BD000001484068704700004483FF1F52
:1034200010B500F033F810BD02484168026811443D
:10343000416070474483FF1F012100281ED04FF4D4
:103440007A7290421AD8B2FBF0F30D4A13600D4A1B
:103450001268B2FBF0F0401EB0F1807F01D3012072
:103460000AE04FF0E0225061074BF0201870002076
:10347000906107201061002000B9002108467047C4
:103480004483FF1FB482FF1F23ED00E010B5FFF758
:10349000CBFF02490120087010BD0000B882FF1F59
:1034A00030B524480068C107234802D02349016091
:1034B00001E023490160234B93F8261001F0070136
:1034C000214D4FF40042062906D2DFE801F0030641
:1034D000080A0C0E0168416030BD456030BD426095
:1034E00030BD456030BD426030BD03F58073196862
:1034F000C1F3C0141968C1F308211A68120F1B68C0
:1035000003F01F0364B1012CEED104685B1CB4FB13
:10351000F3F3491C4B43521CB3FBF2F1416030BD45
:103520005B1CB5FBF3F3491C4B43521CB3FBF2F19C
:10353000416030BD84060140B082FF1F0024F400CA
:10354000002D31010040054000127A000348016857
:1035500041F470010160FFF7A3BF000088ED00E0B7
:10356000014801F051BB00002084FF1F08B5042270
:103570000A4BDB68009300280ED0009A521E00927E
:103580000268C2F3C012009B0BB1002AF5D012B141
:103590004160002200E00922104608BD4483FF1F5D
:1035A00010B5AFF3008010BD00B585B004200490C5
:1035B0005420039007200090019002906846FDF788
:1035C000D7FA0120FDF76EFA0320FCF73DFF012832
:1035D000FAD10B20FDF782F905B000BD0FB4054B01
:1035E00010B503A9044A029800F028F810BC5DF851
:1035F00014FB0000F93800001C84FF1FBFF34F8F3D
:1036000005480168054A01F4E06111430160BFF318
:103610004F8F00BFFDE700000CED00E00400FA054D
:1036200002E008C8121F08C1002AFAD17047002022
:1036300001E001C1121F002AFBD170472DE9FF4FA5
:103640008BB09A460F460546002606E025280BD08B
:1036500052460D9990476D1C761C28780028F5D1AC
:103660000FB03046BDE8F08F0024A046012260492B
:1036700000E0044315F8013F203B02FA03F0084242
:10368000F7D128782E2817D115F8010F44F004043B
:103690002A280ED06FF02F022878A0F130010929D6
:1036A0000AD808EB880102EB410100EB01086D1C10
:1036B000F2E757F8048B6D1C287869283ED006DCA9
:1036C0000028CDD063280BD0642804D136E07328BD
:1036D00010D075284BD052460D999047761C85E046
:1036E00017F8040B8DF8000000208DF80100E94662
:1036F000012003E057F8049B4FF0FF3061074FF0C3
:10370000000401D40AE0641C44450DDA8442FADB6B
:1037100019F804100029F6D106E0641C8442FCDB91
:1037200019F804100029F8D1264404E019F8010B17
:1037300052460D999047641EF8D257E001CF4FF0E2
:103740000A0B002802DA40422D2102E0210504D5AF
:103750002B218DF82410012103E0E10705D0202161
:10376000F7E70DF1200908910CE00021F9E701CFFE
:103770004FF00A0BF9E75946FCF7DEFD01F1300284
:1037800009F8012D0028F6D1ADEB090000F1200B5E
:10379000600701D44FF00108D84502DDA8EB0B000B
:1037A00000E000208046002406E009A85246005DA3
:1037B0000D999047641C761C08988442F5DB04E060
:1037C000302052460D999047761CB8F10001A8F1BF
:1037D0000108F5DC05E019F8010B52460D999047F8
:1037E000761CBBF10001ABF1010BF4DC6D1C34E77E
:1037F00009280100F0B5002829D03E2303EA9126CC
:10380000761C4FF07E0C0CEA1114641C03EA41078D
:103810007F1C03EA92256D1C0CEA121C0CF1010CB2
:1038200003EA4202521C4643C0F1FF0105FB01635B
:103830005B0A44430CFB0144640A474302FB0170EA
:10384000400AD90241EA4411014388B2F0BD104652
:10385000F0BD000070B5044600256068002803D163
:10386000552116A0FDF72EFA2288500900EB4001E1
:10387000202000EB4103B4F90200834204DC25233D
:1038800003EB4101814203DA202801DB042513E028
:10389000164901EB80000168154BB3EBC15F0AD1FB
:1038A000016862F308010160B4F90210114A60680E
:1038B00042F8210000E00725284670BD2E2E5C2E20
:1038C0002E5C2E2E5C2E2E5C2E2E5C64726976652C
:1038D000725C7372635C68633332663436305F697E
:1038E0006E74657272757074732E63005C1005409F
:1038F000000080FF64A9FF1F10B504460548E1B22F
:103900008068FFF733FE10B14FF0FF3010BD204646
:1039100010BD00004483FF1F002261F30A1280687B
:1039200001681143016070477CB5FFF73DFE002040
:103930000090019002208DF8000084026A46214622
:103940000020FFF747F865006A4629460020FFF788
:1039500041F800230A22A1101846FFF77BF9002343
:103960000A2221461846FFF775F900230A22294644
:103970001846FFF76FF901210802FFF7DFF97CBD58
:103980001CB51820ADF8020040F21310ADF800008D
:10399000194801906846FFF75DFFBDF90200012359
:1039A000002809DB00F01F0203FA02F14009800041
:1039B00000F1E020C0F88012BDF90200F0220028DA
:1039C00004DB00F1E02080F8002405E000F00F00A7
:1039D00000F1E02080F8142DBDF90200002809DB79
:1039E00000F01F0203FA02F14009800000F1E0201C
:1039F000C0F800111CBD00006135000008B50022B0
:103A000000924B780A78012B00EB82000AD0006C00
:103A1000026822F4001200928978032904D0022956
:103A200002D004E00069F3E742F080510091009970
:103A3000016008BD10B5044694F8DC00022806D0E9
:103A4000032804D02046BDE8104000F0A7B84888FD
:103A500001280CD1002084F8DE00D4F8B804826874
:103A6000204690472046BDE8104000F0AFB810BD9A
:103A700082B0CA09019201F07F0100919DF8041003
:103A8000002907D09DF8001001EB810100EBC10176
:103A9000E03107E09DF8001001EB810100EBC1016E
:103AA00001F530710022CA709DF800300B709DF84E
:103AB000043013B101224A7000E04A7002B0FFF7EF
:103AC0009DBF0000FEB504460027029701970097AE
:103AD000184D0126012001F053FE60680069019035
:103AE0000099491C0091A94200D90296019800282A
:103AF000F0D09DF8080000281BD10097019840F0F5
:103B00000100019061680198086160680069019096
:103B10000098A84208D80098401C0090012001F0AD
:103B20002FFE0198C007F0D1BDE8FE40032001F050
:103B300027BEFEBDA086010038B5044600919DF861
:103B40000010D4F8BC04002905D04069804701204A
:103B500084F8DD0038BD80698047D4F8B804416836
:103B600020468847002084F8DD0038BDC0F8D02208
:103B7000C0F8CC22032380F8DA3013460A4600212D
:103B800001F07DB9C0F8F020C0F8EC20022380F8E5
:103B9000DA3013460A46002100F07CBA10B504461C
:103BA0008021204601F029FC0021204601F025FC5F
:103BB0002046BDE81040FCF745BC052180F8DA102E
:103BC000002300F59462194601F059B9042180F8E8
:103BD000DA10002300F59462194600F05BBA000089
:103BE00070B5054600290CD0D5F8B804C269002A82
:103BF0004CD095F8DC00032848D12846BDE8704039
:103C0000104705F1E00495F8DA000026022833D1C8
:103C1000D4E9020181420FD9081AE060A87801288E
:103C200003D1A168606A0844606200212846E36805
:103C3000626A00F02FFA1FE02169B1FBF0F200FB8D
:103C4000121262B981420AD36069814207D200230D
:103C50001A461946284600F01DFA66610CE0D5F8B0
:103C6000B804C16829B195F8DC00032801D12846C1
:103C700088472846FFF7A1FF95F8DF00012805D106
:103C800003480068A968486085F8DF6070BD0000DF
:103C90008083FF1F70B5054600290CD0D5F8B80405
:103CA000026A002A38D095F8DC00032834D128466F
:103CB000BDE87040104705F5307495F8DA00032828
:103CC0002AD1D4E90210884215D9401AE060A878B8
:103CD000012803D1A168606A08446062D4E9021037
:103CE000884200D3084683B22846626ABDE8704025
:103CF000002101F0C4B80020E060D5F8B8040169E3
:103D000029B195F8DC00032801D1284688472846C8
:103D1000BDE87040FFF75ABF70BD000010B5024605
:103D2000024903A000F06EFE004810BDE4A8FF1F8A
:103D300069444B4D6574657230324320436F6E6643
:103D40006967000038B5044600929DF8000001281C
:103D50000BD09DF80000002813D1D4F8B8044168B6
:103D600001B02046BDE830400847D4F8B8040168E7
:103D700020468847D4F8BC04806801B0BDE83040D4
:103D8000004738BD12210180004870470883FF1F9B
:103D90002DE9F04104460F4615461E462046FFF722
:103DA000C3FDC4F8B854C4F8BC64C4F8C074204659
:103DB00000F0AAFED4F8BC0400688047002084F814
:103DC000DA00BDE8F041FFF7DBBD000010B50246A8
:103DD000024903A000F016FE004810BDE4A8FF1F32
:103DE00069444B4D6574657230324320496E746589
:103DF000726661636500000004210180004870471D
:103E00000483FF1F10B50246024903A000F0FAFD2B
:103E1000004810BDE4A8FF1F69444B0010B50246DE
:103E2000024903A000F0EEFD004810BDE4A8FF1F0A
:103E300069444B4D657465723032430010B50446D9
:103E4000DB34D4F8E10300698047207860700320F8
:103E5000607010BD10B5044600234022194620466C
:103E600000F02BFF002340228021204600F025FF98
:103E7000012084F8DC00D4F8BC044068BDE81040A0
:103E80000047000010B50246024903A000F0BAFD49
:103E9000004810BDE4A8FF1F3030303030303030E3
:103EA0003035304300000000DB30417801700421E0
:103EB0004170D0F8E103C06800477CB5002301934E
:103EC0004FF09044FF255DE09DF8041000EB810168
:103ED00009690E68009A66F30A020E68F60A66F32C
:103EE000CE220E68F60B66F3CF320E68360C66F300
:103EF00010420E68760C66F351420E68B60C66F3FB
:103F000093420E68360D66F314520E68760D66F312
:103F100055520E68B60D66F399520E68B60E66F3EA
:103F20009A620E68F60E66F3DB620E68360F66F371
:103F30001C720E68760F66F35D720E680968B60F24
:103F400066F39E72C90F61F3DF720092002A01DAF4
:103F5000009400E000939DF80420009900EB820299
:103F6000126911609DF8041000EB810109690B6171
:103F70009DF8041000EB810109698D609DF8041023
:103F8000491C019141789DF8042091429CD80193ED
:103F90005DE09DF8041000EB8101096C0E68009A49
:103FA00066F30A020E68F60A66F3CE220E68F60B76
:103FB00066F3CF320E68360C66F310420E68760C4C
:103FC00066F351420E68B60C66F393420E68360DE6
:103FD00066F314520E68760D66F355520E68B60DF0
:103FE00066F399520E68B60E66F39A620E68F60E84
:103FF00066F3DB620E68360F66F31C720E68760F8E
:1040000066F35D720E680968B60F66F39E72C90F9B
:1040100061F3DF720092002A01DA009400E000935D
:104020009DF80420009900EB8202126C11609DF84B
:10403000041000EB8101096C0B619DF8041000EB8A
:104040008101096C8D609DF80410491C0191417833
:104050009DF8042091429CD87CBD82B0CB0901938D
:1040600001F07F0100919DF80410002907D09DF810
:10407000001001EB810100EBC101E03107E09DF888
:10408000001001EB810100EBC10101F5307102B0BC
:1040900000F012BB18B401F07F0100919DF80010F0
:1040A00001EB810100EBC101E03101244C709DF86E
:1040B00000400C704A628A6100220A62CB619DF85E
:1040C0000020002A02D018BC00F00CBA18BC00F086
:1040D00001B900000CB5002101914268916142686C
:1040E0006FF0804151614368CA175A60426851615C
:1040F00010490091426891618178002901D1102115
:104100000191019941F4006141F4805141F4005161
:1041100041F4802141F4002141F0080141F4801173
:1041200041F400110191406882698A4301990A4370
:1041300082610CBD000800801CB50446002001907F
:104140000090A1680A6822F4C05242F003020A609B
:104150006268802151624022ADF80620ADF804105B
:10416000636801999962019901EB1141ADF8001062
:10417000ADF8022062680099C2F80411009901EBC1
:104180001141ADF80010ADF8020062680099C2F864
:104190000811009901EB1141ADF800102021ADF894
:1041A00002106368009AC3F80C21009A02EB1242D5
:1041B000ADF80020ADF8021062680099C2F8101145
:1041C000009901EB1141ADF80010ADF802006268F2
:1041D0000099C2F81411A1680861A1684861A26839
:1041E000411E9161A168C8612046FFF766FEA06884
:1041F000416821F0020141602046BDE81C40FFF704
:1042000069BF10B50446204600F00CF86168C86824
:1042100020F4705000F51050C8604FF400506168F1
:10422000486110BD1EB50021009181688B68029A1B
:1042300063F300028B685B0863F342028B68DB0860
:1042400063F3C3028B681B0963F307128B688968E9
:104250001B0A63F31522890D61F39F5202920369D1
:104260001968019112F0060F08D0C2F34102012A29
:1042700004D0032A02D0022A04D007E06FF30A0117
:10428000019103E06FF30A01C91C019101991960C2
:104290008068416841F4807141601EBD0EB50C4AD2
:1042A00001924021C0F8DC12C0F8CC12C0F8D01244
:1042B000016C0A618178012909D1026C00F59461D1
:1042C0005161006C01684FF08021009101600EBDCA
:1042D000400008603EB50022029200924A78CB6905
:1042E000012A20D00A7800EB82052A6C1468029417
:1042F00012690092002B59D0D1E902329A4200D3C0
:104300001A46CA61009B62F306030093009A22F4E6
:10431000C01202F5002200922B6C009A1A6182787A
:10432000012A4ED053E00269156802951469009481
:1043300043B18C68A34210D9CC61009B64F306039F
:1043400000930EE0009B23F07F030093009B23F477
:10435000C01303F50023009309E0009C63F30604F7
:104360000094009B23F4C01303F500230093009BEB
:1043700013618378012B05D10C788B6900EB8404E1
:104380002469636145F0806343F000430293136046
:104390008278002A09D1CA69002A06D00A78012148
:1043A00091408068426B0A4342633EBD009A22F00E
:1043B0007F020092009A22F4C01202F500220092BD
:1043C000AAE70B788A6900EB83031B6C5A6144F0FF
:1043D000806242F000420292097800EB8100006C9A
:1043E00002603EBD7CB50023019300930D784E78AA
:1043F0000124AC4000EB8502012E55D0126CADF8C3
:104400000240146864F30A031468E40A64F3CE23D8
:104410001468E40B64F3CF331468240C64F3104382
:104420001468640C64F351431468A40C64F393435C
:104430001468240D64F314531468640D64F3555325
:104440001468A40D64F399531468A40E64F39A637A
:104450001468E40E64F3DB631468240F64F31C73C4
:104460001468640F64F35D731468A40F64F39E739F
:104470001468E40F64F3DF7301931C040ED40C89F9
:1044800064F30A038C7864F39343897961F3995355
:1044900043F0805141F40041019111608068C1698D
:1044A000009A1143C1617CBD1269ADF80040A8E7D4
:1044B0003CB50024019400940B784D7801229A4079
:1044C00000EB8301012D09D0096CADF802200C60CE
:1044D0008068C169009A9143C1613CBD0969ADF82A
:1044E0000020F4E7FEB40025029501954B780C7886
:1044F0000127CA6900EB8404012B32D0236C1E68AB
:104500000296D3F810C06CF31205D3F810C04FEA2E
:10451000DC4C6CF3DC45D3F810C01B694FEA5C7CC3
:104520006CF35E75DB0F63F3DF750195002A7DD0B8
:104530008B681A44521EB2FBF3F262F3DC4501951C
:10454000C5F3C945019A5D4365F312020192C2F3B6
:104550001202CA61236C019A1A618278012A66D01C
:1045600091E023691C6802941E6966F312051E69B6
:10457000F60C66F3DC451E69760F66F35E751E6900
:10458000F60F66F3DF7501956AB162F312058E6866
:104590003244521EB2FBF6F262F3DC4501958A7892
:1045A000012A06D00AE0EA0CD20467F3DC42019249
:1045B00004E025F0C04202F100520192019A1A6112
:1045C0008278012A0ED08A78012A07D0CA692AB1D6
:1045D0000A7897408268536B3B4353638A78012A79
:1045E00007D029E00B788A6900EB83031B695A61C5
:1045F000F4E782689568009B65F3000395686D0891
:1046000065F342039568ED0865F3C30395682D09CA
:1046100065F30713956892682D0A65F31523920DCB
:1046200062F39F5300931A0AD20701E01EE024E0D0
:1046300018D044F080520292029A42F0806242F016
:10464000004202920B7800EB83031B691A608A78A0
:10465000012A2FD18A8B93B20A78496A03B0F0BC41
:1046600001F0E6B844F000520292E5E78A6862F38E
:10467000120567F3DC4501956CE70B788A6900EB5E
:1046800083031B6C5A618A78012A08D14A791AB1CE
:1046900046F00052029202E046F080520292029AE4
:1046A00042F0806242F000420292097800EB810001
:1046B000006C0260FEBC7047F8B50023002635464A
:1046C00000964F780C78012F00EB840448D0246CBE
:1046D000276867F30A052768FF0A67F3CE2527686E
:1046E000FF0B67F3CF3527683F0C67F3104527684A
:1046F0007F0C67F351452768BF0C67F39345276824
:104700003F0D67F3145527687F0D67F355552768EC
:10471000BF0D67F399552768BF0E67F39A65276841
:10472000FF0E67F3DB6527683F0F67F31C7527688B
:104730007F0F67F35D752768BF0F67F39E75276866
:10474000FF0F67F3DF750095002A7FD0B2F5805F19
:1047500065D0B2F5005F66D0B2F5405F79D167E011
:104760002469276867F30A052768FF0A67F3CE25DF
:104770002768FF0B67F3CF3527683F0C67F31045B9
:1047800027687F0C67F351452768BF0C67F3934593
:1047900027683F0D67F3145527687F0D67F355555C
:1047A0002768BF0D67F399552768BF0E67F39A65B1
:1047B0002768FF0E67F3DB6527683F0F67F31C75FB
:1047C00027687F0F67F35D752768BF0F67F39E75D6
:1047D0002768FF0F67F3DF750095E2B1102A04D058
:1047E000202A06D0302A34D107E000F0BBFC012398
:1047F0002FE045F0006000902BE0AA0203D54E7137
:10480000FFF7FCF8012345F0806040F4004040F0E1
:10481000004000901DE025F40040009019E045F4B0
:104820000010009015E045F00060009011E00DE0F0
:10483000AA0203D54E71FFF7E1F8012345F080602D
:1048400040F4004040F00040009002E025F40040B9
:104850000090012B01D000982060F8BD82B0CA09F9
:1048600001929DF80420002A04D001F07F0102B0DB
:1048700000F062BF02B000F097BB0000C9880129B8
:1048800001D0FFF78BB990F8DC10022903D003297F
:1048900005D0FFF783B901220349FFF773B901225D
:1048A00000F1D801FFF76EB98C83FF1FF8B50546FC
:1048B0000F4600200090002400267888010A08296D
:1048C00056D2DFE801F055040B1455554B50D5F87E
:1048D000C00401686846884704464DE0D5F8B8042E
:1048E00041696846884704460221617044E0C0B2CD
:1048F00006282ED2DFE800F0030A11181F26D5F88B
:10490000C004416868468847044635E0D5F8C004CD
:1049100081686846884704462EE0D5F8C004C1681F
:1049200068468847044627E0D5F8C0040169684610
:104930008847044620E0D5F8C004416968468847A6
:10494000044619E0D5F8C0048169684688470446E2
:1049500012E02846FFF722F901260DE02846FFF76E
:104960001DF9012608E02846FFF718F9012603E0A3
:104970002846FFF713F90126002E0ED1BDF80000DE
:1049800000280AD0FA88002A07D0824200D90246BD
:10499000009221462846FFF7F5F8F8BD034A0021AA
:1049A000D160024901220C31FFF7ECB88483FF1F6C
:1049B000002102E0491CC9B2401C0278002AF9D14A
:1049C0000846704700EB8101096C8968806840697E
:1049D0000840704790F8DC10022903D0032901D069
:1049E000FFF7DCB806490022CA6090F8DE200AB161
:1049F0000222CA60024902220C31FFF7C3B800004C
:104A00008483FF1F30B503460C461546002B16D095
:104A10001846FFF7CDFF022101EB400028802070EF
:104A2000032102206170002506E0411CC9B2225416
:104A30005B1C481CC0B265541A78002AF5D130BD01
:104A40002DE9F0410546A8688169C069084087B230
:104A5000002451E0F8074CD02146284600F0ECF93C
:104A60000646F0071ED0012303FA04F1A868426B42
:104A70008A43426305EB8400006983602148214634
:104A80000068C26928469047A87801280AD14CB925
:104A900095F8DA00042805D12846FFF7FFFB00202F
:104AA00085F8DA00B00704D505EB84010220096916
:104AB0008860300704D505EB840108200969886007
:104AC000F00604D505EB84011020096988607006A2
:104AD00004D505EB8401402009698860300608D5BB
:104AE0002146284600F062FE05EB8401802009691A
:104AF0008860641CE4B27F08002F01D0052CA9D97E
:104B0000BDE8F0817C83FF1F70B50546284600F0A4
:104B1000E5FB012085F8DC00002485F8D94000235E
:104B2000402603EB830105EBC10202F1E00102F52F
:104B30003072487054700B701370CB80D3808C70BF
:104B400094708E6096604C625462CC61D4615B1C40
:104B500069789942E5D86868816821F0010181602F
:104B6000284600F00DF80021284600F097F8284666
:104B7000FFF7E2FA6868816841F00101816070BD69
:104B80001CB504460020019000902046FEF79AFFD5
:104B90006068C1680191019941F04001019101995A
:104BA000C1602046FEF78EFF142000F072F8A07856
:104BB000012804D1606881682021009181601CBDBA
:104BC00010B50446044920460968096A88474FF42D
:104BD00080116068416110BD7C83FF1FD0F8B8145C
:104BE000496A084710B50446044920460968496ADD
:104BF00088474FF400116068416110BD7C83FF1F3E
:104C0000D0F8B814896A084782B0426851690191A6
:104C100001F00101002912D153699169194000295D
:104C20000DD00B0302D502B000F078B84B0302D5CB
:104C300002B0FFF705BF8B0703D50220506102B019
:104C40007047002902DA02B000F08EB90A0502D5D9
:104C500002B000F049BD0A0702D502B000F0B8BBAF
:104C6000CA0602D502B000F0BFB9CA0402D502B02C
:104C700000F026B98A0402D502B0FFF7C2BACA0210
:104C800002D502B0FFF79CBF8902D8D502B0FFF76A
:104C9000A9BF4FF47A71484300F072BD4268D068F2
:104CA00020F0C040012905D040F08040D0600520B0
:104CB000FFF7EFBF40F00050F8E73CB4CC09019497
:104CC00001F07F0100919DF80410012914D09DF896
:104CD000001001EB810100EBC10101F530719DF87D
:104CE00000400C709DF804404C708A608B709DF8F9
:104CF0000420012A08D00AE09DF8001001EB810190
:104D000000EBC101E031EAE79DF80020CA80022BE8
:104D100001D100220A713CBCFFF764BB2DE9F843C6
:104D200005460024A8688169C0690840060CDFF8C0
:104D3000C08056E0F00751D021462846FFF742FEDA
:104D40000746F80734D005EB84000121026C91601E
:104D5000A978012918D1006C0369009304EB840041
:104D600005EBC000D0F8C822D0F8DC128A4200D38C
:104D70000A469446C3F31202ACEB0203C0F8E032D9
:104D800014B1891AC0F8E012D8F8000021468269EF
:104D900028469047A87801280AD14CB995F8DA003E
:104DA000052805D12846FFF779FA002085F8DA00B2
:104DB000B80704D505EB84010220096C88606CB942
:104DC00021462846FFF7FEFD000707D5D8F800006A
:104DD000416928468847296C08208860641CE4B231
:104DE0007608002E01D0052CA4D9BDE8F883000078
:104DF0007C83FF1F90F8A0240A7090F8A1244A70C9
:104E000090F8A22490F8A33402EB03224A8090F891
:104E1000A42490F8A53402EB03228A8090F8A624FB
:104E200090F8A73402EB032292B2CA80C0F8F420B3
:104E3000012180F8DA10704782681369526BCA400A
:104E400002F0010243EAC21200EB810000698068AF
:104E5000104070470CB5D0F8A430D21C01920198D4
:104E6000800801900020009005E01A680A60009117
:104E70000099091D401C019A9042F6D30CBD82B0E6
:104E800001F07F0101919DF8041001EB810100EB1D
:104E9000C10101F530714A62CB6100230B624B7096
:104EA0009DF804300B708378012B00D18A619DF846
:104EB000042012B102B0FFF715BB02B0FFF70ABA27
:104EC00070B586B0044600250595049503950295B6
:104ED000009501260196A068416821F0010141601A
:104EE0000021204600F028FC0020FF2206E004EB11
:104EF00080010B699A60096C8A60401C617881426C
:104F0000F5D8A1684FF0FF308861ADF81460ADF8B6
:104F10001660A1680598C86145F0080040F00100DE
:104F200040F0020040F02000A168486145F0010017
:104F300040F0080040F00200A1680861A068016824
:104F400021F4FE6101602046FFF7A8F94FF480507C
:104F50006168486103480068016806B02046BDE802
:104F6000704008477C83FF1F38B50446E07800286E
:104F700009D0D4F8D40020F0020020F00100009005
:104F8000D4F8D4100860A068416821F001014160A4
:104F900004480068C168204688474FF000406168B7
:104FA000486138BD7C83FF1F7CB50446002000901B
:104FB00010200190616808610A4D616809690191DA
:104FC0000099A94208D80099491C0091012000F0DD
:104FD000D7FB0198C006F0D4BDE87C40032000F068
:104FE000CFBB0000400D030070B5054668688169BD
:104FF00021F0100181616868006A00F00F01C0F3C0
:105000004342C0F30A1601EB810005EBC00404F52E
:105010003074072A1BD2DFE802F01A1A041A1A1A8F
:105020001100A6B132462846616AFFF713FF606A95
:1050300030446062206A3044206208E0082205F5AE
:1050400094612846FFF706FF206A304420626868B2
:10505000816941F01001816170BD70B50446888896
:10506000002801D1C88820B12046BDE87040FEF775
:1050700095BD887800F07F0594F8DC0003280DD0FA
:1050800084F8D95029462046FEF746FC2046FEF714
:105090009DFD45B1022084F8DC0070BD2046BDE8CE
:1050A0007040FEF77BBD012084F8DC0070BD00007D
:1050B00070B504462A4D89782970012904D9204603
:1050C000BDE87040FEF76ABD94F8DC00022808D005
:1050D00003281AD0042842D02046BDE87040FEF7CD
:1050E0005DBD69B184F8D810032084F8DC0001228A
:1050F0002046FEF727FE2046BDE87040FEF766BD5D
:105100002046BDE87040FEF761BDA9B194F8D80013
:1051100088421FD094F8D81000222046FEF712FED5
:10512000297884F8D81001222046FEF70BFE20468D
:10513000BDE87040FEF74ABD022084F8DC0084F828
:10514000D81000222046FEF7FDFD2046BDE8704045
:10515000FEF73CBD2046BDE87040FEF737BD70BD90
:105160008483FF1F08B5002200924B780978012B39
:1051700000EB810040D0006C016861F30A02016815
:10518000C90A61F3CE220168C90B61F3CF3201680D
:10519000090C61F310420168490C61F35142016846
:1051A000890C61F393420168090D61F3145201689F
:1051B000490D61F355520168890D61F399520168F7
:1051C000890E61F39A620168C90E61F3DB620168BE
:1051D000090F61F31C720168490F61F35D72016888
:1051E000890F61F39E720168C90F61F3DF7242F4A7
:1051F00000110091016008BD0069016861F30A02B5
:105200000168C90A61F3CE220168C90B61F3CF328C
:105210000168090C61F310420168490C61F35142C5
:105220000168890C61F393420168090D61F314521E
:105230000168490D61F355520168890D61F3995276
:105240000168890E61F39A620168C90E61F3DB623D
:105250000168090F61F31C720168490F61F35D7207
:105260000168890F61F39E720168C90F61F3DF72F3
:105270000092002A02DA42F080410091009941F444
:1052800000110091016008BD38B50446002248882D
:105290000123012813D002281DD1087910F0FF0F37
:1052A00019D1A068406862F3061000900A490860AE
:1052B00084F8DF302046BDE83840FEF787BC84F82C
:1052C000DE30D4F8B8048268204690472046BDE816
:1052D0003840FEF77BBC38BD8083FF1F30B500210E
:1052E0008170154A0C2101700621417042601349FA
:1052F000816000210AE002EB411300EB810403F519
:105300001065256103F530632364491C43788B42A3
:10531000F1D8002108E002EB013300EB810403F532
:105320008053C4F8A430491C43788B42F3D802F56B
:105330006062C0F8D42030BD00000C4000080C4072
:105340001CB5044669462046FFF754FD9DF8002031
:1053500012F01F0109D001290CD002290FD002F050
:105360008001204600F049F81CBD6946204600F047
:105370006DF81CBD6946204600F076F91CBD6946F3
:10538000204600F0A3F81CBD82B0CA09019201F0CA
:105390007F0100919DF80410012910D09DF80010A4
:1053A00001EB810100EBC10101F530719DF8002096
:1053B0000A709DF804204A7002B0FFF779B89DF892
:1053C000001001EB810100EBC101E031EEE70000CC
:1053D00010B5044604490868016920468847082139
:1053E0006068416110BD00007C83FF1FD0F8B814D5
:1053F0008969002900D00847704782B0CA09019224
:1054000001F07F0100919DF80410002907D09DF85C
:10541000001001EB810100EBC101E03107E09DF8D4
:10542000001001EB810100EBC10101F53071012297
:10543000CA709DF800300B709DF804300BB14A70B3
:1054400001E000224A7002B0FFF78CBE10B504469E
:105450004878062816D0052819D009281CD0082815
:105460001FD018B3032826D0012829D0D4F8B804B7
:10547000826820469047002827D02046BDE810408B
:10548000FEF78CBB2046BDE81040FFF70FBA204660
:10549000BDE81040FFF7E1BD2046BDE81040FFF732
:1054A00007BE2046BDE81040FFF7E8B92046BDE83A
:1054B0001040FFF78FBA2046BDE81040FFF7E4BE6A
:1054C0002046BDE81040FEF7B5BA10BDF8B5044659
:1054D0000D4628790090687800286AD0012834D0D9
:1054E00003287DD194F8DC00022806D0032813D0CD
:1054F0002046BDE8F840FEF751BB9DF800000028AB
:105500006ED09DF8000080286AD09DF800102046DB
:10551000BDE8F840FFF771BF688858B99DF80000F2
:1055200040B19DF80000802804D09DF8001020466E
:10553000FFF763FFD4F8B8042946826820469047F5
:105540002046BDE8F840FEF741BB94F8DC00022895
:1055500006D0032813D02046BDE8F840FEF71EBB56
:105560009DF8000000287CD09DF80000802878D0AD
:105570009DF800102046BDE8F840FFF73EBF688860
:1055800000286ED19DF8000070B19DF800008028C1
:105590000AD09DF800102046FEF76AFAD4F8B80445
:1055A00029468268204690472046BDE8F840FEF72D
:1055B0000DBB94F8DC00022806D0032815D0204645
:1055C000BDE8F840FEF7EABA9DF80000002848D090
:1055D0009DF80000802844D09DF80010204600E08F
:1055E0003FE0BDE8F840FFF708BF9DF800001D4A06
:1055F00001064FF000054FF001034FF00C0012D5EB
:105600009DF8001001F07F01B1FBF0F600FB1610D1
:1056100000EB800004EBC00090F8E30008B1536099
:1056200017E0556015E09DF80010090611D49DF8AB
:10563000001001F07F01B1FBF0F600FB161000EB4B
:10564000800004EBC00090F8C30208B1536000E092
:1056500055602046BDE8F84002490222091DFEF7C8
:1056600091BAF8BD8483FF1F70B505460C46002231
:105670006178002904D00A2908D0FE290ED011E053
:1056800021462846FFF7A6F901220BE020782128C1
:1056900008D02846FFF782F9012203E02846FFF7E9
:1056A0007DF90122012A1ED095F8DC00032804D0E0
:1056B0002846BDE87040FEF771BA207901280DD860
:1056C000D5F8B8042146826828469047E08800282B
:1056D00009D12846BDE87040FEF778BA2846BDE8F3
:1056E0007040FEF75BBA70BD10B504461148006803
:1056F000816820468847A06880684FF4006162682E
:10570000516194F8DC10032913D1E178002910D0FD
:10571000C0070ED094F8DD0001280AD154F8D40F48
:10572000016841F0010101602068016841F0020157
:10573000016010BD7C83FF1F7CB5044600200090F3
:10574000202001F01F0140EA81100190616801985A
:1057500008610A4D6168096901910099A94208D858
:105760000099491C0091012000F00AF80198800678
:10577000F0D4BDE87C40032000F002B8400D0300E7
:1057800008B50849084A0968B1FBF2F14143002015
:10579000009002E00098401C009000988842F9D3E5
:1057A00008BD0000B482FF1F40420F002DE9F04702
:1057B00007460E4606EB860007EBC004E034D4E94A
:1057C0000701451AA068A84200D20546E81C4FEA26
:1057D000900907EB8608D8F81000806980B217E0BE
:1057E0009D1AA268AA4200D21546E81C4FEA900909
:1057F000ABB2F2B23846616A00F01AF8606A284427
:105800006062206A28442062D8F81000806980B263
:10581000484503D3D4E907329A42E1D3002D05D19C
:105820000121B140B868426B8A434263BDE8F0870A
:1058300018B58478002C0ED1DB1C9B0800EB82008D
:10584000D0F8A40005E00A68026000910099091DE3
:10585000641C9C42F7D318BD08B5FDF799FD0021E3
:105860000420FDF719F800210820FDF715F80021A4
:105870001020FDF711F8FBF79BFBFBF747FC01211C
:105880000520FDF745F850B1FCF738FC384F0024EF
:10589000384D394EDFF8E4804FF4804961E04FF431
:1058A0007A70FDF7C9FDFCF729FE354C002335A2BF
:1058B0002088009019461846FCF70AFF208800232C
:1058C000009033A219464620FCF702FF2088009082
:1058D000002331A222213B20FCF7FAFE304B314A53
:1058E00031493248FEF754FAD0E7FDF793FD78606E
:1058F00012E0FDF78FFD7968401A3C280CD92C483E
:105900008179012902D00121817100E08471FBF7C6
:105910008DFB72B6FDF772FEFDF77CFD3168401A13
:10592000012804D9287810B12C70FCF79DFFFDF7F1
:1059300071FD3168401A052807D998F8000020B198
:1059400088F8004072B6FDF759FE1A48007840B159
:10595000FDF760FD18490968401A032801D9FBF7D3
:1059600017FD49460220FCF7D3FF0128C1D1BCE74F
:10597000B882FF1FCC82FF1FDC82FF1FCD82FF1F7A
:105980003E83FF1F426F6F746C6F6164657200002D
:1059900056312E32000000004F5441C4A3CABD004E
:1059A0001C83FF1FF083FF1FE882FF1F2084FF1F5F
:1059B00024A9FF1FCF82FF1FE482FF1F0348016855
:1059C000012901D100210160704700009483FF1F6D
:1059D00010B50C468121FEF741FF012C02D102498E
:1059E0000120087010BD0000C882FF1F10B50446DA
:1059F000FBF702FD4023064A02212046FFF73FFA4B
:105A00002046BDE810404FF440520221FEF725BB6E
:105A100064ABFF1F10B5044681212046FFF7B4FC9C
:105A20002046BDE810400221FFF7AEBC29210180CD
:105A300000487047A483FF1F10B50446032340228B
:105A400081212046FFF739F9032340220221204615
:105A5000FFF733F94023064A02212046FFF70FFAE9
:105A60002046BDE810404FF440520221FEF7F5BA3F
:105A700064ABFF1F70B50022002300250C782D4E6B
:105A800014F060042AD0202C52D14A78921E0A2A9F
:105A900020D2DFE802F012081F1F1F1F1F180E057B
:105AA0008878B06044E0234901220831FEF76AF8A3
:105AB0003EE04888000AF0603AE01E4901220C31BD
:105AC000FEF760F834E0012232608A791A49FEF765
:105AD0004DF82DE0FEF762F8022529E04C78062CFF
