:020000040001F9
:100000003868022099020100E9CE0100258801002C
:1000100027CD010031380100D94F02000000000057
:10002000000000000000000000000000E12E0200BF
:10003000B9560100000000004D0E0200B137020069
:100040001598010025980100359801004598010098
:100050005598010065980100759801008598010088
:1000600095980100A5980100B5980100C598010078
:10007000D5980100E5980100F59801000599010067
:100080001599010025990100359901004599010054
:100090005599010065990100759901008599010044
:1000A00095990100A5990100B5990100C599010034
:1000B000D5990100E5990100F5990100059A010023
:1000C000159A0100299A01003D9A0100519A0100F8
:1000D000659A0100799A01008D9A0100A19A0100A8
:1000E000B59A0100C99A0100DD9A0100F19A010058
:1000F000059B0100199B01002D9B0100419B010004
:10010000559B0100699B01007D9B0100919B0100B3
:10011000A59B0100B99B0100CD9B0100E19B010063
:10012000F59B0100099C01001D9C0100319C010010
:10013000459C0100599C01006D9C0100819C0100BF
:10014000959C0100A99C0100BD9C0100D19C01006F
:10015000E59C0100F99C01000D9D0100219D01001D
:10016000359D0100499D01005D9D0100719D0100CB
:10017000859D0100999D0100AD9D0100C19D01007B
:10018000D59D0100E99D0100FD9D0100119E01002A
:10019000259E0100399E01004D9E0100619E0100D7
:1001A000759E0100899E01009D9E0100B19E010087
:1001B000C59E0100D99E0100ED9E0100019F010036
:1001C000159F0100299F01003D9F0100519F0100E3
:1001D000659F0100799F01008D9F0100A19F010093
:1001E000B59F0100C99F0100DD9F0100F19F010043
:1001F00005A0010019A001002DA0010041A00100EF
:1002000055A0010069A001007DA0010091A001009E
:10021000A5A00100B9A00100CDA00100E1A001004E
:10022000F5A0010009A101001DA1010031A10100FB
:1002300045A1010059A101006DA1010081A10100AA
:10024000DB020100DB020100DB020100DB02010036
:10025000DB020100DB020100DB020100DB02010026
:10026000DB020100DB020100DB020100DB02010016
:10027000DB020100DB020100DB020100DB02010006
:10028000DFF810D000F004FC0048004765A1020030
:10029000AFF300803868022010484FF0770101600A
:1002A0000F484FF0770101600E484FF4885101600C
:1002B0000A484FF07601016009484FF0760101606D
:1002C0000948804709480047FEE7FEE7FEE7FEE7EA
:1002D000FEE7FEE7FEE7FEE7FEE7FEE7040805406F
:1002E0000C08054000080540713802008102010039
:1002F0002DE9F05F0546002092469B46884606465B
:10030000814640241BE0284641464746224600F0ED
:1003100089FA53465A46C01A914110D311461846DD
:10032000224600F016F82D1A67EB01084F462246C8
:100330000120002100F00DF817EB00094E41201EAE
:10034000A4F10104DFDC484631462A464346BDE8B5
:10035000F09F202A04DB203A00FA02F100207047C7
:100360009140C2F1200320FA03F3194390407047F3
:10037000202A06DBCB17203A41FA02F043EAE07369
:1003800006E041FA02F3D040C2F120029140084356
:100390001946704740EA01039B0703D009E008C9EA
:1003A000121F08C0042AFAD203E011F8013B00F83A
:1003B000013B521EF9D27047D2B201E000F8012B86
:1003C000491EFBD270470022F6E710B513460A46D5
:1003D00004461946FFF7F0FF204610BD2DE9FE4FF9
:1003E000804681EA0300C00F0C46009021F00041D6
:1003F00023F00045B8EB0200A94105D24046214652
:1004000090461C460B46024623F00040104347D05E
:10041000270DC7F30A00C3F30A510290401A019056
:1004200040286BDAC3F3130040F4801B0098924617
:1004300020B10023D2EB030A63EB0B0B0198594662
:10044000C0F140025046FFF784FF06460D46504675
:100450005946019AFFF78CFF10EB08006141002418
:1004600087EA115284EAE7731A4340D0009A62B3D4
:10047000019A012A4FEA075215DC001B61EB0201C9
:100480004FF0004202EA0752CDE90042001C41F55C
:10049000801132462B4600F01BFA03B0BDE8F08F06
:1004A00040462146F9E7001B61EB0201001C41F5C3
:1004B000801300185B412018A2F5001747EB0301D9
:1004C00040EAD570B6196D4111E06D084FEA360665
:1004D00045EAC0754FEA0752001B61EB0201001CA0
:1004E00041F5801149084FEA300000195141324668
:1004F0002B4603B0BDE8F04F00F0DBB900980122B5
:1005000040000023D0EB020263EBE0730098214629
:100510004FEAE074B8EB000061EB0401E9E783F017
:1005200000435BE781F0004158E72DE9FE4F81EA87
:10053000030404F0004421F0004100944FF0000B4C
:1005400023F0004350EA01045ED052EA03045BD07A
:10055000C3F30A54C1F30A552C44A4F2F3340194B2
:10056000A0FB0254C1F3130141F48011C3F3130340
:1005700043F4801301FB024400FB034E840A970AF4
:1005800044EA815447EA8357A4FB076802958D0A21
:1005900005FB07854FEA932C04FB0C542705029DAD
:1005A0004FEA065847EA1637B5EB08056EEB070C1D
:1005B000870E920E47EA811742EA8312A7FB0201D7
:1005C000B6EB0B0164EB00042B0D43EA0C335E1811
:1005D00044EB1C50DA465146E7FB0201C5F3130415
:1005E0004FEA0B3343EA14534FEA0432019C43EAC7
:1005F0000603A4F10C040294009CCDE900B400F0C1
:1006000067F903B0BDE8F08F00200146F9E72DE956
:10061000F04D81EA030404F0004B21F0004514463C
:100620004FF0000A23F0004150EA050220D054EABE
:1006300001021DD0C5F30A570246C5F31303C1F3E7
:100640001300C1F30A5640F4801543F48013A7EB5E
:100650000608101BD64608F2FD3873EB050002D3DE
:1006600008F1010801E092185B41B8F1000F03DACC
:1006700000200146BDE8F08D00204FF480110646B1
:1006800084460EE0171B73EB050705D3121B63EBC3
:10069000050306434CEA010C49084FEA3000921862
:1006A0005B4150EA0107EDD152EA030012D082EA21
:1006B000040083EA0501084305D0101BAB4106D2B4
:1006C0000122002306E000224FF0004302E06FF019
:1006D000010253101AEB06004CEB085110EB0A0014
:1006E00041EB0B01BDE8F04D00F0E3B80EB540F270
:1006F000334102910021CDE900110A460B4600F07A
:10070000E7F803B000BDC1F30A5210B5C1F31301FD
:1007100040F2FF3341F480119A4201DA002010BD0B
:1007200040F233439A42A2F2334203DC524200F0D9
:1007300079F810BD904010BD00F0004230F000404C
:100740000AD0C10D01F56071C0F3160042EA0151F3
:10075000C20840071143704700200146704700005F
:1007600030B5041E71F1000404DB4FF00044404238
:1007700064EB0101141E73F1000405DB1C464FF00D
:100780000043524263EB04038B4208BF824230BDF8
:1007900030B5041E71F1000404DB4FF00044404208
:1007A00064EB0101141E73F1000405DB1C464FF0DD
:1007B0000043524263EB0403994208BF904230BDAC
:1007C00001F0004330B421F0004150EA010206D0AC
:1007D0000A0DA2F56072C1F31301002A02DC30BCDD
:1007E00000207047440F44EAC104C100E01830BC47
:1007F00000EBC25000F026B830B50B460146002091
:100800002022012409E021FA02F59D4205D303FAD2
:1008100002F5491B04FA02F52844151EA2F1010253
:10082000F1DC30BD202A04DB203A21FA02F000215D
:10083000704721FA02F3D040C2F1200291400843F0
:10084000194670470029A8BF7047401C490008BFDF
:1008500020F00100704710B4B0FA80FC00FA0CF0F0
:1008600050EA010404BF10BC704749B1CCF1200428
:1008700021FA04F411FA0CF118BF012121430843B5
:10088000A3EB0C01CB1D4FEA00614FEA102042BFE1
:10089000002010BC704700EBC35010440029A4BFD7
:1008A00010BC7047401C490008BF20F0010010BC7C
:1008B000704710B5141E73F1000408DA401C41F1B2
:1008C000000192185B411A4301D120F0010010BDD4
:1008D0002DE9F04D92469B4611B1B1FA81F202E04A
:1008E000B0FA80F220329046FFF733FD04460F46FF
:1008F00040EA0A0041EA0B0153465A46084313D026
:10090000114653EA010019D0C8F140025046FFF7E2
:1009100089FF05460E46504659464246FFF719FDE7
:10092000084305D0012004E020463946BDE8F08D9B
:100930000020054346EAE0762C4337430A986305D6
:10094000E40AA0EB08000022FD0A44EA47540A30FA
:1009500002D500200146E9E7010510196941DDE9EA
:10096000084500196941BDE8F04DA2E770B521F0D6
:10097000004303430CD0C1F30A550024D5EB040512
:1009800064EB0403D617AD1AB34102DB0020014625
:1009900070BD201841EB025170BD2DE9F04D0023D0
:1009A0001A461B1A8A4103DB00200146BDE8F08D80
:1009B000C1F30A52C1F3130141F480154FF0000B4B
:1009C000D10702D100186D41521E0027044640F2A3
:1009D000FF11384601EB620A3E468046024600207F
:1009E0004FF48011FFF71EFFC2197141BB1846EB8F
:1009F0000100B4EB030C75EB000C04D3E41A65EBB7
:100A0000000517460E46241908F101006D41804685
:100A10003428E3DDF91946EB0600091BA84103D28F
:100A20004FF0FF32134601E0002213461BEB070094
:100A300046EB0A51BDE8F04DFFF73BBF0EB5C10FC5
:100A400080EAE0700844CA07002140F233438DE891
:100A50000E000A460B46FFF73BFF03B000BDC1F393
:100A60000A52C1F3130140F2FF3341F480119A425C
:100A700002DA00200146704740F233439A42A2F264
:100A8000334202DC5242FFF7CDBEFFF762BC0000EA
:100A9000064C074D06E0E06840F0010394E80700CB
:100AA00098471034AC42F6D3FFF7EEFBE0A5030005
:100AB00010A6030070B58C1810F8015B15F0070341
:100AC00001D110F8013B2A1106D110F8012B03E0E7
:100AD00010F8016B01F8016B5B1EF9D12B0705D4EF
:100AE0000023521E0DD401F8013BFAE710F8013B38
:100AF000CB1A921C03E013F8015B01F8015B521E54
:100B0000F9D5A142D8D3002070BD48F25B0CC1F6E4
:100B1000FF7C604748F2390CC1F6FF7C604748F221
:100B2000010CC1F6FF7C604748F2A51CC1F6FF7CB2
:100B30006047000070B504460D460420002C43D0E9
:100B4000002D41D0297901293ED8204EB44207D04A
:100B50001F48844204D040F25A211EA004F05EFDDA
:100B6000B44214D12868C0F31000297939B1218A20
:100B700001432182618A41EA104161820FE0A1892B
:100B80000143A181E18941EA1041E18107E0288820
:100B9000C0F30800297931B1218A01432182002163
:100BA000002220340EE0A1890143A181F7E7C307A9
:100BB00005D01346AE68521CD2B2F35C63544008B1
:100BC000491CC9B20028F2D170BD000000000440E9
:100BD000000404402E2E5C2E2E5C2E2E5C2E2E5CED
:100BE0002E2E5C6472697665725C7372635C6863F6
:100BF0003332663436305F6164632E630000000078
:100C000070B504460D460420002C1ED00F4EB44291
:100C100007D00F48844204D040F221310DA004F0E7
:100C2000FDFCB44202D1C5F3100001E0C5F3080099
:100C30004FEA1041A28A42EA0002A28203D1E08A6E
:100C400040EA0100E0824FF0000070BD0000044067
:100C5000000404402E2E5C2E2E5C2E2E5C2E2E5C6C
:100C60002E2E5C6472697665725C7372635C686375
:100C70003332663436305F6164632E6300000000F7
:100C800070B504460D46002C10D00948844207D0A8
:100C90000848844204D040F2F24107A004F0BEFCB0
:100CA00014F8460F0121A9408843207070BD000050
:100CB00000000440000404402E2E5C2E2E5C2E2EDC
:100CC0005C2E2E5C2E2E5C6472697665725C73728B
:100CD000635C68633332663436305F6164632E630D
:100CE0000000000010B500F0D3FB00F07FFB00F027
:100CF00053FCBDE8104004F0E3BC000070B50446AE
:100D00000D460420002C18D00C48844207D00C4813
:100D1000844204D040F2FE210AA004F07FFC3DB1E1
:100D2000681E062804D940F2FF2106A004F076FCD4
:100D3000608865F30A206080002070BD00000440D8
:100D4000000404402E2E5C2E2E5C2E2E5C2E2E5C7B
:100D50002E2E5C6472697665725C7372635C686384
:100D60003332663436305F6164632E630000000006
:100D700070B504460D46002C07D0601E0D2804D91E
:100D800040F22A410AA004F049FC012D05D025B10A
:100D900040F22B4106A004F041FC1048018864F3A6
:100DA00003010180818965F30001818170BD00002C
:100DB0002E2E5C2E2E5C2E2E5C2E2E5C2E2E5C6437
:100DC00072697665725C7372635C68633332663431
:100DD00036305F6164632E6300000000C20004408F
:100DE00010B502220021064804F046F9054C2046C1
:100DF00000F07CFA2046BDE810400021FFF740BF1C
:100E0000003005400000044070B504460D46042043
:100E1000002C1AD00D4EB44207D00D48844204D0A5
:100E200040F2A7210BA004F0F9FB280CA189A943EB
:100E3000A181218AA9432182B44205D1E18981435C
:100E4000E181618A81436182002070BD000004401D
:100E5000000404402E2E5C2E2E5C2E2E5C2E2E5C6A
:100E60002E2E5C6472697665725C7372635C686373
:100E70003332663436305F6164632E6300000000F5
:100E80002DE9F0470546884617461C46042005F123
:100E90005006002D2AD0002F28D0002C26D0DFF8B5
:100EA00050904D4507D01348854204D040F2AB51D5
:100EB00011A004F0B3FB4D4502D1C8F3100001E0CE
:100EC000C8F30800002100230CE0C20707D036F861
:100ED000112027F813205B1CDBB2641EE4B240082B
:100EE000491CC9B208B1002CEFD10020BDE8F08741
:100EF00000000440000404402E2E5C2E2E5C2E2E9A
:100F00005C2E2E5C2E2E5C6472697665725C737248
:100F1000635C68633332663436305F6164632E63CA
:100F20000000000070B504460E46002509488442C2
:100F300007D00948844204D040F2D64107A004F00B
:100F40006DFB94F846000121B140084200D0012514
:100F5000284670BD00000440000404402E2E5C2E84
:100F60002E5C2E2E5C2E2E5C2E2E5C6472697665B5
:100F7000725C7372635C68633332663436305F610F
:100F800064632E630000000070B504460D46042023
:100F9000002C56D0002D54D02A48844206D02A482E
:100FA000844203D0F82129A004F038FB28780228D5
:100FB00006D0012804D018B1F92124A004F02EFB9A
:100FC000687828B1012803D0FA2120A004F026FB7C
:100FD000A878012804D018B1FB211CA004F01EFB46
:100FE000E87848B1012807D0022805D0032803D0AB
:100FF000FC2116A004F012FB287928B1012803D0A7
:10100000FD2112A004F00AFB002020702A786188DC
:1010100062F3051161806A78618862F3C7116180AB
:10102000AA78618862F386116180EA78618862F348
:10103000010161802A79A18862F38201A18084F88C
:10104000470070BD00000440000404402E2E5C2EBA
:101050002E5C2E2E5C2E2E5C2E2E5C6472697665C4
:10106000725C7372635C68633332663436305F611E
:1010700064632E630000000010B50446002C06D007
:10108000012C04D040F23C4109A004F0C7FA1348F7
:10109000012C05D030F8C01F21F00F01018010BDD8
:1010A00030F8C01F21F00F010E31018010BD00008B
:1010B0002E2E5C2E2E5C2E2E5C2E2E5C2E2E5C6434
:1010C00072697665725C7372635C6863333266342E
:1010D00036305F6164632E6300000000000004404E
:1010E00010B50446002C17D0012C15D0022C13D0BB
:1010F000042C11D0082C0FD0102C0DD0202C0BD08C
:10110000402C09D0802C07D0B4F5807F04D040F269
:10111000574103A004F082FA0C48048010BD00007F
:101120002E2E5C2E2E5C2E2E5C2E2E5C2E2E5C64C3
:1011300072697665725C7372635C686333326634BD
:1011400036305F6164632E6300000000CC00044011
:101150003EB5434C204600F09BF800212046FFF7A7
:10116000E1FE0028F9D006236A4640F23B112046F2
:10117000FFF786FE00212046FFF782FDBDF80A003A
:101180009FED381A00EE100A384CF8EE400A81EE56
:10119000200ADFED350A20EE200A84ED000ABDF8B2
:1011A000060001EE100AF8EE411A81EEA01A21EEB7
:1011B000001A84ED031ABDF8080001EE100AF8EEDB
:1011C000411A81EEA01A21EE000A84ED020ABDF850
:1011D000000000EE100AB8EE400A84ED040ABDF8E3
:1011E000020000EE100AB8EE400A84ED050ABDF8D0
:1011F000040000EE100AB8EE400A70EEC00A00EEDD
:10120000100AB8EE401A80EE810A10EE100AFFF7BD
:1012100093FA41EC100B14F077F99FED151B51EC8C
:10122000100B53EC112BFFF780F99FED131B53ECC0
:10123000112BFFF7D3F841EC100B53EC102B9FED63
:10124000100B51EC100BFFF7E2F99FED0F1B53EC65
:10125000112BFFF764F9FFF7B3FA60603EBD0000A1
:1012600000040440BE9F8A3F00F07F458083FF1F3B
:101270000000006066A272400000000000F4AA4076
:101280000000000013642F410000006066127140EE
:1012900010B504460420002C0DD00748844207D026
:1012A0000648844204D040F2944105A004F0B6F907
:1012B00001202070002010BD000004400004044004
:1012C0002E2E5C2E2E5C2E2E5C2E2E5C2E2E5C6422
:1012D00072697665725C7372635C6863333266341C
:1012E00036305F6164632E630000000038B5044649
:1012F000042100250095002C19D00E48844207D007
:101300000D48844204D040F2B1410CA004F086F9AB
:10131000002142F2107207E025700098401C0090F6
:10132000904201D9092102E020780128F4D0084632
:1013300038BD000000000440000404402E2E5C2E46
:101340002E5C2E2E5C2E2E5C2E2E5C6472697665D1
:10135000725C7372635C68633332663436305F612B
:1013600064632E630000000070B504460E46154607
:101370000420002C1AD0012E18D80F48844207D020
:101380000E48844204D04FF4F3710DA004F046F9E6
:1013900035B1012D04D040F2E71109A004F03EF967
:1013A0002EB1608965F3CF306081002070BD608907
:1013B00065F3C7106081F8E70000044000040440B2
:1013C0002E2E5C2E2E5C2E2E5C2E2E5C2E2E5C6421
:1013D00072697665725C7372635C6863333266341B
:1013E00036305F6164632E630000000030B587B063
:1013F00022A00068039022A003C8CDE901010020CB
:101400000590042104918DF8140003A806901E4C49
:101410000222204600F05EF804A92046FFF78AFB6E
:1014200001210020FFF7A4FC0420FFF759FE012052
:10143000FFF722FE40F23B14049401A80690134DDE
:1014400002222146284600F045F804A92846FFF765
:1014500071FB01212846FFF751FC21462846FFF782
:10146000CFFB012108020FF075FC102002F05CFE9A
:1014700001200FF0A9FC07B030BD000011000000F2
:10148000FFFFFF64646400000000044000040440A7
:101490001CB50024009401948DF800408DF80140A3
:1014A00001208DF80300012108460FF053FC694626
:1014B0000648FFF769FD0094012102200FF04AFC65
:1014C00069460348FFF760FD1CBD000000000440B2
:1014D000000404402DE9F0411746002500260B4A80
:1014E000904201D18CB20CE0CCB2042609E0E007B6
:1014F00004D0A819C0B2394600F00AF864086D1C7F
:10150000EDB2002CF3D1BDE8F081000000000440F2
:101510007CB504460D4600200121012200230093E2
:1015200001938DF800508DF80430102C2DD2DFE897
:1015300004F02D080A0C0E10121416181B1D20237F
:101540002629022122E0042120E008211EE01021AA
:101550001CE020211AE0402118E0802116E0012043
:1015600014E00120022111E002200FE002200221FC
:101570000CE00220042109E00220082106E00220FC
:10158000102103E00220202100E00022002A02D0E6
:101590006A460EF013FF7CBD70B5012148040FF0C0
:1015A00025FB0C4C002211462046FFF7DDFE0A4DBC
:1015B000002211462846FFF7D7FE002201212046CF
:1015C000FFF7D2FE2846BDE8704000220121FFF758
:1015D000CBBE000000000440000404402DE9F04FA1
:1015E0002DED048B83B0FE490A780020FD4EDFF814
:1015F000F893FE4FDFF8F883062A06D00A78042A0B
:101600000ED00A78052A0DD00DE03880A8F8000029
:1016100001223280F74A108089F80000087002E049
:10162000087000E00870502548F610440A2246234E
:1016300000211046CDE9004500F05CFD1422462350
:1016400000211046CDE9004500F054FD1E2246233E
:1016500000211046CDE9004500F04CFD282246232C
:1016600000211046CDE9004500F044FD322246231A
:1016700000211046CDE9004500F03CFD3C22462308
:1016800000211046CDE9004500F034FD46231A46FE
:1016900000211846CDE9004500F02CFD50224623DC
:1016A00000211046CDE9004500F024FD5A224623D2
:1016B00000211046CDE9004500F01CFD64224623C0
:1016C00000211046CDE9004500F014FD6E224623AE
:1016D00000211046CDE9004500F00CFD782246239C
:1016E00000211046CDE9004500F004FD822246238A
:1016F00000211046CDE9004500F0FCFC8C22462379
:1017000000211046CDE9004500F0F4FC9622462366
:1017100000211046CDE9004500F0ECFC0A239F2291
:1017200019460020CDE9004500F0E4FC14239F2277
:1017300019460020CDE9004500F0DCFC1E239F2265
:1017400019460020CDE9004500F0D4FC28239F2253
:1017500019460020CDE9004500F0CCFC32239F2241
:1017600019460020CDE9004500F0C4FC3C239F222F
:1017700019460020CDE9004500F0BCFC4FF0FF0AFF
:10178000CDE9004A002146230122084600F0B2FCC0
:10179000CDE9004A002101239F22084600F0AAFC5F
:1017A000CDE9004A46239F2200219E2000F0A2FCA2
:1017B000CDE9004A46239F224521002000F09AFCF3
:1017C0000C2001F0F1FC8C48008801F0F3FC46216C
:1017D000002001F0E3FC8949894C91ED000A10EEEC
:1017E000100AA04205DA022091ED000A01F01EFC69
:1017F00004E0012091ED000A01F018FC81A001F045
:1018000065F94621242001F0C9FC7F4991ED000AC9
:1018100010EE100AA04205DA022091ED000A01F054
:1018200005FC04E0012091ED000A01F0FFFB77A028
:1018300001F04CF94621482001F0B0FC744991EDCB
:10184000000A10EE100AA04205DA022091ED000A0B
:1018500001F0ECFB11E091ED000A6E4A10EE100A67
:10186000904205DA012091ED000A01F0DFFB04E06F
:10187000002091ED000A01F0D9FB67A001F026F9E4
:101880004621762001F08AFC30880321400001F0D7
:101890003FFC62A001F01AF90024DFF884B1DFED0B
:1018A000618A9FED618A614D9FED619A614ED9E039
:1018B000401E844238D13BF81400FF2300EE100A8A
:1018C00038882A88B8EE400A60EE280A00EE100A2E
:1018D000B8EE401A80EE810A38EE400ABCEEC00A2B
:1018E00010EE100AC1B2204600F0E4FB5248FF237C
:1018F000328830F8140000EE100AB8F80000B8EE94
:10190000400A60EE090A00EE100AB8EE401A80EEB6
:10191000810A38EE400ABCEEC00A10EE100AC1B2CD
:10192000204600F0C7FB9BE004F1010922463BF88A
:10193000190000EE100A3888B8EE400A60EE280A56
:1019400000EE100AB8EE401A80EE810A38EE400A26
:10195000BCEEC00A10EE101A8BB23BF8141000EE69
:10196000101AB8EE400A60EE280A00EE100AB8EE2F
:10197000401A80EE810A38EE400ABCEEC00A10EE32
:10198000100AC1B22888CDE9000A204600F0B2FB57
:101990002949DFED2A0A31F8190031F8141000EE58
:1019A000100AB8F80000B8EE400A60EE200A00EE17
:1019B000100AB8EE401A80EE810A38EE400ABCEEFA
:1019C000C00A10EE102A00EE101A93B2B8EE400AC8
:1019D00060EE090A00EE100AB8EE401A30E000008E
:1019E0006083FF1F048DFF1FFB8CFF1FFE8CFF1FFA
:1019F000008DFF1F028DFF1FAE83FF1F3483FF1F6B
:101A000000002041560000003C83FF1F4100000001
:101A10004083FF1F0000C84257000000532F64009E
:101A2000F45E02200000704200008C42A883FF1F79
:101A300000000C42AA83FF1F3460022000002042F5
:101A400080EE810A224638EE400ABCEEC00A10EE53
:101A5000100AC1B23088CDE9000A204600F04AFBE6
:101A6000641CE4B2244800788442FFF421AF288843
:101A700001F0A0FB388842F21074A04204D2002189
:101A80007F2001F08BFB03E00021782001F086FB32
:101A900038889FED1A8A00EE100A0220F8EE400AFC
:101AA00080EE880A01F0C2FAAFF2A80001F00EF849
:101AB000308801F07FFBB8F80000A04204D2142166
:101AC0007F2001F06BFB03E01421782001F066FB1E
:101AD000B8F8000000EE100A0220F8EE400A80EE8E
:101AE000880A01F0A3FAAFF2DC0003B0BDEC048B6E
:101AF000BDE8F04F00F0EABFFB8CFF1F00007A4406
:101B00001CB50021009101918DF8001001228DF883
:101B100001208DF802108DF803208DF804000221B9
:101B20008DF805108DF80600684602F043F91CBDDB
:101B30002DE9F04107468846164600240021384624
:101B400012F0DEFA05460121384612F0D9FA012ECC
:101B500006D04146384612F0D3FA012806D006E0F6
:101B6000012D01D0012802D1012400E00124012C23
:101B70000BD10020064942F21072096801E000BF53
:101B8000401CB1FBF2F38342F9D8BDE8F0810000BC
:101B9000B482FF1F2DE9FC4100F0FCF8102001F099
:101BA00003FB6748008801F005FB0021084601F0AF
:101BB000F5FA64A000F0D8FB0024DFF89881644EA9
:101BC0001927A8F56575308801F0F4FA07EB0410C1
:101BD000C1B2002001F0E2FA687B844212D10221F6
:101BE000002000F06FF90C2001F0DEFA5A4800885E
:101BF00001F0E0FA59A000F069FF6FF00101002048
:101C000000F060F9102001F0CFFA08EB84100068B2
:101C100000F0AAFB24B1012C63D0022C70D168E043
:101C2000A87B08286CD2DFE800F00F1A25303B466D
:101C300051044BA000F098FB0021022000F042F973
:101C400048A000F091FB5BE049A000F08DFB002173
:101C5000022000F037F947A000F086FB50E046A0D4
:101C600000F082FB0021022000F02CF941A000F0DE
:101C70007BFB45E041A000F077FB0021022000F053
:101C800021F93FA000F070FB3AE03FA000F06CFBB0
:101C90000021022000F016F939A000F065FB2FE0CA
:101CA0003AA000F061FB0021022000F00BF934A003
:101CB00000F05AFB24E036A000F056FB0021022081
:101CC00000F000F92EA000F04FFB19E02AA000F070
:101CD0004BFB0021022000F0F5F829A000F044FBA6
:101CE0000EE01FA000F040FB0021E87B01F010FA9D
:101CF00006E01BA000F038FB0021287C01F008FA68
:101D0000641CE4B2032CFFF45EAFFF243088CDE9FD
:101D100000049E224F230021104600F0EBF930888A
:101D2000CDE90004687B9F22C0EBC00101EB4013AA
:101D30005B1C00219D2000F0DDF9BDE8FC81000066
:101D4000AC83FF1FB1B3B9E2C9E8D6C300000000FD
:101D5000AA83FF1F4487FF1FA883FF1F3E000000C8
:101D60003A000000B1A3B3D6BFAAC6F40000000039
:101D70003A313500C3EB00003A3330003A3100000D
:101D8000B7D6D6D3000000003A3200003A35000042
:101D90003A3130002DE9F041464D2F78464C00266F
:101DA000042FA17B227C637BE07B12D02F780A2F4B
:101DB0000FD02F78052F27D02F780B2F24D095F810
:101DC00000C03E4FBCF1060F37D0287809285BD001
:101DD00064E023B1012B07D0022B5FD10CE007296F
:101DE0005CD2491CA17359E0642801D2401CE07305
:101DF000E07B09F001F851E0824201D2521C2274CA
:101E0000207C08F0F9FF49E023B1012B06D0022B1A
:101E100044D10BE0B9B3491EA1733FE0012801D9B9
:101E2000401EE073E07B08F0E7FF37E00AB1521E86
:101E30002274207C08F0E0FF30E094F800C0BCF190
:101E4000000F01D15B1C6373637B032B26D1BCF1B4
:101E5000000F23D102236373F9703871824200D9D5
:101E60002074207C787105F0C7FF387908F0C4FF32
:101E700013480168226B891AB1F5487F0ED90121F8
:101E800021700068206309E013B15B1E637304E0F6
:101E9000387908F0B1FF112060702E70287806287C
:101EA00005D02878052802D02878042800D12E7083
:101EB000BDE8F0816083FF1FB083FF1F74610220C3
:101EC0007C83FF1F034A937818449070D0780844AD
:101ED000D07070479C83FF1F024A9070D0780844EE
:101EE000D07070479C83FF1F2DE9FF4F85B0DDE95F
:101EF00012783844C6B2C81900F0FF09784202EBE4
:101F0000400101F0FF0CCDF81CC003EB4001CAB248
:101F100000243D46032101EB4001DDF81CC009EB24
:101F2000020A06EB0C0B48E0A9EB0502394B02EB69
:101F300082024FEA082003EB8212A6EB040E00EBAC
:101F40001820049222F81E00A9EB040202EB820280
:101F500003EB821C721BCDE9022C2CF812000AF054
:101F6000FF0202EB050C0CEB8C0C03EB8C1C2CF829
:101F70001E00224402EB820203EB821E029A2EF81C
:101F800012000BF0FF0213192CF813002A442EF84C
:101F90001200DDF810C02CF81300DDF80CC02CF88E
:101FA0001200641C002903DA01EB8401891D04E09E
:101FB000601B01EB80010A316D1EAC42B4DDFF24D1
:101FC000F01BCDE9008482B25346C0B2494600F00E
:101FD00091F80798F119CDE900840A185346D0B258
:101FE000494600F087F8A9EB0700CDE9008483B2E9
:101FF000C1B25A46304600F07DF8CDE900840AEBC4
:1020000007035A46D9B2304600F074F809B0BDE86B
:10201000F08F00004CD501202DE9FE4F0025002651
:10202000171AA3EB010881468A46681E002F03DDBC
:102030004FF00101019107E003D14FF00001019140
:1020400002E00190C7F10007B8F1000F03DD4FF087
:102050000100009007E003D14FF00000009002E083
:102060000090C8F10008474501DD3C4600E04446C9
:102070004FF0000B601C029017E00AF0FF0109F01E
:10208000FF00FF230C9A00F015F83D444644A5429A
:1020900002DD2D1B01988144A64202DD361B00980B
:1020A00082440BF1010B1FFA8BFB02988345E4DDA0
:1020B000BDE8FE8F30B504461046A02C16D8502936
:1020C00014D801EB81020A4901EB821535F814207E
:1020D0001AB1110A01EB02218AB20146184614F026
:1020E00057FF010201EB102025F8140030BD00005D
:1020F0004CD501202DE9F04F8046DDF824B016467E
:102100001F46B8F1A00F32D2502930D2A02E2ED2C5
:10211000502F2CD2B04503D9404606F0FF080646A2
:10212000B94202D90846F9B207460D46DFF844A085
:102130001BE0444615E005EB85000AEB801939F8F1
:1021400014201AB1100A00EB022082B259460A98F4
:1021500014F01EFF010201EB102029F81400641C8A
:10216000E4B2B442E7D96D1CEDB2BD42E1D9BDE89D
:10217000F08F00004CD501202DE9FF4F8CB0DDE938
:102180001986404400F0FF0901EB0800C0B20D9031
:10219000C8F1000002EB4001CAB20E9203EB40010D
:1021A000C9B200244546032202EB40070E9A09EB10
:1021B000020003900D98084402907DE030020D99D2
:1021C0005B4A491B0B9101EB810102EB8111A9EBE9
:1021D000040A00EB16200A9121F81A000D99A9EBC8
:1021E000050B091B099101EB810102EB811108919B
:1021F00021F81B000299CBB25919079101EB81011B
:1022000002EB811E2EF81A001919069101EB8101CB
:1022100002EB811121F81B00039AD2B202EB040CED
:10222000CDF814C02EF81C002A4421F812000A9997
:1022300021F81C000899049221F81200FF20CDE932
:1022400000600B991FFA8CF28BB2C9B20AF0FF0042
:10225000FFF750FFFF20CDE900600999049A8BB287
:1022600092B2C9B20BF0FF00FFF744FFFF20CDE9A7
:1022700000600799DDF814C08BB21FFA8CF2C9B266
:102280000AF0FF00FFF736FFFF20CDE90060069956
:10229000049A8BB292B2C9B20BF0FF00FFF72AFF8B
:1022A000641C002F03DA07EB8407BF1D04E0601BEA
:1022B00007EB80070A376D1EAC427FF77FAFFF2424
:1022C000CDE90064A9EB0805AAB2E8B2029B0D991A
:1022D000FFF710FF0E9809EB0801CDE900640A181A
:1022E000D0B2029B0D99FFF705FF0D98CDE9006470
:1022F000A0EB080083B2C1B24846039AFFF7FAFE8A
:102300000298CDE9006400EB0803D9B24846039A6D
:10231000FFF7F0FEDDE90230CDE9006400EB0802D2
:102320006D1CE8B20D99FFF7E5FE10B0BDE8F08F27
:102330004CD5012010B50021020A02EB0020094C07
:1023400082B2002001EB810304EB831323F81020F9
:10235000401C80B2A028F9D3491C89B25029F0D37F
:1023600010BD00004CD501202DE9F84F0746002490
:10237000DFF808841DE27E297ED99B23787800EB64
:10238000012081B20020FE4A13E032F830608E4214
:102390000DD802EBC00676888E4208D332F8303072
:1023A00002EBC000C91A8088084485B203E0401CD3
:1023B00080B29842E9D3BF1CF248F34A30F83500A6
:1023C0009178C0F1A0038B4202DA4FF0A00A02E03C
:1023D000084400F0FF0A92F80390B9F1400F02D9C7
:1023E000502000903BE009F11000C0B2009036E0B0
:1023F000E54886781EE009EB890008EB801B3BF876
:1024000016201AB1100A00EB022082B2DD48DF4923
:1024100000EBC50021444068405CDB49C98814F0EA
:10242000B7FD010201EB10202BF81600641CA4B2CA
:10243000761CF6B25645DED3BAF1A00F0BD1D148C7
:1024400030F83500B4FBF0F100FB1141C9B211B115
:102450002044401A84B209F1010909F0FF090098EB
:102460008145C5D30024C748C74910F835008A788C
:10247000104488709DE1FFE7C34A5078102807D0C8
:102480001C287DD00C287CD10A260020C04B14E1EA
:1024900012260020BF4B14E033F830C061450ED344
:1024A00003EBC00CBCF802C0614508D833F83050CB
:1024B00003EBC000491B8088084485B203E0401C40
:1024C00080B2B042E8D37F1CB248903030F835106B
:1024D0009078C1F1A003834202DA4FF0A00A02E033
:1024E000084400F0FF0A92F80390B9F1420F02D9B4
:1024F000502000903DE009F10E00C0B2009038E09D
:10250000A14886781FE009EB890008EB801B3BF8A7
:1025100016201AB1100A00EB022082B29D489E4993
:10252000903000EBC50021444068405C9649C98862
:1025300014F02EFD010201EB10202BF81600641C94
:10254000A4B2761CF6B25645DDD3BAF1A00F0CD179
:102550009048903030F83500B4FBF0F100FB1141A9
:10256000C9B211B12044401A84B209F1010909F03D
:10257000FF0900988145C3D300248648903001E0CC
:1025800007E01AE110F835107F4882781144817015
:102590000FE104260020814B14E033F830C0614580
:1025A0000ED303EBC00CBCF802C0614508D833F869
:1025B000305003EBC000491B8088084485B203E01B
:1025C000401C80B2B042E8D37F1C74489178203020
:1025D00030F83500C0F1A0038B4202DA4FF0A00AB8
:1025E00002E0084400F0FF0A92F80390B9F1370FB7
:1025F00002D9502000903EE009F11900C0B20090CD
:1026000039E06148867820E009EB890008EB801BFF
:102610003BF816201AB1100A00EB022082B25F4884
:102620005E49203000EBC500903140682144405C99
:102630005549C98814F0ACFC010201EB10202BF8BD
:102640001600641CA4B2761CF6B25645DCD3BAF16F
:10265000A00F0CD15148203030F83500B4FBF0F118
:1026600000FB1141C9B211B12044401A84B209F1F2
:10267000010909F0FF0900988145C2D300244748A9
:10268000203010F83510404882781144817090E075
:1026900033F830C061450ED303EBC00CBCF802C068
:1026A000614508D833F8305003EBC000491B8088DF
:1026B000084485B203E0401C80B2B042E8D37F1CDE
:1026C00033489178503030F83500C0F1A0038B4288
:1026D00002DA4FF0A00A02E0084400F0FF0A92F884
:1026E0000390B9F1450F02D9502000903DE009F167
:1026F0000B00C0B2009038E0234886781FE009EB59
:10270000890008EB801B3BF816201AB1100A00EB79
:10271000022082B21E482249503000EBC5002144FD
:102720004068405C1849C98814F032FC010201EB92
:1027300010202BF81600641CA4B2761CF6B2564585
:10274000DDD3BAF1A00F0CD11148503030F835006C
:10275000B4FBF0F100FB1141C9B211B12044401AA1
:1027600084B209F1010909F0FF0900988145C3D33A
:1027700000240748503010F8350013E04CD50120F4
:1027800034E402000CE902009C83FF1F04EE020007
:10279000545B030028BE0200E0C002002CA9020026
:1027A000EC5D030006498A781044C0B288709F2807
:1027B00003D8397800297FF4DEADBDE8F88F00003A
:1027C0009C83FF1F0EB509293BD2DFE801F0050B02
:1027D00011171D23292F350002461CA1684612F04F
:1027E000DDFD2EE002461AA1684612F0D7FD28E072
:1027F000024619A1684612F0D1FD22E0024618A156
:10280000684612F0CBFD1CE0024617A1684612F0A4
:10281000C5FD16E0024616A1684612F0BFFD10E0A5
:10282000024615A1684612F0B9FD0AE0024614A15D
:10283000684612F0B3FD04E0024613A1684612F0A8
:10284000ADFD684600F042F90EBD000025580000BD
:1028500025303158000000002530325800000000BB
:1028600025303358000000002530345800000000A7
:102870002530355800000000253036580000000093
:10288000253037580000000025303858000000007F
:102890002DE9FF4F07468846002403E138787E285B
:1028A0007ED99B2317F8011C01EB002080B2002287
:1028B0007F4913E031F8326086420DD801EBC20641
:1028C0007688864208D331F8323001EBC201C01A53
:1028D0008988084485B203E0521C92B29A42E9D337
:1028E000BF1E7448744A30F835109078C1F1A003C7
:1028F000834202DA4FF0A00A02E0084400F0FF0A27
:1029000092F80390B9F1400F02D94FF0500B3AE022
:1029100009F1100000F0FF0B35E0674A9678654832
:10292000664900EBC500039009EB890001EB8010BC
:10293000029013E00398416861482044085C5E49B6
:102940000A89C98814F024FB010201EB10200299C6
:1029500021F81600641CA4B2761CF6B25645E9D3E1
:10296000BAF1A00F0BD1534830F83500B4FBF0F1A9
:1029700000FB1141C9B211B12044401A84B209F1DF
:10298000010909F0FF09D945C7D3002449484A493C
:1029900010F835008A7810448870A8F1020800E029
:1029A00002E008F0FF087DE012230022454913E011
:1029B00031F83260B0420DD301EBC2067688B042E6
:1029C00008D831F8323001EBC201C01A89880844B6
:1029D00085B203E0521C92B29A42E9D37F1E394875
:1029E000354A903030F835009178C0F1A0038B4221
:1029F00002DA4FF0A00A02E0084400F0FF0A92F861
:102A00000390B9F1420F02D94FF0500B3BE009F1AE
:102A10000E0000F0FF0B36E0274A9678274909EBB5
:102A2000890001EB801001902648903000EBC50032
:102A3000009013E00098416823482044085C1E4938
:102A40000A89C98814F0A4FA010201EB1021019847
:102A500020F81610641CA4B2761CF6B25645E9D3D1
:102A6000BAF1A00F0BD1134830F83500B4FBF0F1E8
:102A700000FB1141C9B211B12044401A84B209F1DE
:102A8000010909F0FF09D945C6D300240D4890304B
:102A900010F835100848827811448170A8F10108B7
:102AA00008F0FF08B8F1000F7FF4F8AEBDE8FF8F23
:102AB00034E402000CE902009C83FF1F4CD5012086
:102AC00004EE020028BE0200E0C002002DE9F84F2B
:102AD00006460024FE4A9078D178A02872D8502962
:102AE00070D8DFF8F08392E2F94A507810280FD0BE
:102AF0001C2868D00C2867D0422863D19B237E29EC
:102B00007ED9707800EB012081B20020F24F04E200
:102B100012237E291FD9707800EB012081B200209A
:102B2000EE4F14E037F830C08C450ED807EBC00CE0
:102B3000BCF802C08C4508D337F8303007EBC00032
:102B4000C91A8088084485B203E0401C80B29842CC
:102B5000E8D3B61C1AE00020E04F14E037F830C08C
:102B600061450ED307EBC00CBCF802C0614508D824
:102B700037F8303007EBC000C91A8088084485B2A6
:102B800003E0401C80B29842E8D3761CD348917889
:102B9000903030F83500C0F1A0038B4202DA4FF0DC
:102BA000A00A02E0084400F0FF0A92F80390B9F18D
:102BB000420F02D95020009040E009F10E00C0B24F
:102BC00000903BE027E246E0E4E0C148877820E05F
:102BD00009EB890008EB801B3BF817201AB1100A9B
:102BE00000EB022082B2BD48BD49903000EBC50029
:102BF00021444068405CB649C98814F0C9F900E036
:102C00008FE1010201EB10202BF81700641C7F1CE0
:102C1000FFB25745DCD3BAF1A00F0BD1AF489030CB
:102C200030F8350094FBF0F100FB1141C9B209B155
:102C30002044441A09F1010909F0FF09009881456F
:102C4000C3D30024A548A249903010F835008A78F3
:102C500010448870DBE104237E291FD9707800EBD3
:102C6000012081B200209F4F14E037F830C08C451E
:102C70000ED807EBC00CBCF802C08C4508D337F85F
:102C8000303007EBC000C91A8088084485B203E0E1
:102C9000401C80B29842E8D3B61C1AE00020914F45
:102CA00014E037F830C061450ED307EBC00CBCF818
:102CB00002C0614508D837F8303007EBC000C91AA8
:102CC0008088084485B203E0401C80B29842E8D373
:102CD000761C84489178203030F83500C0F1A0038C
:102CE0008B4202DA4FF0A00A02E0084400F0FF0A2B
:102CF00092F80390B9F1370F02D9502000903CE0D0
:102D000009F11900C0B2009037E0714887781FE0E0
:102D100009EB890008EB801B3BF817201AB1100A59
:102D200000EB022082B26F486E49203000EBC500F4
:102D3000903140682144405C6549C98814F028F905
:102D4000010201EB10202BF81700641C7F1CFFB25E
:102D50005745DDD3BAF1A00F0BD16248203030F8CF
:102D6000350094FBF0F100FB1141C9B209B12044D8
:102D7000441A09F1010909F0FF0900988145C4D3FB
:102D8000002458485249203010F835008A78104401
:102D900088703CE10A237E291FD9707800EB01205E
:102DA00081B20020504F14E037F830C08C450ED867
:102DB00007EBC00CBCF802C08C4508D337F83030A4
:102DC00007EBC000C91A8088084485B203E0401CA4
:102DD00080B29842E8D3B61C1AE00020424F14E0BB
:102DE00037F830C061450ED307EBC00CBCF802C009
:102DF000614508D837F8303007EBC000C91A808821
:102E0000084485B203E0401C80B29842E8D3761CA7
:102E100035489178503030F83500C0F1A0038B422E
:102E200002DA4FF0A00A02E0084400F0FF0A92F82C
:102E30000390B9F1450F02D9502000903BE009F111
:102E40000B00C0B2009036E0214887781EE009EB05
:102E5000890008EB801B3BF817201AB1100A00EB21
:102E6000022082B220482149503000EBC5002144A5
:102E70004068405C1649C98814F08AF8010201EBE9
:102E800010202BF81700641C7F1CFFB25745DED3BF
:102E9000BAF1A00F0BD11448503030F8350094FB34
:102EA000F0F100FB1141C9B209B12044441A09F103
:102EB000010909F0FF0900988145C5D300240A489B
:102EC000503010F8351002488278114481709EE02D
:102ED0009C83FF1F4CD5012034E4020028BE020071
:102EE000E0C002002CA90200545B0300EC5D03006B
:102EF00037F830C08C450ED807EBC00CBCF802C0C8
:102F00008C4508D337F8303007EBC000C91A8088E9
:102F1000084485B203E0401C80B29842E8D3B61C56
:102F20001AE000203D4F14E037F830C061450ED361
:102F300007EBC00CBCF802C0614508D837F8303048
:102F400007EBC000C91A8088084485B203E0401C22
:102F500080B29842E8D3761C3148917830F8350039
:102F6000C0F1A0038B4202DA4FF0A00A02E008444D
:102F700000F0FF0A92F80390B9F1400F02D95020F7
:102F8000009039E009F11000C0B2009034E025480B
:102F900087781DE009EB890008EB801B3BF81720C0
:102FA0001AB1100A00EB022082B21D481E4900EB44
:102FB000C50021444068405C1A49C98813F0E8FF05
:102FC000010201EB10202BF81700641C7F1CFFB2DC
:102FD0005745DFD3BAF1A00F0AD1114830F83500B8
:102FE00094FBF0F100FB1141C9B209B12044441A2D
:102FF00009F1010909F0FF0900988145C7D30024B0
:10300000074810F8351007488278114481703178EC
:1030100000297FF469ADBDE8F88F000034E40200B8
:103020000CE902009C83FF1F04EE02000EB5062887
:1030300051D2DFE800F003101D2A374410EE100AC9
:10304000FDF77AFB41EC100B25A153EC102B6846E1
:1030500012F0A4F93FE010EE100AFDF76DFB41EC11
:10306000100B21A153EC102B684612F097F932E0B7
:1030700010EE100AFDF760FB41EC100B1CA153ECA5
:10308000102B684612F08AF925E010EE100AFDF7C1
:1030900053FB41EC100B18A153EC102B684612F0B7
:1030A0007DF918E010EE100AFDF746FB41EC100B1D
:1030B00013A153EC102B684612F070F90BE010EEE0
:1030C000100AFDF739FB41EC100B0FA153EC102B4C
:1030D000684612F063F96846FFF7F8FC0EBD000081
:1030E000252E306600000000252E3166000000000D
:1030F000252E326600000000252E336600000000F9
:10310000252E346600000000252E356600000000E4
:103110000EB5062927D2DFE801F003090F151B21A0
:10312000024613A1684612F039F91CE0024611A1CB
:10313000684612F033F916E0024610A1684612F014
:103140002DF910E002460FA1684612F027F90AE0B7
:1031500002460EA1684612F021F904E002460DA1D4
:10316000684612F01BF96846FFF7B0FC0EBD000080
:1031700025640000253031640000000025303264F1
:103180000000000025303364000000002530346466
:10319000000000002530356400000000014A9070F6
:1031A000D17070479C83FF1F014948707047000031
:1031B0009C83FF1F0149C880704700009C83FF1F4C
:1031C0002DE9FF4F89B0064688461746002453E292
:1031D0001798102812D017981C2874D017980C280C
:1031E00072D01798422870D19B227E2B6ED97878A6
:1031F00000EB032081B20020F84BC6E112227E2BA7
:103200001FD9787800EB032081B20020F44B14E042
:1032100033F830C08C450ED803EBC00CBCF802C0AC
:103220008C4508D333F8302003EBC000891A80881E
:10323000084485B203E0401C80B29042E8D3BF1C32
:103240001AE00020E64914E031F830C063450ED39F
:1032500001EBC00CBCF802C0634508D831F830203F
:1032600001EBC0009A1A8088104485B203E0401C2C
:1032700080B29042E8D37F1CD948903030F83500B6
:10328000C0F1A001B14202DA4FF0A00B02E03044DD
:1032900000F0FF0BB8F1420F02D95020009003E07C
:1032A00008F10E00C0B20090C2462AE0B146CC48F8
:1032B000CC49903000EBC50008900AEB8A0001EB86
:1032C0008010079017E027E0B1E0D9E161E10898AC
:1032D0000C9A4168C4482044085C169913F058FEC3
:1032E000010201EB1020079921F81900641C09F173
:1032F000010909F0FF09D945E9D30AF1010A0AF0E9
:10330000FF0A00988245D1D30024B548903010F8C8
:1033100035003044C6B2AFE104227E2B1FD9787845
:1033200000EB032081B20020B04B14E033F830C032
:103330008C450ED803EBC00CBCF802C08C4508D3FA
:1033400033F8302003EBC000891A8088084485B226
:1033500003E0401C80B29042E8D3BF1C1AE000207A
:10336000A24914E031F830C063450ED301EBC00C24
:10337000BCF802C0634508D831F8302001EBC0002A
:103380009A1A8088104485B203E0401C80B29042B3
:10339000E8D37F1C9548203030F83500C0F1A001FB
:1033A000B14202DA4FF0A00B02E0304400F0FF0B14
:1033B000B8F1370F02D95020009003E008F119004E
:1033C000C0B20090C24627E0B14688488549203007
:1033D00000EBC50006900AEB8A0001EB8010059017
:1033E00014E006980C9A4168804890302044085CAC
:1033F000169913F0CDFD010201EB1020059921F87B
:103400001900641C09F1010909F0FF09D945E8D345
:103410000AF1010A0AF0FF0A00988245D4D3002479
:103420007248203010F835003044C6B224E10A2238
:103430007E2B1FD9787800EB032081B200206C4BE3
:1034400014E033F830C08C450ED803EBC00CBCF848
:1034500002C08C4508D333F8302003EBC000891A32
:103460008088084485B203E0401C80B29042E8D3D3
:10347000BF1C1AE000205E4914E031F830C06345FB
:103480000ED301EBC00CBCF802C0634508D831F87C
:10349000302001EBC0009A1A8088104485B203E006
:1034A000401C80B29042E8D37F1C5148503030F825
:1034B0003500C0F1A001B14202DA4FF0A00B02E0EA
:1034C000304400F0FF0BB8F1450F02D950200090B6
:1034D00003E008F10B00C0B20090C24635E0B146EF
:1034E00043484049503000EBC50004900AEB8A0085
:1034F00001EB8010039013E004980C9A41683D485A
:103500002044085C169913F043FD010201EB1020E2
:10351000039921F81900641C09F1010909F0FF0958
:10352000D945E9D3BBF1A00F0BD13148503030F869
:10353000350094FBF0F100FB1141C9B209B1204400
:10354000441A0AF1010A0AF0FF0A00988245C6D31C
:1035500000242748503010F835003044C6B28BE0C4
:1035600033F830C08C450ED803EBC00CBCF802C059
:103570008C4508D333F8302003EBC000891A8088CB
:10358000084485B203E0401C80B29042E8D3BF1CDF
:103590001AE00020114914E031F830C063450ED321
:1035A00001EBC00CBCF802C0634508D831F83020EC
:1035B00001EBC0009A1A8088104485B203E0401CD9
:1035C00080B29042E8D37F1C0B4830F83500C0F140
:1035D000A001B14212DA4FF0A00B12E034E4020075
:1035E00028BE02004CD50120E0C002002CA9020038
:1035F000545B0300EC5D03000CE90200304400F072
:10360000FF0BB8F1400F02D95020009003E008F101
:103610001000C0B20090C24625E0B1461A490AEB3C
:103620008A0001EB80100290184800EBC500019061
:1036300013E001980C9A416815482044085C1699DB
:1036400013F0A6FC010201EB1020029921F81900E9
:10365000641C09F1010909F0FF09D945E9D30AF110
:10366000010A0AF0FF0A00988245D6D300240748D1
:1036700010F835003044C6B23B78002B7FF4A8AD7B
:103680000DB0BDE8F08F00004CD501200CE9020020
:1036900004EE02002DE9F04186B00646DDE90C4556
:1036A0000F469846062A51D2DFE802F003101D2A81
:1036B000374410EE100AFDF73FF841EC100B29A13A
:1036C00053EC102B03A811F069FE3FE010EE100A36
:1036D000FDF732F841EC100B24A153EC102B03A89A
:1036E00011F05CFE32E010EE100AFDF725F841EC17
:1036F000100B20A153EC102B03A811F04FFE25E076
:1037000010EE100AFDF718F841EC100B1BA153EC5A
:10371000102B03A811F042FE18E010EE100AFDF77E
:103720000BF841EC100B17A153EC102B03A811F070
:1037300035FE0BE010EE100AFCF7FEFF41EC100B1B
:1037400012A153EC102B03A811F028FE434603AA44
:1037500039463046CDE90045FFF732FD06B0BDE8F9
:10376000F0810000252E306600000000252E316615
:1037700000000000252E326600000000252E336672
:1037800000000000252E346600000000252E35665E
:10379000000000002DE9F04186B00646DDE90C8509
:1037A0000E9C0F46062B21D2DFE803F003080D1212
:1037B000171C14A103A811F0F1FD17E012A103A832
:1037C00011F0ECFD12E012A103A811F0E7FD0DE0ED
:1037D00011A103A811F0E2FD08E011A103A811F066
:1037E000DDFD03E010A103A811F0D8FDCDE90054E0
:1037F000434603AA39463046FFF7E2FC06B0BDE86F
:10380000F0810000256400002530316400000000D4
:1038100025303264000000002530336400000000D1
:1038200025303464000000002530356400000000BD
:1038300010B5AFF3008010BD10B50446002C0CD0BD
:10384000012C0AD0022C08D0032C06D0042C04D062
:103850004FF4C86111A001F0E1FE1B4854B1012CE6
:103860000DD0022C10D0032C13D090F84100C0F3DF
:10387000000010BD90F83C00C0F3000010BD90F8AF
:103880003C00C0F3C00010BD90F83C00C0F34010F5
:1038900010BD90F83C00C0F3801010BD2E2E5C2EA1
:1038A0002E5C2E2E5C2E2E5C2E2E5C64726976654C
:1038B000725C7372635C68633332663436305F63A4
:1038C0006C6B2E630000000000400540F8B5054613
:1038D000002000900024284EB6F8FE034AF2015161
:1038E0000843A6F8FE03002D06D0012D04D040F2B7
:1038F000252122A001F092FE4DB196F8360020F06D
:10390000010086F8360009244FF4805525E096F82A
:10391000260040070ED0D6F8000100060ED596F816
:103920002A00C00708D096F8360040F0010086F85B
:10393000360015E0012413E0012411E096F836006A
:1039400040F0010086F836000AE00020FFF774FF1F
:1039500001280FD00098401C00900098A842F4D392
:10396000B6F8FE0320F0010040F42540A6F8FE035F
:103970002046F8BD0024F3E7004005402E2E5C2EC3
:103980002E5C2E2E5C2E2E5C2E2E5C64726976656B
:10399000725C7372635C68633332663436305F63C3
:1039A0006C6B2E6300000000F8B505460020009007
:1039B0000024002D06D0012D04D040F236311EA087
:1039C00001F02CFE274EB6F8FE034AF201510843DF
:1039D000A6F8FE034DB196F82A0020F0010086F803
:1039E0002A0009244FF4805516E096F8260000F0CE
:1039F0000700052806D096F82A0040F0010086F856
:103A00002A000CE001240AE00220FFF715FF01283C
:103A10000FD00098401C00900098A842F4D3B6F84C
:103A2000FE0320F0010040F42540A6F8FE032046E6
:103A3000F8BD0024F3E700002E2E5C2E2E5C2E2E07
:103A40005C2E2E5C2E2E5C6472697665725C7372DD
:103A5000635C68633332663436305F636C6B2E634D
:103A6000000000000040054010B50446002C5BD06B
:103A70002068801E0E2804D940F205312BA001F0E9
:103A8000CDFD6068401E0F2804D940F2063127A002
:103A900001F0C4FDA068801E0E2804D940F2073151
:103AA00022A001F0BBFDE0681438B0F5E67F04D930
:103AB0004FF442711DA001F0B1FD2069401E17288E
:103AC00004D940F2093119A001F0A8FD2248B0F84C
:103AD000FE124AF201521143A0F8FE122178026848
:103AE000491E61F31F72026021790268491E61F369
:103AF0001B620260217A0268491E61F3175202605C
:103B0000A1890268491E61F310220260217C0268CB
:103B1000491E61F304020260B0F8FE1221F00101B7
:103B200041F42541A0F8FE1210BD00002E2E5C2E9F
:103B30002E5C2E2E5C2E2E5C2E2E5C6472697665B9
:103B4000725C7372635C68633332663436305F6311
:103B50006C6B2E63000000000041054010B5044668
:103B6000002C08D0A4F10800052804D940F24351E4
:103B70000BA001F053FD1549B1F8FE034AF20252C1
:103B80001043A1F8FE03088A64F303000882B1F829
:103B9000FE0320F0020040F42540A1F8FE0310BD12
:103BA0002E2E5C2E2E5C2E2E5C2E2E5C2E2E5C6419
:103BB00072697665725C7372635C68633332663413
:103BC00036305F636C6B2E630000000000400540E0
:103BD00010B50446002C06D0012C04D040F2E5219B
:103BE0000BA001F01BFD1549B1F8FE024AF201528B
:103BF0001043A1F8FE02086864F3C7100860B1F82A
:103C0000FE0220F0010040F42540A1F8FE0210BDA4
:103C10002E2E5C2E2E5C2E2E5C2E2E5C2E2E5C64A8
:103C200072697665725C7372635C686333326634A2
:103C300036305F636C6B2E6300000000004105406E
:103C400070B586B00446002605962E4D286804906F
:103C500068680390A8680290E8680190002C07D07B
:103C6000601E042804D940F2DD3127A001F0D6FC03
:103C700030482861304991F826004A1500F00700C5
:103C8000052801D0052C0BD12C482860C012686093
:103C9000A860E8600598401C059005989042F9D30B
:103CA0002631B1F8D8034AF201531843A1F8D803DA
:103CB000087864F302000870B1F8D80320F001001E
:103CC00040F42540A1F8D80305960598401C0590BE
:103CD00005989042F9D30498286003986860029888
:103CE000A8600198E8601348401E28610596059871
:103CF000401C059005989042F9D306B0BDE870408D
:103D00000FF060BD008004402E2E5C2E2E5C2E2E07
:103D10005C2E2E5C2E2E5C6472697665725C73720A
:103D2000635C68633332663436305F636C6B2E637A
:103D3000000000000100A5A500400540EEFAFFFFCD
:103D400010B50446A01E022807D9801F052804D9F3
:103D500040F227510BA001F061FC1549B1F8DA03DC
:103D60004AF201521043A1F8DA03087864F307100D
:103D70000870B1F8DA0320F0010040F42540A1F802
:103D8000DA0310BD2E2E5C2E2E5C2E2E5C2E2E5CA9
:103D90002E2E5C6472697665725C7372635C686314
:103DA0003332663436305F636C6B2E630000000084
:103DB00024400540F0B585B0044600260496434DE6
:103DC0002868039068680290A8680190E8680090ED
:103DD0003F482861002C76D02178E27891421BD8A8
:103DE0006379994218D8A079814215D8A178914277
:103DF00012D8994210D821790A1A032A11D0022A1E
:103E00000FD0012A0DD081420BD0401A012808D0D2
:103E1000022806D0032804D040F23C412DA001F036
:103E2000FDFB374991F826004A1500F007000528E8
:103E30000BD134482860C0126860A860E86004981C
:103E4000401C049004989042F9D3B1F8FE034AF262
:103E500001531843A1F8FE03A078E378677940EA9C
:103E6000031023791B0243EA07331843A37940EA7E
:103E70000340637840EA0353207843EA006343EA4F
:103E800000700862B1F8FE0320F0010040F4254004
:103E9000A1F8FE0304960498401C049004989042F4
:103EA000F9D303982860029868600198A860009888
:103EB000E8600748401E286104960498401C04905E
:103EC00004989042F9D305B0F0BD00000080044092
:103ED0000100A5A52E2E5C2E2E5C2E2E5C2E2E5CB7
:103EE0002E2E5C6472697665725C7372635C6863C3
:103EF0003332663436305F636C6B2E630000000033
:103F000000400540EEFAFFFF38B50446002C06D00D
:103F1000012C04D040F29F3122A001F07FFB2C49FC
:103F2000B1F8FE034AF201521043A1F8FE03012C3E
:103F300004D091F82E0040F0010003E091F82E002B
:103F400020F0010081F82E00B1F8FE0320F00100FE
:103F500040F42540A1F8FE0300204FF480550CB139
:103F6000009017E0009007E00098401C0090009837
:103F7000A84201D9092038BD0320FFF75DFC0028C5
:103F8000F2D10CE00098401C00900098A84201D9A2
:103F9000092038BD0320FFF74FFC0128F2D1002093
:103FA00038BD00002E2E5C2E2E5C2E2E5C2E2E5C3C
:103FB0002E2E5C6472697665725C7372635C6863F2
:103FC0003332663436305F636C6B2E630000000062
:103FD0000040054070B50446002C7CD02068801E4F
:103FE0000E2804D940F26F313EA001F017FB606843
:103FF000801E0E2804D94FF45C713AA001F00EFB2C
:10400000A068801E0E2804D940F2713135A001F05D
:1040100005FBE0681438B0F5E67F04D940F2723150
:1040200030A001F0FBFA2069801E162804D940F266
:1040300073312CA001F0F2FA354DD5F800010006DD
:1040400001D4344801E0344800682169B0FBF1F044
:10405000E6684643314908443149884204D940F270
:104060007A3120A001F0DAFA2E482E493044494234
:10407000884204D940F27B311AA001F0CFFA05F54D
:104080008275B5F8FA024AF201510843A5F8FA021E
:1040900020782968401E60F31F7129602079296803
:1040A000401E60F31B612960207A2968401E60F37E
:1040B00017512960A0892968401E60F310212960EA
:1040C000207C2968401E60F304012960B5F8FA02DB
:1040D00020F0010000E003E040F42540A5F8FA02DA
:1040E00070BD00002E2E5C2E2E5C2E2E5C2E2E5CC3
:1040F0002E2E5C6472697665725C7372635C6863B1
:104100003332663436305F636C6B2E630000000020
:104110000040054000127A00B082FF1FC0BDF0FFD2
:10412000C0F35E0100E4B1F10421012803D00228AC
:1041300001D0102805D104494FF4AA420A80088012
:1041400000210846704700000CA10440F8B526483D
:104150000090002003F0DCFE00F0070120FA01F2DD
:10416000884010442149884203D921490844440821
:1041700003E01F494942084444001E4F01261E4DDA
:104180003868A04202D1EE760120F8BD287F48B100
:104190006E772E2003F02AFE3860A04202D1EE7620
:1041A0000120F8BD1549009808441449009A0939BE
:1041B000114411E0027872B10278082302E052083B
:1041C0005B1EDBB2D407FAD00099401AC01C03EB87
:1041D000C000A87602E0401E8842EBD2A87E08B15B
:1041E0000120F8BD0020F8BD53AE004333DDD353AA
:1041F00034DDD3D35491FF1FB083FF1FC65DFFBFD3
:1042000070B5002500F0D2F81020FEF7CDFF4D4824
:104210000088FEF7CFFF00210846FEF7BFFF4AA047
:10422000FEF754FC00210420FDF74CFE49A0FEF7E8
:104230004DFC494C2088FEF7BDFF10210020FEF701
:10424000ADFF46A0FEF742FC46A0FEF73FFC002073
:1042500003F05EFE0821FEF7B5FA20210020FEF7EC
:104260009DFF41A0FEF780F840210020FEF796FF59
:104270002088FEF79FFF404CA07E38B13FA0FEF79C
:1042800073F80021A07EFEF743FF05E03EA0FEF795
:104290006BF83FA0FEF71AFC40480088FEF78AFF43
:1042A000A07F3F4C082835D2DFE800F034040B1221
:1042B0001920272E20680121000F03F049FE054632
:1042C00028E020680221000E03F042FE054621E0AE
:1042D00020680321000D03F03BFE05461AE020682C
:1042E0000421000C03F034FE054613E0206805218C
:1042F000000B03F02DFE05460CE020680621000AA5
:1043000003F026FE054605E020680721000903F0BA
:104310001FFE054623A003F081FE2844C0B23221CF
:10432000FEF73CFF20A0FEF7D1FB30210020FEF776
:1043300035FF1CA0FEF7CAFB2068BDE870400821CD
:10434000FEF740BAAC83FF1F69444B4D657465723C
:104350000000000030324300AA83FF1F532F4E3A63
:104360000000000030780000C7EBCAE4C8EBD7A219
:10437000B2E1C2EB3A000000B083FF1F52656D61ED
:10438000696E5573653A00005151C8BA3A00000091
:10439000373838303133313230000000A883FF1F06
:1043A0005491FF1F3E3078005F000000F8B571485F
:1043B0000090714F3A78714C714D00262068A97FAA
:1043C000042A14D03A780A2A11D03A78052A53D010
:1043D0003A780B2A50D03878062870D03A78284698
:1043E000092A807E6CD039780C296AD0B6E0634AFD
:1043F0001268D24308290AD2DFE801F0040A121A2F
:10440000222A3239110F02D000F180502060A5E03D
:104410006FEA1061090702D000F1807020609DE012
:104420006FEA1051090702D000F58010206095E076
:104430006FEA1041090702D000F5803020608DE05E
:104440006FEA1031090702D000F58050206085E046
:104450006FEA1021090702D000F5807020607DE02E
:104460006FEA1011090779D01030206076E011074B
:1044700074D0401C206071E008296FD2DFE801F0A1
:10448000040A111822293036010F67D0A0F180509C
:10449000206063E0010E090760D0A0F18070206009
:1044A0005CE0010D090759D0A0F58010206055E0AF
:1044B000010C090752D0A0F5803020604EE01AE0D0
:1044C00041E049E0010B090748D0A0F58050206089
:1044D00044E0010A090741D0A0F5807020603DE06A
:1044E000010909073AD01038206037E0010735D0BC
:1044F000401E206032E0287808B9491CA977A87FBF
:1045000008282BD1AE77FFF721FEE87E78B16E70D8
:104510002E766E762E20216803F0C2FC03F06CFC30
:10452000184A00982168104403F0C0FC16E01648B1
:1045300001682A6B891AB1F5487F0FD902212970C9
:10454000006828630AE011B1491EA97702E008B1AA
:10455000112068703E7001E000B16E703878062856
:1045600005D03878052802D03878042800D13E706C
:10457000F8BD000053AE00436083FF1F5491FF1F3E
:10458000B083FF1FB55DFFBF7C83FF1F2DE9FC419A
:1045900000F086F81020FEF707FE3B4EF08DFEF788
:1045A00009FE00210846FEF7F9FD38A0FDF7DCFE04
:1045B000B08DFEF7FFFD10210020FEF7EFFD002477
:1045C00006F27457B08DFEF7F5FD601C0546000736
:1045D000010E0020FEF7E2FDF07D844211D10221A0
:1045E0000020FDF76FFC0C20FEF7DEFD708DFEF75E
:1045F000E1FD2AA0FEF76AFA6FF001010020FDF745
:1046000061FC1020FEF7D0FD04EB041057F82000E9
:10461000FDF7AAFEECB2042CD4D3FF24708DCDE9B3
:1046200000042023842210216420FDF763FDB08D57
:10463000CDE900043523842225216420FDF75AFDAD
:10464000F08DCDE900044A2384223A216420FDF74D
:1046500051FDB08DCDE900049E224F23002110466C
:10466000FDF748FDB08DCDE90004F07D9F2200EB01
:10467000800101EBC000012101EB400300219D20DE
:10468000FDF738FDBDE8FC81B083FF1FD6F7CCE213
:10469000D1D5C9ABC9E8D6C3000000003E00000078
:1046A00070B53D4E31783D4C00250429E07D03D0A6
:1046B0003178052908D00EE0032802D2401CE075AD
:1046C00000E0E575357006E010B1401EE07501E0D0
:1046D0000320E0753570E07D50B14FF6DC514FF6A8
:1046E000F37201280ED0022812D003281FD117E040
:1046F0004FF64D30608540F27960A0854DF69A30D6
:10470000E08514E06185A2854AF67D70E0850EE0C3
:104710004FF638706085A1854EF27350E08506E053
:10472000628546F2F370A0854AF6DC60E085307859
:10473000062807D03078092803D1657511206070EC
:10474000357070BD2078D0B9618D282003F094FBBE
:10475000A18D2A2003F090FBE18D2C2003F08CFB2F
:104760000F49E07D81F8320003F046FB0D49608D72
:1047700008800D48A18D01800C49E08D08800C480F
:104780000168226B891AB1F5487F03D90121217094
:1047900000682063357070BD6083FF1FB083FF1F0A
:1047A00074610220A883FF1FAA83FF1FAC83FF1F31
:1047B0007C83FF1F70B500F0ABF81020FEF7F4FC0F
:1047C0003D480088FEF7F6FC00210846FEF7E6FCAF
:1047D0003AA0FDF7C9FD3C4D2888FEF7EBFC1021FF
:1047E0000020FEF7DBFC39A0FDF7BEFD3A4C0520AA
:1047F00094ED150AFEF71AFC20210020FEF7CEFCEE
:1048000036A0FDF7B1FD3849052091ED000AFEF70D
:104810000DFCA07D354C6FF0020628B301284AD16B
:1048200030210020FEF7BAFC31A0FDF79DFD208865
:10483000FEF7C0FC0C20FEF7B7FC40210020FEF77D
:10484000ADFC03210020FDF73DFB2CA0FEF73EF957
:1048500031460020FDF736FB1020FEF7A5FCBDE831
:10486000704027A0FDF780BD2088FEF7A3FC302113
:104870000020FEF793FC0C20FEF796FC032100209D
:10488000FDF720FB1DA0FEF721F931460020FDF7C2
:1048900019FB1020FEF788FC15A0FDF765FD2888A0
:1048A000FEF788FC40210020FEF778FCBDE8704050
:1048B00013A0FDF759BD70BDAC83FF1FB5E7C1F76D
:1048C000D0A3D7BC00000000AA83FF1FD0C2D0A392
:1048D000D7BCB2CECAFD3A00B083FF1FBEC9D0A379
:1048E000D7BCB2CECAFD3A004C83FF1FA883FF1F7E
:1048F000B1A3B4E6D0C2B2CECAFD00003E000000B3
:10490000BBD6B8B4C4ACC8CFB2CECAFD000000005C
:104910002DE9F041204E3178204C00250127A07D63
:1049200004290ED0317805290FD03178062911D00D
:104930003078092803D16575192060703570BDE89D
:10494000F08100B9A7753570F9E708B1401EA07570
:104950003570F4E7217841B998B1192003F036FA9F
:104960001D2003F093FA03F047FA0D480168226B0B
:10497000891AB1F5487F02D9277000682063357025
:10498000DDE7084894ED150A80ED000A90ED000A75
:104990001D2003F07BFAE6E76083FF1FB083FF1F53
:1049A0007C83FF1F4C83FF1F7CB500F0DBF81020D9
:1049B000FEF7FAFB4F480088FEF7FCFB0021084693
:1049C000FEF7ECFB4CA0FDF7CFFC4E4D2888FEF720
:1049D000F1FB4D48007830B14FF4007100200BF02E
:1049E0008BFC002833D018210020FEF7D7FB288845
:1049F000FEF7E0FB45A0FDF7B7FC28210020FEF7FD
:104A0000CDFB47A0FDF7B0FC484E042096ED140AFC
:104A1000FEF70CFB46A0FEF759F838210020FEF700
:104A2000BDFB44A0FDF7A0FC4549042091ED000A20
:104A3000FEF7FCFA3EA0FEF749F8717D4148FF24DD
:104A400005293ED2DFE801F00C16202A3400282187
:104A50000020FEF7A3FBBDE87C403BA0FDF784BC33
:104A60000088CDE900043723392236213120FDF7B3
:104A700041FB26E00088CDE9000437234722362198
:104A80003F20FDF737FB1CE00088CDE90004372309
:104A9000502236214820FDF72DFB12E00088CDE999
:104AA00000043723592236215120FDF723FB08E06B
:104AB0000088CDE900043723622236215A20FDF711
:104AC00019FB2888CDE900049E224F2300211046BF
:104AD000FDF710FB2888CDE90004707D9F2200EBD4
:104AE000400101EB0013DB1C00219D20FDF702FBC0
:104AF0007CBD0000AC83FF1FB5E7C1F7D0A3D7BCD6
:104B000000000000AA83FF1F3083FF1FC7EBC9E826
:104B1000D6C3B1EAD7BCB5E7C1F7D6B53A000000B5
:104B2000B1EAD7BCB5E7C1F73A000000B083FF1F78
:104B300041000000B5B1C7B0B5E7C1F73A000000C9
:104B40003883FF1FA883FF1FC7EBCAB9D3C3B9AB14
:104B5000CDB7CAE4C8EBBBF2CDE2BDD3484944D0DF
:104B6000A3D7BC0070B52DED028B5C4D2978B7EE54
:104B7000008A9FED5B2ADFED5B0ADFED5B1A9FED9C
:104B80005B1A5B4C0026042994ED140A607D0CD05E
:104B900029780A2909D0297805292ED029780B29C6
:104BA0002BD02878062850D059E005281CD2DFE801
:104BB00000F003080D12170030EE080A84ED140A05
:104BC00012E030EE020A84ED140A0DE030EE200A05
:104BD00084ED140A08E030EE210A84ED140A03E0A3
:104BE00030EE010A84ED140A4249206D884268DDE6
:104BF000B1EE040A84ED140A63E005281CD2DFE854
:104C000000F003080D12170030EE480A84ED140A74
:104C100012E030EE420A84ED140A0DE030EE600A34
:104C200084ED140A08E030EE610A84ED140A03E012
:104C300030EE410A84ED140A206DB0F17C5F40DA59
:104C4000B6EE000A84ED140A3BE02B48007850B120
:104C50004FF4007100200BF04FFB012803D028789F
:104C6000092826D02DE0607D401CC0B26075052863
:104C700027D166752148224A90ED000A10EE101ADD
:104C8000914211DDD4ED140A90ED001A80EE810AF4
:104C900084ED150A10EE100A514208441949884261
:104CA00004D384ED158A01E084ED158A1A20607022
:104CB00007E0607D10B1401E607501E0112060705A
:104CC0002E702878062805D02878052802D0287864
:104CD000042800D12E70BDEC028B70BD6083FF1FD5
:104CE000CDCCCC3D0AD7233C6F12833A17B7D138CD
:104CF000B083FF1F0000A0403083FF1F3883FF1FD9
:104D00009A99993E6766A60170B506460D46144607
:104D10005F48864207D05F48864204D040F2D17196
:104D20005DA000F07BFC55B1012D08D0022D06D00E
:104D3000032D04D040F2D27157A000F06FFC207810
:104D400040B1012806D0022804D040F2D37152A00D
:104D500000F064FC607840B1012806D0022804D03D
:104D600040F2D4714CA000F059FCA07830B1012879
:104D700004D040F2D57148A000F050FCE07830B18A
:104D8000012804D040F2D67143A000F047FC2079FE
:104D900030B1012804D040F2D7713FA000F03EFCB2
:104DA000607930B1012804D04FF4FB613AA000F0E3
:104DB00035FCA07940B1012806D0022804D040F289
:104DC000D97135A000F02AFCE07930B1012804D077
:104DD00040F2DA7130A000F021FC207A30B10128D5
:104DE00004D040F2DB712CA000F018FC607A30B1E6
:104DF000012804D040F2DC7127A000F00FFC06EB84
:104E00008510C16D227821F003011143C165C16D88
:104E1000627821F00C0141EA8201C165C16DA2787E
:104E200021F0100141EA0211C165C16DE27821F063
:104E3000200141EA4211C165C16D227921F0400192
:104E400041EA8211C165C16D627921F0800141EAB8
:104E5000C211C165C16DA27921F4407141EA0221FC
:104E6000C165C16DE27921F4806141EA8221C165A9
:104E7000C16D227A21F4006141EAC221C165C16D90
:104E8000627A21F4805141EA0231C16570BD0000AF
:104E900000300540003405402E2E5C2E2E5C2E2E58
:104EA0005C2E2E5C2E2E5C6472697665725C737269
:104EB000635C68633332663436305F646D61632EE1
:104EC000630000002DE9F04704460D461746002612
:104ED0005B48844207D05B48844204D040F287217B
:104EE00059A000F09BFB55B1012D08D0022D06D032
:104EF000032D04D04FF4227153A000F08FFB37B183
:104F0000012F04D040F289214FA000F087FB5949BE
:104F1000087810B10120BDE8F08701230B70E0692B
:104F2000AB409843002290B3E0694FF00A0CC007F1
:104F30004FF4A04817D0B5B1A06C000CD4F868901D
:104F4000BCEB194F0FD3D4F86890B0EB194F07D8CA
:104F500009E0761CB6B2464502D90A700920DAE7A4
:104F6000E069C007F5D1E06980071BD5012D19D094
:104F7000D4F88800000CD4F8A860BCEB164F11D30D
:104F8000D4F8A860B0EB164F0CD9002007E03AE047
:104F9000401C80B2404502D90A700920BBE7E6698F
:104FA000B607F5D4E06940071AD5022D18D00020C5
:104FB000D4F8C860360CD4F8E890BCEB194F0FD386
:104FC000D4F8E890B6EB194F07D809E0401C80B23E
:104FD000404502D90A7009209DE7E6697607F5D4B5
:104FE000E06900071AD5032D18D00020D4F8085125
:104FF0002D0CD4F82861BCEB164F0FD3D4F82861E0
:10500000B5EB164F07D809E0401C80B2404502D9E5
:105010000A7009207FE7E5692D07F5D43FB1012F1C
:105020000AD1E06903F00F031843E06104E0E0698E
:105030000F259D432840E0610A7000206BE70000C7
:1050400000300540003405402E2E5C2E2E5C2E2EA6
:105050005C2E2E5C2E2E5C6472697665725C7372B7
:10506000635C68633332663436305F646D61632E2F
:10507000630000006C91FF1F2DE9F04105460C46CE
:10508000164600272548854207D02548854204D08A
:1050900040F24E2123A000F0C1FA54B1012C08D0F7
:1050A000022C06D0032C04D040F24F211DA000F0AA
:1050B000B5FA56B1012E08D0022E06D0032E04D028
:1050C0004FF4147117A000F0A9FA3CB1012C05D0DF
:1050D000022C03D0032C01D004270CE00120A040B7
:1050E00066B110340121A140012E0BD0022E0DD04B
:1050F000032E0FD004273846BDE8F08169690143CB
:105100006961F8E7686908436861F4E7A9690143E0
:10511000A961F0E7A8690843A861ECE70030054001
:10512000003405402E2E5C2E2E5C2E2E5C2E2E5C26
:105130002E2E5C6472697665725C7372635C686360
:105140003332663436305F646D61632E6300000075
:1051500070B504460D460C48844207D00B48844283
:1051600004D04FF4C1710AA000F058FA35B1012DF6
:1051700004D040F2831106A000F050FA206865F3D5
:105180000000206070BD0000003005400034054084
:105190002E2E5C2E2E5C2E2E5C2E2E5C2E2E5C6413
:1051A00072697665725C7372635C6863333266340D
:1051B00036305F646D61632E6300000070B5064693
:1051C0000D4614463A48864207D03A48864204D0F3
:1051D00040F6120138A000F021FA55B1012D08D097
:1051E000022D06D0032D04D040F6130132A000F0AA
:1051F00015FA2088800A04D040F614012EA000F091
:105200000DFAA089800A04D040F616012AA000F009
:1052100005FAE089800A04D040F6170126A000F0C4
:10522000FDF901213046FFF793FF06EB8513D86D9A
:1052300020F48050D86560681864A0685864986C41
:1052400021886FF30900084398646188986C61F3C2
:105250001F409864D86CA1896FF309000843D86493
:10526000D86C20490840E18940EA0140D864186DB3
:1052700061696FF3130008431865218B186D61F3A2
:105280001F501865586DE1696FF3130008435865A6
:10529000218C586D61F31F5058652069986504F1A1
:1052A000240229463046BDE87040FFF72DBD0000BE
:1052B00000300540003405402E2E5C2E2E5C2E2E34
:1052C0005C2E2E5C2E2E5C6472697665725C737245
:1052D000635C68633332663436305F646D61632EBD
:1052E00063000000FFFF00FC2DE9F04180460D4601
:1052F0001646002400271548804507D014488045ED
:1053000004D040F2354113A000F088F955B1012DC9
:1053100008D0022D06D0032D04D040F236410DA056
:1053200000F07CF908EB85114E644FF4805006E0E4
:10533000641CA4B2844201D9092700E04E644A6E7D
:10534000B242F5D13846BDE8F0810000003005409A
:10535000003405402E2E5C2E2E5C2E2E5C2E2E5CF4
:105360002E2E5C6472697665725C7372635C68632E
:105370003332663436305F646D61632E6300000043
:105380002DE9F04180460D461646002400271548B9
:10539000804507D01448804504D040F2F33113A073
:1053A00000F03CF955B1012D08D0022D06D0032D97
:1053B00004D04FF47D710DA000F030F908EB851199
:1053C0000E644FF4805006E0641CA4B2844201D9FC
:1053D000092700E00E640A6EB242F5D13846BDE8F6
:1053E000F081000000300540003405402E2E5C2E78
:1053F0002E5C2E2E5C2E2E5C2E2E5C6472697665E1
:10540000725C7372635C68633332663436305F6437
:105410006D61632E630000002DE9F04180460D466A
:105420001646002400271848804507D017488045B5
:1054300004D040F2BB4116A000F0F0F855B1012DA8
:1054400008D0022D06D0032D04D040F2BC4110A09C
:1054500000F0E4F808EB8511886C66F31F4088645F
:105460004FF4805009E0641CA4B2844201D909279A
:1054700003E08A6C66F31F428A648A6EB6EB124FB1
:10548000F1D13846BDE8F0810030054000340540D8
:105490002E2E5C2E2E5C2E2E5C2E2E5C2E2E5C6410
:1054A00072697665725C7372635C6863333266340A
:1054B00036305F646D61632E630000002DE9F041BA
:1054C0000446884615460C4E0C4FB44206D0BC42EA
:1054D00004D040F247710AA000F0A0F81349B4428A
:1054E00001EB880003D1C0F81458BDE8F081BC423C
:1054F000FBD1C0F82458F8E70030054000340540DF
:105500002E2E5C2E2E5C2E2E5C2E2E5C2E2E5C649F
:1055100072697665725C7372635C68633332663499
:1055200036305F646D61632E63000000000001404F
:1055300010B54FF4007101200BF018F81021BDE8F0
:10554000104001200BF012B810B54FF4007101208B
:105550000BF040F81021BDE8104001200BF006B818
:1055600010B54FF4007101200BF034F81021BDE8A4
:10557000104001200BF02EB810B54FF480710120BF
:105580000AF0F4FF0821BDE8104001200AF0EEBF48
:1055900010B54FF4807101200BF01CF80821BDE814
:1055A000104001200AF0E2BF10B54FF480710120D5
:1055B0000BF010F80821BDE8104001200BF00AB8EC
:1055C0001CB50020009001908DF800006A464FF451
:1055D000807101200AF0F2FE6A46082101200AF0DB
:1055E000EDFE4FF400746A46214601200AF0E6FE03
:1055F0006A46102101200AF0E1FE6A462146002099
:105600000AF0DCFE6A46210100200AF0D7FE6A4655
:10561000610100200AF0D2FE1CBD000010B50A4650
:10562000014602A00FF0AAFEFEE7000057726F6E5F
:105630006720706172616D65746572732076616C4C
:1056400075653A2066696C65202573206F6E206C45
:10565000696E652025640D0A0000000008B5084940
:1056600042F210720968B1FBF2F304E00093009972
:105670004A1E0092FBD2401E411CF7D108BD00001B
:10568000B482FF1F08B50A490A4A096891420BD93A
:10569000B1FBF2F304E0009300994A1E0092FBD2A2
:1056A000401E411CF7D108BD401E411CFCD108BD65
:1056B000B482FF1F8096980010B5AFF3008010BD34
:1056C00030B58FB0302103A8FAF77DFE0024019495
:1056D0000294012188030BF089FA012148040BF0A0
:1056E00085FA0125ADF80C50A802ADF80E0033483C
:1056F0000490334805900794ADF824400894ADF821
:105700002C400A948DF830408DF831508DF834409B
:105710008DF835408DF836508DF837408DF839507A
:10572000284C03AA00212046FFF748FD4FF4E07201
:1057300000212046FFF7C2FE01212046FFF708FDA9
:10574000012200212046FFF7BDFB0520ADF8060031
:105750001D4802902020ADF8040001A812F0A0FC22
:10576000BDF90600F021002804DB00F1E02080F8FC
:10577000001405E000F00F0000F1E02080F8141D97
:10578000BDF90600002809DB00F01F0105FA01F150
:105790004009800000F1E020C0F88012BDF9060049
:1057A000002808DB00F01F018D404009800000F157
:1057B000E020C0F800510FB030BD0000540004409C
:1057C0004CCD012000300540E10D010010B504462C
:1057D000002C05D0012C03D0BB2107A0FFF71EFF32
:1057E0001049012C03D0086840F0010002E008686D
:1057F00020F00100086010BD2E2E5C2E2E5C2E2E97
:105800005C2E2E5C2E2E5C6472697665725C7372FF
:10581000635C68633332663436305F65666D2E6371
:10582000000000000404014010B50446012C11D012
:10583000022C0FD0042C0DD0082C0BD0102C09D02A
:10584000202C07D0B4F5807F04D040F2951105A03C
:10585000FFF7E4FE0E480068204201D0012010BD91
:10586000002010BD2E2E5C2E2E5C2E2E5C2E2E5C6B
:105870002E2E5C6472697665725C7372635C686319
:105880003332663436305F65666D2E63000000008B
:105890001004014004480168012903D143F210219A
:1058A0000160016070470000000401400FB5064927
:1058B000009106490A6801924A6802928968039138
:1058C00001A90EC90EC00FBD3FCA024050040140DD
:1058D00010B50446002C21D0012C1FD0022C1DD065
:1058E000032C1BD0042C19D0052C17D0062C15D056
:1058F000072C13D0082C11D0092C0FD00A2C0DD056
:105900000B2C0BD00C2C09D00D2C07D00E2C05D055
:105910000F2C03D0DC2104A0FFF780FE0D480168A6
:1059200064F30711016010BD2E2E5C2E2E5C2E2E0E
:105930005C2E2E5C2E2E5C6472697665725C7372CE
:10594000635C68633332663436305F65666D2E6340
:1059500000000000080401402DE9F04705460F460D
:1059600000260024244885420BD223483830854243
:1059700007D92248854204D940F21B2120A0FFF715
:105980004DFE3F20FBF7C1F8DFF8A090D9F80000EA
:10599000C0F30048D9F8000020F48030C9F80000B6
:1059A0000120FBF7B7F809F10402106820F070003D
:1059B000103010602F609114101D04E0641CA4B21C
:1059C0008C4200D909260368DB05F7D5BF4200D019
:1059D00001261020FBF799F8106820F07000106085
:1059E0000020FBF797F8D9F8000068F31040C9F8D9
:1059F00000003046BDE8F087C00F0003DFFF07005E
:105A00002E2E5C2E2E5C2E2E5C2E2E5C2E2E5C649A
:105A100072697665725C7372635C68633332663494
:105A200036305F65666D2E6300000000080401409B
:105A3000034840F22311016043F2102101607047D6
:105A40000004014010B504462178002921D0012925
:105A50001FD002291DD003291BD0042919D00529E4
:105A600017D0062915D0072913D0082911D00929E4
:105A70000FD00A290DD00B290BD00C2909D00D29E4
:105A800007D00E2905D00F2903D06D210BA0FFF7F9
:105A9000C5FD2078164901EB80016278086862F341
:105AA000C7100860A278086862F305100860E27801
:105AB000086862F301000860002010BD2E2E5C2EE5
:105AC0002E5C2E2E5C2E2E5C2E2E5C64726976650A
:105AD000725C7372635C68633332663436305F6560
