:1000000002C2A62030FDD2308F9922029D137F9F1D
:100010007E867D01125E7012C72E9004AF7463F06D
:10002000D2012202CD46E4900B45F0A3F0900B5490
:10003000EFF02202D1CBE4F5C7F5C5F5C675C38054
:10004000F5C42202C9A5900A86126CDA900A8912B8
:100050005F887031900A89E0FF90008AE02FFF905E
:100060000089E03400FE12639CD39FE49E400F128F
:100070006885FF900089A3E0FEC3EF9E8004900A8C
:1000800089E00268ED12639CFF900A89E0FEEFD3DD
:090090009E400574FF1268CB22AA
:06009B0002C02702D4B1EF
:1000A30002D0B69004AEE0FF9004B6E06F6068EF54
:1000B300F0125D747412125B8212613812C1859062
:1000C30009B37401F012616D9407501BEF75F013BF
:1000D300A42415125B757B76FA7F65FE12C18590A9
:1000E30009B3E004F080DE301C2D9004AEE0700F05
:1000F3009009BBF0A37412125A397D14FC8012903C
:1001030004AEE075F013A42415125D6F7411125A36
:10011300397F65FE12C185125FC37427F0A312589D
:10012300F97BDC7A007D27125F2112C4459003A975
:10013300E0126CE3015C00039201073F020A4503EE
:100143000DF3040F25050FF20610F60712A5081389
:100153009C09165F0A000017899003A4E0B4010408
:100163007F0080059004AEE0FFEF14604E146074CE
:100173001470030202991470030202CE1470030276
:10018300035F240560030217891219B0121CB930EA
:10019300260B9004AEE070057AF8FB80047AFF7BAF
:1001A300FFC002C0031258AA7A34794A125CCED037
:1001B30003D002121B9D70030217891258AA7A34C6
:1001C300795312178F125B3D201C027D011258D503
:1001D300FEA3E0900111125EFB12589F121BBD702B
:1001E300030217891258AA7A34795C1217B3125C86
:1001F3007FCEC313CE13D8F9FF7D00201C027D01EF
:100203001258D5FAA3E0FBC002C0037D64125994CF
:10021300EC125899D003D002121B12125C7FCEC38A
:1002230013CE13D8F9FF7D00201C027D011258D58F
:10023300FAA3E0FBC002C0037D0A125994EC1258E2
:1002430099D003D0027FBF121DA91259DE125C7F21
:10025300CEC313CE13D8F9FF7D00201C027D0112FB
:1002630058D5FAA3E0FBC002C0039004B2E0FEA39A
:10027300E0FF1259A1EC125899D003D0027D3C1231
:100283001DB91258AA7BFF7A34796512593B121BA8
:100293002B70030217891258AA7A34796712188FC0
:1002A300125C88CEC313CE13D8F9FF7D00201C0245
:1002B3007D011258D5FEA3E09000A5125EFB1258F3
:1002C3009F7D4F121BED70030217891258AA7A34CF
:1002D30079701217D7125A60201C027D011258D56B
:1002E30075F06412590112589FAB077FAD121AAC17
:1002F300125A60201C027D011258D575F00A12595A
:100303000112589F121918125A60201C027D011203
:1003130058D5FAA3E0FBC002C0031258AA125A2709
:10032300D003D0027FBF121D9F1259DE125A6020E4
:100333001C027D011258D5FEA3E0FF900494E01245
:10034300590A12589F121C821258AA7BFF7A3479D9
:100353006512593B121BAD70030217891258AA7A12
:10036300347979121952125D84CEC313CE13D8F99E
:10037300FF7D00201C027D011258D5FEA3E09000F2
:100383006A125D3112589F7D75121CA9021789905C
:1003930003A4E0B401047F0080059004AEE0FFEF06
:1003A3001460511470030204B81470030205A314FB
:1003B300700302064D1470030206B624056003029F
:1003C30017891219B0121CB930260B9004AEE070D5
:1003D300057AF8FB80047AFF7BFFC002C003125842
:1003E300AA7A347982125CCED003D002121B9D709C
:1003F300030217891258AA7A34798B12178F125B6A
:100403003D201C027D011258D5FAA3E0FBC002C0B7
:100413000390048B125D237D6412599EEC1258994C
:10042300D003D0027D29121B76125B3D201C027D76
:10043300011258D5FAA3E0FBC002C00390048B124B
:100443005D237D0A12599EEC125899D003D0027F86
:10045300B6121DDB1259DE125B3D201C027D011218
:1004630058D5FAA3E0FBC002C0031258AA125A27B8
:10047300D003D0027FBF121AC5125B3D201C027D40
:10048300011258D5FAA3E0FBC002C00390048BE02D
:10049300FEA3E0FF1259A1EC125899D003D0027DBC
:1004A30029121DB91258AA12615F12593B121B5629
:1004B30070030217891258AA7A3479941217B31267
:1004C3005C7FCEC313CE13D8F9FF7D00201C027DC1
:1004D300011258D5FAA3E0FBC002C0039003A11296
:1004E3005D237D6412599EEC125899D003D0027F8C
:1004F300AD121DEB1259DE125C7FCEC313CE13D89F
:10050300F9FF7D00201C027D011258D5FAA3E0FB00
:10051300C002C0039003A1125D237D0A12599EEC11
:10052300125899D003D002121B12125C7FCEC31350
:10053300CE13D8F9FF7D00201C027D011258D5FA95
:10054300A3E0FBC002C0031258AA125A27D003D05B
:10055300027FBF121A78125C7FCEC313CE13D8F971
:10056300FF7D00201C027D011258D5FAA3E0FBC0D9
:1005730002C0039003A1E0FEA3E0FF1259A1EC1215
:100583005899D003D0027D3CFC7FC8FE12A73312DA
:1005930058AA12615F12593B121B2B700302178971
:1005A3001258AA1217FB125C88CEC313CE13D8F9C4
:1005B300FF7D00201C027D011258D512620F75F0D9
:1005C3006412590912589F121A23125C88CEC3135E
:1005D300CE13D8F9FF7D00201C027D011258D5FAF5
:1005E300A3E0FBC002C0031258AA125A27D003D0BB
:1005F30002121AF7125C88CEC313CE13D8F9FF7D0B
:1006030000201C027D011258D512620F75F00A12E8
:10061300590912589F1218D7125C88CEC313CE13F0
:10062300D8F9FF7D00201C027D011258D512620FFC
:1006330012590A12589F121CD31258AA1262F612A8
:10064300593B121B6670030217891258AA7A347930
:10065300A61217D7125A60201C027D011258D51218
:10066300621875F06412590912589F121918125A18
:1006730060201C027D011258D512621875F00A120F
:10068300590912589F121976125A60201C027D01D3
:100693001258D512621812590A12589F121C82124C
:1006A30058AA7BFF7A3479AF12593B121BAD700302
:1006B3000217891258AA7A3479B1121952125D8439
:1006C300CEC313CE13D8F9FF7D00201C027D011287
:1006D30058D512622175F06412590912589F121AE3
:1006E30040125D84CEC313CE13D8F9FF7D00201CC6
:1006F300027D011258D512622175F00A12590912AE
:10070300589F7D75121A08125D84CEC313CE13D879
:10071300F9FF7D00201C027D011258D512622112BF
:10072300590A12589F121D2E1258AA7BFF7A347948
:10073300AF12593B7D75121BDF0217899003A4E0AA
:10074300B401047F0080059004AEE0FFEF14605114
:1007530014700302087614700302096E1470030206
:100763000A182404600302178912592E121C2D1231
:10077300593B121CE130260B9004AEE070057AF869
:10078300FB80047AFF7BFFC002C0031258AA7A34AD
:1007930079BA125D2BD003D002121BCF700302175C
:1007A300891258AA7A3479C3121823125B3D201C8C
:1007B300027D011258D5FAA3E0FBC002C0039000EA
:1007C30084125D237D6412599EEC125899D003D094
:1007D300027FAD121DDB1259DE125B3D201C027D30
:1007E300011258D5FAA3E0FBC002C00390008412A3
:1007F3005D237D0A12599EEC125899D003D0027DD5
:1008030029FC7FB6FE12A7331259DE125B3D201C72
:10081300027D011258D5FAA3E0FBC002C003900089
:1008230084E0FEA3E0FF1259A1EC125899D003D043
:10083300027D29FC7FBFFE12A7331259DE125B3DF6
:10084300201C027D011258D5FAA3E0FBC002C003AD
:100853001258AA125C11D003D0027D29121D48122E
:1008630058AA7BFF7A3479CC12593B121B5670037A
:100873000217891258AA7A3479CE121847125C7F6C
:10088300CEC313CE13D8F9FF7D00201C027D0112C5
:1008930058D5FAA3E0FBC002C003900489125D237C
:1008A3007D6412599EEC125899D003D0027D3CFC12
:1008B3007FADFE12A7331259DE125C7FCEC313CE77
:1008C30013D8F9FF7D00201C027D011258D5FAA32D
:1008D300E0FBC002C003900489125D237D0A125914
:1008E3009EEC125899D003D0027FB6121DA912595B
:1008F300DE125C7FCEC313CE13D8F9FF7D00201C1C
:10090300027D011258D5FAA3E0FBC002C003900494
:1009130089E0FEA3E0FF1259A1EC125899D003D04D
:10092300027FBF121DEB1259DE125C7FCEC313CEC2
:1009330013D8F9FF7D00201C027D011258D5FAA3BC
:10094300E0FBC002C0031258AA125C11D003D0020C
:100953007D3C121D481258AA7BFF7A3479CC125978
:100963003B7D3C121BDF70030217891258AA121732
:10097300FB125C88CEC313CE13D8F9FF7D00201C75
:10098300027D011258D512622A75F06412590912B8
:10099300589F121A23125C88CEC313CE13D8F9FFC3
:1009A3007D00201C027D011258D5FAA3E0FBC00292
:1009B300C0031258AA125A27D003D002121AF712F0
:1009C3005C88CEC313CE13D8F9FF7D00201C027DB3
:1009D300011258D512622A75F00A12590912589F4A
:1009E3001218D7125C88CEC313CE13D8F9FF7D003B
:1009F300201C027D011258D512622A12590A12587C
:100A03009F121CD31258AA1262F612593B121B668C
:100A130070030217891258AA7A3479D712186B1205
:100A23005A60201C027D011258D5FEA3E090048F6A
:100A3300125D3112589FAB077D627FCB121D3C02C2
:100A430017899003A4E0B401047F0080059004AEED
:100A5300E0FFEF126CE30A72000AAA010ADC020B40
:100A630068030BF4040C8B050D5106000017891263
:100A7300592E121C2D12593B121CE130260B9004E7
:100A8300AEE070057AF8FB80047AFF7BFFC002C0FA
:100A9300031258AA7A3479E4125D2BD003D00212E0
:100AA3001BCF70030217891258AA7A3479ED1218F2
:100AB30023125B3D201C027D011258D5FEA3E0905A
:100AC30004BC1261742423F582E4340012589F7D20
:100AD30029121CF970030217891258AA7A3479F67D
:100AE300121847125C7FCEC313CE13D8F9FF7D00D3
:100AF300201C027D011258D512623375F06412591D
:100B03000912589F7D3C121A5D125C7FCEC313CE2F
:100B130013D8F9FF7D00201C027D011258D5126203
:100B23003375F00A12590912589F7D3C121A91121B
:100B33005C7FCEC313CE13D8F9FF7D00201C027D4A
:100B4300011258D512623312590A12589F7D3C1272
:100B53001CED1258AA12630B12593B7D3C121C5414
:100B630070030217891258AA7A35790212188F1264
:100B73005C88CEC313CE13D8F9FF7D00201C027D01
:100B8300011258D512623C75F06412590912589F2C
:100B93007D4F121A5D125C88CEC313CE13D8F9FFB2
:100BA3007D00201C027D011258D512623C75F00AAB
:100BB30012590912589F7D4F121A91125C88CEC3A5
:100BC30013CE13D8F9FF7D00201C027D011258D5E6
:100BD30012623C12590A12589F7D4F121CED125893
:100BE300AA12630B12593B7D4F121C547003021758
:100BF300891258AA7A35790B12186B125A60201C85
:100C0300027D011258D512624575F064125909121A
:100C1300589FAB07AA067D62121B76125A60201CEE
:100C2300027D011258D512624575F00A1259091254
:100C3300589FAB077FB6121AAC125A60201C027D74
:100C4300011258D512624512590A12589F12197689
:100C5300125A60201C027D011258D5FAA3E0FBC092
:100C630002C0031258AA125C11D003D0027FC8122B
:100C73001D9F1258AA7BFF7A35791412593B7D6266
:100C8300121BFD70030217891258AA7BFF7A35796C
:100C93001612593B121B3B125D84CEC313CE13D8DD
:100CA300F9FF7D00201C027D011258D512624E759A
:100CB300F06412590912589F121A40125D84CEC370
:100CC30013CE13D8F9FF7D00201C027D011258D5E5
:100CD300FAA3E0FBC002C0031258AA125A27D0039A
:100CE300D0027FBF121DC11259DE125D84CEC31321
:100CF300CE13D8F9FF7D00201C027D011258D512B6
:100D0300624E75F00A12590912589F121D2E12597C
:100D1300DE125D84CEC313CE13D8F9FF7D00201CF1
:100D2300027D011258D512624E12590A12589FAB16
:100D3300077FD2121DF31258AA7BFF7A35791F124F
:100D4300593B7D757FAD121D22700302178912581E
:100D5300AA7BFF7A35792112593B7D881259D71224
:100D6300A7331259DE125F75CEC313CE13D8F9FF22
:100D73007D00201C027D011258D512625775F06464
:100D830012590912589FAB077FAF121ADE125F7513
:100D9300CEC313CE13D8F9FF7D00201C027D0112B0
:100DA30058D512625775F00A12590912589FAB07AA
:100DB3007FB8121E0D1259DE125F75CEC313CE1308
:100DC300D8F9FF7D00201C027D011258D51262570D
:100DD30012590A12589FAB077FC1121E0D1258AA4F
:100DE30012630B12593B7D887FCB121D2202178998
:100DF3009003A4E0B401047F0080059004AEE0FFFB
:100E0300EF14605314607A147003020EB814700365
:100E1300020EFB2404600302178912592E121C9040
:100E230012593B125C9712C54930260B9004AEE071
:100E330070057AF8FB80047AFF7BFFC002C00312BF
:100E430058AA7A35792A125D69D003D0027F7812C5
:100E53001D5270030217891258AA7A357935121870
:100E6300B3125B3D201C027D011258D5FEA3E0FFA7
:100E7300900061125D3212589F121BBD700302175E
:100E8300891258AA7A35793E1218F4125C7FCEC3C0
:100E930013CE13D8F9FF7D00201C027D011258D513
:100EA300FEA3E0FF900490125D3212589F121C1BA8
:100EB30070030217891258AA7BFF7A3579471259B2
:100EC3003B7D4F1259D712A7331259DE125C88CEDD
:100ED300C313CE13D8F9FF7D00201C027D011258E5
:100EE300D5FEA3E0FF900472125D3212589F7D4F2E
:100EF300121CA970030217891258AA7A3579521263
:100F030019E4125A60201C027D011258D5FEA3E099
:100F1300FF900479125D3212589F7D62121BED021D
:100F230017899003A4E0B401047F0080059004AE08
:100F3300E0FFEF14604814605614606914607C2469
:100F4300046003020FD212592E121C9012593B1245
:100F53005C9712C54930260B9004AEE070057AF811
:100F6300FB80047AFF7BFFC002C0031258AA7A35C4
:100F7300795F125D69D003D002121C0B60511258C5
:100F8300AA7BFF7A35796812593B121B8D60401298
:100F930058AA7BFF7A35797112593B7D3C1259D798
:100FA300121D97602A1258AA7BFF7A35797A125953
:100FB3003B7D4F1259D7121D9760141258AA7BFF1D
:100FC3007A35798312593B7D621259D712A733E4DC
:100FD3009009B3F012616D9404500E125D9E125885
:100FE300AA125B33121D6080EB9004750213849088
:100FF30003A4E0B401047F0080059004AEE0FFEF9A
:10100300126CE3101F00105901106A0210800310C4
:10101300960410AC0510C206000010D612592E1209
:101023001D0912593B125C9712C54930260B9004D7
:10103300AEE070057AF8FB80047AFF7BFFC002C044
:10104300031258AA7A35798E125DAFD003D0027F8E
:101053007C121D52607D1258AA7BFF7A3579981253
:10106300593B121B8D606C1258AA7BFF7A3579A508
:1010730012593B7D3C1259D7121DB160561258AA22
:101083007BFF7A3579B212593B7D4F1259D7121D26
:10109300B160401258AA7BFF7A3579BF12593B7D64
:1010A300621259D7121DE3602A1258AA7BFF7A35C0
:1010B30079CC12593B7D751259D7121DE360141276
:1010C30058AA7BFF7A3579D912593B7D881259D7B3
:1010D30012A733E49009B3F012616D9406500E1217
:1010E3005D9E1258AA125B33121D6080EB9004714F
:1010F3000213849003A4E0B401047F0080059004EC
:10110300AEE0FFEF1460541470030211C6147003B1
:101113000211FA14700302127A240460030217897D
:1011230012592E121D0912593B125C9712C54930F0
:10113300260B9004AEE070057AF8FB80047AFF7BFF
:10114300FFC002C0031258AA7A3579E6125DAFD008
:1011530003D002121C0B70030217891258AA7A35A6
:1011630079EF1218B3125B3D201C027D011258D592
:1011730012626075F06412590912589F1219931282
:101183005B3D201C027D011258D512626075F00A86
:1011930012590912589F121935125B3D201C027D0A
:1011A300011258D512626012590A12589F121C4636
:1011B3001258AA1262FD12593B7D29121BFD7003BE
:1011C3000217891258AA7A3579F81218F4125C7F3B
:1011D300CEC313CE13D8F9FF7D00201C027D01126C
:1011E30058D5FEA3E0FF90045D125EFC12589F12D7
:1011F3001C1B70030217891258AA7BFF7A367901E8
:1012030012593B7D4F1259D712A7331259DE125C84
:1012130088CEC313CE13D8F9FF7D00201C027D01B5
:101223001258D5FEA3E0FF90007CE075F00A125936
:101233000912589F7D4F121A08125C88CEC313CE31
:1012430013D8F9FF7D00201C027D011258D5FEA39F
:10125300E0FF90007CE012590A12589F7D4F121D47
:101263008B1258AA7BFF7A36790A12593B7D4F12AB
:101273001CC570030217891258AA7A36790C121901
:10128300E4125A60201C027D011258D5FEA3E0FF30
:1012930090008EE012591012589F7D62121C620258
:1012A30017899003A4E0B401047F0080059004AE85
:1012B300E0FFEF14604B14605E146071147003025E
:1012C300134A2404600302135E12592E121D721274
:1012D300593B125C9712C54930260B9004AEE0705F
:1012E300057AF8FB80047AFF7BFFC002C003125823
:1012F300AA7A367915125E4CD003D002121C7260A2
:101303005A1258AA7BFF7A36791E12593B7D29124D
:1013130059D7121E0560441258AA7BFF7A367927E3
:1013230012593B7D3C1259D7121E05602E1258AA42
:101333007BFF7A36792E12593B7D4F1259D712A76C
:10134300339003A4E060141258AA7BFF7A367933F2
:1013530012593B7D621259D712A733E49009B3F0B7
:1013630012616D94065017125D9E1258AA125B33D8
:101373001261FA12A7339009B3E004F080E29000FF
:1013830087E0FF125D9E1260AC7A3B7917125E4CC8
:101393001261FA12C5490217899003A4E0B401044B
:1013A3007F0080059004AEE0FFEF126CE313C900E9
:1013B30014040114730214BA0315450415870515A3
:1013C300D1060000178912592E121D7212593B12B1
:1013D3005C9712C54930260B9004AEE070057AF88D
:1013E300FB80047AFF7BFFC002C0031258AA7A363F
:1013F300793A125F5AD003D002121C72700302179B
:10140300891258AA7BFF7A36794312593B7F6612B9
:101413001AC5125B3D201C027D011258D512626968
:1014230075F06412590912589F121993125B3D20EB
:101433001C027D011258D512626975F00A1259090E
:1014430012589F121935125B3D201C027D01125860
:10145300D512626912590A12589F121C461258AAD1
:101463001262F612593B7D29121CC57003021789BB
:101473001258AA7BFF7A36794C12593B7F66121AAF
:1014830078125C7FCEC313CE13D8F9FF7D00201CE6
:10149300027D011258D5FEA3E09000C212617424AC
:1014A30033F582E4340012589FAB077D3C7FA912C9
:1014B3001D3C70030217891258AA7BFF7A367955AF
:1014C30012593B7D4F1259D712A73390006EE0FD9E
:1014D300640270321259DE125C88CEC313CE13D865
:1014E300F9FF7C00201C027C01ECFBEF5B1258D758
:1014F300FEA3E0FFED12633112589FAB07AA067DEE
:101503004FFC7FAB802F1259DE125C88CEC313CE03
:1015130013D8F9FF7D00201C027D011258D5FEA3CC
:10152300E0FF90006EE012633112589FAB07AA06EA
:101533007D4FFC7FA7FE12A7339003A4E070030244
:1015430017891258AA7BFF7A36795E12593B7D625E
:101553001259D712A7331259DE125A60201C027D8A
:10156300011258D5FEA3E0FF9004D2E075F003A466
:1015730024E9F582E4340012589F7D62121CF9704D
:10158300030217891258AA7BFF7A36796912593BED
:10159300121B3B125D84CEC313CE13D8F9FF7D001B
:1015A300201C027D011258D5FEA3E0FF900073E0DA
:1015B30075F003A424EFF582E4340012589FAB07BF
:1015C3007FC9121DF39003A4E07003021789125818
:1015D300AA7BFF7A36797212593B7D881259D7124A
:1015E300A7331259DE125F75CEC313CE13D8F9FF9A
:1015F3007D00201C027D011258D512627275F064C1
:1016030012590912589FAB077FBF121ADE125F757A
:10161300CEC313CE13D8F9FF7D00201C027D011227
:1016230058D512627275F00A12590912589F7D88B3
:10163300121D8B1259DE125F75CEC313CE13D8F968
:10164300FF7D00201C027D011258D51262721259CF
:101653000A12589F7D88121C6202178912592E7D27
:10166300157C007F687E0012C5491260AC7BFF7A4F
:101673003B790712593B125C9712C54930260B90F0
:1016830004AEE070057AF8FB80047AFF7BFFC002AA
:10169300C0031258AA7A36797D125F5AD003D0025A
:1016A3007D167F80121DFD1258AA7BFF7A3679863C
:1016B30012593B7D291259D712A7331258AA7BFF1F
:1016C3007A36799012593B7D3C1259D712A73312BF
:1016D30058AA7BFF7A36799612593B7D3C7F8F124D
:1016E3001DFD1258AA7BFF7A3679AA12593B7D4F0A
:1016F3001259D712A7331258AA7BFF7A3679B81238
:10170300593B7D627C007F747E0012A733E490090D
:10171300B3F09009B3125FFD9009B4F0FDEF1261CD
:101723007B12591012589F7D62121DCBE0C394089F
:1017330040E01258AA7BFF7A3679BC12593B7F6B83
:10174300121DC1E49009B3F012616D940850201288
:10175300633D12D5109009B4EFF0FD9009B3E01288
:10176300617B12591012589F7D75121DCB80D912BF
:1017730058AA7BFF7A3679C112593B7D8A7C007F58
:101783006B7E0012A733E49003A4F0227BFFA31225
:101793006CDA74FFFA7D297C007F667E0012A73322
:1017A3009004AEE025E0249AF582E43404F5832224
:1017B3007BFFA3126CDA74FFFA7D3C7C007F667EAC
:1017C3000012A7339004AEE025E0249AF582E434B6
:1017D30004F583227BFFA3126CDA74FFFA7D627C2B
:1017E300007F667E0012A7339004AEE025E0249AC2
:1017F300F582E43404F583227BFF7A34799DA312C6
:101803006CDA74FFFA7D4F7C007F667E0012A7338B
:101813009004AEE025E0249AF582E43404F58322B3
:101823007BFFA3126CDA74FFFA7D297C007F667E4E
:101833000012A7339004AEE025E0249AF582E43445
:1018430004F583227BFFA3126CDA74FFFA7D3C7CE0
:10185300007F667E0012A7339004AEE025E0249A51
:10186300F582E43404F583227BFFA3126CDA74FF60
:10187300FA7D627C007F667E0012A7339004AEE09F
:1018830025E0249AF582E43404F583227BFFA31236
:101893006CDA74FFFA7D4F7C007F667E0012A733FB
:1018A3009004AEE025E0249AF582E43404F5832223
:1018B3007BFFA3126CDA74FFFA7D297C007F667EBE
:1018C3000012A7339004AEE025E0249AF582E434B5
:1018D30004F58322AB07AA067D4FFC7FBFFE12A748
:1018E300339004AEE025E0249AF582E43404F583D2
:1018F300227BFFA3126CDA74FFFA7D3C7C007F66C7
:101903007E0012A7339004AEE025E0249AF582E42A
:101913003404F58322AB07AA067D62FC7FB6FE1270
:10192300A7339004AEE025E0249AF582E43404F56D
:101933008322AB07AA067D29FC7FBFFE12A7339043
:1019430004AEE025E0249AF582E43404F583227B97
:10195300FFA3126CDA74FFFA7D757C007F667E004C
:1019630012A7339004AEE025E0249AF582E4340410
:10197300F58322AB07AA067D62FC7FBFFE12A73365
:101983009004AEE025E0249AF582E43404F5832242
:10199300AB07AA067D29FC7FB6FE12A7339004AEDF
:1019A300E025E0249AF582E43404F58322E49009E7
:1019B300BBF0A3F07BFF7A3A79F7A3126CDA74FFDA
:1019C300FA7D157C007F687E0012C549E49009BB4F
:1019D300F0A3F07BFF7A3B7907A3126CDA74FFFA6A
:1019E300227BFFA3126CDA74FFFA7D627C007F66B0
:1019F3007E0012A7339004AEE025E0249AF582E43A
:101A03003404F58322AB07AA06FC7FBFFE12A7337B
:101A13009004AEE025E0249AF582E43404F58322B1
:101A2300AB07AA067D4FFC7FADFE12A7339004AE31
:101A3300E025E0249AF582E43404F58322AB07AA77
:101A4300067D75FC7FB6FE12A7339004AEE025E059
:101A5300249AF582E43404F58322AB07AA06FC7FBB
:101A6300AFFE12A7339004AEE025E0249AF582E49A
:101A73003404F583227D3C7C007E0012A73390045E
:101A8300AEE025E0249AF582E43404F58322AB0723
:101A9300AA06FC7FB8FE12A7339004AEE025E0242B
:101AA3009AF582E43404F58322AA067D62FCFE12D1
:101AB300A7339004AEE025E0249AF582E43404F5DC
:101AC30083227D297C007E0012A7339004AEE0259B
:101AD300E0249AF582E43404F58322AA067D88FC87
:101AE300FE12A7339004AEE025E0249AF582E43495
:101AF30004F583227D4F7C007FB67E0012A73390CE
:101B030004AEE025E0249AF582E43404F583227DD3
:101B13003CFC7FB6FE12A7339004AEE025E0249A86
:101B2300F582E43404F583227D3C7C007FD27E0081
:101B330012A7339003A4E0227D757C007F667E00AC
:101B430012A7339004AEE025E0249AF582E434042E
:101B5300F583227D297C007FD27E0012A733900378
:101B6300A4E0227D4F7C007FD27E0012A733900336
:101B7300A4E022FC7FADFE12A7339004AEE025E083
:101B8300249AF582E43404F583227D297C007F6660
:101B93007E0012A7339003A4E0227D167C007F8091
:101BA3007E0012A7339003A4E0227D627C007FD2E3
:101BB3007E0012A7339003A4E022AB07AA067D2977
:101BC300FC7FCAFE12A7339003A4E0227D167C009B
:101BD3007F807E0012A7339003A4E0227C007FD293
:101BE3007E0012A7339003A4E022AB07AA06FC7F72
:101BF300CAFE12A7339003A4E0227C007FD27E00AA
:101C030012A7339003A4E0227D167C007F807E0020
:101C130012A7339003A4E022AB07AA067D3CFC7F06
:101C2300CAFE12A7339003A4E0227D157C007F68CF
:101C33007E0012C549E49009BBF0A3F07BFF7A3B19
:101C4300790722AB07AA067D29FC7FC8FE12A733BA
:101C5300227C007FCB7E0012A7339003A4E022AB4B
:101C630007AA06FC7FD2FE12A7339003A4E0227DCD
:101C7300167C007F807E0012A7339003A4E022AB82
:101C830007AA067D62FC7FC8FE12A733227D157C5E
:101C9300007F687E0012C549E49009BBF0A3F07B86
:101CA300FF7A3B790722AB07AA06FC7FCAFE12A77D
:101CB300339003A4E0227D157C007FD07E0012C503
:101CC30049227C007FD27E0012A7339003A4E02236
:101CD300AB07AA067D4FFC7FC8FE12A733227D15F2
:101CE3007C007FD07E0012C54922AB07AA06FC7F89
:101CF300C1FE12A73322AB07AA06FC7FBAFE12A7C6
:101D0300339003A4E0227D157C007F687E0012C51A
:101D130049E49009BBF0A3F07BFF7A3B7907227C6F
:101D2300007E0012A7339003A4E022AB07AA067D2E
:101D330075FC7FC8FE12A73322AA06FCFE12A73346
:101D43009003A4E0227C007FC87E0012A733227D8B
:101D5300167C007E0012A7339003A4E0227B007A56
:101D6300F87FD17E0012A7339009B3E004F0227DFF
:101D7300157C007F687E0012C549E49009BBF0A37F
:101D8300F07BFF7A3B790722AB07AA06FC7FC8FEEC
:101D930012A7332212A7339003A4E0227D627C00B2
:101DA3007E0012A733227D3CFCFE12A7332212A72A
:101DB300339003A4E022FC7FC8FE12A733227D7573
:101DC3007C007E0012A7332274FFFBFA7C0012A76B
:101DD300339009B3E004F0227D29FCFE12A73322DD
:101DE30012A7339003A4E0227D3CFCFE12A733220A
:101DF300AA067D75FCFE12A733227C007E0012A783
:101E0300332212A7339003A4E022AA067D88FCFEA6
:101E130012A733229003A3E014700302221C147050
:101E2300030225991470030229EA24036003022F95
:101E33000D900497E0FF900491E0FE6F60529004D0
:101E430097EE122FF17425125B82123168125D74C2
:101E53007425125B8212311B300A35900491E01411
:101E6300601814601C146020240370249009BBE4E0
:101E7300F07412125A387D148013125A317D28805F
:101E83000C125A317D4F8005125A317D761232176A
:101E93009003A4E0B401047F008005900491E0FF67
:101EA300EF147003021F2C147003021FF714700346
:101EB30002214D24036003022F0D302C067AF87B98
:101EC3000080047AFF7BFFC002C0031258AA7A3352
:101ED30079B5125A9AD003D00212315C3031067AA6
:101EE300847B1080047AFF7BFFC002C003125A7404
:101EF300D003D0027F68125C9912C5493031067A4B
:101F0300847B1080047AFF7BFFC002C003125A8FC8
:101F1300D003D002125C971231B87427F0A3125881
:101F2300F91230657003022F0D1258AA7A3379BE65
:101F3300125B377A077D2B1259D712A7331258AA8F
:101F4300125B4B7A077D3C1259D712A73390013AA3
:101F5300125943C007C00612591CAE4CAF4D7C0347
:101F63007DE81258B8125A85D0E0F0A3D0E0122FC2
:101F73006A125C27125F7E125955C007C0061259B8
:101F83001C7D641258B2125A85D0E0F0A3D0E0123F
:101F93002F7B1258AA1259EE1230F1125C27540209
:101FA300C313125955C007C00612591C7D0A125893
:101FB300B2125A85D0E0F0A3D0E0F07FB712310D12
:101FC300125C275401125955C007C00612591CAEA2
:101FD3004CAF4D1258BB125A85D0E0F0A3D0E0129B
:101FE3002FC4125FC3744EF0A31258F912309570C8
:101FF30003022F0D900111E060067AFF7BE080045D
:102003007A847B10C002C0031258AA7A3379CA12A9
:102013005B4FD003D0027D521259D712A7339001E0
:1020230011E060067AFF7BE080047A847B10C002B3
:10203300C0031258AA125BB9D003D0027D631259B0
:10204300D712A73390013B125943C007C006125958
:102053001CAE52AF537C037DE81258B8125A85D098
:10206300E0F0A3D0E0F0900111E060067AFF7BE09E
:1020730080047A847B107F8A1230A9125F7E125902
:1020830055C007C00612591C1262CC7D641258B8A1
:10209300125A85D0E0F0A3D0E0F0900111E0600681
:1020A3007AFF7BE080047A847B1012320390011163
:1020B300E060067AFF7BE080047A847B10C002C074
:1020C300031258AA1259EED003D0021231AC900178
:1020D3003B125C2A5402C313125955C007C006129F
:1020E300591C1262CC7D0A1258B8125A85D0E0F0FE
:1020F300A3D0E0F0900111E060067AFF7BE080045A
:102103007A847B107FB71230A95401125955C00746
:10211300C00612591CAE52AF531258BB125A85D087
:10212300E0F0A3D0E0F0900111E060067AFF7BE0DD
:1021330080047A847B107D531231CC7475F0A31222
:1021430058F91230DD7003022F0D1258AA7A337931
:10215300D4125BBD7D791259D312A7331258AA7AD0
:102163003379D9125C157D8A1259D312A7339001A2
:102173003C125943C007C00612591C1260B41258CE
:10218300B8125A85D0E0F0A3D0E0F07F8A122F8CEA
:10219300125F7E125955C007C00612591CAE3CAFE0
:1021A3003D7C007D3C1258B8125A85D0E0F0A3D094
:1021B300E0F07F9C1230CF1258AA7A3379DE125C9A
:1021C3005D7A077D8312312890013C125C2A540208
:1021D300C313125955C007C00612591C125C63126F
:1021E30058B8125A85D0E0F0A3D0E0F07FB7122F91
:1021F3008C5401125955C007C00612591C125C6356
:102203001258BF125A85D0E0F0A3D0E0F07FC91274
:1022130030CF9003A4E0022F0D900496E0FF9004CA
:10222300B1E06F6041122F137425125B8212311BD0
:10223300300A33900496E014601614601A14601E7A
:1022430024037022125D747412125A397D148013A0
:10225300125A317D28800C125A317D4F8005125A53
:10226300317D761232179003A4E0B401047F00801D
:1022730005900496E0FFEF14607D1470030223DEE3
:102283001470030224BB24036003022F0D302C06B9
:102293007AF87B0080047AFF7BFFC002C0031258E8
:1022A300AA7A3379E0125C5DD003D00212315C303C
:1022B30031067A847B1080047AFF7BFFC002C0035F
:1022C300125A74D003D00212321F3031067A847B43
:1022D3001080047AFF7BFFC002C003125A8FD00321
:1022E300D002125C971231B87427F0A31258F91276
:1022F30030657003022F0D1258AA7A3379BE125C2F
:10230300797A077D2B1259D712A7331258AA125B79
:102313004B7A077D3C1259D712A73390013D1259CE
:1023230043C007C00612591CAE5AAF5B7C037DE85D
:102333001258B8125A85D0E0F0A3D0E0122F6A9059
:10234300013D125C2A125F7E125955C007C0061266
:10235300591C1262D37D641258B8125A85D0E0F02A
:10236300A3D0E0122F7B1258AA1259EE1230F1902B
:10237300013D125C2A5402C313125955C007C0060B
:1023830012591C1262D37D0A1258B8125A85D0E032
:10239300F0A3D0E0F07BFF7A077D2C7C007FB77E33
:1023A3000012BF6890013D125C2A5401125955C0B6
:1023B30007C00612591CAE5AAF5B1258BB125A859E
:1023C300D0E0F0A3D0E0122FC4125FC3744EF0A389
:1023D3001258F91230957003022F0D1258AA7A334E
:1023E30079E9125C797BE07AFF7D521259D712A703
:1023F300331258AA125BB97BE07AFF7D631259D777
:1024030012A73390013E125943C007C00612591C4C
:10241300AE48AF497C037DE81258B8125A85D0E024
:10242300F0A3D0E0F07F8A122FA8125F7E125955D5
:10243300C007C00612591C1262DA7D641258B81222
:102443005A85D0E0F0A3D0E0F07F9C1230FF125801
:10245300AA1259EE7D641230C190013E125C2A54D7
:1024630002C313125955C007C00612591C1262DA6F
:102473007D0A1258B8125A85D0E0F0A3D0E0F07F5D
:10248300B7122FA85401125955C007C00612591C80
:10249300AE48AF491258BB125A85D0E0F0A3D0E042
:1024A300F07FC91230FF125FC37475F0A31258F99D
:1024B3001230DD7003022F0D1258AA7A3379EE120F
:1024C3005C917BE07AFF7D791259D712A7331258BA
:1024D300AA125BB97BE07AFF7D8A1259D712A73320
:1024E300900140125943C007C00612591CAE62AF97
:1024F300637C037DE81258B8125A85D0E0F0A3D06C
:10250300E0F07F8A122FD5125F7E125955C007C0A3
:102513000612591C1262E17D641258B8125A85D012
:10252300E0F0A3D0E0F07D7A12317F1258AA12595D
:10253300EE7AFF7D8B123128900140125C2A5402FF
:10254300C313125955C007C00612591C1262E17D0C
:102553000A1258B8125A85D0E0F0A3D0E0F07FB742
:10256300122FD55401125955C007C00612591CAE7B
:1025730062AF631258BB125A85D0E0F0A3D0E0F0EB
:102583007BE07AFF7D7A7C007FC97E0012BF689072
:1025930003A4E0022F0D9004B0E0FF9004B8E06FB5
:1025A300605D122F13125B807D7612318D125B7A80
:1025B3007D8912318D300A479004B0E014601914FC
:1025C300601D14602114602A24047033125D747436
:1025D30012125A397D148024125A317D28801D121B
:1025E3005A317D4F8016125D747411125A397D76FB
:1025F300800A125D747411125A397D891232459022
:1026030003A4E0B401047F0080059004B0E0FFEF71
:1026130014700302269F14700302277D14700302B3
:10262300285E14700302292E24046003022F0D3048
:102633002C067AF87B0080047AFF7BFFC002C0037C
:102643001258AA7A3379F3125C91D003D002123173
:10265300E73031067A847B1080047AFF7BFFC00267
:10266300C003125A74D003D00212321F3031067ADB
:10267300847B1080047AFF7BFFC002C003125A8F51
:10268300D003D002125C9712C549125FC37427F0BE
:10269300A31258F91231347003022F0D1258AA7A7B
:1026A3003379FC125CA07A077D2B1259D712A7331A
:1026B3001258AA125B4B7A077D3C1259D712A733E3
:1026C300900142125943C007C00612591CAE27AFEE
:1026D300287C037DE81258B8125A85D0E0F0A3D0C5
:1026E300E0F07F8A12302D125F7E125955C007C069
:1026F3000612591C1262E87D641258B8125A85D02A
:10270300E0F0A3D0E0F07F9C12310D1258AA1259C9
:10271300EE7A077D3D7C007FAE7E0012A7339001E9
:1027230042125C2A5402C313125955C007C0061241
:10273300591C1262E87D0A1258B8125A85D0E0F08B
:10274300A3D0E0F07FB712302D5401125955C007C2
:10275300C00612591CAE27AF281258BB125A85D097
:10276300E0F0A3D0E0F07D2C123148744EF0A312B8
:1027730058F91231987003022F0D1258AA7A34793E
:1027830001125CA07A077D521259D712A73312584F
:10279300AA125B4B7A077D631259D712A7339001B4
:1027A30045125943C007C00612591CAE6AAF6B7C71
:1027B300037DE81258B8125A85D0E0F0A3D0E0F0B8
:1027C3007F8A123049125F7E125955C007C0061224
:1027D300591C1262EF7D641258B8125A85D0E0F08A
:1027E300A3D0E0F07BFF7A071232031258AA1259E2
:1027F300EE7A071231AC900145125C2A5402C313DE
:10280300125955C007C00612591C1262EF7D0A12F5
:1028130058B8125A85D0E0F0A3D0E0F07FB7123059
:10282300495401125955C007C00612591CAE6AAF6C
:102833006B1258BB125A85D0E0F0A3D0E0F07D5361
:102843001231487475F0A31258F97D75125F1D1289
:10285300C4459003A4E07003022F0D1258AA7BFF16
:102863007A34790612593B7D771259D712A73390E0
:102873000113E075F064125909125A557F00200ABA
:10288300027F01125F6CB403047D0180027D00129C
:102893005C361258DBFAA3E0FB1258AA7FB612315A
:1028A300F3900113E075F00A125909125A557F008B
:1028B300200A027F01125F6CB403047D0180027D54
:1028C30000125C361258DBFAA3E0FB1258AA7FBF52
:1028D3001231F3900113E012590A125A557F002066
:1028E3000A027F01125F6CB403047D0180027D0044
:1028F300125C361258DBFAA3E0FB1258AA7D77125A
:1029030031FB1258AA1262F612593B7D77123175C8
:10291300125FC37488F0A31258F97D88125F1D12E9
:10292300C4459003A4E07003022F0D1258AA7BFF45
:102933007A33793812593B7D8A1259D712A73390CB
:1029430000DEE075F064125909125A557F00200A1F
:10295300027F01125F6CB404047D0180027D0012CA
:102963005C361258DBFAA3E0FB1258AA7D8A1232B6
:102973000F9000DEE075F00A125909125A557F00D4
:10298300200A027F01125F6CB404047D0180027D82
:1029930000125C361258DBFAA3E0FB1258AA7D8AB8
:1029A30012324D9000DEE012590A125A557F002070
:1029B3000A027F01125F6CB404047D0180027D0072
:1029C300125C361258DBFAA3E0FB1258AA7D8A1276
:1029D30031FB1258AA1262FD12593B7D8A1231C291
:1029E3009003A4E0022F0D9004B7E0FF9004BBE036
:1029F3006F7003022A80EF122FF1125B801231688D
:102A0300125B7A7D621231DC125B7A7D751231DCE6
:102A1300125B7A7B76FA7D88123245300A5F900426
:102A2300B7E014601C146020146029146032146031
:102A33003B24057048125D747412125A397D148058
:102A430035125A317D28802E125D747411125A3951
:102A53007D4F8022125D747411125A397D62801683
:102A6300125D747411125A397D75800A125D747483
:102A730011125A397D88FC7F65FE12C1859003A42B
:102A8300E0B401047F0080059004B7E0FFEF147009
:102A930003022B2B147003022C09147003022CFB6A
:102AA300147003022DFF147003022E4E24056003DD
:102AB300022F0D302C067AF87B0080047AFF7BFF0F
:102AC300C002C0031258AA7A34790F125CB1D00342
:102AD300D0021231E73031067A847B1080047AFF0A
:102AE3007BFFC002C003125A74D003D0027D157C51
:102AF300007F687E0012C5493031067A847B1080DE
:102B0300047AFF7BFFC002C003125A8FD003D002A6
:102B1300125C9712C549125FC37427F0A31258F9C8
:102B23001231347003022F0D1258AA7A3479181215
:102B33005CB17BE07AFF7D2B1259D712A733125871
:102B4300AA125BB97BE07AFF7D3C1259D712A733F7
:102B5300900487125943C007C00612591CAE5CAFDC
:102B63005D7C037DE81258B8125A85D0E0F0A3D0FB
:102B7300E0F07F8A123079125F7E125955C007C088
:102B83000612591C1263047D641258B8125A85D078
:102B9300E0F0A3D0E0F07D2C12317F1258AA125935
:102BA300EE7D3D1230C1900487125C2A5402C31398
:102BB300125955C007C00612591C1263047D0A122C
:102BC30058B8125A85D0E0F0A3D0E0F07FB71230A6
:102BD300795401125955C007C00612591CAE5CAF97
:102BE3005D1258BB125A85D0E0F0A3D0E0F07BE031
:102BF3007AFF7D2C1231CC744EF0A31258F91231A6
:102C0300987003022F0D1258AA7BFF7A34791D1294
:102C1300593B7D501259D712A73390008FE075F0BE
:102C230064125909125A557F00200A027F01125D6E
:102C33000EB402047D0180027D00125C361258DB63
:102C4300FAA3E0FB1258AA7D50FC7FADFE12A73316
:102C530090008FE075F00A125909125A557F00202F
:102C63000A027F01125D0EB402047D0180027D0021
:102C7300125C361258DBFAA3E0FB1258AA7D5012FD
:102C8300320F7F00200A027F01125D0EB402047D21
:102C93000180027D00125C361258DBFAA3E0FBC010
:102CA30002C0031258AA125A27D003D0027D501231
:102CB300323390008FE012590A125A557F00200ACE
:102CC300027F01125D0EB402047D0180027D0012B9
:102CD3005C361258DBFAA3E0FB1258AA7D5012327D
:102CE3002B1258AA12615F12593B7D501231759015
:102CF30003A4E07003022F0D1258AA7BFF7A3479E4
:102D03002812593B7D631259D712A733125D207DD8
:102D130064125AEF9001491258C2125A5A7F002086
:102D23000A027F01125D0EB403047D0180027D005F
:102D3300125C361258DBFAA3E0FB1258AA7D63FC3F
:102D43007FADFE12A733125D207D0A125AEF900168
:102D5300491258C2125A5A7F00200A027F01125D9B
:102D63000EB403047D0180027D00125C361258DB31
:102D7300FAA3E0FB1258AA7D6312323D7F00200ABA
:102D8300027F01125D0EB403047D0180027D0012F7
:102D93005C361258DBFAA3E0FBC002C0031258AA48
:102DA300125A27D003D0027D63123233900090E091
:102DB300FEA3E0FF125AF29001491258C2125A5A66
:102DC3007F00200A027F01125D0EB403047D01809F
:102DD300027D00125C361258DBFAA3E0FB1258AAFC
:102DE3007D6312322B1258AA12615F12593B7D6325
:102DF3001231C29003A4E07003022F0D1258AA7B74
:102E0300FF7A34793112593B7D761259D712A733A1
:102E1300900088125EFC125A557F00200A027F013F
:102E2300125D0EB404047D0180027D00125C361233
:102E330058DBFAA3E0FB1258AA7D76FC7FCAFE1288
:102E4300A7339003A4E07003022F0D1258AA7BFF4F
:102E53007A34793A12593B7D891259D712A73390A4
:102E63000057E075F064125909125A557F00200A81
:102E7300027F01125D0EB405047D0180027D001204
:102E83005C361258DBFAA3E0FB1258AA7D89123292
:102E93003D900057E075F00A125909125A557F0008
:102EA300200A027F01125D0EB405047D0180027DBC
:102EB30000125C361258DBFAA3E0FB1258AA7D8994
:102EC30012324D900057E012590A125A557F0020D2
:102ED3000A027F01125D0EB405047D0180027D00AC
:102EE300125C361258DBFAA3E0FB1258AA7D89FC68
:102EF3007FC8FE12A7331258AA1262FD12593B7DF6
:102F0300897C007FD27E0012A733E49003A4F022D1
:102F1300EFF09009BBE4F0A37412F0E4A3F0A3F084
:102F23007B76FA7D14FC7F65FE12C1859009BBE4B4
:102F3300F0A37425F0E4A3F0A3F07B76FA7D28FCDC
:102F43007F65FE12C1859009BBE4F0A37425F0E40C
:102F5300A3F0A3F07B76FA7D4FFC7F65FE12C1855B
:102F63009009BBE4F0A322F07BFF7A077D2C7C0061
:102F73007F8A7E0012BF6822F07BFF7A077D2C7C5C
:102F8300007F9C7E0012BF68227BE07A077D7A7CFB
:102F9300007E0012BF6890013CE02465F582E434B2
:102FA30000F583E0227BE07AFF7D537C007E0012F4
:102FB300BF6890013EE02465F582E43400F583E0C8
:102FC30022F07BFF7A077D2C7C007FC97E0012BF35
:102FD30068227BE07AFF7D7A7C007E0012BF6890D6
:102FE3000140E02465F582E43400F583E022F090AB
:102FF30009BBE4F0A37412F0E4A3F0A3F07B76FA28
:103003007D14FC7F65FE12C1859009BBE4F0A374B7
:1030130025F0E4A3F0A3F07B76FA7D28FC7F65FE20
:1030230012C1859009BBE4F0A3227BFF7A077D2CB4
:103033007C007E0012BF68900142E02465F582E4C3
:103043003400F583E0227BFF7A077D537C007E000A
:1030530012BF68900145E02465F582E43400F583EE
:10306300E0227BDC7A007D277C007F647E0012C433
:10307300459003A4E0227BE07AFF7D2C7C007E0058
:1030830012BF68900487E02465F582E43400F58379
:10309300E0227BDC7A007D4E7C007F647E0012C4DC
:1030A300459003A4E0227D537C007E0012BF68900C
:1030B300013BE02465F582E43400F583E0227BE004
:1030C3007AFF7C007FAE7E0012A733227BE07A0773
:1030D3007D7A7C007E0012BF68227BDC7A007D75DE
:1030E3007C007F647E0012C4459003A4E0227A072B
:1030F3007D3D7C007FAE7E0012A733227BE07AFF0A
:103103007D537C007E0012BF68227BFF7A077D2CF3
:103113007C007E0012BF68227B76FA7D76FC7F6599
:10312300FE12C185227BE07C007FAE7E0012A733B6
:10313300227BDC7A007D277C007F647E0012C445FD
:103143009003A4E0227BFF7A077C007FC97E0012F4
:10315300BF689009C5E4F0A3227D167C007F807EC2
:103163000012A733227B76FA7D4FFC7F65FE12C1E6
:1031730085227C007FD27E0012A733227BE07AFF78
:103183007C007F9C7E0012BF68227B76FAFC7F6501
:10319300FE12C185227BDC7A007D4E7C007F647E3B
:1031A3000012C4459003A4E0227D647C007FAE7EC0
:1031B3000012A7332212C5499009C5E4F0A3227C6B
:1031C300007FD27E0012A733227C007FC97E0012CB
:1031D300BF689009C5E4F0A3227B76FAFC7F65FE05
:1031E30012C185227D167C007F807E0012A73322C8
:1031F3007D77FCFE12A73322FC7FC8FE12A7332281
:103203007D537C007F9C7E0012BF6822FC7FB6FE4C
:1032130012A73322FC7F65FE12C185227D157C0037
:103223007F687E0012C54922FC7FC8FE12A73322A5
:103233007C007FBF7E0012A73322FC7FB6FE12A75D
:103243003322FC7F65FE12C18522FC7FBFFE12A7DD
:1032530033223000310032003300340035003600B1
:103263003700380039004100420043004400450064
:103273004600B0A100B0C900B4E700B6BC00B6EE8A
:1032830000B8B100B8E800BAA300CDBC0088440080
:10329300B7F100CAC700CAE4B3F6C1E3B5E300B5AA
:1032A300E7D1B9CFB5CAFD00B5E7C1F7CFB5CAFDC0
:1032B30000B1C8C0FDCFB5CAFD00B5E7D1B9C1E3C0
:1032C300B5E300B5E7C1F7C1E3B5E300CEC2BFD8AC
:1032D30000B3A3BFAA00B3A3B1D500B9D800BFAA56
:1032E300002020D5FDB3A3002020C8A1B7B400203F
:1032F30020D0A1CAFD002020B9D8B1D500D5D3D2A2
:1033030000D5D7F300B7B4D3D200B7B4D7F300CB0B
:10331300E3B7A83100CBE3B7A8320020202020B9BF
:10332300D80020202020BFAA00CEB4C6F4D3C30007
:10333300D7AACBD900D5BCBFD5B1C800D7D4C7D085
:10334300BBBB00D5FDB3A300BDBBBBBB0031360087
:10335300203800203400203200203100B1EA00413F
:103363004443CDA8D1B6B9CAD5CF4000BDC500509E
:10337300313530432050726F00456C656374726F52
:103383006E6963204C6F616400CAFDBFD8B5E7D78F
:10339300D3B8BAD4D80056312E3000446573696768
:1033A3006E656420627920636E77616E732E636F3E
:1033B3006D00BAE3C1F7C4A3CABD00D4CBD0D0001B
:1033C300B5E7C1F7006000BDD8D6B900B5E7D1B9FC
:1033D30000BCC6CAB100CDA3D6B9002400D7D4B669
:1033E300AFB2E2CAD400B4F8D4D800D0B6D4D8006F
:1033F300B6AFCCACB2E2CAD400B7E5D6B500B9C813
:10340300D6B500D6DCC6DA0073002500BAE3D1B91D
:10341300C4A3CABD00B8F8B6A800BDD8D6B9B5E7ED
:10342300C1F7002E00CFDEC1F7E3D0D6B500CFDE63
:10343300C1F7CDA3D6B900B5F7D5FBC2CA00B2CE4A
:10344300CAFDD0A3D7BC00B5E7D1B9D1A1CFEE0057
:10345300BCECB2E2B5E7D1B900B9FDD1B9B1A3BBB8
:10346300A4005600C4DAD7E8B9C0CBE300B6CFCF87
:10347300DFB5E7D1B900BDBBC1F7B2E2C1BF00B54B
:10348300E7C1F7D1A1CFEE00B5E7C1F7CFDED6C6CE
:1034930000B9FDC1F7B1A3BBA400B1A3BBA4D1D3B1
:1034A300CAB100C9CFC9FDD0B1C2CA005E00CFC244
:1034B300BDB5D0B1C2CA00B9A6C2CAD1A1CFEE0070
:1034C300B9A6C2CACFDED6C6005700B9A6C2CAB1D2
:1034D300A3BBA400CAB5CAB1B5E7C1F7CFDED6C650
:1034E30000C9A2C8C8D1A1CFEE00B7E7C9C8BFD8E9
:1034F300D6C600CEC2BFD8E3D0D6B500C9E300B963
:10350300FDCEC2B1A3BBA400D7AACBD9B1A3BBA4A0
:10351300007200CEC2B6C8D0A3D7BC007800CDE2FB
:10352300CEC2B1A3BBA400CCE1CABED2F4D1A1CF19
:10353300EE00B0B4BCFCC9F9D2F400D0FDB1E0C9CF
:10354300F9D2F400CFB5CDB3B8E6BEAFD2F400B52F
:10355300E7C1F7D2ECB3A3B8E6BEAF00D0FDB1E04C
:10356300D1A1CFEE00D5FDCFF2C8ABB2A800B7B45E
:10357300CFF2C8ABB2A800D5FDCFF2B0EBB2A80032
:10358300B7B4CFF2B0EBB2A8002000B6E0B9A6C43E
:10359300DC492F4F00B9FDD1B9B1A3BBA4CAE4B331
:1035A300F600B3E4B5E7CAB9C4DCCAE4B3F600C6AF
:1035B300F4CDA3D0C5BAC5CAE4B3F600C6F4CDA30F
:1035C300D0C5BAC5CAE4C8EB00CDE2D6C3CEC2B6F5
:1035D300C8CAE4C8EB00B7E7C9C8C6F4CDA3CAE4B8
:1035E300B3F600CFD4CABED1A1CFEE00B1B3B9E2D6
:1035F300C1C1B6C800D0FDD7AACFD4CABE00CFA2DE
:10360300C6C1D1D3CAB1006D00C6C1C4BBB2CECA54
:10361300FD00D7D6CCE5D1A1CFEE00C4ACC8CFD73F
:10362300D6CCE500CAFDC2EBB9DC00CBCECCE500BD
:10363300BAE8C3C9CCE500C6E4CBFBD1A1CFEE0009
:10364300B4F8D4D8D1D3CAB100BCABD0D4D6B8CA9D
:10365300BE00B6CFB5E7B1A3B4E600D0A3D7BCC9CB
:10366300E8D6C3BCFC00B5E7C1F7D4F6D2E6004DFB
:103673004F44425553B5D8D6B700B9D8D3DAC9E8C1
:10368300B1B800D3B2BCFE3A56312E3000B9CCBC2F
:10369300FE3A00323032362E303100C7FDB6AF3A33
:1036A30047433932303300C7FDB6AF3A494C493945
:1036B300323235470049443A004B45593A00732E9C
:1036C300636E77616E732E636F6D003A00B7FC0013
:1036D300B0B200CDDF00416800576800B5C000CA32
:1036E300D3007E007D005D007B007C00D7A900C66F
:1036F300A4002D002B00CDA3D6B9D4CBD0D040004D
:10370300CDA3D6B9D4CBD0D02CB4A5B7A2BDD8D62F
:10371300B9B5E7D1B94000CDA3D6B9D4CBD0D02C1D
:10372300B4A5B7A2B5B9BCC6CAB1CDA3D6B940003A
:10373300CDA3D6B9D4CBD0D02CCEC2B6C8B9FDB8A0
:10374300DFB1A3BBA44000CDA3D6B9D4CBD0D02C3A
:10375300B9FDB9A6C2CAB1A3BBA44000CDA3D6B9D3
:10376300D4CBD0D02CB7E7C9C8D7AACBD9B9FDB52C
:10377300CD4000CDA3D6B9D4CBD0D02CB8BAD4D8B1
:10378300B6CFCFDF4000CDA3D6B9D4CBD0D02CB9A0
:10379300FDC1F7B1A3BBA44000C9E8B6A8BDD8D604
:1037A300B9B5E7D1B9B8DFD3DAB5B1C7B0B5E7D1A9
:1037B300B94000C9E8B6A8B9A6C2CAB9FDB8DF4086
:1037C30000BEAFB8E62CCAE4C8EBB5E7D1B9B9FD82
:1037D300B8DF4000CDA3D6B9D4CBD0D02CB8BAD45F
:1037E300D8CEDEB7A8BAE3C1F74000CDA3D6B9D48B
:1037F300CBD0D02CCDE2D6C3CEC2B6C8B9FDB8DF8C
:10380300B1A3BBA44000CDE2B2BFBFD8D6C6CDA3FF
:10381300D6B9D4CBD0D04000CDA3D6B9D4CBD0D059
:103823002CBCC6C1BFB3ACCFDE4000CDA3D6B9D448
:10383300CBD0D02CB8BAD4D8B1A3BBA43A4000B8EB
:10384300F8B6A8B5E7D1B9B8DFD3DAB5B1C7B0B523
:10385300E7D1B94000CDA3D6B9D4CBD0D02CB4A5F1
:10386300B7A2BDD8D6B9B5E7C1F74000B8F8B6A836
:10387300B5E7D1B9D1B9B2EEB9FDB4F34000CDA3E8
:10388300D6B9D4CBD0D02CB8BAD4D8CEDEB7A8BA58
:10389300E3D1B94000D5FDD4DAD4CBD0D04000B6C3
:1038A300AFCCACD4CBD0D0D6D04000CDE2B2BFBFEA
:1038B300D8D6C6D4CBD0D04000D5FDD4DAD4CBD023
:1038C300D02CC4DAD7E8D4BC00BAC14000D5FDD4AB
:1038D300DAD4CBD0D02CCEDEB7A8B2E2C1BFC4DAE3
:1038E300D7E84000B6E0B9A6C4DC494FCAB9C4DC86
:1038F300B3E4B5E7D6D04000B5C8B4FDB4A5B7A2CC
:10390300B4F8D4D8B5E7D1B94000B4A5B7A2B4F898
:10391300D4D8B5E7D1B92CD5FDD4DAD4CBD0D040A7
:1039230000B4A5B7A2B4F8D4D8B5E7D1B92CD1D394
:10393300CAB1B5C8B4FDD6D040000E800E6C0E5689
:103943000E400E290E110DF80DDE0DC30DA80D8BC3
:103953000D6E0D500D310D100CF00CCE0CAB0C8810
:103963000C630C3E0C180BF10BCA0BA20B790B501A
:103973000B260AFB0AD00AA50A790A4D0A2009F385
:1039830009C60999096B093E091008E208B50887B9
:10399300085A082C080007D307A6077A074F0723FE
:1039A30006F806CE06A4067B0652062A060205DBA7
:1039B30005B5058F056A0546052204FF04DD04BB32
:1039C300049B047A045B043C041E040103E403C85F
:1039D30003AD0393037903600347032F0318030124
:1039E30002EB02D602C102AD0299028602740262A0
:1039F3000250023F022E021E020F020001F101E3F8
:103A030001D501C801BB01AE01A20196018B017F63
:103A13000175016A01600156014D0143013A01320A
:103A23000129012101190111010A010300FC00F51B
:103A330000EE00E800E100DB00D600D000CA00C5BC
:103A430000C000BB00B600B100AD00A800A400A0F8
:103A5300009B009800940090008C008900850082F0
:103A6300007F007C0079007600730070006D006BAE
:103A73000068006600630061005E005C005A005845
:103A83000056005400520050004E004C004B0049B9
:103A9300004700460044004300410040003E003D13
:103AA300003C003A00390038003700360034003358
:103AB300003200310030002F002E002D002C002B8F
:103AC300002A002A002900280027002600260025B6
:103AD3000024002300230022002100210020001FD6
:103AE300001F001E001E001D001D001C001C001BEB
:103AF300001B001A0000000008183878F8783818FE
:103B0300080000000000000010181C1E1F1E1C18D7
:103B130010000000000000003C4299BDBD99423CEA
:103B23000000000000007C10101010101010101086
:103B3300107C00000000FC424141414141414141B0
:103B430042FC00000000E7424448506844444242BB
:103B530042E700000000FF414040427E42404040B7
:103B630041FF00000000E341222214140808080862
:103B7300081C0000000000000018180000001818BE
:103B830000000000000007E01FF83FFC3FFC7C3E04
:103B9300781E781E781E781E781E781E781E781E72
:103BA300781E781E781E781E781E781E781E781E62
:103BB300781E781E781E7C3E3FFC3FFC1FF807E012
:103BC30000000000000000F001F003F007F00FF028
:103BD3001FF01EF01CF018F010F000F000F000F0E1
:103BE30000F000F000F000F000F000F000F000F052
:103BF30000F000F000F000F000F000F000F000F042
:103C030000000000000007E01FF83FFC3FFC7C3E83
:103C1300781E781E781E001E003E003C007C00F8D3
:103C230000F001F003E003C007C00F800F001F0086
:103C33003E003C007C0078007FFE7FFE7FFE7FFE1F
:103C430000000000000007E01FF83FFC3FFC7C3E43
:103C5300781E781E781E001E001E001E003E03FC08
:103C630003F803F803FC003E001E001E001E001EA6
:103C7300781E781E781E7C3E3FFC3FFC1FF807E051
:103C83000000000000000078007800F000F000F071
:103C930001E001E001E003C003C003C00780078027
:103CA30007800F780F780F781E781E781E783C787F
:103CB3003C783FFE7FFE7FFE7FFE00780078007831
:103CC3000000000000007FFE7FFE7FFE7FFE780085
:103CD30078007800780078007BE07FF87FFC7FFC39
:103CE3007C3E781E781E001E001E001E001E001E55
:103CF300781E781E781E7C3E3FFC3FFC1FF807E0D1
:103D030000000000000007E01FF83FFC3FFC7C3E82
:103D1300781E781E780078007BE07FF87FFC7FFCBC
:103D23007C3E781E781E781E781E781E781E781EBC
:103D3300781E781E781E7C3E3FFC3FFC1FF807E090
:103D43000000000000007FFE7FFE7FFE7FFE781EE6
:103D5300781E783C003C003C003C007800780078FA
:103D6300007800F000F000F000F001E001E001E075
:103D730001E003C003C003C007C0078007800780BA
:103D830000000000000007E01FF83FFC3FFC7C3E02
:103D9300781E781E781E781E781E781E7C3E3FFCA7
:103DA3001FF81FF83FFC7C3E781E781E781E781E95
:103DB300781E781E781E7C3E3FFC3FFC1FF807E010
:103DC30000000000000007E01FF83FFC3FFC7C3EC2
:103DD300781E781E781E781E781E781E781E781E30
:103DE300781E7C3E3FFE3FFE1FFE07DE001E001EC8
:103DF300001E781E781E7C3E3FFC3FFC1FF807E048
:103E030000000000000003C00FF01E783C3C3C3C67
:103E1300781E781EF81FF00FF00FF00FF00FF00F61
:103E2300F00FF00FF00FF00FF00FF00FF00FF00F97
:103E3300F81F781E781E3C3C3C3C1E780FF003C0F4
:103E430000000000000001C003C007C03FC03FC026
:103E53003FC003C003C003C003C003C003C003C00B
:103E630003C003C003C003C003C003C003C003C037
:103E730003C003C003C003C003C003C003C003C027
:103E830000000000000007F01FF83C3C781E700E95
:103E9300F00FF00FF80FF80FF80F000F001E003CA3
:103EA300007800F800F001E003C007800F001F0056
:103EB3001E003C007801F003F007FFFFFFFFFFFF48
:103EC3000000000000000FF03FFC7C3E781EF81F4E
:103ED300F00FF00FF00F000F001F001E003E01FC5B
:103EE30001F001FC003E001E001F000F000F000F39
:103EF300F00FF00FF00FF81F781E7C3E3FFC0FF021
:103F03000000000000000078007800F800F801F8D5
:103F130001F803F803F807F807780F780E781E788E
:103F23001C783C78387878787078F078FFFFFFFF5A
:103F330000780078007800780078007807FF07FFA2
:103F43000000000000001FFC1FFC1FFC1C003800C9
:103F53003800380038007000700077F07FFCFC3EBA
:103F6300F81EF81FF00F000F000F000F000F000FD7
:103F7300F00FF00FF00FF81F781E7C3E3FFC0FF0A0
:103F8300000000000000007801F007C00F001E00D1
:103F93003C003C0078007800F800FFE0FFF8FFFCED
:103FA300FC3EF81EF81FF00FF00FF00FF00FF00FAC
:103FB300F00FF00FF00F781E781E3C3C1FF807E05F
:103FC300000000000000FFFFFFFFFFFFE007C00F3E
:103FD300800E001E001C003C00380078007000F0CA
:103FE30000F001E001E001E003C003C003C003C02F
:103FF30007C007C007C007C007C007C007C007C086
:104003000000000000000FF03FFC7C3E781EF81F0C
:10401300F00FF00FF00FF00F781E781E3C3C0FF0FE
:104023000FF03C3C781E781EF00FF00FF00FF00FEE
:10403300F00FF00FF00FF81F781E7C3E3FFC0FF0DF
:1040430000000000000007E01FF83C3C781E781ECB
:10405300F00FF00FF00FF00FF00FF00FF00FF00F65
:10406300F81F781F7C3F3FFF1FFF07FF001F001E45
:10407300001E003C003C007800F003E00F801E00AF
:104083000000000000007FFEBFFDDFFBE007E0074C
:10409300E007E007E007E007E007E007E007C00309
:1040A300800100008001C003E007E007E007E007AC
:1040B300E007E007E007E007E007DFFBBFFD7FFE67
:1040C30000000000000000000001000300070007DB
:1040D30000070007000700070007000700070003A9
:1040E30000010000000100030007000700070007AC
:1040F3000007000700070007000700030001000096
:104103000000000000007FFE3FFD1FFB00070007CB
:104113000007000700070007000700070007000368
:104123003FFD7FFEBFFCC000E000E000E000E000D8
:10413300E000E000E000E000C000DFF8BFFC7FFE2D
:104143000000000000007FFE3FFD1FFB000700078B
:104153000007000700070007000700070007000328
:104163003FFD7FFE3FFD0003000700070007000738
:10417300000700070007000700071FFB3FFD7FFE46
:1041830000000000000000008001C003E007E0071A
:10419300E007E007E007E007E007E007E007C00308
:1041A300BFFD7FFE3FFD0003000700070007000778
:1041B30000070007000700070007000300010000D5
:1041C3000000000000007FFEBFFCDFF8E000E0001D
:1041D300E000E000E000E000E000E000E000C000FC
:1041E300BFFC7FFE3FFD0003000700070007000739
:1041F300000700070007000700071FFB3FFD7FFEC6
:104203000000000000007FFEBFFCDFF8E000E000DC
:10421300E000E000E000E000E000E000E000C000BB
:10422300BFFC7FFEBFFDC003E007E007E007E00738
:10423300E007E007E007E007E007DFFBBFFD7FFEE5
:104243000000000000007FFE3FFD1FFB000700078A
:104253000007000700070007000700070007000327
:10426300000100000001000300070007000700072A
:104273000007000700070007000700030001000014
:104283000000000000007FFEBFFDDFFBE007E0074A
:10429300E007E007E007E007E007E007E007C00307
:1042A300BFFD7FFEBFFDC003E007E007E007E007B7
:1042B300E007E007E007E007E007DFFBBFFD7FFE65
:1042C3000000000000007FFEBFFDDFFBE007E0070A
:1042D300E007E007E007E007E007E007E007C003C7
:1042E300BFFD7FFE3FFD0003000700070007000737
:1042F300000700070007000700071FFB3FFD7FFEC5
:1043030000000000000007E01FF83FFC7C3E700E39
:10431300F00FE007E007E007E007E007E007E0074A
:10432300E007E007E007E007E007E007E007E00752
:10433300E007E007F00F700E7C3E3FFC1FF807E03C
:1043430000000000000001C007C01FC07FC079C08B
:1043530061C001C001C001C001C001C001C001C0F2
:1043630001C001C001C001C001C001C001C001C042
:1043730001C001C001C001C001C001C001C001C032
:1043830000000000000007E01FF83FFC7C3E700EB9
:10439300F00FE007600700070007000F000E001E84
:1043A300003C0078007800F001E003C003C0078000
:1043B3000F001E001C003C007800FFFFFFFFFFFF03
:1043C30000000000000007E01FF83FFC7C3E700E79
:1043D300F00FE007600700070007000F000E003E24
:1043E30003FC03F803FC003E000F000F0007000767
:1043F3006007E007F00F700E7C3E3FFC1FF807E0FC
:1044030000000000000000E000E000E001C001C087
:104413000380038003800700070007000E000E00DF
:104423001C001C001C38383838383838703870385D
:10443300FFFFFFFFFFFF0038003800380038003867
:104443000000000000001FFE1FFE1FFE1C001C00DA
:1044530038003800380038003800700077E07FF803
:104463007FFCFC3EF00EF00F60070007000700071B
:104473006007E007F00F700E7C3E3FFC1FF807E07B
:1044830000000000000000E000E001E001C003C004
:104493000380078007000F000E001E001FE03FF897
:1044A3003FFC7C3E700EF00FE007E007E007E007FB
:1044B300E007E007F00F700E7C3E3FFC1FF807E0BB
:1044C300000000000000FFFFFFFFFFFF000E000ED3
:1044D300001E001C001C00380038007800700070BB
:1044E30000F000E000E001C001C003C003800380CE
:1044F300070007000F000E000E001E001C000C003A
:1045030000000000000007E01FF83FFC7C3E700E37
:10451300F00FE007E007E007E007F00F700E7C3EC6
:104523003FFC1FF83FFC7C3E700EF00FE007E007F6
:10453300E007E007F00F700E7C3E3FFC1FF807E03A
:1045430000000000000007E01FF83FFC7C3E700EF7
:10455300F00FE007E007E007E007E007E007F00FF0
:10456300700E7C3E3FFC1FFC07F80078007000F0E3
:1045730000E001E001C003C00380078007000700DB
:10458300000000009009AF7402125B82A3F0303187
:10459300067A077BE080047AFF7BFFC002C0031228
:1045A30058F67BFF3003067A3679DF80047A367952
:1045B300E2125A5AD003D0027D027C007FFD7EFFB7
:1045C30012A73320030302465B1258F67BFF7A36A9
:1045D30079E512593B7F0F1256C6125FD07C007DDE
:1045E3003C125B29125B2C9001491258C2125A5A91
:1045F3001258F61255A9125FD07C007D3C125B293C
:104603009001491258C2125A5A1258F61255B91249
:104613005FD0125C67125B299001491258C2125A8B
:104623005A1258F61255EA125FD0125C6712698863
:104633009001491258C2125A5A1258F61255FA905A
:104643000456E075F00A125909125A551258F61217
:10465300566A9004560246E0AE50AF517C007D642A
:10466300125AEF9001491258C2125A5A1258F67F41
:104673000F1256ACAE50AF517C007D0A125AEF9028
:1046830001491258C2125A5A1258F61255A9AE507D
:10469300AF51125AF29001491258C2125A5A125883
:1046A300F61255B990047CE075F00A125909125AB2
:1046B300551258F61255EA90047CE012590A125A20
:1046C300551258F61255FA90046DE075F00A125916
:1046D30009125A551258F612566A90046DE012598F
:1046E3000A125A551258F67F531256AC12CE6E90D8
:1046F3000471E0640460030248279003A5E06401A9
:1047030060030247A11258F67BFF7A3679E7125904
:104713003B7D02125F2112A733D3E565940FE56455
:10472300648094A7403F1258EF7BFF7A3679E912F1
:10473300593B7F6F7E0012A7337C277D10125B25C8
:104743009001491258C21258E91256E7125B2190A0
:1047530001491258C21258E97F8112575A1263B4A1
:104763007D640248BD125B219001491258C2125860
:10477300E97F6F12575A1263B47D64125B2990016B
:10478300491258C21258E91256E71258F612631228
:1047930012593B1256BA1263B47D0A0248BD126322
:1047A30045404E1258F67A3679EB12568812635109
:1047B300400B1254F91257E27D64024879AE56AFAA
:1047C300577C037DE8125B299001491258C21258A5
:1047D300E91255C91258C21258E97F781261FC12C6
:1047E300A7331258F6125A2712562B1260F90248B1
:1047F300791258F67BFF7A3679EB12593B12560A37
:104803001258C21258E91256491258C21258E912E4
:1048130057211258F612631212593B1256BA1260FC
:10482300F90248BD126345405F1258F67A3679EDB6
:10483300125688126351400A1254F91257E27D64EA
:104843008034AE56AF577C037DE8125B2990014953
:104853001258C21258E91255C91258C21258E97BAC
:10486300007AF87F787E0012A7331258F6125A277F
:1048730012562B1260F9125B299001491258C21289
:1048830058E97B007AF880421258F67BFF7A367932
:10489300ED12593B12560A1258C21258E9125649E0
:1048A3001258C21258E91257211258F61263121203
:1048B300593B7F811256C61260F9125B2990014958
:1048C3001258C21258E974FFFBFA7F8A7E0012A7BE
:1048D3003312CE6E90037BE0607D301E067A077B39
:1048E300E080047AFF7BFFC002C0031258F67A36D9
:1048F30079EF1263AED003D002125743AE40AF41FB
:104903007C037DE8125B299001491258C21258E9D1
:104913001257B3AE40AF417C007D64125B29900116
:10492300491258C21258E9125808AE40AF417C00F0
:104933007D0A125B299001491258C21258E9125894
:104943004CAE40AF41125B2C9001491258C2125831
:10495300E974FFFB0249FC301E067A077BE0800402
:104963007AFF7BFFC002C0031258F67BFF7A3679C9
:10497300F2A3126CDAD003D002125743126203403F
:1049830020AC46AD47EC1266D57B337A3379237876
:104993004112663312670E9009B1EEF0A3EFF08077
:1049A30007E49009B1F0A3F09009B1125D237D648F
:1049B300125AEF9001491258C21258E91257B39094
:1049C30009B1125D237D0A125AEF9001491258C2B0
:1049D3001258E91258089009B1E0FEA3E0FF125AF9
:1049E300F29001491258C21258E912584C1258EF6A
:1049F3001262FDA3126CDA74FFFA7FD27E0012A753
:104A03003312CE6E9009AF7417F0E47F0F7E271236
:104A13005A4DD3126BB25003024AB020140DD21474
:104A2300125DCA7420125B821257CA12591CC083CA
:104A3300C082125F2890007D125970D082D08312F9
:104A43005B581258CA12597F7F0212578A12591C97
:104A5300C083C08290007D125969D082D083125BDB
:104A6300581258CA12597F1257D712591CC083C003
:104A730082125EF490007D125970D082D083125B53
:104A8300581258CA12597F7F261258381258AA1240
:104A930059EE7F3912576412591CC083C082125CCD
:104AA300C790007D125ADF125CC7024B3C30140DD5
:104AB300C214125DCA7420125B821257CA12591CA7
:104AC300C083C082125CA990007D125970D082D03D
:104AD30083125B581258CA12597F7F021258381238
:104AE300591CC083C082125EF490007D125970D0AD
:104AF30082D083125B581258CA12597F1257D712A9
:104B030058AA1259EE7F2712576412591CC083C04A
:104B130082125CC790007D125970D082D083125BE1
:104B2300581258CA12597F7F3012578A12591CC023
:104B330083C082125CC7125F1712CEB5D082D083B6
:104B4300125B581258CA12597F7BE07AFF7F42FEEC
:104B530012BF689000C2E014601E146032146069D2
:104B63002403707A1258AA7BFF301D067A3679F532
:104B730080187A3679F780121258AA7BFF301D0607
:104B83007A3679F780047A3679F59009BD8044E462
:104B93007F0F7E27125A4DD3126BB24016125CC799
:104BA30090007D125ADFEB1259A9EA75F003A42590
:104BB300838007900081E012591012589F7BE07A9E
:104BC300FF7D15FC7F56FE80121258AA7BFF7A35B3
:104BD300798CA3126CDA7D15125AF912A73312CE0F
:104BE3006E743812619B125C535003024C7F201683
:104BF3000DD216125DCA7420125B8212581F12590D
:104C03001CC083C08212610290006F125970D0825F
:104C1300D083125B581258CA12597F7F02125793DE
:104C230012591CC083C082125F2890006F12597002
:104C3300D082D083125B581258CA12597F7F141244
:104C430057F412591CC083C082125CA990006F12E2
:104C53005970D082D083125B581258CA12597F7F81
:104C6300261258581258AA1259EE7F3912582C128C
:104C7300591CC083C082E47B64024D0F30160DC201
:104C830016125DCA7420125B8212581F12591CC07F
:104C930083C082125F2890006F125970D082D08334
:104CA300125B581258CA12597F7F02125858125970
:104CB3001CC083C082125CA990006F125970D0820D
:104CC300D083125B581258CA12597F7BFF7A077F31
:104CD30014FE12BF681258AA1259EE7F2712582CDD
:104CE30012591CC083C082125EF490006F12597077
:104CF300D082D083125B581258CA12597F7F301268
:104D030057F412591CC083C082E47B0AFAF9F89065
:104D1300006F125970D082D083125B581258CA1296
:104D2300597F7F421257939000C2E014601E1460B3
:104D330034146049240370551258AA7BFF301806B7
:104D43007A3679F580187A3679F780121258AA7B69
:104D5300FF3018067A3679F780047A3679F5125AD5
:104D63005A7BFF801E125CC790006F125ADF1258E5
:104D73008E7BFF7A077D36FC7F56FE800D1258AA84
:104D8300125B337A077D36125AFD12A7331263BBC7
:104D9300125A4F125CA612CEB590011C126C7112FE
:104DA300CE6E745912619B90011C125C5650030223
:104DB3004E4090013FE06402600D7402125DC974BD
:104DC30020125B8212577212591CC083C082126177
:104DD3000290011C125970D082D083125B58125872
:104DE300CA12597F7F0C12579C12591CC083C08270
:104DF300125F2890011C125970D082D083125B5825
:104E03001258CA12597F7B1F7AF87F1EFE12BF68A1
:104E130012591CC083C082125966D082D083125BA0
:104E2300581258CA12597F12584112591CC083C0D4
:104E33008290011C125AD9125CC7024FA2E47F0F61
:104E43007E27FDFC90011C125C565003024F0F900D
:104E5300013FE06401600B125DC77420125B821294
:104E6300577212591CC083C082125F2890011C1212
:104E73005970D082D083125B581258CA12597F12CC
:104E8300572D12591CC083C082125966D082D08319
:104E9300125B581258CA12597F12574F12591CC02D
:104EA30083C082125EF490011C125970D082D083A9
:104EB300125B581258CA12597F7F2612579C1258F8
:104EC300AA1259EE7F391257A512591CC083C0820A
:104ED300125CC790011C125970D082D083125B58A8
:104EE3001258CA12597F1257FD9000C2E0B403034F
:104EF300024FB5125CC790011C125ADF12588E7B09
:104F03001F7AF87D57FC7F56FE024FC490013FE0A5
:104F13006018E4F09009B9F0A37420125B827B401F
:104F2300FA7D59FC7F02FE12C79F12591CC083C031
:104F330082125966D082D083125B581258CA125912
:104F43007F12572D12591CC083C082125EF4900148
:104F53001C125970D082D083125B581258CA12594E
:104F63007F12574F1258AA1259EE7F271257A512D4
:104F7300591CC083C082125CC790011C125970D0A7
:104F830082D083125B581258CA12597F12584112A9
:104F9300591CC083C082125CC790011C126C391269
:104FA300CEB5D082D083125B581258CA12597F12E1
:104FB30057FD1258AA125B337B1F7AF87D57125A9A
:104FC300FD12A73312586112587C7F021256DC7B04
:104FD300807A967998780012587C7F0B1256DC7B86
:104FE300407A42790F780012587C7D7A1256F31278
:104FF300610212587C7D7A125708E47B107A2712DB
:10500300587A7D7A1257381258AA125A277D7A1283
:10501300569EE47BE87A0312587A7D7A12577F7B97
:10502300641258787D7A1257BF7B0A1258787D7ABA
:1050330012581412586190009612587F7F0212582A
:105043006D7B807A967998780090009612587F7FCE
:105053000B12586D7B407A42790F780090009612BC
:10506300587F7D8B1256F312610290009612587F7F
:105073007D8B125708125F2890009612587F7D8B04
:105083001257381258AA125A277D8B12569E125C59
:10509300A990009612587F7D8B12577F125EF49071
:1050A300009612587F7D8B1257BF125CC7900096F3
:1050B30012587F7D8B12581412CE6EA21A300F0134
:1050C300B3505AA20F921A30313C9003A3E064010B
:1050D300701EA20F339004BD1259ACE41258CA12C9
:1050E3005A5A7AFF3005027A077BE01258F6802A73
:1050F30012601F1259ACE41258CA125A5A1258F6C7
:105103007BE07A07801412601F1259ACE41258CA6C
:10511300125A5A1258F67B007AF81256D0303103DD
:1051230002535D900485E0FF9000D9E06F700302A5
:1051330054F8EFF0900472E0D39400400F9004858C
:10514300E070047F0280027F01120026125DCA74A0
:1051530014F0A31258F912604012C79F12601F1275
:1051630059ACE41258CA125A5A1258F67B007AF80C
:105173001256D0900485E0126CE351C00051CC016B
:1051830051D80251E40351F00451FC055208065270
:105193001407522008522C0952380A52440B525019
:1051A3000C525C0D52680E52740F52801053121140
:1051B300532312533413534514000053591258F612
:1051C3007BFF7A3679F902531B1258F67BFF7A3745
:1051D300790302531B1258F67BFF7A37791A02536D
:1051E3001B1258F67BFF7A37793302531B1258F69A
:1051F3007BFF7A37794A02531B1258F67BFF7A37C3
:10520300795F02531B1258F67BFF7A377976025384
:105213001B1258F67BFF7A37798902531B1258F613
:105223007BFF7A37799C02531B1258F67BFF7A3740
:1052330079B602531B1258F67BFF7A337962025315
:105243001B1258F67BFF7A3779C402531B1258F6A8
:105253007BFF7A3779D702531B1258F67BFF7A37D5
:1052630079EE02531B1258F67BFF7A387909025301
:105273001B1258F67BFF7A38791B02531B1258F620
:105283007BFF7A38792E12593B7F141256FE900019
:10529300DC1263C1125AEF9001491258C2125A5AD2
:1052A3001258F67FA512563B7D64125AE5900149C8
:1052B3001258C2125A5A1258F67FAE12567A125820
:1052C300F612631212593B7FB71256FE7D0A125A29
:1052D300E59001491258C2125A5A1258F67FC01269
:1052E300563B9000DCE0FEA3E0FF125AF290014926
:1052F3001258C2125A5A1258F67FC912567A1258C5
:10530300F612615F12593B7D9E7C007FD280421270
:1053130058F67BFF7A38794212593B125F5380313A
:105323001258F67BFF7A38795812593B125F538033
:10533300201258F67BFF7A38796F12593B125F536C
:10534300800F1258F67BFF7A38798112593B125F2E
:10535300537E0012A733125E4322900086E0FF9033
:105363000462E06F70030254F8EF125DC97414F025
:10537300A31258F912604012C79F9003A3E0146070
:105383000914603724027033801B12601F1259AC5A
:10539300E41258CA125A5A7AFF3005027A077BE0A0
:1053A3001258F6802A12601F1259ACE41258CA121E
:1053B3005A5A1258F67BE07A07801412601F12596A
:1053C300ACE41258CA125A5A1258F67BE07A071202
:1053D300632812A733900086E0126CE353FB00545A
:1053E3000701541302541F03549C0454AD0554D3B2
:1053F3000654E407000054F81258F67BFF7A387914
:10540300980254CB1258F67BFF7A3879A20254CB18
:105413001258F67BFF7A3879AE0254A51258F67B00
:10542300FF7A3879BC12593B125F537E0012A733BF
:10543300125EF49000A6125970125B551258CA12EC
:105443005A5A1258F67F8D125713125CC79000A652
:10545300125970125B551258CA125A5A1258F67FD3
:1054630096125713125CC79000A6125ADF125B55AF
:105473001258CA125A5A1258F674FFFBFA7F9F1237
:10548300632A12A7331258F67BFF7A3879CC125964
:105493003B7D9E7C007FA980571258F67BFF7A38AC
:1054A30079D012593B125F538046900471E0900902
:1054B300BBB4010B1258F97BFF7A3879E7800912E4
:1054C30058F97BFF7A3879FB12593B125F538020DE
:1054D3001258F67BFF7A39790D12593B125F5380CC
:1054E3000F1258F67BFF7A39792412593B125F5316
:1054F3007E0012A733229009AFE0FD7C009009BB28
:105503007421F0A37404F07BFF7A3679E9A3126C5B
:10551300DA7B007AF87F6F7E0012A733AE56AF575F
:105523007C277D101269887C007D0A1269889001AE
:105533004975F003ED126CAEEC75F003A42583F509
:1055430083126CBA9009BD126CDA9009AFE0FD7C4E
:10555300009009BB7421F0A37404F07B007AF87FF8
:10556300787E0012A733AE56AF577C037DE81269ED
:10557300887C007D0A12698890014975F003ED1259
:105583006CAEEC75F003A42583F583126CBA900915
:10559300BD126CDA9009AFE0FD7C009009BB742169
:1055A300F0A37404F02274FFFBFA7D027C007F18E1
:1055B3007E0012A7332274FFFBFA7D027C007F2159
:1055C3007E0012A733227B007AF87F6F7E0012A73A
:1055D30033AE56AF577C007D641269887C007D0A28
:1055E3001269889001492274FFFBFA7D027C007FD7
:1055F300317E0012A7332274FFFBFA7D027C007F09
:105603003A7E0012A733227D027C007F647E001263
:10561300A733AE56AF577C037DE81269887C007DC3
:105623000A126988900149227B007AF87D027C0086
:105633007F817E0012A7332274FFFBFA7D9E7C00DC
:105643007E0012A7332274FFFBFA7F6F7E0012A73E
:1056530033AE56AF577C007D641269887C007D0AA7
:105663001269889001492274FFFBFA7D027C007F56
:105673004A7E0012A7332274FFFBFA7D9E7C007ED4
:105683000012A733227BFFA3126CDA7B007AF87D2A
:10569300027C007F647E0012A733227B007AFE7CAB
:1056A300007F2F7E0012A7332274FFFBFA7D027C5A
:1056B300007E0012A733227D027C007F817E0012D0
:1056C300A733227D027C007E0012A733227D9E7CBD
:1056D300007F027E0012A73322FB7AFE7D7AFCFE56
:1056E30012A7332274FFFBFA7F787E0012A73322BE
:1056F300FB7AFEFC7F14FE12A733227D9E7C007E84
:105703000012A73322FB7AFEFC7F1DFE12A7332271
:1057130074FFFBFA7D9E7C007E0012A7332274FF88
:10572300FBFA7F787E0012A733227B1F7AF87F0271
:10573300FE12BF6822FB7AFEFC7F26FE12A73322ED
:105743007D027C007FA57E0012A733227B1F7AF89F
:105753007F14FE12BF682274FFFBFA7E0012A73388
:10576300227BE07AFF7D287C007E0012A733227B18
:1057730040FA7D59FC7F02FE12C79F22FB7AFEFC92
:105783007F38FE12A733227BE07AFFFE12BF682226
:105793007BFF7A07FE12BF68227B1F7AF8FE12BFD7
:1057A30068227B1F7AF87D6A7C007E0012A7332271
:1057B30074FFFBFA7FB77E0012A73322FB7AFEFC4D
:1057C3007F41FE12A733227B40FA7D17FC7F02FE46
:1057D30012C79F227BE07AFF7F14FE12BF68227BF1
:1057E300007AF87F817E0012A733AE56AF577C0054
:1057F300227BFF7A07FE12BF68227B1F7AF87F4263
:10580300FE12BF682274FFFBFA7FC07E0012A7332B
:1058130022FB7AFEFC7F4AFE12A733227B40FA7DED
:1058230038FC7F02FE12C79F227A077D497C007EE7
:105833000012A733227BE07AFFFE12BF68227B1F90
:105843007AF87F30FE12BF682274FFFBFA7FC97EAD
:105853000012A733227BFF7A07FE12BF682212CE03
:105863006E7B007AE179F5780522FB7AFE7D8BFC6D
:10587300FE12A73322E4FAF9F8900451126C39129C
:105883006B12E47B0AFAF9F8126B1290014975F076
:1058930003EB126CAEEA75F003A42583F583126C57
:1058A300BA9009BD126CDAE49009BBF0A3F022AE02
:1058B3004CAF4D7C001269887C007D0A12698875A3
:1058C300F003ED126CAEEC75F003A42583F58302AF
:1058D3006CBAEF5D25E0FFE433FE74692FF5827443
:1058E300043EF583E0229009BD126CDA9009AFE023
:1058F300FD7C009009BB7421F0A37404F022FEA385
:10590300E0FF900494E08475F00A84E5F075F003F9
:10591300A42449F582E4340122900087E075F01E47
:10592300A424B7F582E43403F58322E49009BBF0A1
:10593300A3F07A3A79F77BFFA3126CDA74FFFA22A9
:10594300E02465F582E43400F583E054081313136F
:10595300541F25E02492F582E43400F583E0FEA38E
:10596300E0FF2290011CE47BE87A03F9F8126C391A
:1059730012CEB57B0AE4FAF9F802CEB59009BB1250
:105983006CDA9009AFE0FD7C00E49009B9F0A3F074
:10599300229004B2E0FEA3E0FF7C001269337C0096
:1059A3007D0A126933ED90014975F003026CAEAEC6
:1059B30034AF357C037DE81269337C037DE81269DB
:1059C300217D647C00AA06AB07AE60AF610269214A
:1059D3007BE07A077C007F667E00229004AEE025A0
:1059E300E0249AF582E43404F583227A3379C87B80
:1059F300FFA3026CDAAE34AF357C007D64126933E9
:105A03007C007D64126921AA06AB07AE60AF617D9D
:105A13000A126921EF2BFBEEAE34AF353AFA126965
:105A230033ED2B227A3479267BFFA3026CDA9009BB
:105A3300BBE4F07425A3F0A374F8F0A3E4F07B7641
:105A4300FA22AE5CAF5DEE3395E0FDFC90007D0283
:105A53006C45F583126CBA9009BD026CDAA3E0546D
:105A630010FFE4C4F854F0C8EFC4540F48FF7D009E
:105A730022E49009BBF0A3F07A3A79F77BFFA30203
:105A83006CDA9009BB126CDA9009B922E49009BB75
:105A9300F0A3F07A3B79077BFFA3026CDA900A8DBF
:105AA300126C71900395126C39900488AB07AA06A7
:105AB300A905A804E0FFE4FCFDFE126A87E47B105D
:105AC3007A27F9F812CEB5EE3395E0FDFC900A91F2
:105AD300126C71900A8DE47B64FAF9F8126C390246
