:020000040800F2
:10000000605D00202D020008A34500089132000821
:10001000A14500087D1500086F670008000000007A
:10002000000000000000000000000000C94A0008B5
:10003000F517000800000000B9480008C54D000889
:10004000470200084702000847020008470200086C
:10005000470200084702000847020008470200085C
:10006000470200084702000847020008470200084C
:10007000470200084702000847020008470200083C
:10008000470200084702000847020008470200082C
:100090009D66000847020008470200084702000862
:1000A000470200084702000847020008470200080C
:1000B0004702000847020008454E000847020008B2
:1000C00047020008470200084702000847020008EC
:1000D00047020008470200084702000847020008DC
:1000E00047020008470200084702000847020008CC
:1000F00047020008470200084702000847020008BC
:1001000047020008470200084702000847020008AB
:10011000470200084702000847020008470200089B
:10012000470200084702000847020008470200088B
:1001300000F002F800F06AF80AA090E8000C82448F
:100140008344AAF10107DA4501D100F05FF8AFF26C
:10015000090EBAE80F0013F0010F18BFFB1A43F0A5
:1001600001031847CC7E0000EC7E00000A444FF0EB
:10017000000C10F8013B13F0070408BF10F8014B06
:100180001D1108BF10F8015B641E05D010F8016B4B
:10019000641E01F8016BF9D113F0080F1EBF10F8AF
:1001A000014BAD1C0C1B09D16D1E58BF01F801CBD2
:1001B000FAD505E014F8016B01F8016B6D1EF9D555
:1001C0009142D6D37047000000230024002500266A
:1001D000103A28BF78C1FBD8520728BF30C148BFAA
:1001E0000B607047662907F03A82642900F090801E
:1001F000002070471FB500F06DFC040000200021B6
:1002000006F098FBE0601FBD10B510BD00F062FD68
:100210001146FFF7EFFF06F0EFFA00F080FD03B4A0
:10022000FFF7F2FF03BC00F0C3FD00000948804760
:1002300009480047FEE7FEE7FEE7FEE7FEE7FEE7C8
:10024000FEE7FEE7FEE7FEE704480549054A064BE0
:1002500070470000414E000831010008601D002079
:10026000605D0020603D0020603D0020B2F1200371
:100270000AD5C2F1200320FA02F001FA03F321FAB1
:1002800002F140EA0300704721FA03F04FF0000149
:10029000704700000FB41CB5084B06AA7B446946A2
:1002A0000090059800F0FDFB04460020694600F030
:1002B0000BFC20461CBC5DF814FB00002908000064
:1002C00070B5044685690068C10601D5302600E096
:1002D0002026C00707D070BDD4E9012130469047E1
:1002E000206A401C20626D1EF6D570BD70B50446B4
:1002F00085690078C00707D170BDD4E901212020AD
:100300009047206A401C20626D1EF6D570BD00002B
:100310002DE9F0410646002410687529314616A5DE
:1003200010D0AFF30080002802DA404213A507E0A6
:1003300031688A0701D512A502E0490704D511A545
:10034000012401E0AFF3008000210A2206F1240716
:1003500009E0B0FBF2FCB0FBF2F302FB1C00303012
:1003600078541846491C0028F3D123462A463046C3
:10037000BDE8F04100F028B9000000002D000000A9
:100380002B000000200000002DE9F05F89460446A4
:100390004FF0000ADFF874B1FB44C0F820A02046FB
:1003A000E1688847002874D0252806D0D4E90121C7
:1003B0009047206A401C2062F1E700265F462046F5
:1003C000E16888472028054607DB312D05D27819DA
:1003D00010F8200C08B10643F1E7B00701D526F06C
:1003E0000406C4F81CA00027C4F818A02A2D09D0C0
:1003F000284606F0E1F938B304EB8708303DC8F829
:10040000185019E059F8041B204604EB870291614B
:10041000E1688847012F054618D1E069002820DAF5
:1004200026F020061DE0D8F8180000EB800005EB50
:1004300040003038C8F818002046E1688847054673
:1004400006F0BAF90028EED1012F0AD02E2D08D1DE
:100450002046E16888477F1C0546022F46F02006AB
:10046000C4DBA069002803DA404246F00106A0611F
:10047000F00701D026F010066C2D0BD0682D09D0A6
:100480004C2D39D06A2D35D0742D35D07A2D33D0FE
:1004900016E038E0E1682F4620468847B842054616
:1004A00009D16C2F26D04FF48060E16806432046C6
:1004B0008847054604E06C2F1AD04FF4807006433D
:1004C0000DB3A5F14100192802D8203546F4006685
:1004D0004A462946204626604E46FFF783FE80B1F5
:1004E00001280BD0F61D26F0070000F1080956E799
:1004F0004020E4E78020D8E70020D6E706F1040991
:100500004DE7284652E7206ABDE8F09FEC7B0000EB
:1005100010B5203AC0F00B80B1E81850203AA0E89E
:100520001850B1E81850A0E81850BFF4F5AF5FEAD2
:10053000027C24BFB1E81850A0E8185044BF18C985
:1005400018C0BDE810405FEA827C24BF51F8043B2C
:1005500040F8043B08BF7047D20728BF31F8023B80
:1005600048BF11F8012B28BF20F8023B48BF00F814
:10057000012B70474FF0000200B513469446964693
:10058000203922BFA0E80C50A0E80C50B1F12001A6
:10059000BFF4F7AF090728BFA0E80C5048BF0CC054
:1005A0005DF804EB890028BF40F8042B08BF7047B2
:1005B00048BF20F8022B11F0804F18BF00F8012B24
:1005C00070477047704770472DE9F0470D469946D0
:1005D0009246044600F124080168880604D5E069C3
:1005E00021F01001216000E00120A84201DD471B3D
:1005F00000E00027A1697A1902EB0900081AA0613E
:100600002078C00602D42046FFF75AFE002608E0F4
:10061000D4E901211AF806009047206A401C761C94
:1006200020624E45F4DB2078C0060AD52046FFF74D
:1006300047FE06E0D4E9012130209047206A401CA3
:100640002062381EA7F10107F4DC07E0D4E901219C
:1006500018F805009047206A401C2062281EA5F16A
:100660000105F3DC2046FFF741FE2078000602D5A5
:100670000220BDE8F0870120FBE770472DE9FF4F1E
:100680000C461E464FF0FF378BB0D2E90001DDF873
:1006900060800A908A46C1F30A5505B93D4600219B
:1006A00008464FF00000BAF1000F00F4400005DAF0
:1006B00000EB80004FF4400101EA50004FEA9059EE
:1006C000B9F1010F00DDB9460A9850EA4A000ED090
:1006D00044F61050A5F2FF3545432F14B8F1000F32
:1006E0001ED07542291E1EDDC9F100021CE0B8F1C2
:1006F000010F4FF0000001D0302103E0F24305E08C
:100700002154401CB042FBDB304600220021215422
:100710000B99C1F80880C1E900200FB0BDE8F08F47
:10072000BD1B6D1CDEE74A4600DA694206A800F0F0
:100730005BFA06AB93E8070003AB83E8070050467B
:100740000A9900F03CFB8DE80700A0F500501F3827
:1007500000900398002D0ADD42F21F014A4608442A
:10076000002303A90390684600F0A5FD09E0A0F569
:1007700000504A461F38002303A90390684600F042
:10078000AFFD8DE807000004000C03D04FF0FF30F0
:10079000410800E01046B8F1000F03D0002200929B
:1007A00015461EE0751E05D400F098F930326255EA
:1007B0006D1EF9D5B3460122084302D000227F1CEA
:1007C00004E02078302801D100227F1E002A0997FA
:1007D00084D01DE0112D07DA00F080F93032625527
:1007E0006D1C50EA0102F5D1084302D00098C8B14F
:1007F0000EE00021681E05E0235C625C6354225415
:10080000401E491C8142F7DBAB46A81B401E0990E5
:10081000002004F80B000B98099AC0F80880C0E982
:10082000002B7AE711264FF0000857E72DE9F04F2B
:1008300088460446D21D22F0070191B0D1E900019B
:10084000CDE90A0105F094FF02460B98C00F01D0D4
:100850002D2007E02068810701D52B2002E0202110
:1008600001EAC000032A099001D0072A05DB0346EC
:100870004146204600F078F90BE12078800601D54A
:10088000E06900E00620B8F1650F814606D0B8F1B6
:10089000660F18D0B8F1670F70D131E00020B9F1C0
:1008A000110F009001DB112301E009F101030AAAF5
:1008B00001A90CA8FFF7E2FEDDE90C70002609F1A2
:1008C0000105834647E001204B4600904FF000476A
:1008D0000AAA01A90CA8FFF7D1FEDDE90DB00C9919
:1008E0005D46002610B909F101000D18B9EB0500AD
:1008F00003D4C0F1FF3609F10105A5EB09002BE097
:10090000B9F1010F01DA4FF001090020B9F1110F1F
:100910000090484601DD112300E003460AAA01A920
:100920000CA8FFF7ABFEDDE90C704D4600268346B0
:10093000207800070AD4AB4500DA5D4601A8012DF6
:1009400004DD411911F8011C302907D04F4502DAA6
:1009500017F1040F04DA012082460FE06D1EEEE766
:10096000002F02DCED1B3E4403E0781CA84200DDB2
:100970007D1CB81B00F1010A4FF0004720780007EA
:1009800003D4AA4501DB4FF0FF3A0021B7F1004F35
:100990000DF143088DF8431024D002202B23002FA3
:1009A00001DA7F422D230A21021EA0F1010000DCA2
:1009B0005FB197FBF1FC97FBF1F201FB1C7C174642
:1009C0000CF1300C08F801CDEEE7A8F1010003703E
:1009D0002188090501D5452100E06521A0F1010824
:1009E00000F8011C09980FA9A1EB0807FF1D00B131
:1009F0000120411901EBEA70A1693844081A401E30
:100A0000A0612078C00602D42046FFF759FC09985F
:100A100028B1D4E901219047206A401C2062207847
:100A2000C00622D52046FFF74BFC1EE0002E04DB5B
:100A3000B34502DD01A8805D00E03020D4E901214A
:100A40009047206A401C2062761CAAF101005FEAF0
:100A5000000A0AD100F03EF8C0680168405CD4E9A1
:100A600001219047206A401C2062281EA5F1010543
:100A7000DCDC07E0D4E9012118F8010B9047206A7B
:100A8000401C2062381EA7F10107F3DC2046FFF767
:100A90002DFC032011B041E601694A1C026108786F
:100AA000704700B58FB0CDE90131002105910549AE
:100AB0007944CDE9031011466846FFF765FC0FB095
:100AC00000BD0000E5FFFFFF0A6802F8010B0A60A5
:100AD0007047000000487047201D002030B5B0F17D
:100AE0000A024FEA900E71F100034EEA817EB0EBEC
:100AF0000E0061EB91014FEA101E4EEA017E10EBF1
:100B00000E0041EB11114FEA102E4EEA016E10EB70
:100B10000E0041EB11214FEA104E4EEA014E10EB50
:100B20000E0041EB1141401841F100014FEAD000A5
:100B300040EA41704FEAD10110EB80054FEA810491
:100B400044EA907444EB01046D1944EB0404521B15
:100B5000A3414FF0000348BF0A3200D530BD401C0E
:100B600041F1000130BD00002DE9F0411F4604466F
:100B700003260168072A01F4006004DB08B116A50A
:100B800005E016A503E008B115A500E015A521F0C4
:100B900010002060A069C01EA0610FB1401EA061BE
:100BA0002046FFF78DFB4FB1D4E90121384690472D
:100BB000206A401C2062C01C206206E0206AFAE71E
:100BC000D4E9012115F8010B9047761EF8D2204692
:100BD000FFF78CFBBDE8F0814E414E006E616E0068
:100BE000494E4600696E66002DE9F047814616467B
:100BF0008AB0354878440DC88DE80D0032487844F5
:100C0000801C03AC0DC884E80D0041F69B300844FD
:100C1000372190FBF1F290FBF1F5A5F1800501FB86
:100C200012041B3C02D56442012000E00020DFF8E2
:100C300098A080460027FA44AAF1BE0A0EE0E00719
:100C40000AD03246684607EB470101230AEB8101CF
:100C500000F046FB8DE8070064107F1C002CEED1ED
:100C6000194F7F44AE3F19E0E80715D007EB041099
:100C70000DF1180A90E80E008AE80E00C068F042F4
:100C800001D1981908903246012306A903A800F063
:100C900027FB03AB83E807006D10641C002DE3D134
:100CA0004FF0010332466946B8F1000F03A802D0A5
:100CB00000F001FB01E000F013FBC9E90001C9F8F5
:100CC00008200AB0BDE8F087207400000048704793
:100CD000001D00207546FFF7F9FFAE460500694686
:100CE000534620F00700854618B020B5FFF7ACFA50
:100CF000BDE820404FF000064FF000074FF000081D
:100D00004FF0000B21F00701AC46ACE8C009ACE89D
:100D1000C009ACE8C009ACE8C0098D46704710B501
:100D20000446AFF300802046BDE81040FFF777BAD5
:100D30004FF0013C50F8042B51F8043B9A4221D16A
:100D4000A2EB0C03934313EACC1317D150F8042BF6
:100D500051F8043B9A4215D1A2EB0C03934313EADA
:100D6000CC130BD150F8042B51F8043B9A4209D113
:100D7000A2EB0C03934313EACC13DBD04FF000003B
:100D8000704700BFD01A01BAB1FA81F101F0180121
:100D900022FA01F0CB40C1F12001DBB2C0B2C01A8F
:100DA0002CFA01F3D11A914311EAC311E6D170472D
:100DB00001491820ABBEFEE72600020070475FEA3B
:100DC000400C08BF91F0000F4FEA8C234FEAC1227C
:100DD00043EA51514FEA1C5018BF00F5F0404FEA6A
:100DE000300018BF41F000415FEA6C5C00F02980E0
:100DF000BCF1FF3F08BF40F080407047130C06BFB6
:100E000012044FF0100C4FF0000C130E04BF12022E
:100E10000CF1080C130F04BF12010CF1040C930F1A
:100E200004BF92000CF1020CD30F04BF52000CF16E
:100E3000010C11464FF00002A0F11F00A0EB0C00C6
:100E4000704711F0004F08BF704731F000413FF488
:100E5000D5AF0B0C06BF09044FF0100C4FF0000C7F
:100E60000B0E04BF09020CF1080C0B0F04BF0901A3
:100E70000CF1040C8B0F04BF89000CF1020CCB0F9A
:100E800004BF49000CF1010CCCF12003A0EB0C00D5
:100E900022FA03F302FA0CF241EA030100F1010025
:100EA000704720F07F4C80EA030023F07F47ACEBD3
:100EB000070303F57C5300F0004003F1FF032DE925
:100EC00080494FEA154B09B44FEA144325EA0B4E0B
:100ED00024EA03480FF2042606EB132749083E785C
:100EE0005FEA320203FB0667C7F5000707FB06F659
:100EF0004FEA54374FEAD64606F1020607FB066C66
:100F0000CCF1005C4FEA1C472CEA074C07FB06F4C7
:100F10000CFB06F504EB15464FEA961634BF00208D
:100F20004FF000404FEAD13706FB07FC4FEA1C4C5C
:100F30000CFB0BF7D21B03FB0CF761EB07010CFB5F
:100F40000EF7B0EB074072EB17420CFB08F734BF0B
:100F5000A2EB0742B2EB074261EB17414FEA0C44A8
:100F60004FEA910706FB07FC4FEA1C4C0CFB0BF702
:100F7000B0EBC74072EB573203FB0CF734BFA2EB68
:100F8000C742B2EBC74261EB57310CFB0EF7B0EB37
:100F9000C70072EB57720CFB08F734BFA2EBC70215
:100FA000B2EBC70261EB5771039F4FEA816141EADF
:100FB000921104EBCC044FEAD1374FEA826206FB70
:100FC00007FC42EA90124FEA80604FEA1C4C0CFB8F
:100FD0000BF7D21B03FB0CF761EB07010CFB0EF7C1
:100FE000B0EB074072EB17420CFB08F734BFA2EBE3
:100FF0000742B2EB074261EB17414FEA8C554FEACB
:10100000910704EB9C2406FB07FC4FEA1C4C0CFBED
:101010000BF7B0EBC74072EB573203FB0CF734BF52
:10102000A2EBC742B2EBC74261EB57310CFB0EF7A4
:10103000B0EBC70072EB57720CFB08F734BFA2EBA2
:10104000C702B2EBC70261EB577115EB4C254FEAB3
:10105000816141EA92114FEA82624FEAD13742EA56
:10106000901206FB07FC44F100044FEA80604FEA4F
:101070001C4C0CFB0BF7D21B03FB0CF761EB0701BD
:101080000CFB0EF7B0EB074072EB17420CFB08F7B6
:1010900034BFA2EB0742B2EB074261EB174115EBFD
:1010A0001C154FEA813141EA92414FEA823242EA0D
:1010B00090424FEA80304FEA0C7644F1000448EA4F
:1010C00003434EEA0B484FF0000EB2EB080C71EBF5
:1010D000030724BF624639464EEB0E0E4FF0000B5D
:1010E0000018524149414BEB0B0BB2EB080C71EB72
:1010F00003077BF1000B24BF624639464EEB0E0E10
:101100004FF0000B0018524149414BEB0B0BB2EB77
:10111000080C71EB03077BF1000B24BF62463946D4
:101120004EEB0E0E51EA020718BF46F0010616EB11
:101130000E7655F1000254F1000103D5BDE8890196
:10114000BDE80088BDE88901BDE80048B6195241F4
:1011500041EB0101A3F10103704780807F7E7D7C1C
:101160007B7A7978777676757473727171706F6E39
:101170006E6D6C6C6B6A6A696868676666656464E4
:10118000636362616160605F5F5E5E5D5D5C5C5B6E
:101190005B5A5A59595858575756565555555454DD
:1011A000535352525251515050504F4F4F4E4E4D3B
:1011B0004D4D4C4C4C4B4B4B4A4A4A494949484887
:1011C00048474747474646464545454444444443C7
:1011D00043434342424242414141002B9C4630D46A
:1011E00077002BD01CB54FEA370703B44FF010003F
:1011F0004FF01001BAF1000F06D0BCF1000FDCBFB8
:1012000040F0080040F008014FF000000FBCBDE8BE
:1012100010400BF1010BBBF1010F08BF5FEA17078C
:1012200022BF12F1010211F101014FF0004143F11F
:10123000000300F0004043EA00007047F9D357086C
:10124000D0E746EA064613F1400F4FEA16461FDD87
:1012500013F1200FDFBF16430A46002120335B4203
:10126000BED0C3F1200746EA064602FA07F74FEA66
:10127000164646EA0706C3F1200722FA03F201FAEE
:1012800007F721FA03F14FF0000342EA0702A7E74C
:1012900046EA020646EA06464FEA164646EA0106CE
:1012A000BCBF46EA0646360C4FF000034FF0000282
:1012B0004FF0000194E72DE9804C9A46934670B4B4
:1012C00091E8380007C831EA400C48BF34EA430CC3
:1012D00003D5FFF7E6FDFFF780FFF0BCBDE8008C0B
:1012E0002DE9804C9A46934670B491E8380007C8BF
:1012F00010F0804F08BF13F0804F03D100F005F8C5
:10130000FFF76BFFF0BCBDE8008C20F07F4780EA60
:10131000030023F07F4C07EB0C03A3F57C5300F094
:101320000040A3F1FE0392F0000F00F0B38095F0AF
:10133000000F00F077802DE901494FEA11404FEA94
:10134000144621EA004800FB06FC24EA064708FB95
:1013500006F607FB08F800FB07F718EB06484CEB0E
:10136000164C4FEA124B18EB07484FEA15464CEB68
:10137000174022EA0B4E0BFB06FC25EA06470EFB44
:1013800006F607FB0EFE0BFB07F71EEB064E4CEBBB
:10139000164C4FF000061EEB074E4CEB174B18EBAC
:1013A0000B0840F1000018EB0E0B58EB000840F161
:1013B00000008F1A4FF000013CBFC943661B14BFE9
:1013C000B5EB040C00213CBFC943F61B4FEA1744A0
:1013D0004EEA8E0E27EA04454FEA1C4704FB0762DB
:1013E0002CEA074C05FB07F70CFB05F604FB0CFC8D
:1013F00016EB074642EB174216EB0C4642EB1C423B
:101400001BEB060658EB0202414146EA9E0601D557
:10141000BDE80189B619524141EB0101A3F1010375
:10142000BDE801894FEA14454FEA114724EA054611
:1014300021EA074C05FB07F406FB07F70CFB06F156
:1014400005FB0CFC11EB074144EB17444FEA124734
:1014500011EB0C4144EB1C4422EA074C05FB07F25C
:1014600006FB07F70CFB06F605FB0CFC16EB074624
:1014700042EB174216EB0C4642EB1C456A1854F13E
:10148000000148BF7047B619524141EB0101A3F179
:101490000103704795F0000F37D04FEA11424FEA31
:1014A000144721EA024624EA074C02FB07F106FB37
:1014B00007F70CFB06F402FB0CFC14EB074441EBB2
:1014C00017414FEA154714EB0C4441EB1C4125EA48
:1014D000074C02FB07F506FB07F70CFB06F602FBC1
:1014E0000CFC16EB074645EB174516EB0C4645EB97
:1014F0001C42121951F1000148BF7047B619524100
:1015000041EB0101A3F1010370474FEA14454FEA93
:10151000114724EA054621EA074C05FB07F106FBC3
:1015200007F70CFB06F24FF0000605FB0CFC12EB74
:10153000074241EB174112EB0C4251EB1C4148BFF3
:101540007047921841EB0101A3F1010370470000BD
:101550000149012048617047000C014005480178AD
:1015600042780548914201D2012200E00022012187
:1015700000F03FBE10000020000C0140FEE70020FC
:10158000704700207047000010B50022044905484C
:1015900003F0D2FD0449034803F0C8FD002010BD4C
:1015A000E8130020FC0A00200010002070B50D4652
:1015B000044601466A4803F0B9FD694803F09AFD04
:1015C000684B002001465880674A05E05888665CF1
:1015D0001654401C5880491C28688842F6D8107858
:1015E000662818D012281ED0CC282FD0552835D0E8
:1015F000AA283BD088284CD0FF2852D0992863D005
:10160000BB2869D010287FD0112879D0EC2878D059
:10161000332877D0A1E05078442874D190782228DC
:1016200071D1012098E0507834286CD190785628F8
:1016300069D192F83D00982865D192F83F0054286E
:1016400061D192F83E005870022085E05078DD2884
:1016500059D19078EE2856D104207DE05078332877
:101660007BD19078112878D1052075E05078BB287F
:1016700073D19078CC2870D192F83D0098286CD125
:1016800092F83F00542868D192F83E005870062026
:1016900062E05078662860D1907844285DD10720B8
:1016A0005AE05078EE2858D19078DD2855D192F83C
:1016B0003D00982851D192F83F0054284DD192F81E
:1016C0003E005870082047E05078772845D1907840
:1016D000552842D109203FE05078DD283DD190784F
:1016E000EE283AD192F83D00982836D192F83F0082
:1016F000542832D192F83E0058700A202CE003E0C2
:101700000AE01AE021E017E05078012825D190780E
:10171000112822D10B201FE0507810281DD190787D
:1017200001281AD10C2018700E48D178001D0170C4
:1017300011794170517981700FE05078EA280CD10D
:101740009078EB2809D10D2006E05078222804D1AA
:101750009078112801D163201870002070BD00001E
:10176000FC0A00208E000020C00F0020094A10B59E
:10177000D2F8B822D2F814220AB1012010BD0A46CC
:101780000146044803F0D8FCBDE81040014803F0CE
:1017900031BD0000FC0A002030B5144813496B220B
:1017A0000068091FC0EB0013096803EB43034A43B9
:1017B00002EB4302A0EB001303EB830302EB4302B3
:1017C00000FB01F300EB401404EBC01441F6BE75BE
:1017D00005FB0343414300EB0010054CC0EBC00088
:1017E00004FB01001A43104430BD0000F0F7FF1F56
:1017F000EDF4FFFF7047000010B5C82000F080FB3B
:10180000002004F051FF4FF4967000F079FB0120A6
:1018100004F04AFFC82000F073FB02F097FE024973
:101820000120086010BD0000545C004070B5084EF7
:10183000002400BF06EBC42500F0BEFB284600F0E4
:1018400047F800F06FFB641CE4B20D2CF2D370BDBE
:101850000080030870B5084E002400BF06EBC425C5
:1018600000F0AAFB284600F033F800F05BFB641C94
:10187000E4B2152CF2D370BD00D8020870B5084E42
:10188000002400BF06EBC42500F096FB284600F0BC
:101890001FF800F047FB641C14F0FF04F2D070BD89
:1018A00000D0020870B5084E002400BF06EBC42526
:1018B00000F082FB284600F00BF800F033FB641CBC
:1018C000E4B2402CF2D370BD00D0000872B6FEE73F
:1018D000064A0021D16106490A6942F002020A6102
:1018E0004861086940F0400008617047E01C002032
:1018F00000200240044B0022DA61044A136943F0DD
:101900000103136101807047E01C002000200240A9
:1019100014480022C168CB06134904D5CA6942F0B5
:101920000202CA611022C3685B0705D5CB6943F088
:101930000103CB6142F00402C369DB0707D0CB6926
:1019400043F00403CB61C16921F00101C161A2F53B
:101950008071013901D0C2607047C16921F0010175
:10196000C161704700200240E01C002070B50546B0
:1019700000F044FC0646114C09E0681C07D025B174
:1019800000F03CFC801BA84201D9032070BDE06838
:10199000C007F2D1E068800601D52020E060E06851
:1019A000C00605D4E069C00702D1E068400703D54E
:1019B000FFF7AEFF012070BD002070BD0020024087
:1019C0002DE9F041D04D0024D04E2878B0B0012848
:1019D00033D0CF4FCF4A01A91EAB022831D0042803
:1019E00063D005287AD0062870D007286FD0082841
:1019F0006ED009286DD00A286CD00B286BD00C282B
:101A00006AD00D2869D063285CD1C3A00321006887
:101A10002D902DA8FFF7AAFE2C70C0A13460C548F8
:101A2000FEF738FCFB22AC21672002F089FF10236F
:101A300040210090BF4A002042E0FFF733FFBEA0E4
:101A40004FE0002002EB000C9CF803C021F810C00E
:101A5000401CC0B23A28F5D35FF0000001EB800CC7
:101A600031F820209CF802C002EB0C2223F8102051
:101A7000401CC0B21D28F1D3032000F041FA4FF4FE
:101A80000051AE4800F0ADFB30681D2200EB400174
:101A9000C1EB4010AA4901EB40001EA902F08EFFE5
:101AA0003068401C3060A4A0B9E0FFF7FBFEA5A0A1
:101AB000032100682D902DA8FFF758FE2C7021E11E
:101AC00001F0CCFD30B0BDE8F08107E011E03FE06F
:101AD00042E071E074E0CBE0E5E004E1FFF7CEFE28
:101AE00099A00321006800904FEA0D00FFF73EFE29
:101AF000F6E0002002EB000C9CF803C021F810C0B7
:101B0000401CC0B23A28F5D35FF0000001EB800C16
:101B100031F820209CF802C002EB0C2223F81020A0
:101B2000401CC0B21D28F1D3032000F0E9F9306851
:101B30001D2200EB4001C1EB4010844901EB400045
:101B40001EA902F03BFF3068401C30607EA066E0BA
:101B5000FFF780FE7EA0C4E75FF0000002EB000C00
:101B60009CF803C021F810C0401CC0B23A28F5D33D
:101B70005FF0000001EB800C31F820209CF802C0DF
:101B800002EB0C2223F81020401CC0B21D28F1D318
:101B9000032000F0B5F930681D2200EB4001C1EBD5
:101BA00040106C4901EB40001EA902F007FF3068AD
:101BB000401C306066A032E0FFF738FE66A090E778
:101BC0005FF0000002EB000C9CF803C021F810C08D
:101BD000401CC0B23A28F5D35FF0000001EB800C46
:101BE00031F820209CF802C002EB0C2223F81020D0
:101BF000401CC0B21D28F1D3032000F081F93068E9
:101C00001D2200EB4001C1EB4010544901EB4000A4
:101C10001EA902F0D3FE3068401C30604EA00321A4
:101C200000682D902DA8FFF7A1FD2C70D322CE21A6
:101C30005B2002F085FE03463A784021002002F046
:101C40003DFED322CE215B2002F07AFE00900223DB
:101C50003A784021882001F0CDFCD322CE215B20B0
:101C600002F06EFE1023402100903DA2982027E74D
:101C70003C49D1E90001CDE92D01FFF78DFD000EB2
:101C80008DF8B700FFF788FD000C8DF8B800FFF75E
:101C900083FD000A8DF8B900FFF77EFD8DF8BA00CC
:101CA00007212DA822E730A0032100680090684694
:101CB000FFF75CFDDFF8B480404603F07BF82C4F63
:101CC000397888420CD0404603F076F8797808F1EC
:101CD000020003F071F8B97808F1040003F06CF821
:101CE0002C703460EEE6FFF7C9FDFFF7B3FDFFF798
:101CF0009DFD20A0032100682D902DA8FFF736FD43
:101D00002C7034601CA18AE68E00002004000020A4
:101D10008F000020C00F002033221100202020203F
:101D200020202020446F6E652E2E2E202020202083
:101D300000000000CC0900201122330000100140F7
:101D400000D00008CCDDEE005533110000D00208B1
:101D50008866440000D8020899775500008003087F
:101D6000250000005C7F000811100100F4E8030862
:101D700092000020ECEAEB002020202045726173E5
:101D80006520446F6E652E2E2E202020000000005E
:101D9000114810B56FF00B01406805F094FC044643
:101DA00000F02AF805F0D2FA214605F017FB05F0FD
:101DB00053F90A4A0A4B05F059F80A4A0A4B04F04B
:101DC000A9FE0022094B04F0FDFD04F0C9FD0849FD
:101DD000884200DB074810BD20000020E17A14AEE5
:101DE00047E1F63F22FDF675E09C713F0000394067
:101DF0000000C842CDCCC7420A4A00200146938861
:101E0000094A138502EB40035B8822F81030401C1E
:101E1000C0B219441428F5D3142091FBF0F080B21D
:101E2000704700000C0A0020A60A00200A4A002081
:101E300001469389094A138502EB40035B8822F827
:101E40001030401CC0B219441428F5D3142091FB63
:101E5000F0F080B2704700000C0A00207C0A0020DD
:101E60000A4A00200146138A094A138502EB4003FF
:101E70005B8822F81030401CC0B219441428F5D3F6
:101E8000142091FBF0F080B2704700000C0A002093
:101E9000280A002010B5FFF7C9FF05F057FA0146E0
:101EA0004FF08B4005F078F94FF07E5105F062FB62
:101EB0000146054805F070F9044905F08FFABDE8C0
:101EC0001040034905F0F4B8000096428FC2B5BF38
:101ED000D7A31C4210B5FFF7C3FF05F037FA6FF028
:101EE0000B0105F0F0FB0449496805F077FABDE8FD
:101EF0001040024905F072BA200000205E41EC401B
:101F000070B5044600F07AF90546601C02D004481A
:101F10000078044400F072F9401BA042FAD370BD6F
:101F2000A80000200348016941F080010161002000
:101F300070470000002002402DE9F05F07461C4872
:101F400088460024017E15461E46012909D001213C
:101F5000814601764CF2503A5046FFF707FD18B122
:101F600022E00220BDE8F09F012F02D0022F00D016
:101F70000427D346DFF83CA0220128463146FEF76D
:101F800075F981B208EB4400FFF7B4FC5846FFF73F
:101F9000EDFCDAF8102022F00102CAF8102018B97E
:101FA000641CE4B2BC42E7D3002289F81820D9E7C8
:101FB000E01C002000200240064900200A691206A9
:101FC00007D5054A4A60054A4A600969090600D5ED
:101FD000012070470020024023016745AB89EFCD07
:101FE0002DE9F84FDFF8C891002409F1040A0AF13D
:101FF000040B23460F270BF1040ED1E00125A54069
:1020000006EA0502AA4276D1DFF8A8C14E68A6EB1F
:102010000C0866452BD00DDC032E34D005DC36B31E
:10202000012E19D0022E2FD11BE0112E16D0122E08
:102030002AD119E0B8F5881F19D006DCB8F5803F21
:1020400015D0B8F5801F1FD111E0B8F5001F0ED0D4
:10205000B8F5041F18D10AE0CB6815E0CB681B1D4A
:1020600012E0CB6808330FE0CB680C330CE08B68D0
:102070002BB1012B4FF0080303D0456104E004238A
:1020800002E0056100E00023FF2A01D8064601E0D6
:1020900000F104064FEA840501D9A5F12005D6F820
:1020A000008007FA05FC28EA0C0803FA05F548EA5F
:1020B0000508C6F800804D68ED0070D53E4DAE694C
:1020C00046F00106AE61AD6924F0030605F0010596
:1020D00000953A4D06EB050CDCF80850A607360FC4
:1020E00007FA06F825EA0805DFF8D480404503D151
:1020F0004FF0000825E052E0DFF8C880404502D1EB
:102100004FF001081DE0DFF8C080404502D14FF0DC
:10211000020816E0DFF8B480404502D14FF0030812
:102120000FE0DFF8AC80404502D14FF0040808E032
:10213000DFF8A080404502D14FF0050801E04FF0E4
:10214000060808FA06F848EA0508CCF808804D6841
:10215000D9F80060ED034D4601D5164300E09643E3
:102160002E604D68DAF80060AD03554601D5164380
:1021700000E096432E604D68DBF80060ED025D469E
:1021800001D5164300E096432E604D68DEF80060EE
:10219000AD02754601D5164300E096432E60641CDF
:1021A0000A681646E2407FF429AFBDE8F88F0000C8
:1021B0000004014000001110001002400000014026
:1021C00000080140000C01400010014000140140D3
:1021D00000180140001C01408068084000D0012028
:1021E0007047C26821EA02030A4043EA02410161E2
:1021F00070470AB1016170470904FBE70148806834
:1022000070470000A800002002488168027811444D
:1022100081607047A8000020074810B5016841F0B0
:1022200010010160032000F06DF80F2000F006F8A7
:1022300000F024F8002010BD0020024070B50D4DC4
:1022400004464FF47A712878B1FBF0F00A49096826
:10225000B1FBF0F001F008F848B9102C07D20022C9
:102260002146501E00F02EF800206C6070BD012049
:1022700070BD0000A8000020B4000020094808B587
:10228000816941F001018161816901F001010091E1
:10229000C16941F08051C161C06900F08050009077
:1022A00008BD000000100240002809DB00F01F02FA
:1022B000012191404009800000F1E020C0F80011A8
:1022C00070470000F0B40E4B1B680C46C3F30223AA
:1022D000C3F10705042D00D90425191D072901D2D2
:1022E000002300E0DB1E012606FA05F1491E21400D
:1022F00099409E40761E16403143F0BC04F04CBA23
:102300000CED00E0064900F0070208684FF6FF03F5
:10231000184040EA0220034A10430860704700005A
:102320000CED00E00000FA0510B50C0607D501F031
:10233000070101EB810100EBC100283005E001EB52
:10234000810100EBC10000F5B47099B232B10122F5
:1023500002730181190C4181002010BD002202731B
:10236000C180F9E7704701EB810200EBC202D0F8AF
:10237000E802D26B03F0EDB801EB810200EBC20280
:10238000D0F8E802D2F87C2103F046B970B50446D3
:102390000B0601F0070000EB800104EBC1014FF0D8
:1023A00001024FF0000503D581F82920283103E010
:1023B00081F8695101F5B471087094F8A8020128F8
:1023C00008D084F8A822206803F066FD84F8A8529B
:1023D000002070BD022070BD70B5044601F00F00F2
:1023E0006268904201D9012070BD0B0601F0070020
:1023F00000EB800104EBC1014FF001024FF000053A
:1024000003D581F82920283103E081F8695101F5CD
:10241000B4718D70087094F8A802012808D084F86F
:10242000A822206803F0D5FD84F8A852002070BDD2
:10243000022070BD2DE9F05F04685FEA424C0B7822
:102440008D69B4F850C04FF000064BF68F7948F212
:10245000800A48F68F7B48F2C00E4FF480672AD579
:102460004FF0020808EBC308C44407EB4C07E45BD9
:10247000C4F30904A54203D32D1B8D6101D00BE0E9
:102480008E61066836F8235005EA090585F4005583
:1024900045EA0A0526F82350520609D50D78036847
:1024A00033F8252002EA0B0242EA0E0223F8252027
:1024B00084B30A8929E04FF0060808EBC308C44436
:1024C00007EB4C07E45BC4F30904A54203D32D1BBF
:1024D0008D6101D00BE08E61066836F8235005EA65
:1024E000090585F4005545EA0A0526F823505206E9
:1024F00009D40B78056835F8232002EA0B0242EA7A
:102500000E0225F823202CB14A8949690068234628
:1025100004F0FCF82046BDE8F09F2DE9F05F054689
:1025200000680C465FEA426C16468B692278B0F868
:1025300050C048F68F774CF280094FF6FF7B4FF47E
:10254000004E4FF4806A4FF000017BD54FF0020837
:1025500008EBC208E0440AEB480C30F80C00C0F36A
:102560000900834211D91B1AA3610FD0730407D548
:102570002E6836F822303B4043EA090326F8223021
:1025800094F82420012A50D04EE1A161607810B166
:10259000012813D01AE02868B0F85030184400EB36
:1025A0000210B0F8042422F4F842A0F80424B0F891
:1025B000042442F40042A0F8042407E02868B0F89C
:1025C0005030184400EB0210A0F804146278286818
:1025D00012B1012A11D018E0B0F850100844217847
:1025E00000EB0110B0F80C1421F4F841A0F80C1421
:1025F000B0F80C1441F4004105E0B0F8502010444C
:10260000227800EB0210A0F80C1421782846FFF77E
:10261000AAFE7004B8D521782A6832F82100384023
:1026200040EA090022F82100FEE06269024462618A
:10263000E2690244E2612369226A9A4203D318469E
:10264000111A04E038E084F824100AB1104621621F
:10265000617811B1012923D02BE02968B1F850200D
:102660001144227801EB021101F2044148B13E28E5
:102670000FD84208C30700D0521C0BEA82220A80FE
:1026800017E00A8822F4F8420A800A8842F40042DD
:10269000F5E74209C30600D1521E4EEA8222EEE758
:1026A0002968B1F850201144227801EB0211A1F8F9
:1026B000040483B22289B3E04FF0060808EBC20895
:1026C000E0440AEB480C30F80C00C0F309008342E8
:1026D00011D31B1AA3610FD0730407D42E6836F8E8
:1026E00022303B4043EA090326F8223094F82420A4
:1026F000012A50D098E0A161607810B1012813D070
:102700001AE02868B0F85030184400EB0210B0F816
:10271000042422F4F842A0F80424B0F8042442F47B
:102720000042A0F8042407E02868B0F850301844AC
:1027300000EB0210A0F804146278286812B1012A94
:1027400011D018E0B0F850100844217800EB0110C7
:10275000B0F80C1421F4F841A0F80C14B0F80C14E3
:1027600041F4004105E0B0F850201044227800EB1D
:102770000210A0F80C1421782846FFF7F4FD70042D
:1027800052D42278296831F82200384040EA090002
:1027900021F8220048E0626902446261E269024471
:1027A000E2612369226A9A4203D31846111A216210
:1027B00004E00AB11046216284F824106278296886
:1027C00012B1012A22D029E0B1F850201144227818
:1027D00001EB021101F20C4148B13E280FD842082A
:1027E000C30700D0521C0BEA82220A8016E00A8836
:1027F00022F4F8420A800A8842F40042F5E74209CE
:10280000C30600D1521E4EEA8222EEE7B1F85020F4
:102810001144227801EB0211A1F80C04628983B201
:102820006169286803F090FF21782A6832F8210056
:1028300048F6BF73184080F0300048F28003184318
:1028400022F821000020BDE8F09F01F0070101EB14
:10285000810100EBC100D0F8840170472DE9F041FF
:1028600004460F0601F0070000EB800104EBC101F4
:102870004FF001064FF0000503D581F8296028319B
:1028800003E081F8695101F5B47108700A61CB70F9
:102890004A7802B1C881022B00D10D7194F8A802C8
:1028A000012809D084F8A862206803F0C7F92846F7
:1028B00084F8A852BDE8F0810220FBE770B50C4611
:1028C00001F0070505EB850100EBC101C1E95F23BC
:1028D0000022C1F8842181F8692181F8685101F54D
:1028E000B4716207006803F0C9FB002070BD70B5C9
:1028F00004460D4601F007006168884201D90120B5
:1029000070BD29064FF000064FF0010207D500EB1D
:10291000800104EBC10181F82920283107E005EB93
:10292000850104EBC10181F8696101F5B4718A7018
:10293000087094F8A802012807D084F8A82220681B
:1029400003F083FB680702D006E0022070BD04F5A7
:102950002C71206803F03BFB84F8A862002070BD56
:1029600070B50C4601F0070505EB850100EBC101D0
:10297000C1E90F23012281F84C208B6400234B64B2
:1029800081F8292001F8285F6207006803F076FBD0
:10299000002070BD1FB50446006803F0B3FE0004BC
:1029A00002D5204601F0FEFD206803F0ABFE400595
:1029B0000CD5206830F8441F21F480610180204646
:1029C00000F01EF90021204600F035F9206803F0E0
:1029D00099FE400405D5206830F8441F21F4804159
:1029E0000180206803F08EFE800405D5206830F851
:1029F000441F21F400510180206803F083FEC004CD
:102A000014D5206830F8401F21F0040101802068AF
:102A100030F8401F21F008010180204600F003F942
:102A2000206830F8441F21F480510180206803F0B1
:102A300069FE00053ED522680020694632F8203044
:102A400021F81030401CC0B20828F7D332F8400FEC
:102A500040F001001080206830F8402F22F0010281
:102A600002802068B0F844205205FBD530F8442F8E
:102A700022F4806202800020236831F8102023F8BD
:102A80002020401CC0B20828F6D3206830F8401F30
:102A900041F008010180206830F8441F21F40061F2
:102AA0000180206830F8401F41F004010180204679
:102AB00000F0F6F8206803F025FE800508D52068B0
:102AC00030F8441F21F400710180204600F0AFF877
:102AD000206803F017FEC00505D5206830F8441FB4
:102AE00021F4807101801FBD2DE9F04186B0040002
:102AF00004D094F8A902002520B108E0012006B016
:102B0000BDE8F08184F8A852204600F05BF803206D
:102B100084F8A902206803F053FA04F1100114228A
:102B200088466846FDF7F4FC94E80F0003F0B2F91C
:102B30000226D0BB0021206803F0FEFD0020012703
:102B40000FE000BF00EB800104EBC10181F82970A8
:102B500001F8280FC881CD700D614D61401CC0B2D5
:102B60008D6161688142EDD8002011E000EB8001A9
:102B700004EBC10181F8695181F8680181F86B515A
:102B8000C1F87851C1F87C51401CC0B2C1F88051E5
:102B900061688142EAD8142241466846FDF7B8FCD4
:102BA00094E80F0003F003FA10B184F8A962A5E7D6
:102BB00084F8245084F8A972206803F0F6F9002004
:102BC0009DE7000008B500680B49884212D10B4808
:102BD000C16941F40001C161C069002200F4000034
:102BE000009011461420FFF76DFBBDE8084014204B
:102BF000FFF75ABB08BD0000005C00400010024017
:102C000070B5044680680125022801D0FEF75EFEFB
:102C10002946D4F8E80202F0E8FDD4F8E802BDE85D
:102C2000704002F0A4BDD0F8E80202F0C8BDD0F8B0
:102C3000E80202F0CEBD10B5044690F8A8020128C3
:102C40000BD0012084F8A80284F82410206803F037
:102C500075FD002084F8A80210BD022010BDD0F838
:102C6000E82200F52C71104602F0CBBD10B50446E9
:102C700090F8A802012810D0012084F8A80220684A
:102C800003F002FD01212046FFF76CFB206803F0F2
:102C90008AF9002084F8A80210BD022010BD0000AF
:102CA00010B50446D0F8E80202F0EAFDA069002859
:102CB00004D00348016841F00601016010BD000026
:102CC00010ED00E02DE9F84305460078354CC007CB
:102CD00054D0E0690026C00008D4E06940F080507C
:102CE000E061E069012600F0805000902E48016804
:102CF000C90512D40168804641F480710160FFF774
:102D00007DFA074605E000BFFFF778FAC01B64288C
:102D100023D8D8F80000C005F6D5206A10F440701A
:102D200021D0A98801F4407181421CD0206A1F493A
:102D3000012220F440700A6000220A602062C0076D
:102D400011D0FFF75BFA074641F2883808E000BF70
:102D5000FFF754FAC11B414502D90320BDE8F883AF
:102D6000206A8007F4D5206A696820F4407008431F
:102D700020621EB1E06920F08050E0612878800771
:102D800005D56068A96820F4404008436060287851
:102D9000C00605D56068696920F48000084360605A
:102DA0000020DBE700100240007000404004424277
:102DB0002DE9F0470F46050061D0434E306800F022
:102DC0000700B84209D2306820F00700384330606D
:102DD000306800F00700B84251D128683B4C8107A9
:102DE00012D5400703D5606840F4E0606060287841
:102DF000000703D5606840F4605060606068A968AF
:102E000020F0F000084360602878C00728D0686888
:102E1000012810D02168022810D0890700292EDA55
:102E2000616821F0030101436160FFF7E7F9804623
:102E300041F288390DE021688903EFE78901EDE768
:102E4000FFF7DCF9A0EB0801494502D90320BDE8F2
:102E5000F0876068696800F00C00B0EB810FEFD17B
:102E6000306800F00700B8420BD9306820F0070046
:102E700038433060306800F00700B84201D00120CC
:102E8000E5E72878400705D56068E96820F4E06048
:102E9000084360602878000706D56068296920F437
:102EA000605040EAC100606000F018F86168084AAC
:102EB000C1F30311515CC840064908600648006828
:102EC000FFF7BCF90020C2E70020024000100240DA
:102ED000787F0008B4000020AC00002012A185B06B
:102EE0000FC98DE80F0014A0144A006804905168BF
:102EF000134801F00C03042B10D0082B0ED1C1F3A2
:102F00008343C9031DF803000AD5516804AAC1F31D
:102F10004041515C0A4A5043B0FBF1F005B07047A4
:102F200008494843FAE700000203040506070809B8
:102F30000A0B0C0D0E0F10100102000000100240D1
:102F400000127A0000093D002DE9F84F040070D00E
:102F50002078C04DC00749D06868C0F381000128BF
:102F600007D06868C0F38100022809D16868C003EF
:102F700006D52868800339D560680028E7D035E099
:102F80006068B0F5803F0BD010B1B0F5A02F11D024
:102F9000286820F480302860286820F4802002E02F
:102FA000286840F480302860606890B1FFF726F907
:102FB00006460AE0286840F480202860F0E700BF59
:102FC000FFF71CF9801B642873D828688003F7D5A5
:102FD0000CE0FFF713F9064605E000BFFFF70EF916
:102FE000801B6428F0D828688003F7D420789A4E94
:102FF00080074FF001094FF0000839D5686810F0DC
:103000000C0F07D06868C0F38100022809D16868F6
:10301000C00306D42868800714D52069012808D188
:1030200010E02069B0B1C6F80090FFF7E7F8074656
:1030300005E00AE1FFF7E2F8C01B0228C4D82868BF
:103040008007F7D52868616920F0F80040EAC100E0
:1030500028600DE0C6F80080FFF7D0F8074604E0CE
:10306000FFF7CCF8C01B022823D828688007F7D4C4
:10307000207800072CD57948A169D9B1C0F8009013
:10308000FFF7BCF8074604E0FFF7B8F8C01B0228BA
:103090000FD8686A8007F7D571484FF4FA51006875
:1030A000B0FBF1F0009000BF0098411E0091FAD2F1
:1030B0000EE080E0C0F80080FFF7A0F8074604E0CB
:1030C000FFF79CF8C01B022875D8686A8007F7D400
:1030D0002078400760D5E8690027C00008D4E86977
:1030E00040F08050E861E869012700F080500090CE
:1030F0005C480168C90513D40168834641F48071B6
:103100000160FFF77BF8824606E000BFFFF776F824
:10311000A0EB0A0064284ED8DBF80000C005F5D506
:10312000E06801280AD008B1052813D0286A20F0E9
:1031300001002862286A20F0040002E0286A40F0BA
:1031400001002862E06841F2883B98B1FFF756F829
:1031500082460BE0286A40F004002862EEE700BFD8
:10316000FFF74CF8A0EB0A0159455AD8286A8007A6
:10317000F6D50CE0FFF742F8824605E0FFF73EF88F
:10318000A0EB0A0159454CD8286A8007F6D41FB134
:10319000E86920F08050E861E06988B36968C1F3AC
:1031A0008101022944D00228C6F8608004D0FFF7CC
:1031B00025F8044638E034E0FFF720F8074604E03D
:1031C000FFF71CF8C01B02282BD828688001F7D411
:1031D000206AB0F5803F05D16868A16820F400300E
:1031E00008436860D4E908010843696821F4741150
:1031F00008436860C6F86090FFF700F8044606E0F0
:1032000025E000BFFEF7FAFF001B022809D8286856
:103210008001F7D51BE000BFFEF7F0FF001B02287E
:1032200002D90320BDE8F88F28688001F4D40EE0AD
:103230000128F7D06868226A00F48031914204D1F5
:10324000616A00F47010884201D00120EAE7002092
:10325000E8E70000001002400000424280044242C1
:10326000B40000200070004010B5401EB0F1807F17
:1032700001D3012010BD4FF0E02460610F216017E1
:1032800003F08AFA0020A06107202061002010BD11
:10329000FEE70000F0B500230A24302537261F463C
:1032A00011E000BFB4EB107F02D905EB107C01E008
:1032B00006EB107C01F813C001EB430C00015B1C12
:1032C0008CF80170DBB29342ECD3F0BD72B61148BA
:1032D00010B5016821F0400101600F48816921F4B7
:1032E00080518161C11401220C48FEF782FF0C4815
:1032F00001680C4A1140B1F1005F0AD141680A4AE5
:1033000091605160006880F3088872B6BDE8104093
:10331000084710BD0030014000100240000C014081
:1033200000D000080000FE2F040000202DE9F0412D
:10333000074619489846154600880E46174CA0F5D2
:103340002A41AA3923D0012060701A2020702A2037
:1033500000F0BEF96078384480B200F0AFF96078D0
:10336000284480B200F0AAF92B2000F0B1F92078AF
:10337000304480B200F0A2F9217808EB010080B25D
:1033800000F09CF9BDE8F0412C2000F0A1B900202C
:1033900060701820DAE70000F2E80308000000205F
:1033A000F8B5054600214F239F220846FFF7BEFFD0
:1033B00000242E0AEFB200258DF800608DF8017010
:1033C0000221684603F00AFA6D1CADB2502DF3D30A
:1033D000641CA4B2A02CEED3F8BD2DE9FE4F151A43
:1033E000CDE900104FF000085E1A47464FF0FF305D
:1033F000002D02DD4FF0010102E003D14FF000018A
:103400008B4602E08346C5F10005002E02DD4FF039
:10341000010002E003D14FF00000824602E0824644
:10342000C5F10006B54201DD2C4600E03446601CC3
:103430004FF00009029019E000980C9A81B20198AF
:1034400080B200F018F8A8443744A04504DD019884
:10345000A8EB040858440190A74203DD00983F1BE5
:103460005044009009F101001FFA80F90299894542
:10347000E2DBBDE8FE8F10B514460B460246FFF7AF
:1034800055FF2046BDE8104000F018B92DE9F8437B
:103490001D46089C1646884607460B460094FFF7D3
:1034A0009CFF3A462B46414610460094FFF795FF95
:1034B0002B463246194638460094FFF78EFF3246B7
:1034C0002B46414610460094FFF787FFBDE8F8837E
:1034D0002DE9F0479A46902826D8402924D8203A4A
:1034E000D7B201F10F0293B2C21D92B2FFF71EFFD5
:1034F000DFF83890DFF83880002400BF04EB0711B4
:10350000002519F80160F00701D0504601E0B8F835
:10351000020000F0D3F86D1C7608EDB2082DF2D34E
:10352000641CE4B2102CE9D3BDE8F0876A79000886
:10353000000000202DE9F04F1C46A023A3EB54030C
:1035400087B083424CDBC4F150038B4248DB1278D6
:103550004FF6FF73203A92B203EA021200920A1960
:10356000521E93B200EB5402521E92B2FFF7DEFEDF
:103570001D4940200861DFF874A0DFF874B04FF0F7
:10358000000900BF00994FF0000801EB0900069008
:103590001CE0002500260127AF400CE006991AF830
:1035A0000100384201D0109801E0BBF8020001F0A0
:1035B000EDF9761CB6B2B6EB141FEFD36D1CADB2AD
:1035C000082DE7D308F101001FFA80F8B8EB141FAB
:1035D000DFD309F101001FFA80F9B9F1100FD1D33F
:1035E00007B0BDE8F08F0000000C01406A790008C8
:1035F000000000202DE9F04700261D4690468A462F
:1036000007463446DDF8209023E0281B401EC1B257
:103610000A2003F087F9B8FBF0F00A21B0FBF1F2C1
:1036200001FB120026B9691E8C4201DA38B101266D
:103630003030C2B207EBC40080B24B4604E007EB67
:10364000C40080B24B4620225146FFF741FF641C64
:10365000E4B2AC42D9D3BDE8F08700002DE9F84FC1
:1036600004461E46A02017460D46A0EB5609C3F19E
:103670005008DFF844A0DDF828B018E0A14502DAD0
:103680000024A81985B2A84505DA00242546BAF811
:103690000200FFF785FE33463A4629462046CDF81C
:1036A00000B0FFF747FF04EB560084B27F1C387868
:1036B0000028E3D1BDE8F88F0000002010B50446D3
:1036C000000A01F047F9E0B2BDE8104001F042B94C
:1036D00070B5034D40246C6101F03CF92C6170BD64
:1036E000000C0140114A10B50023904208D19268A5
:1036F0000F4C02F00102A46804F00104224303E02D
:103700000C4A926802F0010212B10123184610BD62
:10371000096829B1426822F470220A434260F5E741
:10372000416821F470214160F0E70000002401406D
:1037300000280140003C014010B58368002213F0CE
:10374000010F02D00122104610BD43684C6823F4DB
:103750008073234343608368096823F400630B4349
:103760008360F0E770B54B688468002214F0010FA5
:1037700002D00122104670BD33B18C6823434468E7
:1037800024F46844234302E0436823F4684343601D
:10379000CC680B68856823430C69064E35402C4382
:1037A000234383604968C36A23F470030B43C362F5
:1037B000E0E70000FDFEF1FF10B54FF4407494FA0D
:1037C000A4F401F44073B4FA84F4E34000EB830002
:1037D000C36A01F01F011F248C4002F01F02A343A3
:1037E0008A401343C36210BD70B54FF0007494FA61
:1037F000A4F401F00073B4FA84F4E34000EB830016
:10380000C3684FF0F87494FAA4F501F0F871B5FAB2
:1038100085F521FA05F50726AE4094FAA4F4B4FA2A
:1038200084F4E140B3438A401343C36070BD000099
:10383000044908B54A6902434A6149690140009157
:1038400008BD000000100240044908B58A6902431F
:103850008A6189690140009108BD000000100240A2
:10386000044908B58A6902438A6189690140009167
:1038700008BD000000100240044908B58A690243EF
:103880008A6189690140009108BD00000010024072
:10389000F0B50A68C2F30F2595FAA5F2B2FA82F3E1
:1038A00069E001229A402A4264D0082B03D240F2F8
:1038B00001129A4006E0A3F108024FF0011494406F
:1038C00044F080624C68082C0BD10C69C668170A5A
:1038D00097FAA7F7B7FA87F726EA1226BC402643DD
:1038E000C66092FAA2F700EB1264B7FA87F74FEAC4
:1038F000870C0F27266807FA0CF7BE4392FAA2F747
:10390000D1F804E0B7FA87F7BF000EFA07FE46EADF
:103910000E0626604F68012F01D0092F2AD192FA96
:10392000A2F7B7FA87F74FEA870C032707FA0CF7D5
:10393000BE4392FAA2F7B7FA87F7D1F808E0BF00C2
:103940000EFA07FE92FAA2FC46EA0E06BCFA8CFCBE
:103950004FEA8C0E4FF0040C26600CFA0EFC92FA23
:10396000A2F2B2FA82F2CF68920026EA0C069740E1
:103970003E4326605B1C35FA03F292D10020F0BD75
:1039800010B503680122C3F380132BBBD1E90023D8
:103990001A43D1E9023423431A430B691A434B6992
:1039A0001A438B691A43CB691A430B6A1A4303689B
:1039B0004FF6BF74A3431A43026042684B6922F07A
:1039C000040242EA134242600A6AB2F5005F02D181
:1039D000898C89B201610022C16921F40061C16151
:1039E000104610BD0A7B8B681A434B6822F4806234
:1039F0001A430B6822F400621A43CB8922F48052E6
:103A00001A430B6922F400521A434B6922F4804294
:103A10001A4322F40041194341640020704700001A
:103A2000F0B502681C4B1D4D1D4E1E4F1E4C4FF035
:103A3000804C984209D0A04207D0604505D0A842EA
:103A400003D0B04201D0B84205D1D1F804E022F051
:103A5000700242EA0E02984209D0A04207D06045A7
:103A600005D0A84203D0B04201D0B84203D1CD68FE
:103A700022F440722A4302608A68C2620A88826223
:103A8000984201D0A04201D109690163416941F026
:103A9000010141610020F0BD002C01400004004004
:103AA00000080040000C004000340140F0B5012641
:103AB00000236E4C6E4D012908D010293BD0B1F582
:103AC000807F73D0B1F5805F6ED1A6E0016A21F0EE
:103AD00001010162016A46688769D2F800C027F0D7
:103AE000730747EA0C07D2F810C021F0020141EA3F
:103AF0000C01D2F804C021F0010141EA0C01A042FE
:103B000001D0A84212D1546921F0080141EA840190
:103B1000946821F0040141EA8401956926F48074D7
:103B20002C43D56924F4007444EA45064660876155
:103B3000D26842636FE0016A21F010010162066AF7
:103B400041688769D2F800C027F4E64747EA0C27A6
:103B5000D2F810C026F0200646EA0C16D2F804C0AF
:103B600026F0100646EA0C16A04201D0A84213D156
:103B7000556926F0800444EA8514956824F04004D1
:103B800044EA8516946921F4806141EA8401D4698C
:103B900021F4006141EAC40141608761D168816319
:103BA00061E003E000E01E463046F0BD016A21F40A
:103BB00080710162016A4668C769D2F800C027F0C7
:103BC000730747EA0C07D2F810C021F4007141EAEC
:103BD0000C21D2F804C021F4807141EA0C21A042EA
:103BE00001D0A84213D1546921F4006141EA842133
:103BF000946821F4806141EA8421956926F4805417
:103C000044EA0514D56924F4005444EA4516466094
:103C1000C761D268C2630162C5E7016A21F48051BD
:103C20000162066A4168C769D2F800C027F4E64716
:103C300047EA0C27D2F810C026F4005646EA0C36A4
:103C4000D2F804C026F4805646EA0C36A04201D0D1
:103C5000A84204D1946921F4804141EA8411416071
:103C6000C761D168016406629DE70000002C014035
:103C70000034014008B54FF0E0210A690092421C6F
:103C800000D0401C0A69D20300D5401E0028F9D19B
:103C900008BD0000F0B5AC4E97B04FF4004535615B
:103CA000AA4C4020206110276761C820FFF7E2FF7F
:103CB00027611420FFF7DEFF80272761756111203F
:103CC00002F082FD6420FFF7D5FFA1480088A0F52F
:103CD0002A41AA394FF0B1007ED002F075FD9DA0B7
:103CE000032100680A900AA802F078FDB22002F0D1
:103CF0006BFD98A0032100680B900BA802F06EFDED
:103D0000B32002F061FD94A1D1E90001CDE90801E1
:103D1000062108A802F062FDB42002F055FD90A033
:103D2000012100680C900CA802F058FDC02002F0A0
:103D30004BFD8CA0032100680D900DA802F04EFDF4
:103D4000C12002F041FD88A0012100680E900EA85C
:103D500002F044FDC22002F037FD84A00221006879
:103D60000F900FA802F03AFDC32002F02DFD80A0B5
:103D700002210068109010A802F030FDC42002F06B
:103D800023FD7CA002210068119011A802F026FDFD
:103D9000C52002F019FD78A001210068129012A838
:103DA00002F01CFDE02002F00FFD74A00FC88DE8AA
:103DB0000F001021684602F011FD74A204AD0FCA75
:103DC00085E80F00102104A802F008FDFC2002F095
:103DD000FBFC72A0006800E01CE01390012113A816
:103DE00002F0FCFC3A2002F0EFFC6DA0012100681B
:103DF000149014A802F0F2FC362002F0E5FC69A051
:103E000001210068159015A802F0E8FC212002F0BD
:103E1000DBFC8CE002F0D8FC4EA0032100680A9085
:103E20000AA802F0DBFCB22002F0CEFC49A003217C
:103E300000680B900BA802F0D1FCB32002F0C4FC88
:103E400045A0D0E90010CDE90810062108A802F02D
:103E5000C5FCB42002F0B8FC41A0012100680C9020
:103E60000CA802F0BBFCC02002F0AEFC4EA0032167
:103E700000680D900DA802F0B1FCC12002F0A4FC76
:103E800039A0012100680E900EA802F0A7FCC22004
:103E900002F09AFC35A0022100680F900FA802F0F2
:103EA0009DFCC32002F090FC40A00221006810900D
:103EB00010A802F093FCC42002F086FC2DA0022181
:103EC0000068119011A802F089FCC52002F07CFC6A
:103ED00037A001210068129012A802F07FFCE020B8
:103EE00002F072FC33A10FC98DE80F001021684663
:103EF00002F074FC33A304AD0FCB85E80F00102152
:103F000004A802F06BFC3A2002F05EFC31A0012113
:103F10000068139013A802F061FC362002F054FCF4
:103F200020A001210068149014A802F057FC292059
:103F300002F04AFC28484088FFF732FA6420FFF775
:103F400099FE676117B0F0BD00080140000C014008
:103F5000F2E80308053C3C00053C3C053C3C000005
:103F600003000000AB0B0400C50000000D000000C2
:103F70008D6A00008DEE00000F000000070E08079C
:103F800010070207090F2536000804100A0D08075C
:103F90000F070207090F25360009041080000000F2
:103FA00005000000780000000E0E04008D2A0000BD
:103FB000060000000B170A0D1A19161D2126373CA2
:103FC000000905100C19090D1B19151D2126393E74
:103FD0000009051055000000000000202DE9F04107
:103FE0008EB00020069007900D90142101A8FCF7D8
:103FF000C1FA142108A8FCF7BDFA4FF40078404636
:10400000FFF73AFC0120FFF713FC0420FFF734FC14
:1040100046F66A2008900020099008A97648FFF724
:1040200037FC7748754E441C0078305844F2100134
:10403000884314F8011C705014F8010C305814F81F
:10404000011C20F4405040F40050705014F8010C52
:10405000305814F8011C40F02000705014F8010C86
:10406000305814F8011C20F04000705014F8010C76
:10407000305814F8011C40F08000705014F8010C06
:10408000305814F8011C20F4407040F40070705057
:1040900014F8010C305814F8011C20F4406040F46E
:1040A000006070500020B715CDE90607554D06A9F0
:1040B0002846FFF741FB00200D900DA92846FFF789
:1040C00011FB4FF4602001904FF4A00002900020FB
:1040D00003900220CDE9040701A92846FFF742FB1F
:1040E000494F41463A462846FFF766FB00223946CB
:1040F0002846FFF779FB454F40F205213A4628460E
:10410000FFF75AFB002239462846FFF76DFB404F68
:1041100040F20A213A462846FFF74EFB0022394674
:104120002846FFF761FB3B4F40F20F213A462846F5
:10413000FFF742FB002239462846FFF755FB364F72
:104140004FF405713A462846FFF736FB0022394600
:104150002846FFF749FBA86840F40000A8602F4FED
:1041600040F219213A462846FFF726FB002239463D
:104170002846FFF739FBA86840F40000A86068688B
:1041800040F020006860A86840F00100A860A868BE
:1041900040F00400A8600320FFF76CFDA868C0F39E
:1041A00080000028FAD1A86840F48070A860144903
:1041B0001B480A7811490C315050104814F8011D61
:1041C000001D095822786FF30F0141F006011150CC
:1041D0000C480A4A4C3021780832885020783058F0
:1041E000217840F001007050A86840F4A000A86059
:1041F0000EB0BDE8F0810000000801400000024060
:10420000717F000800240140010030020300900289
:104210000500F002060020031000208111005081EB
:104220000C0A0020F0B585B00025344800950195B2
:1042300002950395816941F010018161816901F066
:1042400010010491816941F020018161816901F0CF
:1042500020010491816941F008018161816901F0C7
:1042600008010491816941F0040181618069244E53
:1042700000F004004FF40054049000222146304620
:10428000FDF7B7FF1F4F002241F6C1013846FDF789
:10429000B0FF0320CDE90250009401246946019447
:1042A0003046FDF79DFE41F2C10002268DE8710007
:1042B00069463846FDF794FEE002CDE90004CDE9F9
:1042C000024669463846FDF78BFE4FF46040CDE963
:1042D0000005694602943846FDF782FE0096CDE956
:1042E000015469463846FDF77BFEE0038DE8710016
:1042F00069460548FDF774FE05B0F0BD00100240A8
:1043000000100140000C01400008014010B590B0C1
:1043100028216846FCF72EF914210AA8FCF72AF98F
:104320004FF48050FFF790FA0820FFF78DFA012034
:10433000FFF78AFA42F628000A9009200B90032022
:104340000024CDE90C040AA91448FFF7A1FA144887
:10435000416821F0E0614160416841F000714160D5
:104360004168104A114341604FF48270CDE900402A
:104370005002CDE9044002940820CDE906040394DC
:1043800008940994084C69462046FFF7F9FA20681A
:1043900040F04000206010B010BD0000000C014053
:1043A000000001400100000700300140F0B599B065
:1043B00014210EA8FCF7DEF820216846FCF7DAF895
:1043C000182108A8FCF7D6F8142113A8FCF7D2F896
:1043D0004FF40060FFF744FA40F2CF20ADF8380008
:1043E000002440F2E730CDE90F40294E11940EA988
:1043F00030461294FFF714FB306820F080003060E4
:1044000024480178224818300D182868214F0821C7
:10441000FF1D3A789140084328606020CDE90004F0
:10442000029403940494059406946A46012130464C
:104430000794FFF73BFB28683A78042191408843B2
:104440002860706820F070007060B06820F0800014
:10445000B06008947014CDE90C048DF82C400994D8
:104460000A94ADF82E4008A93046FFF7BBFA0420A5
:10447000FFF7F6F908481390092014900220CDE9BF
:10448000150413A90548FFF703FA19B0F0BD0000A1
:10449000002C0140637F0008010001040008014076
:1044A00010B586B014216846FCF764F82348C1694A
:1044B00041F00401C161C06900F00400059020488A
:1044C0000068C0F30220011D072901D2002000E08E
:1044D000C01E002202FA00F108011A4981F8000406
:1044E0004FF0E0214FF08040C1F800014720ADF8C7
:1044F00000000920CDE90120134C694620460392B3
:10450000FFF78EFA206820F080002060A06844F257
:1045100007018843A060606820F070006060A068B8
:1045200020F08000A060E06840F00100E0602068BA
:1045300040F00100206006B010BD000000100240F5
:104540000CED00E01EE000E00008004010B5002285
:104550000F49104800F0D6FF08B1FDF7B7F90E4932
:104560000C4801F0B3F908B1FDF7B0F90B4909485F
:1045700000F0D4FD08B1FDF7A9F9064801F0FCF9F7
:10458000002803D0BDE81040FDF7A0B910BD000021
:1045900040000020FC0A0020940100209800002028
:1045A000FEE7FEE72DE9F84F044640F68F7B48F61C
:1045B0000F7A4FF002094FF4806874E1B0F84410AC
:1045C00011F00F063AD030F8267039047DD530F856
:1045D000261001EA0B0141F0800120F8261006EBBD
:1045E000860004EBC00595F8740105F5B475002844
:1045F0006CD0E87802286AD02878226832F8201037
:1046000048F68F73194048F2C003194322F820106E
:104610002878D4F800C03CF82010BCF85020490499
:104620007ED509EBC000111808EB41003CF80000F2
:104630008005800D009074D02A89D8E0C9062DD459
:10464000018801EA0A0141F400410180216804F176
:104650002805B1F850202B7809EBC300024408EB81
:104660004200085AC0F309006064E16B0844E0634B
:1046700000212046FDF777FE94F8240000289CD006
:10468000A869002899D194F82400216840F080009E
:10469000A1F84C00002084F8240004E1018804F50E
:1046A000B4750A0521D5B0F850202B78062101EB0E
:1046B000C3010A4408EB4201405A04F52C71C0F3CF
:1046C0000903EB61EA88206802E0ACE068E07AE088
:1046D00002F01CF82168088800EA0B0040F0800016
:1046E00008802046FEF7BBFADDE00904D5D5018835
:1046F00001EA0B0141F0800101802068B0F85020F0
:104700002B78062101EBC3010A4408EB4201405A11
:1047100083059B0DEB6110D0696971B1EA8801E0F6
:1047200058E056E0206801F0F1FFE9696869084443
:10473000686100212046FDF71FFE206801880905F9
:104740002DD4B0F850100844296900F20C4051B142
:104750003E2910D84A08C90700D0521C4FF6FF71F5
:1047600001EA82210FE0018821F4F84101800188EB
:1047700041F4004107E04A09C90600D1521E4FF436
:10478000004141EA82210180206801884BF68F7246
:10479000114081F4405148F280021143018082E0CF
:1047A000D4F800C0BCF850102A78062000EBC200F4
:1047B000014408EB41003CF800008005800D0090AA
:1047C0001AD0EA8813E03A4629462046FDF732FE21
:1047D000009011E0062101EBC000111808EB410028
:1047E0003CF800008005800D009005D06A890346E2
:1047F0006046696901F08AFFE96900980844E86148
:104800006969009808446861A86918B12969009825
:10481000814204D929782046FDF7AEFD03E0294600
:10482000206801F02BFC38063DD506EB860004EB32
:10483000C001206830F8262002EA0A0242F4004251
:1048400020F8262091F82B002831032804D018B135
:10485000022824D1F80522D42368B3F850200D781B
:1048600009EBC500024408EB4200185A8A69C0F3FC
:10487000090082420CD9121A8A610BD04A6902449B
:104880004A61CA691044C861206801F0F7FB0AE078
:1048900000208861E9B22046FDF765FD03E03A4655
:1048A0002046FDF73AFE2068B0F8441009043FF5B1
:1048B00085AE0020BDE8F88F704700002DE9F84371
:1048C0009946164600930C46054601F10F0300F188
:1048D0008702FEF7DBFD04F10D0305F18502A11C43
:1048E000A81CFEF723FD0024304602F02FFD1149DD
:1048F00002F074FD104902F04FFCDFF840800546DD
:1049000084264FF4E76700BF94FBF6F006FB1040E7
:1049100002F004FD294602F02DFD01D2484601E0D7
:10492000B8F80200FEF7CAFE641CBC42ECDBBDE82E
:10493000F8830000C3F5A83FA4707D3F000000206D
:10494000C0088908C00200EB411000EBD20080B221
:1049500070470000024600200B4903E0401CC0B233
:10496000052810D88B68C3F34003002BF6D00868E5
:104970004FF2FF731840086008680860CA608868D2
:104980000006FCD4002070470030014010B50446FA
:10499000000AFFF7DFFFE0B2FFF7DCFF002010BDE9
:1049A00010B5002306E000BF30F8024B21F8134099
:1049B0005B1C9BB29342F7D310BD00002DE9F05F62
:1049C000A0F1006415468A468346B4F5802F5FD275
:1049D000FDF7F2FAE70AC4F34906C6F58064A5427A
:1049E00000D82C46DFF8AC904FF0006000EBC720F9
:1049F00080464FF480622749FFF7D2FF00204FF630
:104A0000FF7106E0331839F813208A4203D1401CA5
:104A100080B2A042F6D3A0422ED24046FCF758FF07
:104A20004CF25030FCF7A2FF1B48016921F0020153
:104A300001610020494606E03AF810208319401C25
:104A400021F8132080B2A042F6D3124940464FF419
:104A5000806200BF00F022F8A54215D0281B0AEBA7
:104A6000440A0BEB440B002685B24FF480647F1C94
:104A7000A542B9D82C46B7E74CF25030FCF776FF88
:104A8000224651465846E5E7BDE8F05FFDF74ABAD1
:104A9000BDE8F09FCC010020002002402DE9F0414C
:104AA00016460F46054600240AE000BF37F81420DA
:104AB000002329460120FDF73FFA641CA4B2AD1C77
:104AC000B442F3D3BDE8F081704700002DE9FF5FE9
:104AD000203A0C46804601F0FF09D0B2134900EBA2
:104AE00040004FF0060B002501EB400A00261AF8A3
:104AF0000570F80701D0039A01E00D48428821466D
:104B00004046FEF7B8FC641C761C7F08F6B2A4B2DF
:104B1000082EEED36D1C08F10100EDB21FFA80F8EB
:104B20004C465D45E2D3BDE8FF9F00004277000898
:104B3000000000202DE9F0411E4614460F460546B0
:104B400007E0334639462846FFF7C0FFAD1DADB23A
:104B5000641C2278A2F120005E28F2D9BDE8F08121
:104B600008B517A11A48FBF795FBE022CC21FE20DF
:104B7000FFF7E6FE00901023154A04211420FEF7EB
:104B80006DFD14A11248FBF785FB4FF4FC6000900B
:104B900010230F4A18211420FEF760FD12A10C48C3
:104BA000FBF778FB4D227221FA20FFF7C9FE009037
:104BB0001023074A2C211420FEF750FD08BD0000E9
:104BC0002020212D202324202B26202728202000D0
:104BD000CC0900202020414C4F4E475849492E43D4
:104BE0004E20202000000000426F6F746C6F6164E3
:104BF00065723A312E31320010B5414C41A148481E
:104C0000D4E90323FBF746FBE022CC21FE20FFF78B
:104C100097FE03460021424A0846FFF78BFFD4E97E
:104C2000002340A13E48FBF735FBE022CC21FE20CB
:104C3000FFF786FE03463A4A0A210020FFF77AFF73
:104C4000FDF7A6F802F008FA02460B463CA13448EC
:104C5000FBF720FBE022CC21FE20FFF771FE03468C
:104C60002F4A14210020FFF765FFFDF713F902F02A
:104C7000F3F902460B4637A12948FBF70BFB1F232C
:104C8000274A1E210020FFF755FFFDF723F902F008
:104C9000E3F902460B4634A12148FBF7FBFA1F2338
:104CA0001F4A28210020FFF745FF34A11C48226835
:104CB000FBF7F0FA4FF4FC63194A32210020FFF7AA
:104CC00039FF324832A1B0F900201548FBF7E2FA6B
:104CD0001F23134A3C210020FFF72CFF02213048FC
:104CE000FDF77AFA02462FA10D48FBF7D3FA1F23EE
:104CF0004621BDE810400A4A0020FFF71BBF000014
:104D00000C0A002041445F54656D703A25346420DC
:104D1000202041445F56696E3A253464000000004B
:104D2000CC09002041445F49726F6E3A25346420FB
:104D30002020537973546D703A25346400000000CC
:104D40004D43555F54656D703A25322E31662043D0
:104D5000000000005379735F54656D703A25322E60
:104D6000316620430000000056494E2020202020BC
:104D70003A25322E316620560000000049726F6ECF
:104D80002D4144203A253464000000001C0000201E
:104D900049726F6E5F50574D203A25346400000011
:104DA000000C0140536C6565705F466C6167203A8A
:104DB000253164000088704713B5012201A9FFF76F
:104DC000FDFD1CBDFDF720BA30B595B02821684621
:104DD000FBF7D0FB14210AA8FBF7CCFB18210FA886
:104DE000FBF7C8FB01210804CDE900100024029460
:104DF00002250491CDE907504FF4E0100990684670
:104E0000FEF7A2F808B172B6FEE70F20CDE90A0559
:104E10004FF48060CDE90C4002210AA80E94FDF702
:104E2000C7FF08B172B6FEE7102014940F900FA8C8
:104E3000FDF748FF002801D072B6FEE715B030BD7F
:104E4000704700002DE9F0413948016911F0010F68
:104E50006BD06FF001010161364C46F2A8114FF49E
:104E600000576068401CB0FBF1F201FB120160606A
:104E700041B9314BDA6827EA020102F4005241EAF3
:104E8000024119612D492E4E0025884217D1DFF8C5
:104E9000B4804FF480414046FDF79EF9B8B13946E1
:104EA0004046FDF799F92849D0B1207800B1257026
:104EB000088800B10D80307800B1357065602348F6
:104EC0000178491CC9B20170192922D022E020784A
:104ED000401CC0B220700528F0D10120607016E09F
:104EE000307858B1002030702078401CC0B220705B
:104EF0000128E3D1088818B10D8004E00120F2E711
:104F00004FF4FA700880B1F9000011494863257028
:104F1000D4E705703078012803D0BDE8F041FCF7F4
:104F200017BBBDE8F041FCF719BBBDE8F0810000FC
:104F3000000800401400002000100140A08601007D
:104F400012000020000C01401C0000201000002076
:104F5000002C01402DE9F041D0F8C032D0F8B82241
:104F6000CAB101EB810500EB85040026E7693FB17A
:104F700003EBC5039B6BB7FBF3F503FB157323B181
:104F8000C2F814620020BDE8F08100231A46E661F1
:104F900000F07FFCF6E70220F5E770B50546D0F893
:104FA000B84200F07AFBC4F80C02D5F8B80248B158
:104FB000D5F8BC12D4F80402CA6804F5037190470E
:104FC000002070BD022070BD70B50446002681210E
:104FD00000F0B6FA002501212046E56200F0B0FAA3
:104FE00082212046C4F86C5100F0AAFA2564D4F856
:104FF000B80248B1D4F8BC0204F52E74406880476A
:10500000206800F016FE2560304670BD10B5D0E96E
:10501000AE4159B194F80002FF2807D08B6894F88C
:10502000012221469847FF2084F80002002010BD8D
:105030000A21018000487047BC0000204321018004
:10504000004870470C010020432101800048704750
:10505000C800002043210180004870475001002013
:105060002DE9F04104460026007C4FF4007701252D
:1050700090B3402302228121204600F063FB4023AD
:10508000E56202220121204600F05CFB0823032296
:1050900082212046C4F86C5100F054FB4FF4077095
:1050A000256400F0C7FDC4F8B802F8B10546D4F88D
:1050B000BC02006880470020C5F81402C5F8180239
:1050C000207CD5F8042298B140230121204600F02D
:1050D00045FB3046BDE8F081FFE73B4602228121D7
:1050E000204600F02FFB3B46E562CAE70126F0E7C9
:1050F0003B46EAE710B5D0F8B81269B1027C002A45
:10510000D1F8042205D04023012100F027FB002024
:1051100010BD4FF40073F7E7022010BD02460220D5
:10512000002902D00020C2F8BC127047D0F8B802A3
:10513000C0F8041200207047D0F8B802C0F810225E
:10514000C0F80812002070472DE9FC410546D0F850
:10515000B87200208DF80000ADF80400064608780B
:105160000C4610F0600121D020293BD1E288AAB181
:105170000006607807D5D5F8BC128B683946984789
:10518000E288394626E087F80002A07987F8010214
:10519000E2883946284600F06AF828E0D5F8BC12C3
:1051A000607800228B682146984720E0607820B123
:1051B0000A2809D00B2815D110E095F89C02032885
:1051C00010D1022201A905E095F89C02032809D11B
:1051D00001226946284600F064F808E095F89C0230
:1051E000032804D02146284600F036F8022630462F
:1051F000BDE8FC8110B5D0F8B812A1B1D1F81422E5
:105200000AB1012010BD0122C1F81422D1F81022E8
:105210000263B1F8102293B2D1F80822812100F084
:1052200038FB002010BD022010BD10B5D0F8B4220C
:1052300052689047002010BD134610B50A46002161
:1052400000F08CFA002010BD134610B50A4600216C
:1052500000F01FFB002010BD10B50446802100F0B7
:10526000FDFA2046BDE81040002100F0F7BA10B565
:105270000323C0F85C21C0F89432C0F860211346C3
:105280000A46002100F06AFA002010BD10B5052181
:105290000023C0F894121A46194600F05FFA002065
:1052A00010BD10B50223C261C0F8943202621346E9
:1052B0000A46002100F0EDFA002010BD10B50421CF
:1052C0000023C0F894121A46194600F0E2FA0020B2
:1052D00010BD000010B50A46024903A000F0E2F834
:1052E000004810BDC00D002043444320436F6E664C
:1052F00069670000122008800048704760000020A5
:1053000010B50A46024903A000F0CCF8004810BDD1
:10531000C00D002043444320496E7465726661638A
:105320006500000004200880004870475C000020F1
:1053300010B50A46024903A000F0B4F8004810BDB9
:10534000C00D002053544D6963726F656C656374C2
:10535000726F6E696373000010B50A46024903A0BC
:1053600000F0A0F8004810BDC00D002053544D338C
:1053700032205669727475616C20436F6D506F7284
:105380007400000010B51A2008800A480168001D4A
:105390000468001D0068081809D008220649FDF7B6
:1053A00079FF0549042210312046FDF773FF0248BA
:1053B000801E10BDE8F7FF1F76000020F8B50446F8
:1053C0000020ADF8000048880D46010A082948D29F
:1053D000DFE801F04704091747473C45D4F8B0120D
:1053E000207C0A6819E0207C02260028D4F8B40248
:1053F00005D0C16A68468847014646703EE0816A2A
:10540000F8E7C0B206282CD2DFE800F0030A101437
:10541000181CD4F8B002426805E0694690471CE0C9
:10542000D4F8B0028268E2B1207CF6E7D4F8B0028A
:10543000C268F8E7D4F8B0020269F4E7D4F8B00221
:105440004269F0E7D4F8B0028269ECE7207C40B909
:10545000D4F8B402416B6846884701460EE0207CD0
:1054600020B129462046FFF7F7FEF8BDD4F8B40274
:10547000016B68468847014607204870BDF8000068
:1054800048B1EA8852B1824200D90246ADF8002004
:105490002046FFF706FFE8880028E6D12046FFF700
:1054A0000DFFF8BD70B5002300281ED0044600256E
:1054B00002E06D1CEDB2641C2678002EF9D10224A6
:1054C00004EB450414801278CA545B1C0322CA54AE
:1054D00000245B1C06E0CA545B1CDAB28C54521CDC
:1054E000D3B2401C0278002AF5D170BD01004FF004
:1054F000000004D0012901D0022901D00220704708
:105500000120704710B580B1D0F8B43213B1002338
:10551000C0F8B43209B1C0F8B012012180F89C1271
:10552000027000F0BFF8002010BD022010BD10B5C1
:10553000D0F8C002FCF750FFBDE81040FFF7D6BF1F
:1055400010B5D0F8C002FCF721FFBDE81040FFF70E
:10555000CDBF2DE9F0411746044651B1D4F8B4024D
:1055600042691AB194F89C02032851D00220BDE888
:10557000F081D4F89432002504F11400022B03D0FA
:10558000042B3AD0C3B33CE0D0E903639E4207D971
:10559000F11AC1608AB239462046FFF755FE12E083
:1055A0008068B0FBF3F103FB110199B9984211D364
:1055B000D4F8981288420DD2002211462046FFF7F7
:1055C00043FEC4F8985200231A461946204600F0BC
:1055D000C5F816E0D4F8B402C16829B194F89C0269
:1055E000032801D1204688478021204600F036F963
:1055F0002046FFF74BFE04E0FFE78021204600F045
:105600002DF994F8A002012804D184F8A05201E0F9
:10561000204690470020AAE770B51546044649B1D8
:10562000D4F8B40282691AB194F89C02032830D0ED
:10563000022070BDD4F8941204F5AA70032902D098
:1056400005291ED027E0D0E903218A420BD9531A3D
:10565000C3600846834200D303469AB229462046D7
:10566000FFF7EAFD17E0D4F8B402016929B194F814
:105670009C02032801D1204688472046FFF71EFEE2
:1056800009E000200146C4F89402204600F0E6F844
:1056900001E020469047002070BDD0F8C002FDF721
:1056A000D4B8000010B504461C481D49C0F8E842B3
:1056B000C4F8C0020160082141600221816000211C
:1056C0008161C1610162FDF70FFA08B1FCF7FEF8D4
:1056D0000022D4F8C0021823114604F53074FCF7F8
:1056E00023FE5823002280212068FCF71DFEC023E2
:1056F000002281212068FCF717FE4FF488730022F6
:1057000001212068FCF710FE4FF4807300228221F3
:105710002068FCF709FE002010BD0000F0190020F1
:10572000005C00400A0601F07F01D0F8C00201EBE6
:10573000810100EBC10002D590F82A00704790F873
:105740006A01704710B51C461346D0F8C0022246C5
:10575000FDF784F8BDE81040FFF7C8BE10B5D0F8DB
:10576000C002FDF7ABF8BDE81040FFF7BFBE70B553
:105770000022044640231146FFF7E4FF402601259E
:10578000C4F864613346002280212046C4F8585191
:10579000FFF7D8FF6662A56184F89C520020C4F828
:1057A00094026060C4F8A402D4F8B80228B1D4F816
:1057B000B4020021426820469047002070BD90F856
:1057C0009C12042903D190F89D1280F89C120020AD
:1057D000704710B590F89C12032904D1D0F8B41288
:1057E000C96901B18847002010BD017400207047CD
:1057F00010B5D0F8C002FDF71EFABDE81040FFF763
:1058000075BE70B5044600F52A70054600F04AF8EA
:105810000120C4F89402B4F8AE02C4F8980294F8D7
:10582000A80210F01F010AD001290DD0022910D0C2
:1058300000F08001204600F011F8002070BD2946DC
:10584000204600F09EF8F8E72946204600F0CAF905
:10585000F3E72946204600F01DF9EEE710B5D0F831
:10586000C002FDF744F8BDE81040FFF73FBE10B599
:10587000D0F8C002FDF7FAF9BDE81040FFF736BED8
:1058800090F89C1280F89D12042180F89C12002050
:10589000704710B5D0F8C002FDF762F8BDE81040BF
:1058A000FFF724BE0A7802704A7842708A78CB7873
:1058B00002EB032242800A794B7902EB03228280B9
:1058C0008A79C97902EB0121C18070470246002024
:1058D00011B1C2F8B41270470220704710B5D0F869
:1058E000B42202241AB11268904700B9002420465D
:1058F00010BD000070B50E461E4D89780446297013
:10590000012931D894F89C0202280BD003280FD02B
:1059100031462046FFF7A0FC29782046BDE87040BC
:10592000FFF783BCD9B10320616084F89C0209E0D1
:1059300071B16068884212D0C1B22046FFF775FC91
:10594000297861602046FFF7C9FF02280CD006E0E5
:10595000022084F89C0220466160FFF766FC204626
:10596000BDE87040FFF7AABC31462046BDE8704054
:10597000FFF772BCB800002010B5FFF778FF0020D9
:1059800010BD2DE9F0410A78002612F0600208D01F
:10599000202A01D0402A70D1D0F8B42292689047D2
:1059A0006DE04B78002201250A2B66D2DFE803F078
:1059B000405D6557650805652C29FFF7FFFC5EE033
:1059C00004468888D8B9C888C8B94888802816D2BB
:1059D00000F07F0794F89C02032810D084F89E7290
:1059E00039462046FFF704FF2046FFF767FC1FB14A
:1059F000022084F89C0242E084F89C523FE020465A
:105A00003BE0FFF777FF3AE0CB88012B35D190F8E8
:105A10009C32012B04D0022B02D0032B2DD104E0A9
:105A20008260012200F1080116E00122011D13E04D
:105A300090F89C22012A03D0022A01D0032A1CD10B
:105A4000CA88022A19D1C560D0F8A41209B103216D
:105A5000C160022200F10C01FFF723FC0FE049882E
:105A600001290CD1C0F8A45211E090F89C32012B0E
:105A700008D0022B06D0032B04D0FFF7EDFB3046F5
:105A8000BDE8F08149880129F9D1C0F8A422FFF7C7
:105A900015FCF4E72DE9F0410A460446107800278A
:105AA000097910F060030AD0202B01D0402B50D18F
:105AB000D4F8B40211468368204698478FE0C0F3BB
:105AC0004110012806D05078D0B301282AD00328ED
:105AD0003FD107E0D4F8B402114683682046BDE800
